:020000040000FA
:10000000020759C2AFF508810FFFFFC2AFF50881A3
:1000100021FFFFC2AFF5088133FFFFC2AFF50881B2
:1000200045FFFFC2AFF5088157FFFFC2AFF508815A
:1000300069FFFFC2AFF508817BFFFFC2AFF5088102
:100040008DFFFFC2AFF508819FFFFFC2AFF50881AA
:10005000B1FFFFC2AFF50881C3FFFFC2AFF5088152
:10006000D5FFFFC2AFF50881E7FFFFC2AFF50881FA
:10007000F9FFFFC2AFF508A10BFFFFC2AFF508A162
:100080001DFFFFC2AFF508A12FFFFFC2AFF508A10A
:1000900041758701002274FC12071F750A04750B55
:1000A00000780A120748740212078E7A007B0079E2
:1000B000081205577402120704850D82850E83E02D
:1000C000F47003A3E0F470030201FB850D82850E3A
:1000D00083E0F8A3E0F9E84970030201FB7402121F
:1000E0000784E0687003A3E069701075090102409D
:1000F00030C2AF75C9AB75C95B80FE53BEFBE59DD1
:10010000A2E650FAE5C654804449F5C6E59E547F00
:10011000644970F853C67FE59EA2E740FA53C68053
:10012000E59E547F70FA43BE049062707408F075C7
:100130000A00F50B780A1207487C807D017A007B63
:100140000079081205577402120704900186E0F541
:100150000AA3E0F50B7409780A120768E50A240877
:10016000FF53B4F375BC0075BC007CFC7D077A04BA
:100170007B0079081203807E09EFC3940A401C803B
:100180000774086E70027E467C007D087A007B0052
:10019000EEF91203800EEEC39F40E6A8BD850D82E6
:1001A000850E83E8F9E5BCF8E0687003A3E06970A8
:1001B0004A850D82850E83E0F8A3E0F974021207E8
:1001C00084E8F0A3E9F0850D82850E8374FFF0A327
:1001D000F07409F5D575D480750A01780A120748BC
:1001E000740212078E7A007B101205DD740212076A
:1001F00004C2AF75C9AB75C95B80FE750A04780A85
:10020000120748740212078E7A007B0079011205EA
:10021000577402120704850D82850E83E0F4700383
:10022000A3E0F47003020370850D82850E83E0F86D
:10023000A3E0F9E84970030203707402120784E036
:10024000F8A3E0F9850D82850E83E0687003A3E0D2
:10025000697010750900020830C2AF75C9AB75C965
:100260005B80FE74FF68700374FF696003020370B3
:1002700053BEFBE59DA2E650FAE5C654804449F51D
:10028000C6E59E547F644970F853C67FE59EA2E799
:1002900040FA53C680E59E547F70FA43BE049062D4
:1002A000707408F0750A00F50B780A1207487C8014
:1002B0007D017A007B007901120557740212070450
:1002C000900186E0F50AA3E0F50B7409780A12079D
:1002D00068E50A243FFF53B4F375BC0075BC007C8D
:1002E000FC7D077A047B0079011203807E02EFC354
:1002F0009403401C800774086E70027E467C007D6B
:10030000087A007B00EEF91203800EEEC39F40E6F0
:10031000A8BD850D82850E83E8F9E5BCF8E068701C
:1003200003A3E069704A850D82850E83E0F8A3E09F
:10033000F97402120784E8F0A3E9F0850D82850EB6
:100340008374FFF0A3F07409F5D575D480750A01A4
:10035000780A120748740212078E7A007B0212058F
:10036000DD7402120704C2AF75C9AB75C95B80FEAC
:1003700043BE03120091C2AF75C9AB75C95B80FE65
:1003800074F7120643E9FEAFC7740F5EF50A750BEA
:1003900000740B780A120735EA2400F8EB350BF9E4
:1003A000E82400E93480F9A2AFE433F50AC2AFEEE5
:1003B000C4540FFAE5C754F84AF5C7E9900980F02C
:1003C000E8A3F0A37470F0A374BDF0EC900985F07D
:1003D000EDFC900984E054E04CF09009867420F024
:1003E000A37442F07409F5D575D48075D601000068
:1003F00000000000000000000075D701E5D7A2E072
:1004000040FA8FC7E50AA2E092AF7F020206A9E593
:10041000096007E508D2AF024033E508D2AF020811
:1004200033E5096007E508D2AF02403BE508D2AFEB
:1004300002083BE5096007E508D2AF024043E50842
:10044000D2AF020843E5096007E508D2AF02404B8E
:10045000E508D2AF02084BE5096007E508D2AF0214
:100460004053E508D2AF020853E5096007E508D21A
:10047000AF02405BE508D2AF02085BE5096007E523
:1004800008D2AF024063E508D2AF020863E5096015
:1004900007E508D2AF02406BE508D2AF02086BE572
:1004A000096007E508D2AF024073E508D2AF020841
:1004B00073E5096007E508D2AF02407BE508D2AFDB
:1004C00002087BE5096007E508D2AF024083E50832
:1004D000D2AF020883E5096007E508D2AF02408B7E
:1004E000E508D2AF02088BE5096007E508D2AF0244
:1004F0004093E508D2AF020893E5096007E508D20A
:10050000AF02409BE508D2AF02089BE5096007E512
:1005100008D2AF0240A3E508D2AF0208A3E5096004
:1005200007E508D2AF0240ABE508D2AF0208ABE561
:10053000096007E508D2AF0240B3E508D2AF020870
:10054000B3E5096007E508D2AF0240BBE508D2AFCA
:100550000208BB0002055374F6120643890C740F9F
:10056000550CF50A750B00740B780A120735EA244E
:1005700000F8EB3480F9E82400E9350BF985C70B66
:10058000A2AFE433F50AC2AFE50CC4540FFAE5C7D5
:1005900054F84AF5C7740A120784E0FEA3E0FFEEA0
:1005A0004F602CEEFAEFFB88828983E08C828D838A
:1005B000F088828983A3A882A9838C828D83A3ACCF
:1005C00082AD83EA24FF1AEB34FFFBEA4B70D88537
:1005D0000BC7E50AA2E092AF7F030206A974F712E7
:1005E0000643ED900980F0ECA3F0A37462F0A374CD
:1005F00073F0A3E0541FF07409120784E0F50AA316
:10060000E0F50BE50A333354FC900985F074067865
:100610000A120768E50A900984F09009867412F0BE
:10062000A37442F075D11E75D601EA906271F0EBA9
:10063000A3F0906270E0D2E1F0E0A2E740FB7F021D
:100640000206A9250DC582C0E0E50E34FFC583C0B2
:10065000E0E50DC3958224F910AF0885830E8582ED
:100660000D800885830E85820DD2AFCEF0A3E520E4
:10067000F0A3780AE608F0A3DEFAEFF0A3E5812400
:10068000FBF8E608F0A3E608F0A30808E608F0A3E4
:10069000E608F0A315811581D0E0FED0E0F81581C1
:1006A0001581E8C0E0EEC0E022850E83850D82E072
:1006B000A3FEE0A3F520780AE0A3F608DFFAE0A3A2
:1006C000FFE0A3C0E0E0A3C0E0E0A3C0E0E0A3C07F
:1006D000E010AF0885820D85830E800885820D8528
:1006E000830ED2AFD083D08222250DF58210AF08C1
:1006F000F50D400C150E8008F50D4002150ED2AF19
:10070000850E832200C0D0250D10AF08F50D500CCA
:10071000050E8008F50D5002050ED2AFD0D022256F
:100720000D10AF08F50D400C150E8008F50D4002B8
:10073000150ED2AF22700422600D18C6C333C6084E
:10074000C633C6D5E0F4182274028000C0E0F40479
:100750001206E9D0E01207772275D00075813F7547
:100760000D80750E01020796600C08C6C313C618EB
:10077000C613C6D5E0F422CAC0E0E6F0A308DAFA50
:10078000D0E0FA22250DF582E4350EF58322250D01
:10079000FCE4350EFD2212009612079C000000803A
:1007A000FBFFFFFFFFFFFFFFFFFFFFFFFFFFFFFF5D
:1007B000FFFFFFFFFFFFFFFFFFFFFFFFFFFFFFFF49
:1007C000FFFFFFFFFFFFFFFFFFFFFFFFFFFFFFFF39
:1007D000FFFFFFFFFFFFFFFFFFFFFFFFFFFFFFFF29
:1007E000FFFFFFFFFFFFFFFFFFFFFFFFFFFFFFFF19
:1007F000FFFFFFFFFFFFFFFFFFFFFFFFFFFFFFFF09
:100800008318FFFF0C00007C41414141FFFFFFFFC7
:10081000FFFFFFFFFFFFFFFFFFFFFFFFFFFFFFFFE8
:10082000000102030405060708090A0BFFFFFFFF8A
:10083000020DFA021BCDFFFFFFFFFFFFFFFFFFFFCF
:10084000FFFFFFFFFFFFFFFFFFFFFFFFFFFFFFFFB8
:10085000FFFFFFFFFFFFFFFFFFFFFF02233EFFFF42
:10086000FFFFFF022315FFFFFFFFFFFFFFFFFFFF5B
:10087000FFFFFFFFFFFFFFFFFFFFFFFFFFFFFFFF88
:10088000FFFFFF021C43FFFFFFFFFFFFFFFFFFFF14
:10089000FFFFFFFFFFFFFFFFFFFFFF0222C8FFFF79
:1008A000FFFFFFFFFFFFFFFFFFFFFF0222EEFFFF43
:1008B000FFFFFF021A2301120A0A0A0257840100ED
:1008C000001C84025184010000B8151066820100EA
:1008D000008202024D84030000850202518401005F
:1008E00000B91510568203000087020251840100EE
:1008F00000BA15104682030000BB15120A020A0A4C
:100900000257840100001684025184010000FC1586
:100910001066810100008A02024D840300008E02ED
:10092000025184010000FD1510D6800300009002E2
:10093000025184010000FF1510F68003000000162C
:10094000025184010000FE1510E6800100009102B2
:10095000024D84030000A102FF0000B40000280043
:100960002800283075A000A000A000A0000008000A
:1009700008E001F00010001000100010001000103E
:100980000050005000500010001000D00700000080
:100990000000000F00010005003075070010000185
:1009A0000081FF00000000FFFFFFD725F525DD25B2
:1009B0001926FF02020208025000A0000000E8030E
:1009C0000257840100003184025184010000B416F2
:1009D000024B84010000E102025184010000B516BF
:1009E000024984010000F702025184010000B6169A
:1009F000024784010000F902025184010000B71689
:100A0000024584080000FA02025184010000B81671
:100A1000024384010000B916FF0100FF2002578441
:100A20000100002B840251840100001D1702418443
:100A30000000000000024D84030000280317008519
:100A40002C852C852C852C852C852C852C852C851E
:100A50002C852C852C852C852C3D2F4F2F372F1244
:100A600008080257840100002E840251840100000E
:100A7000601710A6820100004707024D84030000A2
:100A80004D07025184010000611710968202000098
:100A90004F07025184010000621710868202000095
:100AA0005707020202020202020202010D000000C8
:100AB00010010257840100001F84025184010000CC
:100AC000A317023984010000580702518401000075
:100AD000A417023B84010000C5800251840100007C
:100AE000A517023D840100006D83025184010000BE
:100AF000A617023F84010000B38002518401000068
:100B0000A717025D84010000688302518401000080
:100B1000A817025F84010000728302518401000063
:100B2000A917026784010000A1800251840100001E
:100B3000AA17025584010000E682025184010000D8
:100B4000AB17026184010000AC1701E803057710C0
:100B50000A120A0A0A0257840100002884025184FA
:100B600001000052181016820100001C08024D847A
:100B7000030000220802518401000053181006826D
:100B80000300002408025184010000541810F6816B
:100B90000300005518038000008070006180120A75
:100BA0000A0A0257840100002284025184010000D5
:100BB0009F1810D681010000AF08024D8403000089
:100BC000B308025184010000A01810C68103000080
:100BD000B508025184010000A11810B6810300007D
:100BE000A218120A0A1E025784010000348402511E
:100BF00084010000E318109681010000B808024D3E
:100C000084030000BC08025184010000E41810763F
:100C100081030000BE08025184010000E51810762F
:100C200082030000E618120A0A0A02578401000033
:100C3000138402518401000027191046810100002D
:100C4000C108024D84030000C7080251840100005E
:100C50002819103681030000C908025184010000E0
:100C600029191016810300002A191C02578401005B
:100C70000019840251840100006B19105080020099
:100C800000CA08024D84030000CC08024F84010012
:100C900000F4820251840100006B19106080020090
:100CA00000CB08024D84030000CE08024F840100EF
:100CB000000183FFFFFFFFFF000130750302010603
:100CC0000000000000000000000000000000000024
:100CD000000000000000000000000000FFFF060010
:100CE000800CE8030A0953656E736F7254616705DF
:100CF0001250002003020A00020105544920424C10
:100D0000452053656E736F722054616700D007E809
:100D100003E803E803E803E803A3350000A935AFBF
:100D200035B535C135BB35C735CD35D335104B65F8
:100D30007920507265737320537461746500025793
:100D40008401000025840251840100002E1A0265EE
:100D500084000000B515024D84030000B615024F53
:100D6000840100002F1AE5C754F84405F5C779013E
:100D70002200000080FB120D66B90003020DE4E4BE
:100D800079217808B800028004F709D8FCE47929B1
:100D90007802B800028004F709D8FCE49002807859
:100DA0003979148002F0A3D8FCD9FA781C9008B6DF
:100DB0007A01BA00028007E493A3F608DAF97AB858
:100DC0007B159008B778B079058015E493A3AD82C0
:100DD000AE838A828B83F0A3AA82AB838D828E83BB
:100DE000D8E9D9E77582EE7583E07407120E0C75A9
:100DF000827175830D7400120E0C75D00075813FE1
:100E0000751A80751B02759F00020D76C09FF59FB5
:100E1000E473D09F22D083D082C09FE493C0E0745B
:100E20000193C0E0740293F59F22E066701008A35E
:100E3000E066700A08A3E066700408A3E06622C3B7
:100E4000E7960809E7960809E7960809E79622C396
:100E5000E09608A3E09608A3E09608A3E09622C0D7
:100E60000AC3E096F50A08A3E096420A08A3E096B2
:100E7000420A08A3E096450A7001D3D00A22080866
:100E800008EAC0E0EBC0E086F0E7A4FA180986F0B3
:100E9000E7A42AFA180986F0E7A42AFA180986F0C6
:100EA000E7A42AFA1986F0E7A4FBE5F02AFA190864
:100EB00086F0E7A42BFBE5F03AFA190886F0E7A4E0
:100EC0002BFBE5F03AFA18180986F0E7A4C5F02BD9
:100ED000FBE43AFA1908E7C5F0C6A426F6E5F03BAC
:100EE000FBE43AFA1886F0E7A4F6E5F00826F6E403
:100EF0003B08F6E43A08F6D0E0FBD0E0FA22E4CF73
:100F0000C0E0E4CEC0E0E4CDC0E0E4CCC0E075F0E9
:100F100020E626F608E633F608E633F608E633F66A
:100F2000181818EC33FCED33FDEE33FEEF33FFC33E
:100F3000EC9709ED9709EE9709EF97191919400FEA
:100F4000FFEC97FC09ED97FD09EE97FE191906D500
:100F5000F0BFECF709EDF709EEF709EFF7191919EA
:100F6000D0E0FCD0E0FDD0E0FED0E0FF226016082B
:100F70000808C6C313C618C613C618C613C618C6B3
:100F800013C6D5E0EA22700908080822601618186E
:100F900018C6C333C608C633C608C633C608C63328
:100FA000C6D5E0EA22E627F60809E637F60809E69C
:100FB00037F60809E637F622E026F608A3E036F60B
:100FC00008A3E036F608A3E036F622E026F008A3F0
:100FD000E036F008A3E036F008A3E036F022C3E6DE
:100FE00097F60809E697F60809E697F60809E697DE
:100FF000F622C3E096F008A3E096F008A3E096F08E
:1010000008A3E096F022E056F608A3E056F608A3FF
:10101000E056F608A3E056F622E056F008A3E056A4
:10102000F008A3E056F008A3E056F022E0F608A38B
:10103000E0F608A3E0F608A3E0F622E6F008A3E64F
:10104000F008A3E6F008A3E6F022E0FAA3E0FBA391
:10105000E0FCA3E0FD22EAF0A3EBF0A3ECF0A3EDAB
:10106000F022E0F8A3E0F9A3E0FAA3E0FB22E8F025
:10107000A3E9F0A3EAF0A3EBF022CAC0E0E6F0A3F4
:1010800008DAFAD0E0FA22CAC0E0E0A3C582CCC5F3
:1010900082C583CDC583F0A3C582CCC582C583CD6F
:1010A000C583DAE6D0E0CA22C3E498F8E499F912DD
:1010B00010E98026C3E49AFAE49BFBE920E7E912F1
:1010C00010E9E498F8E499F922C3E498F8E499F96E
:1010D0001210E9E498F8E499F9C3E49AFAE49BFB66
:1010E00022EB20E7CFE920E7E0B90010BB0008E8D9
:1010F0008AF084F8AAF022E4FBC8FA22EB70227B83
:1011000010C833C8C933C9335007C39AC3DBF28050
:10111000069A50012ADBEAC833F4C8C933F4C9FA85
:101120002275F008E4C833C8C933C933C99AC99BCA
:101130005004C92AC93BD5F0ECFBC833F4C8E4C954
:10114000FA22600D08C6A2E713C618C613C6D5E07A
:10115000F322600C08C6C313C618C613C6D5E0F444
:1011600022700422600D18C6C333C608C633C6D524
:10117000E0F41822251A10AF08F51A400C151B8050
:1011800008F51A4002151BD2AF2200C0D0251A1054
:10119000AF08F51A500C051B8008F51A5002051B04
:1011A000D2AFD0D022251AF58210AF08F51A400C24
:1011B000151B8008F51A4002151BD2AF851B832230
:1011C000251AF582E4351BF58322251AF8E4351B30
:1011D000F922251AFAE4351BFB22251AFCE4351BFB
:1011E000FD22E473251AC582C0E0E51B34FFC583E8
:1011F000C0E0E51AC3958224F810AF0885831B85EB
:10120000821A800885831B85821AD2AFCEF0A3E5AF
:1012100020F0A3780AE608F0A3DEFAEFF0A3E58158
:1012200024FAF8E608F0A3E608F0A3E608F0A3081D
:1012300008E608F0A3E608F0A315811581D0E0FECA
:10124000D0E0F8158115811581E8C0E0EEC0E022FC
:10125000251AC582C0E0E51B34FFC583C0E0E51A4E
:10126000C3958224F910AF0885831B85821A8008F4
:1012700085831B85821AD2AFCEF0A3E520F0A37838
:101280000AE608F0A3DEFAEFF0A3E58124FBF8E616
:1012900008F0A3E608F0A30808E608F0A3E608F0C3
:1012A000A315811581D0E0FED0E0F815811581E805
:1012B000C0E0EEC0E022851B83851A82E0A3FEE039
:1012C000A3F520780AE0A3F608DFFAE0A3FFE0A385
:1012D000C0E0E0A3C0E0E0A3C0E0E0A3C0E0E0A382
:1012E000C0E010AF0885821A85831B800885821AAA
:1012F00085831BD2AFD083D082020E12851B8385DB
:101300001A82E0A3FEE0A3F520780AE0A3F608DF46
:10131000FAE0A3FFE0A3C0E0E0A3C0E0E0A3C0E0E8
:10132000E0A3C0E010AF0885821A85831B80088582
:10133000821A85831BD2AFD083D08222C0D0251AD7
:10134000C582C0E0E51B34FFC583C0E0E51AC39544
:101350008224F310AF0885831B85821A8008858359
:101360001B85821AD2AFC8F0A3E9F0A3EAF0A3EB81
:10137000F0A3790AE709F0A3D8FAECF0A3EDF0A303
:10138000EEF0A3EFF0A3D0E0F0A3D0E0F0A3D0E024
:10139000F0A3E520F0A3E5F0F0A322851B83851AD6
:1013A00082E0C0E0A3E0F9A3E0FAA3E0FBA3780A9F
:1013B000E0F608A3DFFAE0FCA3E0FDA3E0FEA3E073
:1013C000FFA3E0C0E0A3E0C0E0A3E0F5D0A3E0F518
:1013D00020A3E0A3F5F010AF0885831B85821A8057
:1013E0000885831B85821AD2AFD082D083D0E0F8E3
:1013F000D0E03274048006740280027401C0E0F40C
:10140000041211A5D0E012107A2274048004740230
:101410008000CCC0E0EDC0E0E51AC39CCCAD1B5011
:10142000011D10AF068C1A8D1B80068C1A8D1BD2E5
:10143000AF121087D0E0FDD0E0FC22D083D082E94B
:10144000C0E0E493A3C386F0C5F095F0F908E493F7
:10145000A386F0C5F095F0700BE493A3C399400503
:10146000E9048002A3E475F002A42582F582E5F088
:101470003583F583D0E0F9E493A3C0E0E493C0E0C2
:1014800022D083D082ECC0E0EDC0E0E493A3FCE482
:1014900093A3FDED4C600D1214CDEC24FFFCED3454
:1014A000FFFD80EFE493A3FCE493A3FDED4C600DFE
:1014B00012150CEC24FFFCED34FFFD80EFD0E0FDB5
:1014C000D0E0FCE493A3C0E0E493C0E022C0E0C31A
:1014D000E49396087401939618400FE4936670089D
:1014E00008740193661870007019A3A3C3E493965F
:1014F000087401939618A3A3400DD0E0D0E0D0E08B
:101500000214BDA3A3A3A3A3A3D0E022C0E0C0F014
:1015100088F0E4936670080874019366187000A858
:10152000F0A3A3700BD0F0D0E0D0E0D0E00214BD67
:10153000A3A3D0F0D0E022FF74F6121250EAFEEB23
:10154000FF8C0A8D0BEE2434F8E43FF9E8FCE9FD4A
:10155000EE2435121872FAEE2437121872F8850A42
:10156000F0A4C885F00C850BF0A4250CF9EA28F846
:10157000E439F97A257B001210E9EA8C828D83F038
:10158000FA131313541FF8EE28F8E43FF9E8245D2A
:10159000F582E439F583E0C0E074075AF8D0E0B88A
:1015A00000028004C313D8FCA2E0EE50082434F5F6
:1015B00082E43F80182436121872F5F0EA84A8F00D
:1015C000EE28F8E43FF9E82438F582E439F583E0C1
:1015D000F97F030212FC74F7121250EAFEEBFFEEE1
:1015E0002434121872C0E0EE2435F582E43FF5830E
:1015F000D0E0F08E828F83A3A3A3A3A3A3A3C08272
:10160000C0838E828F83A3A3A3A3A31216DBD083F0
:10161000D082E0C398F50AA3E099F50BEE247F127F
:1016200018726401705DEE24801216D58E828F834D
:10163000A3A3A3A3A3A3A3121A158E828F83A3A38C
:10164000A3A3A3E0FAA3E0FBC3EA9CEB9D5010C365
:10165000EC98ED99402DC3EA98EB995026800EC383
:10166000EA98EB994007C3EC98ED9940167CD27D3F
:1016700004EEFAEFFB122BC5EE247FF582E43FF572
:1016800083E4F0AC0AAD0BEEFAEFFB121538E9F982
:101690001222BA7F020212FCC082C083851A8285A0
:1016A0001B831216DBC3EA9CEB9D5010C3EC98ED34
:1016B00099401BC3EA98EB995014800EC3EA98EB4B
:1016C000994007C3EC98ED994004790180027900B4
:1016D000D083D08222F582E43FF583E0F8A3E0F9DD
:1016E00022EAC39CFAEB9DFB2274EF121250900386
:1016F00098E064086005E06407702A9061C8E060C3
:10170000249003C6E0F4601DE0F875F00AA4C8AAAE
:10171000F02AF974C828FE740339FF8E828F83A3E0
:10172000A3A3E070030217F7906060E0C0E0EE242E
:1017300068F582E43FF583D0E0F0750E42750F0541
:10174000750A00750B00E5D914F50CE5D95403F5BD
:10175000106012740365106043E50C600AEE2467A4
:101760001218727002807590053DE06401601F12CE
:10177000186F60047A0480027A00E50CC39AFA9527
:10178000E0FB122A6F8A0A8B0BEA450B7005122EBA
:1017900005806412186F70048A0E8B0FE50C6012BE
:1017A000850E82850F83F50DE5D9F0A3150DE50DA6
:1017B00070F612186F604474FC250CF50C780E124C
:1017C00013F7AC0CA910EEFAEFFB122C7F74021287
:1017D000118AE97026AA0AAB0B123441793D8E8238
:1017E0008F83A3A3A3A3E0FA7B001228D1EEFAEF24
:1017F000FB122BE9122C917900806F740365106045
:1018000051850C1275130078121213F7AC0EAD0F40
:10181000AA0AAB0B122C43740212118AEE2468122E
:10182000187264807004747F8001E0F50E780E12E7
:1018300013FBE510F50E780E1213FBA90CAC0AADE4
:101840000B9003C6E0FA7B001228A7740212118ADB
:101850008013900398E06408600BAC0EAD0FEEFAB5
:10186000EFFB122D03122E1179017F0A0212FCEEFA
:101870002482F582E43FF583E02274F21212507460
:10188000FC121174EAFEEBFF890BA2AFE433F50AF8
:10189000C2AF021936E0601B780E1213F7AC0DA927
:1018A00010EEFAEFFB122C79740212118A740425DF
:1018B0000DF50D7401250DF5D98510D9E50D6018CC
:1018C000F50C850E82850F83E0F5D9A385820E8500
:1018D000830F150CE50C70EA75E195EE2463F8E4CE
:1018E0003FF97A007B00A2AFE433F50DC2AF121AC4
:1018F00011EC4D603288828983E0FAA3E0FB8A8292
:101900008B83121A1588828983ECF0A3EDF08A820A
:101910008B83E4F0A3F0121A11EC4D700A888289CF
:1019200083A3A3E4F0A3F0E50DA2E092AF1234414B
:101930009004D9E004F0EE24631216D5E8496064FF
:10194000EE24631218722402F8A3E03400F98882AE
:101950008983E5822402F50EE43583F50FE0F50D69
:10196000A3E0F510EE2462121872640170369061E3
:10197000D0E0F812186F60047C0480027C00748050
:10198000C398FA95E0FBE50D2CF8E43400F9E8245F
:1019900002F8500109C3EA98EB99A2D265D033400E
:1019A000030218959004D9E0604D9004DAE0F890B5
:1019B00004D9E0C398500C7402650B703A9004DBB4
:1019C000E060348E828F83A3A3A3A3E0851A82856F
:1019D0001B83121A0774021211C0E8121A0790042E
:1019E000D8E028F074021211DAAA1AAB1B7901129E
:1019F00028FB9004D9E4F0E50AA2E092AF74041247
:101A0000118A7F070212FCF0A3E4F09004D9E0F8F9
:101A10002288828983E0FCA3E0FD22FF852187855F
:101A200022C622C0E074EB12133CA2AFE433F50AE5
:101A3000C2AF759B00906182E0A2E05030E591A2B8
:101A4000E0502A7591FE740165217021121BB612B7
:101A50002D51121BA412140A122064740412118A4C
:101A6000E9640170057901122D991216E9906182DD
:101A7000E0A2E5505DE591A2E550577591DF900336
:101A800098E064076005E06408702F121BB67401CB
:101A90006521703E122D51121BA412140A122064EB
:101AA000740412118AE9640170057901122D997983
:101AB00001EEFAEFFB12187A8018E0640D701390B3
:101AC00003BAE004F064287002E4F07A00E0F9124E
:101AD0002E17906182E0A2E64003021B79E591A2F5
:101AE000E64003021B797591BF900398E06405708E
:101AF00008122D39122D458003122D3F7521001239
:101B00002DA5E9900399F07900122D99122B357AC1
:101B1000017B00900397E0F9123411907803E064A0
:101B2000427056900541E014F0704EC2AF121B3067
:101B300000782AD0E0F618D0E0F6E59F5407F87058
:101B400005750FFF8003750F7FC4C0E07829E6F5A7
:101B50000C08E6550FF50D740B780C121152D0E0FD
:101B6000250CF8906270E0A2E740F8E8C333906279
:101B700072F0906270E0D2E0F0906181E0A2E350F8
:101B800009E5E9A2E3500375E9F7A3E0A2E75009EC
:101B9000E591A2E7500375917FE50AA2E092AF7F3D
:101BA0000802139B8E828F83E0F8A3E0C82416F509
:101BB00082E438F583229003C6E0F875F00AA4C8E1
:101BC000AAF02AF974C828FE740339FF22C0E0C0C5
:101BD000D0C082C083906183E0A2E05009E5BFA23B
:101BE000E0500375BFFEE0A2E15009E5BFA2E1505D
:101BF0000375BFFDE0A2E25009E5BFA2E250037504
:101C0000BFFBE0A2E35009E5BFA2E3500375BFF7B5
:101C1000E0A2E45009E5BFA2E4500375BFEFE0A2E3
:101C2000E55009E5BFA2E5500375BFDFE0A2E6502D
:101C300009E5BFA2E6500375BFBFD083D082D0D0E4
:101C4000D0E032C0E074F212133CE5A7A2E6500FD8
:101C5000E5A1A2E6500953A7BF75A1BF121C97E5E5
:101C6000A7A2E5500CE5A1A2E5500653A7DF75A198
:101C7000DFE5A7A2E15009E5A1A2E1500375A1FDAE
:101C8000E5A7A2E2500CE5A1A2E2500653A7FB751E
:101C9000A1FB7F0102139B74F71212507521019072
:101CA0000398E064067015122CB58A828B83A3A377
:101CB000A3A3A3A3E0FAA3E0FB122D27A2AFE43372
:101CC000FED2AF90039EE0640170187A207B0090F2
:101CD0000397E0F912352B7A207B00900397E0F907
:101CE000123417906182E0D2E6F090053EE0602168
:101CF00085C622801690039DE064017008E5C654F5
:101D0000F84405F5C653BEFC121A1C740165216027
:101D1000E4EEA2E092AF7F020212FCFF8E238F243A
:101D2000858228858327851A82851B83E0CEA3E0E0
:101D3000CF852882852783EBC9EAC8EDCBECCA752D
:101D4000F010C3E833C8E933C9EA33CAEB33CBC375
:101D5000EA9EF526EB9FF525B35004AB25AA26ECA9
:101D600033CCED33CDD5F0DAAE23AF242274E912B3
:101D7000125074FA121174EAFEEBFF8C0C8D0D12E6
:101D80002D5DEAF8EBF9ECFAEDFB8E828F831210F1
:101D90006E900398E024F7C394055006751601026F
:101DA0001ED4122CB58A0A8B0BEA450B7003021E57
:101DB000D1EEFCEFFDAA1AAB1B122D57850A8285C6
:101DC0000B83A3A3780E12102C9083AF780E121001
:101DD00006851A82851B83781212102C9083AF78A7
:101DE00012121006780E7912120E3F501F780E79DB
:101DF00012120FDE9083C7780E120E5F4047850ED9
:101E000016850F1785101885111980459083C78591
:101E100012168513178514188515197816790E1260
:101E20000FDE7816120E5F501C75160075170075C0
:101E3000180075190178167912120FDE7816790ECE
:101E4000120FA5800C75160175170075180075190D
:101E50000074097816120F869083FB780E12102CEE
:101E60007816790E120EFE850A82850B83A3A3A332
:101E7000A3A3A3121EF21210E9880E890FE4F51035
:101E8000F5117816790E120FA574041211C0121EE6
:101E9000F21210E9E8FA8A0EE4F50F7816790E12BC
:101EA0000E3F50077816790E120FDE900398E0640B
:101EB00008600AE064066005E0640570209083BF56
:101EC0007816120E5F50169083BB7816120FB880EA
:101ED0000C751600751700751800751900850C82B1
:101EE000850D83781612103B740612118A7F10023A
:101EF00012FCE0F8A3E0F97AD07B032274F7121207
:101F000050122D6F90053CE064017010906245E422
:101F1000F0A3F053F4F343FE0C5390F3122D15E5A8
:101F2000C654B84441F5C6E59E5447644170F890E4
:101F30006185740FF090053AE0F47002A3E0604E02
:101F400090053BE0600814601B14602E8040750A09
:101F500001750B0090053AE0780A121161E50AF468
:101F60005280802A750A01750B0090053AE0780AC4
:101F7000121161E50AF452908014750A01750B0084
:101F800090053AE0780A121161E50AF452A079004E
:101F90007F020212FC74F7121250E9FEEAFF122DC2
:101FA0006F74016E700C7A807B00900397E0F912D9
:101FB0003411903620E493F46008E493F9122B294D
:101FC000800953C6B8E59E544770FA122D1B900540
:101FD0003CE064017003122B4790053AE0F4700274
:101FE000A3E0604B90053BE0600814601A14602C7D
:101FF000803D750A01750B0090053AE0780A1211D0
:1020000061E50A42808028750A01750B0090053A47
:10201000E0780A121161E50A42908013750A017591
:102020000B0090053AE0780A121161E50A42A0120D
:102030002CB58A0A8B0BA80AA90BE8496014E5E1C4
:1020400070FCE82414F582E439F583E0F46003E0E1
:10205000F5E174016F700A7A01900397E0F9123488
:102060009B021F9074F11212508A0A8B0B8C0C8DFC
:102070000D9083AF780A121006740F1211C0780EFB
:1020800012102C9083AF780E121006780A790E1277
:102090000E3F9083C75010780A790E120FDE780A2F
:1020A000120E5F4014800E780E790A120FDE780E41
:1020B000120E5F50047901800279007F080212FC41
:1020C00074ED1212508A0A8B0B8C0C8D0D9083AF1D
:1020D000780A12100674131211C0780E12102C9088
:1020E00083AF780E121006780E790A120E3F401157
:1020F000780A790E120FDEAA0AAB0BAC0CAD0D807C
:102100002275120075130075140075150178127987
:102110000E120FDE7812790A120FA5AA12AB13ACB9
:1021200014AD157F0C0212FC9083AF780A12102CAC
:102130008A828B83780A1210197F040212FC74F5CC
:102140001212508C828D83780A12102C8A828B8313
:10215000780A120FF2122196C3E09CF0A3E09D12C0
:10216000218840229083A7780A12102C8A828B83C0
:10217000780A120FCB8A828B83A3A3A3A3E0242027
:10218000F0A3E0344EF080A0F088828983C3E0940D
:1021900020A3E0944E22EA2404F8E43BF98C828DDB
:1021A00083A3A3A3A3E0FCA3E0FD88828983227418
:1021B000F5121250E9FE9004F4E0FAA3E0FBEE29D8
:1021C000F8E433F974D628F582748239F583E02A6D
:1021D000F50AA3E03BF50B780A1213F790839F12E0
:1021E000104A121D1C740212118A8A0A8B0B8C0C65
:1021F0008D0D7410780A120F6DAA0AAB0B7F0402C2
:1022000012FC74F11212508A0E8B0F8C108D117407
:10221000111211C012140E74111211C0E02401F534
:102220000AA3E03400F50BE4F50CF50D780E790AFD
:10223000120E7E9083B7780A12102C780E790A124B
:102240000E7EAA0EAB0FAC10AD11121D1C74021243
:10225000118A8B0BEA450B60047A0180027A00EC4C
:102260002AFCE43DFD74131211C0E0F8A3E0F9E884
:10227000FEE9FFECF8EDF97A717B021210E9880AA9
:10228000890BE4F50CF50D8E828F83780A12103BD2
:10229000ECF8EDF97A717B021210E98A0A8B0B7463
:1022A00005780A1211618E828F83A3A3A3A3E50A86
:1022B000F0A3E50BF07F080212FCC082C083E99016
:1022C0006000F0D083D08222C0E074F212133CA2EE
:1022D000AFE433FED2AFE589A2E05003123261755C
:1022E0008900C2C5EEA2E092AF7F0102139BC0E05D
:1022F00074F212133CA2AFE433FED2AFE58AA2E639
:102300004006E58AA2E75003123261758A00758A99
:1023100000C2EB80CFC0E0C0D0E8C0E0E9C0E0A9D7
:10232000A8D2AF758B00C2E8E9A2E7E433F8E9A2CE
:10233000E792AFD0E0F9D0E0F8D0D0D0E032C0E002
:10234000C0D0E8C0E0E9C0E0A9A8D2AFC2C7751C00
:1023500000E9A2E7E433F8E9A2E792AFD0E0F9D0D0
:10236000E0F8D0D0D0E032C2AF02000022120E1549
:10237000CAAA07120E15FCAA07120E1525AB0712E2
:102380000E15C4AB07120E1505AC07120E15E8ACFE
:1023900007120E15CC8C07120E15FE8C07120E15A7
:1023A000278D07120E151E8E07120E15728E07123C
:1023B0000E15628F07120E15B69807120E15C998E2
:1023C00007120E15FA9807120E15349907120E15FA
:1023D0008D9907120E15D49907120E151C9A071223
:1023E0000E154B9A07120E157A9A07120E15B19A0E
:1023F00007120E15F89A07120E15119B07120E15EB
:10240000669B07120E157F9B07120E15CD9B0712B8
:102410000E15079C07120E156BBB06120E156EBC2F
:1024200006120E15A7BC06120E15CABC06120E1512
:10243000DCBC06120E151ABD06120E1596BD06124C
:102440000E155EBE06120E1580BE06120E1517BFC3
:1024500006120E1569BF06120E159ABF06120E154A
:10246000A7BF06120E1511C006120E1568C006127F
:102470000E156BC006120E15A4C006120E15A7C0CD
:1024800006120E15B1C006120E1505C106120E1564
:1024900046C106120E1579C106120E15B6C10612F6
:1024A0000E15B8C206120E155CC306120E15C5C372
:1024B00006120E1503C406120E15D59007120E153E
:1024C000FD9007120E152A9107120E156291071240
:1024D0000E15C09107120E150C9207120E1573926D
:1024E00007120E15B39207120E15F09207120E1571
:1024F0001E9307120E15C89307120E15D2930712DA
:102500000E15DF9307120E15129407120E151E9466
:1025100007120E15369407120E15409407120E1569
:1025200034DE07120E1542DE07120E155ADE0712B0
:102530000E1571DE07120E157DA805120E1527A9BE
:1025400005120E153AAA05120E15B6AA05120E1599
:10255000D4AB05120E1510AC05120E15ABAC05125E
:102560000E158FAD05120E155BAE05120E15E9AFF7
:1025700005120E155AB005120E1514B105120E15DE
:1025800006B205120E1546B205120E15FAB2051264
:102590000E152CB305120E1522B505120E1564B5D5
:1025A00005120E1582B505120E15E8B505120E15A9
:1025B000B7B605120E157BB705120E159AB905129E
:1025C0000E15FBF804120E15E5F904120E1590FA1B
:1025D00004120E15E1FA04120E1591FB04120E15E9
:1025E00002FC04120E15E7FC04120E151BFD04126A
:1025F0000E1514FE04120E1551FE04120E152DFFB9
:1026000004120E156CFF04120E1588FF04120E152D
:10261000F3C407120E1577C507120E15A2C50712CF
:102620000E15BCC607120E15CE9407120E15E494B3
:1026300007120E15029507120E15139607120E15A6
:102640001D9607120E15489707120E153F98071290
:102650000E15AC9807120E1507E106120E1537E29B
:1026600006120E156EE206120E15B8E206120E15CF
:102670007BE406120E15698405120E15F584051209
:102680000E15598605120E15658605120E15A086C3
:1026900005120E150F8705120E15188805120E1556
:1026A000218905120E15E88905120E15458B0512B4
:1026B0000E15638B05120E15808B05120E152D8CD1
:1026C00005120E15AA8C05120E15D28C05120E15C8
:1026D0009C8F05120E15A18F05120E15BA910512C9
:1026E0000E15089205120E15789205120E15B69267
:1026F00005120E15929305120E15529405120E1521
:102700009E9405120E15A19405120E15E59405125E
:102710000E152D9505120E156C9505120E158E953C
:1027200005120E15C29505120E15259605120E15E9
:102730004AE606120E1558E606120E15ABE606120C
:102740000E15CAE606120E150FE706120E1553E80F
:1027500006120E15EEE806120E1532E906120E15D7
:102760005CE906120E15CBE906120E1511EA0612E7
:102770000E1588EA06120E1539EB06120E1500B07A
:1027800004120E1510B004120E15B1B004120E157D
:102790000DB104120E15CAB104120E15E6B20412E0
:1027A0000E1518B304120E1547B304120E15F4B427
:1027B00004120E156BB704120E15DBB904120E15B8
:1027C000CDBA04120E15C6BB04120E15CDBD0412EF
:1027D0000E15C1C004120E15F0C104120E15F4C37B
:1027E00004120E1504C504120E1593C604120E151C
:1027F00084C704120E15D2C704120E1541C8041264
:102800000E1565C804120E15B6C804120E1557CD64
:1028100004120E1558CE04120E15B9CE04120E1560
:10282000E4CE04120E15AACF04120E1592880712D8
:102830000E159C8807120E15E18807120E15F588F3
:1028400007120E15858907120E15BE8907120E157F
:10285000F98907120E15228A07120E15768A0712B9
:102860000E158B8A07120E15AD8A07120E15C28A35
:1028700007120E15D68A07120E15EB8A07120E15CF
:10288000258B07120E15518B07120E159A8B071206
:102890000E150C8C07120E154F8C07120E15798C25
:1028A00007120E15A48C07120E155CD907120E150F
:1028B00098F505120E157BF605120E15F6F60512A3
:1028C0000E1531F705120E1582F805120E1510F9C6
:1028D00005120E15A2FB05120E1554FC05120E155D
:1028E00060FD05120E15D3FE05120E152CFF051204
:1028F0000E15008007120E15438007120E15C780B3
:1029000007120E159E8307120E1561BE07120E15D3
:1029100013BF07120E150FC007120E154EC0071277
:102920000E15A8C007120E15C1C807120E1524C92E
:1029300007120E15C1C907120E15F6C907120E159A
:1029400026CA07120E1561CA07120E1581CA071290
:102950000E154BEB06120E15D7EB06120E1596EC64
:1029600006120E15AEED06120E15C8EF06120E1564
:102970003A9B06120E155F9B06120E152C9C061232
:102980000E15009D06120E156D9D06120E15AD9DBD
:1029900006120E15499E06120E157D9F06120E1583
:1029A00058A006120E15B7A006120E1543A1061266
:1029B0000E15B1A106120E153DA206120E1583A228
:1029C00006120E15F5A206120E1587A306120E1595
:1029D00028A406120E1548A406120E1590A406127D
:1029E0000E15D9A406120E15F5A406120E151BA578
:1029F00006120E1595A506120E15A3A506120E15A4
:102A000032A606120E159BA606120E15FFEF061231
:102A10000E1584F006120E15C6F006120E15AAF158
:102A200006120E1517F206120E155BF206120E159F
:102A30009FF206120E15CCF206120E15F4F20612D3
:102A40000E152CF306120E156AF306120E1591F3ED
:102A500006120E150BF406120E1555F406120E157D
:102A6000A7B905120E1546BB05120E157EBD05123F
:102A70000E15D2BD05120E15FDBD05120E15D9BEDF
:102A800005120E1509BF05120E1538BF05120E15D9
:102A90004BBF05120E158CBF05120E15B9BF0512DE
:102AA0000E1507C005120E1543C005120E1588C07D
:102AB00005120E15D5C005120E154FC105120E15C3
:102AC00090C305120E157AC505120E15B6C505126E
:102AD0000E1545C705120E158AC705120E15FDC73E
:102AE00005120E1552C805120E1557C805120E15FF
:102AF000E1C805120E1500CA05120E1511CA0512FD
:102B00000E15243600120E159D3600120E15573C78
:102B100000120E15623D00120E150B3F00120E152D
:102B2000993F00120E15E3E404120E1564E5041239
:102B30000E1591E504120E15DAE504120E15DBE60A
:102B400004120E1534E704120E15B0E804120E1527
:102B500032E904120E154DE904120E15BEE90412F5
:102B60000E157BEA04120E153EEB04120E15CCEB8B
:102B700004120E1583EC04120E1596EC04120E15B9
:102B80002FED04120E15C6ED04120E15EDED041214
:102B90000E1556EE04120E15A0EE04120E15EEEEF2
:102BA00004120E1595EF04120E1533F004120E15D3
:102BB000C0F004120E1531F104120E1578F1041252
:102BC0000E15D0F104120E1502F204120E15C3F206
:102BD00004120E15C6F304120E150FF404120E158E
:102BE0002CF404120E154BF404120E157EF504128B
:102BF0000E1535F604120E155AF604120E156FF660
:102C000004120E15DFF604120E1520F704120E152D
:102C100044F804120E15C5F804120E15CEB10612B2
:102C20000E1519B206120E1525B206120E15F9B2BE
:102C300006120E1510B306120E154DB306120E1520
:102C40007EB306120E15B6B306120E150CB406129C
:102C50000E1522B406120E155EB406120E1571B4CE
:102C600006120E1598B406120E15CCB406120E15E7
:102C7000F2B506120E153CB706120E1538B806123C
:102C80000E154EB906120E15EF3F00120E15C1D8E3
:102C900005120E15F0D805120E1542DC05120E15A0
:102CA00099DD05120E1558DE05120E15BFE105124D
:102CB0000E15ABE205120E15FDE205120E1517E317
:102CC00005120E1549E305120E1554E305120E15F3
:102CD0005DE305120E150FE405120E15DFE4051273
:102CE0000E1526E505120E158CE505120E15FEE5EE
:102CF00005120E15FD9605120E153D9A05120E15BC
:102D0000439A05120E1502A105120E1527A50512EC
:102D10000E156F9C07120E15059D07120E151B9DB3
:102D200007120E15749D07120E15B89D07120E1589
:102D3000F29D07120E158A9E07120E15F99E0712B4
:102D40000E15029F07120E150E9F07120E15289FD3
:102D500007120E15529F07120E15679F07120E15C8
:102D6000C99F07120E15F09F07120E155084071207
:102D70000E155D8407120E15778407120E15AA84AE
:102D800007120E15E88407120E154D8507120E1551
:102D9000628507120E156D8507120E157A850712CA
:102DA0000E15918507120E159F8507120E15AA851F
:102DB00007120E15B68507120E15C58507120E15DA
:102DC000D08507120E15F38507120E159786071288
:102DD0000E15A78607120E15C18607120E15DE8680
:102DE00007120E15F98607120E151E8707120E150B
:102DF000298707120E153E8707120E1552870712F4
:102E00000E15B38707120E15B98707120E15BF8767
:102E100007120E15C58707120E15DD8707120E154E
:102E2000108807120E15B78D06120E154E8E06125B
:102E30000E15E68E06120E15D68F06120E150D9083
:102E400006120E15209006120E158E9006120E1503
:102E5000299206120E15509206120E15F2920612C3
:102E60000E15279306120E15389306120E15B19300
:102E700006120E15D29306120E15EA9306120E15BF
:102E8000429506120E154B9706120E159B990612C7
:102E90000E159E9A06120E15ED9A06120E1534CADC
:102EA00005120E1531CB05120E151CCC05120E1590
:102EB00026CC05120E1548CC05120E1554CC051261
:102EC0000E15A6CD05120E15D5CD05120E1505CF82
:102ED00005120E1547CF05120E1573D005120E15EB
:102EE00049D105120E159BD105120E15FAD1051206
:102EF0000E1531D205120E156CD205120E1507D61D
:102F000005120E1520D605120E15A2D605120E15A5
:102F1000B0D605120E1505D705120E1513D70512DA
:102F20000E1580D705120E15F2D705120E1538D8DA
:102F300005120E15BEA606120E15E0A606120E15F7
:102F4000CAA806120E156FAC06120E15B2AD061207
:102F50000E158CAE06120E158FCA07120E15B4CAC6
:102F600007120E1525CB07120E1529C406120E15D1
:102F700032C406120E153BC406120E156CC506129D
:102F80000E158BC706120E15C1C706120E15FBC70C
:102F900006120E1531C806120E156BC806120E1554
:102FA0009FC806120E15CBC806120E1514C90612BC
:102FB0000E154EC906120E1596C906120E15ECC94D
:102FC00006120E1521CA06120E157CCA06120E151F
:102FD000B6CA06120E1507CB06120E153DCB061209
:102FE0000E1577CB06120E15A5CB06120E15C8CB03
:102FF00006120E1501DF07120E152DDF07120E1532
:1030000088DF07120E1592DF07120E15A2DF0712D6
:103010000E1571B507120E15A3B507120E15C0B522
:1030200007120E156EB607120E15BAB607120E1558
:1030300074B707120E15ABB807120E15D2B80712E7
:103040000E15FCB807120E15C2E107120E1516D0A8
:1030500004120E157ED204120E1531D404120E1570
:103060008ED404120E158BD504120E151BD6041225
:103070000E15A0D604120E15C5D604120E15BDD914
:1030800004120E1533DA04120E1524DB04120E1589
:103090005EDB04120E159EDB04120E1544DD0412D5
:1030A0000E1599DD04120E15E6DD04120E1554DE20
:1030B00004120E157BDE04120E1595DE04120E1599
:1030C000ABDF04120E15BBDF04120E1547E104122C
:1030D0000E1569E104120E159FE104120E154DE361
:1030E00004120E158CE304120E15BEE404120E1524
:1030F00023F906120E157BF906120E15C3FA0612F5
:103100000E1532FB06120E15E1FB06120E1500FC21
:1031100006120E1554FC06120E1592FC06120E1520
:103120003DA707120E156FA707120E1598A70712D5
:103130000E1537A807120E1578A807120E155BA9F1
:1031400007120E1549D107120E1559D107120E1587
:1031500092D107120E1556D207120E1535D407124A
:103160000E156AD407120E1587D407120E1503D553
:1031700007120E1523D507120E15DFFF06120E15C6
:10318000EBFF06120E15E9FF04120E155BDD0712A8
:103190000E156BDD07120E157ADD07120E152EDEE9
:1031A00007120E1570DA07120E15F4DA07120E1553
:1031B0005ADB07120E15EBC607120E15FFC60712D3
:1031C0000E1539C707120E158EC707120E1529C81E
:1031D00007120E154CC807120E1558C807120E1507
:1031E0008BC807120E15DDD607120E1518D7071259
:1031F0000E1583D707120E15B7D707120E15EDD788
:1032000007120E1515D807120E158DD507120E15BB
:10321000C1D507120E15EAD507120E1561D6071291
:103220000E15D0D607120E15D3C007120E15EDC01D
:1032300007120E1515C107120E153CC107120E1507
:10324000D7C107120E1517C207120E15D0D20712DA
:103250000E15F8D207120E156AD307120E1585D374
:1032600007120E15DFD307120E1529D407120E15FB
:103270002CD407120E151EA007120E152CA0071233
:103280000E15A5A007120E1572A107120E152BA37D
:1032900007120E1570A307120E159DA307120E1527
:1032A000F9CD07120E15FFCD07120E1545CE0712E8
:1032B0000E1579CE07120E1591CE07120E1513CFEB
:1032C00007120E152CD807120E1577D807120E15F7
:1032D000CFD807120E1533D907120E15F83F00127A
:1032E0000E15ADFD06120E1535FF06120E1596FFD2
:1032F00006120E15DCFF06120E15B0A307120E15EE
:10330000E2A307120E150BA407120E15AAA40712AA
:103310000E15EBA407120E15CEA507120E1557AE0B
:1033200007120E1589AE07120E15B2AE07120E1552
:1033300051AF07120E1592AF07120E1575B0071296
:103340000E15E4B107120E1516B207120E153FB294
:1033500007120E15DEB207120E151FB307120E1557
:1033600002B407120E153CD406120E15C5D406126F
:103370000E15DCD406120E15A4D506120E157ED637
:1033800006120E15D0D706120E15A5D806120E1568
:1033900006DA06120E158CDA06120E156ADC071212
:1033A0000E1593DC07120E15BCDC07120E15D4DCCB
:1033B00007120E1516DD07120E1594DB06120E15F8
:1033C0009EDB06120E15DEDB06120E1527DC06123A
:1033D0000E1561DC06120E15B7DC06120E15D6DCD2
:1033E00006120E15DFDC06120E1530DD06120E1564
:1033F00059DD06120E156EDD06120E15DEDD061203
:103400000E156CDE06120E15B0DE06120E15D8DE95
:1034100006120E1557DF06120E159ADF06120E154C
:10342000D7DF06120E15E9DF06120E1508E00612A8
:103430000E1511E006120E15DBE006120E15ABCFCD
:1034400007120E15FCCF07120E1585D007120E15A8
:10345000EBD007120E159DBB07120E15C7BB071246
:103460000E15C1BC07120E15F0BC07120E1576BD65
:1034700007120E1573DB07120E15F1C207120E1597
:1034800027C307120E1560C307120E15B9C4071221
:103490000E15ACDF07120E15C2DF07120E15CCDFBA
:1034A00007120E1522E007120E1563E107120E1522
:1034B00056CC06120E1513CD06120E154ECD061261
:1034C0000E1576CD06120E15D8CD06120E1524CE89
:1034D00006120E1584CE06120E1515CF06120E1505
:1034E00011D006120E159ED106120E1521D206120B
:1034F0000E1585D206120E159CD206120E1592D309
:1035000006120E15DED306120E1595F406120E15D0
:10351000AAF406120E155AF506120E159AF50612A1
:103520000E15B3F506120E15E6F506120E1533F656
:1035300006120E1567F606120E15A9F606120E15DE
:10354000B0F806120E1516F906120E154DE7051203
:103550000E1504EB05120E1596EC05120E15E6EC91
:1035600005120E15FDEC05120E151CED05120E15BB
:103570009AED05120E152CEF05120E1510F005121E
:103580000E1521F405120E15F5F405120E15008026
:1035900006120E15248206120E15C78506120E1588
:1035A000EC8506120E15C28606120E157F880612CD
:1035B0000E15118906120E15738906120E15EB8968
:1035C00006120E15608A06120E15CF8A06120E1507
:1035D0003A8B06120E15C68B06120E151B8C0612A0
:1035E0000E15C18C06120E1545CC07120E15ACCC6B
:1035F00007120E1511CD07120E1598CD07120E15D4
:1036000053E007120E15B2E007120E150CE2071276
:103610000E15C33F00120E15D5FF05FFFFFFFFFF7C
:10362000FFFFFFFF74F01211E47901122CBBE96473
:103630000170679004F1E06401701F122D3F7ADE83
:103640007B04122CAF9004EEE4F075E1F17A02FBFA
:10365000900397E0F91234118040122C1F123E9C07
:10366000120FB8123E6D120FA59083AF780E121094
:10367000068A828B83780E12103B908393780E1209
:103680000FB89083AF780E121006123EFF780E121C
:10369000103B123EEA7413123E81023E0E74EC128D
:1036A00011E47901122CBBE964016003023B8090B4
:1036B00004EEE4F07ADE7B04122CAF122BCB8A0AE4
:1036C0008B0BAE0AAF0B8E828F83A3A3A37401F082
:1036D0009003C5E004F07940122CA98A0A8B0BA84C
:1036E0000AA90B8E828F83E8F0A3E9F0E82406FC98
:1036F000E439FDE82402FAE439FB122D4BE5D9E563
:10370000D9A2E6E433C0E0EE2409F582EF3401F5F6
:1037100083D0E0F0EE2403F8EF3401F9E8497008B3
:103720007806E5D9D8FC801DEE2403F582EF34013C
:10373000F583E5822406F8E43583F9123BE870034B
:10374000E9658370F67806E5D9D8FCEE2422123BB1
:10375000C970087804E5D9D8FC8016123BB0E58220
:103760002404F8E43583F9123BE87003E9658370BB
:10377000F6123BB012104A122DB1EE2426123BC9AC
:1037800070087803E5D9D8FC8016123BA6E58224A0
:1037900003F8E43583F9123BE87003E9658370F6BA
:1037A000123BA6780A12102C9083AF780A121006EA
:1037B000AA0AAB0BAC0CAD0D122D87E5D9C0E012F7
:1037C0003BBFD0E0F0EE242C123BC97006E5D9E5F2
:1037D000D9801AE5D9C0E0123B9CD0E0F0E5D9C011
:1037E000E0EE242DF582E43FF583D0E0F0EE242EC8
:1037F000123BC97006E5D9E5D9801AE5D9C0E012B7
:103800003BD0D0E0F0E5D9C0E0EE242FF582E43FD4
:10381000F583D0E0F0123BBAC333F0EE242C123C17
:1038200035242E123C352420123BC97006E5D9E51B
:10383000D9801AE5D9C0E0123B92D0E0F0E5D9C0BA
:10384000E0EE2421F582E43FF583D0E0F0EE24326F
:10385000123BC97006E5D9E5D98020E5D9C0E0EE74
:103860002432F582E43FF583D0E0F0E5D9C0E0EE04
:103870002433F582E43FF583D0E0F0E8FAE9FB8AEF
:10388000828B83E0F50CA3E0F50D7404780C121123
:1038900061850C0A850D0B8A828B83E50AF0A3E50E
:1038A0000BF0E4F50CF50D123B92E02401F50EA3AC
:1038B000E03400F50FE4F510F511123BD0E0F8A369
:1038C000E0F9E828F8E933F988128913E4F514F5EA
:1038D00015780E7912120E7E780A790E120E3F506C
:1038E00008123BD0123E1970167A407B0090039765
:1038F000E0F9123411EEFAEFFB122BE9023B80EEF5
:10390000242BFCE43FFDEEFAEFFB122BFBEE240B25
:10391000F582E43FF5837405F0A3E4F0EEFAEFFBE3
:10392000122C01EE245D123BC9700A7805E5D91806
:10393000E8601E80F8EE245DF582E43FF583E582C1
:103940002405F8E43583F9123BE87003E9658370D8
:10395000F6E5D9F50EC4135407F9EE242AF582E4EE
:103960003FF583E9F01221AF123B88EAF0A3EBF0B8
:10397000E50E541FC0E0EE2437F582E43FF583D016
:10398000E0F0EE245DFCE43FFDEEFAEFFB122BC508
:10399000122E11122DAB7904122DB77901122DEDD3
:1039A0009060607480F075E1F1901740123BF01266
:1039B0003BF07485F0A3742C123BF674F7F0A374FB
:1039C0002CF090174E123C01A3123C017A047B00AC
:1039D000900397E0F9123411EE242C123C498A0E20
:1039E0008B0FE4F510F51190838F780E120FB8EA63
:1039F0004B600C123B9CE064027002A3E0702FEE5F
:103A0000242E123BDA780E790A120FA57C027D0073
:103A1000EEFAEFFB121538E9F91222BA8E828F8383
:103A2000123C268E828F83A3A3123C2680107C0139
:103A30007D00EEFAEFFB121538E9F91222BA8E82F8
:103A40008F83123EB9780E120FCB9083AF780A1293
:103A5000102C8A828B83780A121019EE2412F50A30
:103A6000E43FF50B780A1213F7123B8812140EEE9E
:103A7000241DF582E43FF58312140EAA0EAB0FACA1
:103A800010AD11122202740612118AEE2418F5826A
:103A9000E43FF583780E12103BAC0AAD0B123C18D4
:103AA00012213E7C147D83123C1812213E8E828F9F
:103AB00083E0F8A3E0F988828983A3A3E82408FCC3
:103AC000E439FD74061210878E828F83E0F50CA313
:103AD000E0F50DE50C240EF582E4350DF58374FF59
:103AE000F0A3F0A3F0A3F0E50C2412F8E4350DF9EF
:103AF000E8FAE9FB123BBAFC850A82850B83780E53
:103B000012102C7401780E121161EC250EF8E435B8
:103B10000FF9E875F071A4C8ACF075F002A42CFCA4
:103B200075F071E9A42CF98A828B83E8F0A3E9F09F
:103B3000EE2416123BDA7404780A121152E50A24B4
:103B400001F8E4350BF98A828B83E028F0A3E03991
:103B5000F08A828B83E02410F0A3E03401F0E50CBE
:103B60002414F582E4350DF5837410F08E828F8372
:103B7000123E907477F0A3742BF09003987407F0C2
:103B8000122C917F0C0212B6EE2410F582E43FF560
:103B90008322EE2420F582E43FF58322EE242CF5E7
:103BA00082E43FF58322EE2426F582E43FF583226A
:103BB000EE2422F582E43FF58322123BBFE022EEA1
:103BC000242BF582E43FF58322F8E43FF9E849220B
:103BD000EE242EF582E43FF58322F582E43FF5835F
:103BE000E0F50AA3E0F50B22E5D9F0A3E86582220F
:103BF00074F1F0A3742CF0A374F1F0A3742CF0A36F
:103C0000227485123C0F123C0FF0A3742CF022F0AA
:103C1000A3742CF0A37485228E828F83E02402FA91
:103C2000A3E03400FB22A3A3A3A3A3E02401F0A3F9
:103C3000E03400F022123C49EA2AFAEB33FB888296
:103C40008983EAF0A3EBF0EE22F8E43FF988828959
:103C500083E0FAA3E0FB2274F01211E4122D8DE947
:103C600070089004F2E0F9122D9375E181907803C9
:103C7000E064427056900541E014F0704EC2AF12FD
:103C80003C8200782AD0E0F618D0E0F6E59F540791
:103C9000F87005750BFF8003750B7FC4C0E07829B1
:103CA000E6F50A08E6550BF50B740B780A1211526B
:103CB000D0E0250AF8906270E0A2E740F8E8C3334C
:103CC000906272F0906270E0D2E0F07901122CBB49
:103CD000E964016003023D5F123E166006123E2158
:103CE0001234119004F6E06401704C123E45F5D98F
:103CF0007582E1758304123E3C7004E583640470B0
:103D0000F59004F7E0600A78F87904FA123E2FDAA9
:103D1000FB123E5C123E3C7004E583640470F59037
:103D20000517E0600A78187905FA123E2FDAFB755C
:103D3000E1959004F6E4F0122C1F123E9C120FB88D
:103D4000123E6D120FA59083AF780E1210068A8274
:103D50008B83780E12103B123ECB7412123E8102FE
:103D60003E0E74F01211E475E181122D8DE9700898
:103D70009004F2E0F9122D937901122CBBE9640151
:103D80006003023E0E123E166006123E21123411EE
:103D90009004F6E06401704E123E454406F5D97574
:103DA00082E1758304123E3C7004E583640470F57F
:103DB0009004F7E0600A78F87904FA123E2FDAFBF3
:103DC000123E5C123E3C7004E583640470F590057D
:103DD00017E0600A78187905FA123E2FDAFB75E1D0
:103DE000959004F6E4F0122C1F123E9C120FB812AC
:103DF0003E6D120FA59083AF780E1210068A828B4B
:103E000083780E12103B123ECB7415123E81122C99
:103E1000917F080212B6900538E0F8A3E0F9E8496E
:103E200022900538E0FAA3E0FB900537E0F92288FC
:103E3000828983E0F5D9A3A882A98322E0F5D9A3DA
:103E4000E58264E72275E191A3123E4D22E024074A
:103E5000F5D99004E0E0C4333354C0229005171222
:103E60003E4D4404F5D97582E1758304229004EF38
:103E7000E0F50AA3E0F50BE4F50CF50D780E790AF0
:103E800022F09004DE123E907471F0A3742BF022A5
:103E9000123EF9241AF582E438F58322E9FC9004F5
:103EA000DE123EB9EC75F0118485F00A850A0EE445
:103EB000F50FF510F511780E22E02402F8A3E03496
:103EC00000F9E8FAE9FB8A828B8322123EF6240687
:103ED000F582E438F583E4F0A3F0123EFF74FFF0BE
:103EE000A3F0A3F0A3F0123EEA22123EF62414F54A
:103EF00082E438F583229004DEE0F8A3E0C82212C1
:103F00003EF6240EF582E438F5832274F01211E4B3
:103F100075E181122D8DE970089004F2E0F9122DFF
:103F2000937901122CBBE96401706B123E16600696
:103F3000123E211234119004F6E064017030123EFA
:103F4000454402F5D97582E1758304123E3C700444
:103F5000E583640470F59004F7E0600A78F879046A
:103F6000FA123E2FDAFB75E1959004F6E4F0122C7C
:103F70001F123E9C120FB8123E6D120FA59083AF18
:103F8000780E1210068A828B83780E12103B123E36
:103F9000CB7414123E81023E0EC082C08353BFEF29
:103FA0007901122CBBE96401700C7ADE7B04122CBF
:103FB000AF9004EEE4F075E1F1122C91D083D08241
:103FC000020E12C082C083851A82851B83E0F8A38B
:103FD000E0F9E84960128A828B83ECF0A3E824FFC1
:103FE00018E934FFF94870F2D083D082020E120231
:103FF0000E12FFFFFFFFFFFF851C87C2AF020E12EC
:020000040002F8
:10300000C082C083E990171CF0D083D082020E12D8
:1030100074F61211E4E990030AF090036AE0F50AED
:10302000750B007402780A121161AA0AAB0B1234F4
:103030008390030B12B9C390030B12BDB0606F9065
:10304000036AE075F003A4FAABF01234839003280E
:1030500012B9C390032812BDB0700B90030B12BDC0
:1030600081123489804890032812CD157AFF7BFFA6
:103070001230ED7A0080198A0A750B007402780A02
:1030800012116112C7BD74FF12B1C3E4F0A3F00ABC
:1030900090036AE0F8EAC39840DD7905122793901F
:1030A000030AE0F912267F7A1D7B28122A0F02C834
:1030B0006074F41211E48A0A8B0BEB548060479021
:1030C000030AE0F91233F98A0C8B0DAE0CAF0DEE4A
:1030D0004F602A8E828F83E064B0701A1227A5E9B0
:1030E00060148E828F83A3A3A3A3E0F9EE2405FAD4
:1030F000E43FFB122775EEFAEFFB1233E7AA0AE56D
:103100000B6480FB80047A007B0002B31374F2121C
:1031100011E474FB121174EAFEEBFFEE4F6045748C
:10312000031211C0EEF0A3EFF0851A82851B83EC29
:10313000F0A3EDF074021211C0E9F0AA1AAB1B1251
:103140002679E9F50A707574131211C0E0F50CA325
:10315000E0F50DE50C450D60638E828F8312B74C50
:10316000EE4F7005750A0280537A067B0012348395
:103170008A0E8B0FA80EA90FE8497005750A1380F7
:103180003B88828983E412B1C3EEF0A3EF12B2DF71
:10319000E50CF0A3E50DF090030E12B2D890030EEB
:1031A0006017E0FCA3E08003EAFCEBFD8C828D83DA
:1031B00012B2D870F38C828D8312C3D8A90A740519
:1031C00002CF95F0A312CCF7A32274F21211E48976
:1031D0000A890E750F007403780E121161850E0CAA
:1031E000850F0D90030DF090030B12C1E312B2D6C0
:1031F000602E1234897900801D890E750F007402CB
:10320000780E12116190030B12C67C8882F583A39D
:10321000A3E4F0A3F00990036AE0F8E9C39840D969
:1032200090036AE0FA850CF0A4CAA8F0850DF0A41A
:1032300028FB1234838A0E8B0FAE0EAF0FEE4F7049
:103240000302B2CC90036AE0FC850CF0A4CCA8F099
:10325000850DF0A428FD79001233D57C0080318DD6
:103260000E750F007403780E1211618A828B83121F
:10327000B2D188828983E4F012B2DEA3A3F0A3F076
:103280000DEDC3950A40D8EE250CFEEF350DFF0C71
:1032900090036AE0F8ECC39850288C0E750F007408
:1032A00002780E12116190030B12B2D1E824025081
:1032B0000109FAE9FB8A828B83EEF0A3EFF07D002F
:1032C00080BFE50A90030DF079008002791302CFE8
:1032D0009812C680F922A3A312BD85EA4B22A3123D
:1032E000CCF7A3A3A32274F41211E47900EAA2E0BC
:1032F000501F750A3E750B83780A1213F779107CFC
:10330000047D007A1E7B1712278D740212118AE940
:10331000F980007F040212B6C082C08390030E12AF
:10332000BDB0601C88828983A3A3E06A7003A3E018
:103330006B8882898370E8A3A3A3A312BD81800454
:103340007A007B0002B00974F21211E474FD1211CC
:1033500074EAFEEBFF851A82851B83E4F0A3F07408
:10336000021211C07401F012BDAD7014122949127D
:10337000348390031112B9C312BDAD700302B4D9E6
:1033800012BAC3EE2404F50CE43FF50D850C82F56A
:1033900083E024FE603C24FC607424FE607E24FEF6
:1033A000700302B42924FE700302B43624FE7003B5
:1033B00002B44324FE700302B45024FE700302B42E
:1033C0005D24FC700302B47E24FE700302B49602F6
:1033D000B4D2122949900313EAF0A3EB12B4E51218
:1033E00023C1E9600302B4D290031312140E8E823B
:1033F0008F83A3A3A3A3A312CD15850A82850B8374
:1034000012BD8112275D740212118A02B4D2AC1A65
:10341000AD1BEEFAEFFB1227AB02B4A1AC1AAD1B49
:10342000EEFAEFFB1227B18078AC1AAD1BEEFAEF83
:10343000FB1227B7806BAC1AAD1BEEFAEFFB12271D
:10344000BD805EAC1AAD1BEEFAEFFB1227C38051B4
:10345000AC1AAD1BEEFAEFFB1227C98044740212BE
:1034600011CA880E890F780E1213F774021211DA3E
:10347000EEFAEFFB1227CF740212118A8023AC1AE6
:10348000AD1BEEFAEFFB1227D5E9F87016740212A5
:1034900011C0E4F0803CAC1AAD1BEEFAEFFB122732
:1034A000DBE9F8E8602C8E828F83A3E0641460224D
:1034B000850C82850D83E0900313F0851A82851BAD
:1034C0008312BD8190031412B9C3E8A312B4E512AC
:1034D00023BBEEFAEFFB12273374021211C0E0F99E
:1034E000740302CF95F07C137D03850A82850B83DC
:1034F00012BD852274E81211E474FA121174740476
:103500001211C0ECF0A3EDF08A148B15EA2405F536
:1035100010E43515F511EA2402F512E43515F5131A
:10352000851282F58312BD811224B18A0C8B0D7530
:103530000A007C037D0079007A137B031233D5E502
:10354000102402F518E43511F51974021211CA8815
:103550000E890F780E1213F7851082851183A3A3AD
:10356000A3A3E0F50E750F00780E1213F7E51024F3
:1035700005F50EE43511F50F780E1213F785188254
:1035800085198312C088122697740612118A8A0E32
:103590008B0FE50E450F700302B7158020851A8248
:1035A000851B83E088828983F0050A851A82851B42
:1035B00083A3E0C0E012B756D0E0F0050AE50C2482
:1035C000FBFAE50D34FFFBC3E50A9AE49B400302D6
:1035D000B7157E007F00851482851583A3A3A3A35E
:1035E000E0F50B780B1213FBE4F516F517781612BD
:1035F00013F775161075170378161213F790031149
:1036000012140E74091211C012140EE50C24F9F9EB
:10361000AC0EAD0F85128285138312BD8112280571
:10362000740912118AE9600302B6B6851082851109
:1036300083A3A3A3A3A3A3A3E0F8900310E068705F
:1036400075E0F5168E1778161213F712CD12851045
:1036500082851183A3A3A3A3A3A3A3A312BD811255
:1036600033CF740212118AE9604C90031412BDB07A
:10367000703BE4F51678161213F77CFF7DFF79078F
:1036800085128285138312BD8112276F7402121175
:103690008A12BDB6701785108285118312CEAF7461
:1036A000041211C012C77012C0B902B749850E8248
:1036B000850F8312B74CA81AA91B8816891778168C
:1036C0001213F774041211C012140E851882851992
:1036D0008312B9B91226A3740412118A8A0E8B0FB1
:1036E000EE4F700302B59212B756EE12B76112C0D8
:1036F0006FEF12B761F8A3E03400F9E50E450F60F3
:103700000302B59D8882898374FFF0050A12B756BB
:1037100074FFF0050AE50A601A1313543F12B9C981
:103720001223CDE9600990031412BD81123441794E
:1037300000801685108285118312CEAF7404121199
:10374000C012C77012C3D8790A02C042A3A3A3A3B0
:10375000E0FEA3E0FF22A80A900314E02812C06F45
:1037600022F0050A08900314E0282274E81211E4FC
:1037700074FA12117474021211C012B9C3740412D3
:1037800011C0ECF0A3EDF074021211C0E024051298
:10379000C058E0F50EA3E0F50F74021211C0E0244A
:1037A00002F512A3E03400F513851282F58312BDF1
:1037B000811224B1750A00750B00EA24FCFEEB347B
:1037C000FFFF8008050EE50E7002050FA80AC3EE84
:1037D00098EF9400500302B975A81AA91B881089A4
:1037E0001178101213F7851682851783A3A3A3A35C
:1037F00012CD191213F7E5162405F510E43517F567
:103800001178101213F785168285178312B9B71233
:103810002697740612118A8A108B11EA45117003DB
:1038200002B975EA2404F518E43511F519851882F2
:10383000F583E0F50EA3E0F50F851A82851B831250
:10384000CD158A828B83A3A3A3E0F9851282851309
:103850008312BD81122685E9F50B600302B97574E8
:10386000021211C012C07FF50B780B1213FBE4F5A6
:1038700014F51578141213F77514107515037814D0
:103880001213F790031112140E74071211C01214C0
:103890000EEEF9AC10AD1185128285138312BD8135
:1038A000122805740912118AE9F50B600302B97533
:1038B000E50A703FE4F510F51178101213F77CFF5C
:1038C0007DFF790985128285138312BD8112276FCE
:1038D000740212118A12C0A5700D74041211C01264
:1038E000B9AC791102B9A9900310E0240290031435
:1038F000F08014900314E0FA900310E079002402A1
:103900005001096A497072A80A900310E0FAE82A87
:10391000FAE43400FBEE9AEF9B405A851882851931
:1039200083E0C0E090031512B75BD0E0F0050A8594
:103930001882851983A3E0C0E00890031512B75BD5
:10394000D0E0F0050A90031012CD191213F712CD32
:1039500012A80A12C04C1233BD740212118A9003CD
:1039600010E0250AF50A74FF650E700474FF650FF8
:10397000600302B7C4E50A601F900314E0F5F0E5A8
:103980000A8412B9C91223D3E9600990031512BD44
:103990008112344179008011E50B7003750B0A74B4
:1039A000041211C012B9ACA90B02C04212C1E7E562
:1039B0000EF0A3E50FF022A3A312CFA4AA0EAB0F23
:1039C00022A3A3EAF0A3EBF022900313F07C137D73
:1039D0000385128285138312BD852274EC1211E4D3
:1039E00074FC12117412C4E874021211DA12BD7B55
:1039F00012269D8A0E8B0FEA450F700302BAB3128E
:103A0000BAC3A81AA91B8812891378121213F77C5B
:103A1000FF7DFF790B850A82850B8312BD811227FA
:103A20006F740212118A12BBB9700C850C82850D5D
:103A30008312C0B602BAC08E828F83A3A3A3A3E071
:103A4000F51478141213FBE4F514F5157814121319
:103A5000F775141375150378141213F778121213EF
:103A6000F774091211C012140E74091211C0E0F992
:103A7000AC0EAD0F850A82850B8312BD811228051D
:103A8000740912118AE9FE70157C137D03850A8280
:103A9000850B8312BD811223D9E970098020741629
:103AA0006E70027E0090031412BD81123441EE70DC
:103AB00004800B7E01850C82850D8312C3D5EEF93F
:103AC00002C3EAEE2402F50AE43FF50B2274EC127D
:103AD00011E474FC121174EAFEEBFF8C108D11EEF0
:103AE0002405F50AE43FF50B74021211DA850A8207
:103AF000850B8312BD8112269D8A0E8B0FEA450F1E
:103B0000700302BBA9EE2402F50CE43FF50DA81AE0
:103B1000A91B8812891378121213F77CFF7DFF7995
:103B20000D12BD7B12276F740212118A12BBB9707D
:103B30000B850A82850B8312C0B6807A8E828F83B2
:103B4000A3A3A3A3E0F51478141213FB850A8285BE
:103B50000B83A3A312140E75141375150378141296
:103B600013F778121213F774091211C012140E749D
:103B7000091211C0E0F912BD77122805740912115B
:103B80008AE9FE700F7C137D0312BD7B1223DFE9EF
:103B90007009802074166E70027E0090031412BDAE
:103BA00081123441EE7004800B7E01850A82850B00
:103BB0008312C3D5EEF902C3EA12BDC0F512A3E029
:103BC000F513EA45132274E81211E474FE1211741D
:103BD0008A188B198C168D17EA2405F50EE4351911
:103BE000F50FEA2402F510E43519F511851082F578
:103BF0008312BD811224B18A0A8B0B750D007C03E0
:103C00007D0079007A137B031233D5750C00E50A29
:103C100014F5120424FFF50AE50B34FFF50B80546C
:103C2000900313E0FA900310E0F8EA28F8E4340077
:103C3000F9E50A98E50B99500D900313E0F8E512A9
:103C4000C398900310F0E0F5147515007814121362
:103C5000F712CD12900314E02AFAA3E03400FB120D
:103C600033BD740212118A900310E0F8900313E040
:103C700028F0050C850E82850F83A3A312C68C4005
:103C80000302BD5C900313E0C3950AE4950B400367
:103C900002BD5CAE0CEE2EFEE433FF12BD9BAC1AEF
:103CA000AD1B12CD2DE439FB12269D8A148B15AC69
:103CB00014AD15EC4D701B750D0112BD8B12C3D9DF
:103CC00090031412B2D86003123441A90D74020299
:103CD000C044851882851983A3A3A3A3E0F50D78BA
:103CE0000D1213FBE4F514F51578141213F775147F
:103CF0001075150378141213F790031112140E7433
:103D0000071211C012140EA9128510828511831298
:103D1000BD81122805740912118AE9F50D709B9076
:103D2000031412BDB0600302BC20E4F514F515784D
:103D3000141213F77CFF7DFF790F851082851183A4
:103D400012BD8112276F740212118A12BDB6600370
:103D500002BC2012BD8B12C0BA02BCCD7C137D0305
:103D600085108285118312BD811223E5E96003026B
:103D7000BCC0790002BCCDAC0EAD0F850C82850DA8
:103D80008312BD8522E0FAA3E0FB2212BD9BE0FA7C
:103D9000A3E0F9EA85168285178322850E82850FB6
:103DA00083E02EF8A3E03FF98882898322900311F3
:103DB00012CEB3E8492212BDC0F8A3E0F9E84922C7
:103DC000900314EAF0A3EBF0900314E02274E812DD
:103DD00011E474FA12117474041211C012B9C38C74
:103DE000188D1974041211C0E02405F510A3E034F5
:103DF00000F51174041211C0E0240212C05812BD63
:103E0000811224B18A0C8B0D7F007E00A81AA91B99
:103E1000880A890B780A1213F7851082851183A30B
:103E2000A3A3A3E0F50A8E0B780A1213F7E510247A
:103E300005F50AE43511F50B780A1213F78510829F
:103E4000851183A3A312C088122697740612118AC3
:103E50008A0E8B0F802912C079F00F12C079F00FF3
:103E600090031012C3C41213F712CD12EFF812C050
:103E70004C1233BD740212118A900310E02FFFE53B
:103E80000E450F700302BF08851A82851B8312C47A
:103E9000FAA3A3A3E0F985168285178312BD8112C8
:103EA0002685E9FEE50E2404F512E4350FF513EE40
:103EB000705074041211C012C07FF50A780A1213F0
:103EC000FBE4F50AF50B780A1213F7750A10750B67
:103ED00003780A1213F790031112140E74071211CB
:103EE000C012140EE50C24FAF9AC0EAD0F85168243
:103EF00085178312BD81122805740912118AE9FE03
:103F0000603912C09512C3D8EF700302C02F90031E
:103F100014E0F5F0EF84900313F07C137D03851615
:103F20008285178312BD811223EBE9600990031586
:103F300012BD81123441790002C0428F0AEF703BFA
:103F4000E4F514F51578141213F77CFF7DFF791151
:103F500085168285178312BD8112276F7402121194
:103F60008A12C0A5700912C09512C0B902C0429051
:103F70000310E02404900314F08035900310E0F85F
:103F8000900314E0FAE82404FCE43400FDEC6A4DEC
:103F9000600302BF0EE50C24FAFAE50D34FFFBE5E1
:103FA0000A28F8E43400F9EA98EB99500302BF0EAE
:103FB000851282851383E0C0E0900315E02FF8A3FB
:103FC000E034008882F583D0E0F00F8512828513FB
:103FD00083A3E0C0E012C066D0E0F00F74021211BB
:103FE000CA880A890B780A1213F774021211C012D8
:103FF000140E85108285118312B9B71226A374049A
:1040000012118A8A0E8B0FEA450F700302BE567496
:10401000021211C0E0C0E012C066D0E0F00F7402DE
:104020001211C0A3E0C0E012C066D0E002BE5EEE96
:1040300070027E0A85108285118312C09B12C3D83C
:10404000EEF9740612118A7F100212B6900315E081
:1040500028FAA3E03400FB22F516A3E03400F5179C
:10406000851682F5832212C06A22900315E02FFA8A
:10407000A3E034008A82F5832212C06A74FF221200
:10408000C1E7A3A3A3A3E02212CFA48510828511C8
:104090008312BD852285128285138312CEB38518C3
:1040A0008285198322900315EAF0A3EBF0900315A3
:1040B00012CEB3E8492212C3DEE8F0A3E9F0791189
:1040C0002274EA1211E474FE1211748A0A8B0B8CAA
:1040D000148D15EA2405FEE4350BFFAC1AAD1B8EDA
:1040E000828F8312BD8112269D8A0E8B0FEE2406CD
:1040F000F510E43FF511EA450F700302C1B9E50A76
:104100002402F50CE4350BF50D8A828B83A3A3A35F
:10411000E0A2E55028851A82851B8312BD811227F3
:10412000F98A128B13EA45136020791212BD778544
:1041300012828513831211E2E9F50E707F851082D9
:10414000851183E0600979528011750E0E806D85AE
:104150000A82850B83A3A3A3A3E0F9E4F50AF50B78
:10416000780A1213F78E828F83A3A3E0F50A780AE8
:104170001213F78E828F83A3A3A312140E8E828F45
:104180008312CD1512BD7B12280B740612118AE919
:10419000F50E7011851082851183E0702D12BD7BA4
:1041A0001223F180257416650E7011750E007418B7
:1041B0001211C012C1E3E48010750E0112CEAB855E
:1041C0001482851583E8F0A3E9F0851082851183B8
:1041D000E0600479008002A90E740212118A7F0E39
:1041E0000212B612C1E722E0F8A3E0F5838882222A
:1041F00074EC1211E474F71211748A0C8B0D8C128A
:104200008D13EA2405FEE4350DFF750E00AC1AADE2
:104210001B8E828F8312BD8112269D8A0A8B0BEA28
:10422000450B700302C3AFE50C2402F50C500205E8
:104230000D8A828B83A3A3A3E0A2E5502F851A8267
:10424000851B8312BD811227F98A0E8B0FEA450F59
:10425000604F7912AC0AAD0B12BD7B850E82850FC3
:10426000831211E2E9F50E600302C3B2850C828568
:104270000D83E0F50AA3E0F50BAA0AFB1227EDEA8D
:104280004B70197AFF7BFF1227EDEA4B700302C3D4
:10429000A58A828B83E50AF0A3E50BF0750A0080FE
:1042A00008750E0E02C3B2050A90030DE0F8E50A88
:1042B000C398400302C3A5850A10751100740378E2
:1042C000101211618A828B83A3A3E02510F8A3E06A
:1042D000351112C77970D08E828F8312C3CD12B977
:1042E000C38E828F83A3A312C3CD12B9C1EE24045F
:1042F000F50AE43FF50B850A82F583E0888289831D
:10430000A3A3A3A3F0A3E4F0EE2405F510E43FF586
:1043100011851082F58312C3CDA3A3A3A312B9C143
:1043200075140775150078141213F7EEFCEFFD7481
:10433000041211D21233BD740212118AE4F51478FA
:10434000141213F7850A82850B83E0FC7D00791730
:1043500012BD7B12276F740212118A74071211C0EA
:1043600012B9C374071211C0E0FA4B603D850A828E
:10437000850B8312C3C41213F78510828511831233
:10438000CD151233BD740212118A74021211DA12A1
:10439000BD7B1223F7E9602674071211C012BD819C
:1043A0001234418019750E098008750E118003754D
:1043B0000E0112CEAB85128285138312C3D8A90ECB
:1043C00074098028E0F50A750B00780A2212BD8571
:1043D000888289832212C3DEE8F0A3E9F022E0F8A4
:1043E000A3E0F985108285118322740412118A7F5B
:1043F0000C0212B674EC1211E412C4E8751200EE4D
:104400002402F50EE43FF50F850E82F58312BD817F
:104410001227ED8A0A8B0BEA450B700302C4CC8588
:104420000C82850D83E06401600302C4C1AC0AAD57
:104430000BAA0CAB0D1227E1E9606E850A82850B91
:104440008312B74EEE2406F50CE43FF50D8E828FF5
:1044500083A3A312140E8E828F83A3A3A3A312148B
:104460000E850C82850D8312140E79188E828F832F
:1044700012C4FA12BD8112280B740612118AE9F8CF
:10448000741668700B850C82850D83E4F0A380148C
:10449000E860128E828F8312BD8185108285118320
:1044A000EAF0A3EBF08812801878101213F7AC0A28
:1044B000AD0BEEFAEFFB1227E7740212118AE9F551
:1044C00012AA0AAB0B1227F3E512700E850E828535
:1044D0000F8312BD811223FD8009741665127003CB
:1044E000751200A91202C3EFEAFEEBFF8C108D11CA
:1044F000EE2405F50CE43FF50D2212CFA4850E82C3
:10450000850F832274EA1211E4750A00750B007E90
:10451000007F00750C00EC2402F512E43DF51380D9
:1045200035EC650A7003ED650B600302C5B988823E
:104530008983A3A3E06A7003A3E06B707C888289FF
:1045400083A3A3A3A312CEAFEE28FEEF39FFEA2880
:10455000FAEB39FB050C12C689503A850C0E750F23
:10456000007403780E12116185128285138312C6BE
:104570007C12C779601FE50A450B70A58C0A8D0B6C
:104580008882898312B74C88828983A3A3E02EFA9C
:10459000A3E03F80BEE50CC39402500302C67775CA
:1045A0000A00750B00EE4F6010EEFAEFFB12343B81
:1045B0008A108B11EA45117005790002C679750DD4
:1045C0000002C64C850D0E750F007403780E121193
:1045D00061851282851383E0250EF50EA3E0350F69
:1045E000F50FE50E2406F516E4350FF5178516824E
:1045F000F58312C77E6042E50E2404F514E4350FFE
:10460000F515851482F58312140EE510250AFAE5D6
:1046100011350BFB1233BD740212118A8514828589
:104620001583E0250AF50AA3E0350BF50B85168204
:1046300085178312BD81123441E50D600D7C087D24
:10464000007900AA0EAB0F1233D5050DE50DC39509
:104650000C500302C5C485128285138312CEAF8825
:10466000828983A3A3A3A3A3A3E510F0A3E511125A
:10467000B2DFEEF0A3EFF0790102C1DE12C68022B4
:10468000E0250EF8A3E0350F2290030DE0F8E50CCD
:10469000C3982274F01211E48A108B118C0C8D0DCA
:1046A000750F00750E0080507916EE2406F50AE4A9
:1046B0003FF50B8E828F83A3A312140E8E828F83FD
:1046C000A3A3A3A312140E850A82850B8312140ED2
:1046D000851082851183A3A312BD8112280B740655
:1046E00012118AE9F50F7416650F706C850A8285C0
:1046F0000B83E4F0A3F0050E90030DE0F8E50EC384
:10470000985066AA0E8A0A750B007403780A121173
:1047100061850C82850D83A3A312C7C8E8FEE9FF5B
:104720008E828F8312C77E6040EA2401F50AE4344A
:1047300000F50B90030DE0650A7002E50B6014882C
:10474000828983A3A3A3A3A3A3A3A312BDB06003E1
:1047500002C6A8791802C6AAE9609B12CEAB7410F3
:104760001211C012C77012C3D8A90F7F080212B667
:10477000E0FAA3E0F5838A8222F98882898312CF46
:10478000A4EC4D2274F61211E47C0080010C90031D
:104790006AE0F8ECC398501E8C0A750B007402781E
:1047A0000A12116112C7BDE06A7003A3E06B70DDED
:1047B000E8FAE9FB80047A007B0002C86090030BF2
:1047C00012C7C88882898322E0250AF8A3E0350B46
:1047D000F92274F21211E48A0A8B0B750C008027FF
:1047E0008E828F83A3A3A3A312B2D6600312344197
:1047F0007C087D007900EEFAEFFB1233D58E828FB4
:1048000083E4F0A3F0050C12C6895027850C0E75C1
:104810000F007403780E121161850A82850B83A341
:10482000A3E0250EFEA3E0350FFF8E828F8312BD1D
:10483000B070AD850A82850B8374FFF0A3F002CFC0
:104840009874F61211E412279F8A828B83E58245C1
:104850008370067A007B008007A3A3A3A312BD8107
:104860007F020212B674F41211E4890A8C828D83DD
:10487000E06402703C12CE4EFEA3E0F9EEF8740242
:104880006870037429697029750C02750D00780C25
:104890001213F774101211C012140E74101211C0FA
:1048A00012140EA90A1230FF740612118AE9F98057
:1048B00002790102B31374E81211E474FB1211744B
:1048C000E9851A82851B83F08A188B19ECFEEDFFAF
:1048D0007512008E828F83A3A3A3E0A2E4502D74EF
:1048E0001D1211C012BD811227F98A828B83E582C5
:1048F0004583700302CCED790AEEFCEFFDAA18ABFC
:10490000191211E2E9F512600302CCF0741F1211C2
:10491000C0E0F50AA3E0F50B74211211C0E0F50C1C
:10492000A3E0F50D74231211C0E0F510A3E0F5111A
:104930008E828F83E06402600302CC8EA312CEAF1E
:10494000850A82850B83A3858214858315EE240650
:10495000F50EE43FF50F8882898312CD2DF516E41C
:1049600039F517781612148101000028012890C922
:104970000700022855CA0328C3C9002984CB01298E
:10498000AFCB022950CB032984CB042928CC8ECC71
:10499000E5104511600302CC89850E82850F8312D4
:1049A000CEAFE8FAE9FB8A828B83E0850C82850D25
:1049B0008312CD381213F78A828B83A3E0FCA3E025
:1049C00002CC12E5104511600302CC89850C82856A
:1049D0000D837401F012CD22850A82850B83F07C51
:1049E000007D008E828F83A3A3A3A3E02401FAA3FA
:1049F000E03400FB12269DEA4B60408A828B83E004
:104A00002402F8850C82850D83E028F0EA2404F85E
:104A1000E43BF988828983E085148285158312CD71
:104A20004612CD381213F78A828B83A312CD15E577
:104A30000A2403FAE4350BFB02CC17850C82850DA2
:104A400083E02404F07C047D007900AA14AB1512E5
:104A500033D502CCF0E5104511600302CC8912CDAC
:104A600022FEA3E0FF850C82850D837404F0EE85A1
:104A70000A82850B83F0EF851482851583F0740319
:104A80001211DAEEFAEFFB12269D8A0E8B0FEA4521
:104A90000F700302CB338A828B83A3A312B74C74AB
:104AA000011211CA8810891178101213F7740512B7
:104AB00011C012140E7CFF7DFF1226A37404121184
:104AC0008A8B11EA45117033850E82850F8312CDD2
:104AD000191213F7850E82850F83A312140E7C0220
:104AE0007D007A537B8412249F740412118AE9702A
:104AF0000A74011211C074FFF0A3F08E828F83E05C
:104B000064027039750E02750F00780E1213F78E5D
:104B1000828F83A312CD15E50A2404FAE4350BFB3A
:104B20001233BD740212118A850C82850D83E02434
:104B300002800974011211C0EEF0A3EFF0740112AB
:104B400011C012CD0774011211C012CCFE02CC8329
:104B5000E5104511600302CC89850E82850F831212
:104B6000CF9DAA18AB19123105850C82850D83746F
:104B700002F0850A82850B83EAF08514828515830D
:104B8000EB02CC86E5104511600302CC8912CD22E0
:104B9000F8A3E0F9850C82850D837402F0E8850A9C
:104BA00082850B83F0E985148285158302CC868586
:104BB0000E82850F8312BD811233B7EAFAF8C395CE
:104BC00010E49511405CE86510451170047A00808E
:104BD00021851A82851B83E0FCE5102CFCE435114D
:104BE000FDC3EC98ED94005003E08005E510CAC3C6
:104BF0009AFAEA850C82850D83F08A0C750D00788F
:104C00000C1213F7850E82850F83E02510FCA3E0BC
:104C10003511FDAA0AAB0B1233BD740212118A02C0
:104C2000CCF075120702CCF0E5104511705B850ED3
:104C300082850F8312CEAF850C82850D837407F0B9
:104C40008882898312CCFF12CCF7E0851482851507
:104C500083F0E82402FAE439FB8A828B8312CD07C1
:104C60008A828B8312CCFEA3A312B2DE12CD0CF08B
:104C7000E82405F85001098882898312CD0CA3121B
:104C8000CD46A3A3A3A3F0806775120B8062741DA9
:104C90001211C012BD8112279F8A828B83E5824543
:104CA00083604A12CEAF880E890FE8450F603E74CC
:104CB000251211C0E0F51278121213FB78101213AE
:104CC000F7780C1213F7780A1213F774071211C051
:104CD000E0F9EEFCEFFDAA18AB19850E82850F8373
:104CE0001211E2740712118AE9F512800375120E8F
:104CF000A912740502C044F088828983A322A3E02C
:104D0000850A82850B832212CD4DF02212CD4DA350
:104D1000A32290031112CFA422E0F51075110078A0
:104D20001022850E82850F8312C1E7E022E0FAA3EC
:104D3000E0F8E4C8F9EA2822F08A828B83E0F50CD7
:104D4000750D00780C2212CCF712CD4D22E0850AA9
:104D500082850B83A3A32274EE1211E474FE121158
:104D6000748A0A8B0BECFEEDFF890CAC1AAD1BEEBE
:104D7000FAEFFB12269D8A0E8B0FEA450F70030295
:104D8000CE3F851A82851B8312BD8112279F8A829E
:104D90008B83E5824583700302CE3AA3A312CEAF84
:104DA00088108911E84511700302CE3A741412116B
:104DB000C0E0F512A3E0F513E50CF50D780D121324
:104DC000FB74191211C012140E78121213F7741B0F
:104DD0001211C0E0F9AC0EAD0FAA0AAB0B85108220
:104DE0008511831211E2740512118AE9F50D7052D2
:104DF00074FE650C604C850E82850F83E064027042
:104E00004112CE4EFAA3E0F9EAF874026870037416
:104E10002969702E85128285138312CD2DF50EE43B
:104E200039F50F780E1213F7EEFCEFFDAA0AAB0B63
:104E3000122823740212118A8008750D0E800375E2
:104E40000D01A90D740212118A7F0A0212B6A31273
:104E5000CEB388828983E02274F61211E474FE12C4
:104E60001174740C1211C012CEAFE8851A82851B22
:104E700083F074011211C0E9F0E4F50AF50B780A29
:104E80001213F7750A02780A1213F774041211CA82
:104E9000880A890B780A1213F779FE12280B740618
:104EA00012118A740212118A02C8608E828F8312D4
:104EB000CEB322E0F8A3E0F92274F71211E4EAFE7F
:104EC000EBFF890A90032812CD15123105EA54022E
:104ED000600BA90AEEFAEFFB122691800279017F9E
:104EE000010212B674F21211E474FE121174EAFE99
:104EF000EBFF890C7401650C60147402650C60038F
:104F000002CF937901122A2DE9600302CF93EEFAC2
:104F1000EFFB1227EDEA4B60031227F3A81AA91B37
:104F2000880A890B780A1213F7750A02750B007844
:104F30000A1213F7750A4D750B84780A1213F77C61
:104F4000FF7DFF7A017B00122697740612118A807A
:104F500038850A82850B83A3A3A3A3A3A312CF9DA5
:104F6000EEFAEFFB1230EDE4F50EF50F780E1213AA
:104F7000F774021211C012140E7CFF7DFFAA0AAB57
:104F80000B1226A3740412118A8A0A8B0BE50A45B8
:104F90000B70BE740212118A7F060212B612C1E7AC
:104FA00012CFA422E0FCA3E0FD2274F41211E48AE3
:104FB0000A8B0BECFEEDFF90171CE0F4604B7A09B6
:104FC0007B001233E1EA4B60408A828B8374B1F03C
:104FD000A3E412D00CF08A828B83A3A3E50AF0A38A
:104FE000E50B12D00CA3EEF0A3EFF0740C1211C07D
:104FF00012CEAF8A828B83A3A3A3A3A3A3A312C3BE
:10500000D890171CE0F91233ED02B313F08A828BAB
:1050100083A3A3A3A32274F01211E474FA121174EF
:10502000890BECFEEDFF750A008A0C8B0D780C12D3
:10503000143B0004103CD259D077D091D0A9D0C7EE
:10504000D0DFD002D11AD12ED158D1D3D1E4D1FBA7
:10505000D116D23CD23CD26ED17401650B600302F2
:10506000D2378E828F83E0F8C39403400302D23795
:10507000E890184B02D2137402650B600302D2371A
:105080008E828F8312D27890184CE8F0A3E902D276
:10509000137401650B600302D23712D26940030218
:1050A000D237E890076102D2137401650B600302E6
:1050B000D2378E828F83E0F8C39405400302D23743
:1050C000E890076202D2137401650B600302D237C5
:1050D00012D269400302D237E890076302D21374F8
:1050E00010650B600302D237750C10750D00780C3B
:1050F0001213F77A647B071233BD740212118A020D
:10510000D25D7401650B600302D23712D26940038D
:1051100002D237E890077402D2137401650B600362
:1051200002D2378E828F83E090184F02D21374041C
:10513000650B600302D2378E828F83780E12102C9B
:1051400090839F780E120E5F500302D2379007763D
:10515000780E12103B02D25DE9600302D2371226AC
:1051600037E970051230B1805590080980617407E5
:10517000650B600302D237750C06750D00780C12B2
:1051800013F78E828F83A3AC82AD8374021211D287
:105190001233C3740212118A7C007D00AA1AAB1B61
:1051A0008E828F83E0F912305DE9FEC3940A4003DA
:1051B00002D25A122637E9700CEEF91230B7795044
:1051C000123501806D740A2EF582E43408F583747B
:1051D0000180407401650B705E12D2695059E890ED
:1051E0000775802F7401650B704D8E828F83E0F8F8
:1051F000C3940A5042E890184E80187401650B70F1
:10520000368E828F83E0F874F928C3940A5028E818
:10521000901850F080477401650B701B900808E0EF
:10522000F88E828F83E0900808F0E87030E0640127
:10523000702B1230A58026750A188021C3EA9427A6
:10524000EB940050157402650B700F8E828F8312E1
:10525000DD3E1224B7E9F50A8003750A02A90A7433
:105260000612118A7F080212B68E828F83E0F8C37D
:10527000940222A90A02D616E0F8A3E0F92274F0FB
:105280001211E474B11211748C0E8D0F90835C7442
:10529000201211DA740612108774201211DA1230FB
:1052A0005DE9F50A745F1211C0E0F50CE9C3940AD8
:1052B000400302D3FC75F006E9A4F50B744112110A
:1052C000DA7A0E7420250BF91234FBE97009744D5B
:1052D0001211C0E0FF80027F0090184BE064027062
:1052E0000575100180037510007408650C70047456
:1052F0002280027421250BF5117C1B7D007900743E
:10530000261211D21233D5EFA2E0E433FE74261236
:1053100011DA7A1BA9111234FBE9702574401211BD
:10532000C0E024F9C3940A501878101213FB7427B4
:105330001211DAEEF9AA0EAB0F12255974011211EF
:105340008A7C147D007900740C1211D21233D5744A
:105350000C1211DA7A107424250BF91234FBE9705F
:10536000307C1079FF740C1211D2123435E970219F
:10537000741C1211C0AC82AD837A047425250BF91C
:105380001234FB740C1211DAEEF9AA0EAB0F1225CF
:1053900041AC1AAD1B7A0C7470250AF91234FBE982
:1053A0007049AA1AAB1B12308D7E00EE75F003A473
:1053B000F8A9F0851A82851B83E58228F8E5831217
:1053C000DB5712DD38601D88828983A3A3E0F50ACC
:1053D000750B00780A1213F7AA0EAB0F122811747E
:1053E0000212118A0EEEC3940440C0EFA2E1500CE9
:1053F000900760E0F9AA0EAB0F1228177404650C31
:10540000702890184BE0640270207A00900774E0D6
:1054100060027A01900761E06004780480027800FD
:10542000E84AF9AA0EAB0F12260D7900744F02D28A
:105430006174F71211E4122637E9704F900809E001
:10544000640170151230B1900809E4F07C0AFDF98E
:105450007A0A7B081233D5802A750A00A80A740AD2
:1054600028FEE43408FF8E828F83E06401700BA96C
:105470000A1230B78E828F83E4F0050AE50AC394DE
:105480000A40D979501235011230A502DE7674F047
:105490001211E474F0121174EAFEEBFF8C0A8D0B0A
:1054A000750C0AE9600C14600914603B14607D02FD
:1054B000D58412309FE9F50CC3940A400302D584C9
:1054C000E50A450B700302D584750E06750F00784A
:1054D0000E1213F7EEFCEFFDAA0AAB0B1233BD74EC
:1054E0000212118A02D584750E007510067511001E
:1054F00078101213F7EEFCEFFDE50E75F00EA4F830
:10550000A9F0748228FA740739FB1233CF7402129F
:10551000118AE9700B050EE50EC3940A506680CA25
:10552000850E0CE50CC3940A505A8049750E00ACE8
:105530001AAD1B7A1075F006E50EA42423F9123477
:10554000FBE9701C7C1079FFAA1AAB1B123435E9F9
:10555000700EEEFCEFFDAA1AAB1B12251DE9600BC5
:10556000050EE50EC3940A501B80C4850E0CE50C95
:10557000C3940A500FE50A450B6009AA0AAB0BA9B0
:105580000C123099A90C741002D26174F41211E457
:10559000890B750A1574FF6A700374FF6B70277EA0
:1055A00000AC0B7A027B00EEF912307BE9600375E8
:1055B0000A000EEEC3940A40E8E50B60537AC97BFB
:1055C00030122A51804A122A218A0C8B0DAE0CAF60
:1055D0000DEE4F60387C007D00EE2405FAE43FFBC1
:1055E0008E828F83A3A3A3A3E0F912305DE9F9C3F0
:1055F000940A500CAC0B7A027B0012307B750A00C7
:10560000E50B600CEEFAEFFB1230C98003750A144B
:1056100002D27312118A7F040212B674F21211E4DC
:10562000ECFEEDFF750A15740E1211C0E0F50CA327
:10563000E0F50D74FF6A700374FF6B7021750B0049
:10564000AC0CAD0DEEFAEFFBA90B123081E9600353
:10565000750A00050BE50BC3940A503F80E2122A3D
:10566000218A828B83E5824583602D7C007D00E565
:10567000822405FAE43583FBA3A3A3A3E0F9123047
:105680005DE9F9C3940A5013AC0CAD0DEEFAEFFBD3
:10569000123081750A008003750A14A90A02DB1F03
:1056A000C082C08390077AEAF0A3EBF0900760E035
:1056B000FC7D007A267B001224B7900760E0F91287
:1056C000277B02E19874EF1211E474EC121174EA72
:1056D000FEEBFFEE240CF50EE43FF50FEE2405F58E
:1056E00010E43FF511EE2409F50CE43FF50DEE242E
:1056F00003F50AE43FF50B8E828F83A3A3E024FA1F
:10570000700302D99B24FD700302D8BD14700302FC
:10571000D79B14601024FD700302D891147003020B
:10572000D8F402D9A112E4B36049E0F5838882126B
:10573000D27888108911E845116038850E82850F6E
:1057400083E0F50E780E1213FBEE240BF582E43F96
:10575000F583E0F9850C82850D8312DD3E0A0A0A85
:10576000AB0B8510828511831211E2740112118A2C
:1057700002D9A1850C82850D8312140E9007761232
:10578000104A122553740212118AE9700302D9A13A
:105790007901850C82850D8302D96B7512008E828A
:1057A0008F83A385820C85830DE0600302D85E851C
:1057B0001082851183E0A2E0400302D85E900814B5
:1057C00012E4B6600302D85E7C0E7D007900AA1A4E
:1057D000AB1B1233D5850E82850F8312E163EA4B32
:1057E0006010750E06750F00780E1213F7EA24107C
:1057F000801B12E15D122A21EA4B700302D9A175C8
:105800000E06750F00780E1213F7EA2405FCE43B30
:10581000FD74021211D21233BD740212118A851066
:1058200082851183E0A2E25004D2F08002C2F0A28D
:10583000F0E433F8740C1211C0E048F0EEFCEFFD18
:10584000AA1AAB1B123093E970117A027B00900701
:1058500060E0F9123411790002D9A375121512E42F
:10586000B3700302D9A112E127700302D9A1850CFC
:1058700082850D83E0FC790112D9AD1211E2E512A7
:10588000700302D9A1FC790312E15D12E10D02D986
:105890009612E4B3700302D9A112E13A12D27889C8
:1058A0000DE8450D700302D9A18E828F83A3E0FC21
:1058B000790212E15D8882850D8302D9967C007D94
:1058C00000EE2404FAE43FFB850A82850B83E0F9AD
:1058D00012305DE9F8C3940A400302D9A1EE240A0C
:1058E000FCE43FFD7A0475F006E8A42425F912349F
:1058F000F502D9A112E15D900775E0600790184E9E
:10590000E0F9806A90184BE0700479058060122AF3
:10591000218A0E8B0FA80EA90FE849700302D9A1A6
:10592000E82404F50EE439F50F8E828F83A3A3A338
:10593000A3A3A3A3E0A2E0503A850E82850F83E0E3
:10594000FE6030850C82850D83A3E05402702474C0
:105950000E1211DAE82405FAE439FBEEF912305D93
:10596000E970107903850A82850B8312E1631225A1
:105970004D802EAC10AD11850E82850F83E0F9129B
:10598000E15D1230D512E4B3601712E12760127C9A
:1059900000790012D9AD1211E2800612E15D1230D9
:1059A000577901741412118A7F090212B6850A828E
:1059B000850B83E0FAA3E0FB8E828F832274F512BD
:1059C00011E474F2121174EAFE8C0C75F006E9A46D
:1059D0002420F50AAC1AAD1B7A0EF91234FBE970DB
:1059E000467C0679FFAA1AAB1B123435E97038746D
:1059F0000C1211C012E163EAF8E50C6005EEC8482C
:105A00008004EEF4C858F8EA687001EB6015740C75
:105A10001211C0E8F0A3E4F0AC1AAD1B7A0EA90A8B
:105A20001234F5790180027900740E12118A7F0315
:105A30000212B674F21211E474E6121174890C8A1F
:105A40000A8B0BECFEEDFF740C1211DA7A0E75F076
:105A500006E9A42420F91234FBE9600302DB187C78
:105A60000679FF740C1211D2123435E9600302DB9F
:105A7000187470250CF50DAC1AAD1B7A0CF91234A4
:105A8000FBE9600302DB14AA1AAB1B12308DE50A96
:105A9000450B701D7C0C7900AA1AAB1B123435E93A
:105AA00070727C0C7D007900AA1AAB1B1233D58072
:105AB00051AC1AAD1BAA0AAB0B1230878A0E8B0FA2
:105AC000A80EA90FE8497022EE4F604CAC1AAD1B2E
:105AD0007A007B00123087EAF8EBF9EA4B603988EC
:105AE000828983E50AF0A3E50BF012DB93FAEE6AF4
:105AF0007001EF601FEEF04F700888828983E4F038
:105B0000A3F0AA1AAB1B12308DAC1AAD1B7A0CA9EC
:105B10000D1234F5790180027900741A12118A7F0E
:105B2000060212B674F71211E47E00EE75F003A4BB
:105B3000F8A9F0EC28F8ED12DB57E06A7003A3E057
:105B40006B7006E8FAE9FB800B0EEEC3940440DBB1
:105B50007A007B0002DE7639F9888289832274F725
:105B60001211E47C00EC75F003A4F8A9F0EA28F81F
:105B7000EB12DB57E0F4FEA3E0F4FF88828983EEAA
:105B8000F0A3EFF012DB93F4F00CECC3940440D5D7
:105B900002DE76E82402F582E439F583E02274F42B
:105BA0001211E474F4121174EAFEEBFF8C0A8D0BEF
:105BB00090081412E4B6704FEE4F700302DD17EC3C
:105BC000450B700302DD1712309FE9901851F0C3A6
:105BD000940A4033750D007C0679FFE50D75F00ED3
:105BE000A4FAABF0747C2AFA74073BFB123435E953
:105BF000600302DC78050DE50DC3940A40D9750CED
:105C00000AE50C901851F0901851E0C3940A400333
:105C100002DD1775F006E0A4FB90081412E4B670DC
:105C20005CEEFCEFFD7A0E74202BF91234F57C0C3F
:105C30007D0079FFAA1AAB1B1233D5AC1AAD1B7AC3
:105C40000C901851E02470F91234F5750C0E750D96
:105C500000780C1213F7EEFCEFFD901851E012DD06
:105C6000D61233BD740212118A900814E50AF0A30B
:105C7000E50BF0790002DD19850D0C8084E0C82465
:105C80000612DD3260197A1B74212BF91234F512D9
:105C9000DD1E2406F582E438F583E4F0A380D312F8
:105CA000DD1E240A12DD3260107A1B74222BF912D9
:105CB00034F512DD1E240A80DB12DD1E240C12DDF9
:105CC0003260107A1074232BF91234F512DD1E2481
:105CD0000C80C112DD2712DD3260307A1074242B63
:105CE000F91234F512DD27F582E438F583E024104B
:105CF000FCA3E03400FD7A0475F006901851E0A48E
:105D00002425F91234F512DD278089900808E06017
:105D1000031230DB1230CF7901740C02D6139008D5
:105D200014E0F8A3E0C822900814E0F8A3E0C82427
:105D30000822F582E438F58312DD3EEC4D22E0FCCA
:105D4000A3E0FD2274F41211E474F2121174EAFE5D
:105D5000EBFFE9C3940A5004EE4F700479028034DB
:105D6000AC1AAD1B7A0E75F006E9A42420F91234A2
:105D7000FBE9F50A701C750C06750D00780C121302
:105D8000F774021211DAEEFAEFFB1233BD7402124D
:105D9000118AA90A740E02D61374F41211E4EAFEF1
:105DA000EBFF750A00750C06750D00780C1213F7E1
:105DB000EEFCEFFDE50A12DDD61233CF74021211AC
:105DC0008AE96004A90A800B050AE50AC3940A401F
:105DD000D4790A02D61675F00EA4F8A9F0747C28BE
:105DE000FA740739FB2274F71211E4750A00E50A08
:105DF00075F00EA4F8A9F0747C28FE740739FFEE44
:105E0000FCEFFD7A0E75F006E50AA42420F91234A1
:105E1000FBE960297C067D0079FFEEFAEFFB123387
:105E2000D57C067D0079FFEE2CFAE43FFB1233D5DA
:105E3000EE240CF582E43FF583E4F0A3F0050AE5D7
:105E40000AC3940A40A8900808E060031230DB12ED
:105E500030CF802274F71211E47E007F007C06EFC1
:105E600012DDD674FFF9123435E970010E0FEFC35D
:105E7000940A40E9EEF97F010212B674F71211E4B8
:105E80007E00EEF91230B7E9F90EEEC3940A500322
:105E9000E960EF80E174F31211E474CB121174899C
:105EA0000A901851E0650A701B7A017B0090076028
:105EB000E0F91234177A027B00900760E0F912349F
:105EC000171230E775F006E50AA4FF74202FFE7460
:105ED000271211DA7A0EEEF91234FBE9600302DFC1
:105EE0009D7C0679FF74271211D2123435E96003C4
:105EF00002DF9D7C0E7D0079FF74271211D21233D0
:105F0000D57C1B7D0079FF740C1211D21233D57C25
:105F10000C7D0079FFAA1AAB1B1233D5742712111E
:105F2000DA7A0EEEF91234F5E9FE740C1211DA7A0F
:105F30001B74212FF91234F5E9F50B740C1211DAE8
:105F40007A1B74222FF91234F5E9F50C740C121136
:105F5000DA7A1074232FF91234F5E9F50D740C1266
:105F600011DA7A1074242FF91234F5E9F50E740C55
:105F70001211DA7A0474252FF91234F5E9FFAC1AFC
:105F8000AD1B7A0C7470250AF91234F5E9F8E50BAB
:105F9000450C450D450E4F48CE4EFE80027E00EE6C
:105FA000F9743512118A7F050212B674F71211E4E2
:105FB000E9900760F01230A502DE7674F41211E465
:105FC000EAFEEBFF5480700302E07E900760E0F988
:105FD0001233F98A0A8B0BEA450B700302E0777AD9
:105FE00001E50A2404F8E4350BF9880C890D850ACB
:105FF000828B83E02450604014600624E160678057
:106000006C88828983E07068850A828B83A3A3A34E
:10601000A3A3A3A312140E850A828B83A3A3A3A315
:10602000A312DD3E850A828B83A3A312E1631230A3
:1060300069740212118A803888828983E0641E7034
:106040000F7900850A828B83A3A312E16312306368
:10605000850C82850D83E0F9E50A2405FAE4350B09
:10606000FB122775800AAA0A123075E9FAEA60075E
:10607000AA0AAB0B1233E7EEFAEF6480802AEE54E3
:10608000026028EE6402FE7C007D007A007B001234
:106090003093E960047A0180027A027B0090076005
:1060A000E0F9123411EEFAEFFB805FEEA2E0504C03
:1060B0006401F50AEFF50B12E11B1230E1E9602AE9
:1060C00012E4B3602012E127601B7C00790112E129
:1060D0001B8E828F831211E27C00790312E11B1266
:1060E000E10D1211E21230E7800C7A017B0090077B
:1060F00060E0F9123411AA0AAB0B800E540460065A
:10610000EE6404FA80047A007B0002D61690077AC7
:10611000E0F8A312E132F58388822290081412E499
:10612000A3E0FAA3E0FB2212E132F9E8FEE9FFEE78
:106130004F2212E13AE0F8A3E022E0F5838882A33F
:10614000A3227F020212B6C082C083900760E0F9EA
:106150008A828B83A312E163122817803B850A820F
:10616000850B83E0FAA3E0FB22C082C08374FF1298
:1061700011741230ABE9C39402851A82851B8340E7
:106180000474028002740AF0AC1AAD1B7A0179051E
:10619000122655740112118AD083D082020E127415
:1061A000F21211E474E8121174EAFEEBFF890C8C10
:1061B0000A8D0B7C187D007900AA1AAB1B1233D50F
:1061C000851A82851B83EEF0A3EFF0900762E0C092
:1061D000E074021211C0D0E0F0900763E0C0E074F8
:1061E000031211C0D0E0F0901850E0C0E074171214
:1061F00011C0D0E0F074151211C0E054FEFAA3E013
:10620000FB90184FE0A2E0E433F8EA48F8EBF974A9
:10621000151211C012E343A2E15004D2F08002C271
:10622000F0E854FDFAA2F0E43325E0F8EA48F87407
:10623000151211C012E343A2E45004D2F08002C24E
:10624000F0E8FAE954FEFBA2F0E433F9EB49F97403
:10625000151211C012E343A2E55004D2F08002C22D
:10626000F0E954FDFBA2F0E433F50E750F0074095C
:10627000780E121161EAF8EB450FF974151211C08E
:1062800012E343A2E65004D2F08002C2F0E954FBCC
:10629000FBA2F0E433F50E750F00740A780E1211AC
:1062A00061EAF8EB450FF974151211C012E343A22D
:1062B000E25004D2F08002C2F0E854FBFAA2F0E40B
:1062C00033F50E750F007402780E121161EA450E57
:1062D000F874151211C0E8F0A3E9F0900763E060CC
:1062E0001D750E10780E1213F77C647D077406126C
:1062F00011C0AA82AB831233BD740212118A9007B7
:1063000074E06011E50C600974151211C0E04402DC
:10631000F078018002780074141211C0E048F09007
:106320000761E0600478048002780074141211C0E0
:10633000E048F0AC0AAD0BAA1AAB1B122547741843
:1063400002DB1CE8F0A3E9F090184FE02274F7128A
:1063500011E412286B750A00E50A75F00EA4F8A97D
:10636000F0747C28FE740739FF7C0679FFEEFAEFA3
:10637000FB123435E97009EEFAEFFB79001228714F
:10638000050AE50AC3940A40CF02DE7674F61211BC
:10639000E474FD121174EAFEEBFF90081612E4B6E5
:1063A0007039750A18750B08780A1213F7750A0206
:1063B000750B00780A1213F7750A4D750B84780A6D
:1063C0001213F77CFF7DFF7A017B0012269774067B
:1063D00012118A900816EAF0A3EBF090081612E466
:1063E000B6700302E495750AFF780A1213FBE4F510
:1063F0000AF50B780A1213F774051211CA880A8974
:106400000B780A1213F774051211CA880A890B78DF
:106410000A1213F790081812140E79029008161237
:10642000E4AB122805740912118AE97036851A82C4
:10643000851B83E0FA74011211C0E0F8E4C8F9EAA0
:1064400028F50AE439F50BEA450B6017780A1213B0
:10645000F790081612E4A3A312E4AB123069740299
:1064600012118AE4F50AF50B780A1213F79008184E
:1064700012140E7CFF7DFF90081612E1631226A312
:10648000740412118A900816EAF0A3EBF090081633
:1064900012E4B67004790180027900740312118A43
:1064A00002E142E0F8A312E13AA32212DD3EEEFA45
:1064B000EFFB2290077AE0F8A3E0F9E84922C082D6
:1064C000C08390081412E4B6601090081412E163BF
:1064D0001233E7900814E4F0A3F0901851740AF016
:1064E00002E198C082C0839061907404F0A3744864
:1064F000F0A37402F09061807440F09061BC74036A
:10650000F09061877419F0906265741BF090624995
:10651000E0C3941390619C40107409F0906066741D
:1065200001F090619F7428800D740BF0906066E418
:10653000F090619F742CF012E6CE7009C291900326
:106540009C7467800590039C7461F012E71F90367D
:1065500020E493F46006E493F9122B297905122DB7
:10656000F902E72DC082C083E9540FF9906185E0FC
:10657000696012E5C654B84441F5C6E59E544764C7
:106580004170F8E9F053C6B8E59E544770FA02E747
:106590002DC082C083A8A853A87E906181E412F325
:1065A000B3C2BA539AFEC289759B00C2C275E90094
:1065B00075910075BF0075A91175B905906181F0DD
:1065C000A374C0F0A3E4F0D2BA439A017480584295
:1065D000A802E72DF0A3F002E72DC082C08374F873
:1065E00012117490039A12F8B3700302E6C6900376
:1065F0009AE0544060177908AA1AAB1B122C25AAFE
:106600001AAB1B12288F90039AE054BFF0E054801D
:106610006010790C7A627B05122C2590039AE05465
:106620007FF0E0A2E0501E12E6CE7009C291900306
:106630009C7467800590039C7461F0122895900308
:106640009AE054FEF0E05402601E12E7127009D284
:106650009190039C7471800590039C746AF01228D9
:106660009590039AE054FDF0E05404601090361CBD
:1066700012E72212289B90039AE054FBF0E05408A2
:10668000601090361D12E72212289B90039AE05466
:10669000F7F0E05410600D12E71F12289B90039A48
:1066A000E054EFF0E05420600A12289B90039AE037
:1066B00054DFF0A3E05401600D122B471228A19083
:1066C000039BE054FEF0740812118A02E72D9061DA
:1066D0009A12E91F90053CE0640122C082C083E960
:1066E0006005146017802912E6CE7009C2919003EC
:1066F0009C7467801A90039C7461801312E7127077
:1067000009D29190039C7471800590039C746AF087
:10671000801B90619A12E91190053CE0640122907F
:10672000361EE493906186F022A2E092AFD083D02F
:1067300082020E1274EA1211E474F412117490833E
:10674000E3AC1AAD1B740412108790361C93F460EE
:106750000302E8A6907808E0C39402500302E88A96
:1067600090830B74041211DA7408121087A81AA906
:106770001B8816891774041211CA880A890BAE0A7D
:10678000AF0B7512FF7513FF7510FF7C00750E4877
:10679000750F78801274086C700302E82074096C1D
:1067A000607E740A6C6079850E82850F83780A1288
:1067B000102C8E828F83A90BE50CC9F888147418ED
:1067C000780A120F6DE514450AF8C3E098A3E09922
:1067D000850E82850F83780A12102C40188E828FC6
:1067E000837418780A120F6DE514450AF8E0C3980F
:1067F000F8A3E0801A7418780A120F6DE514450AA0
:10680000FAE9FB8E828F8312F57AEAC398F8EB9946
:10681000F9C3E89512E995135006881289138C1074
:106820000CE50E2404F50E5002050FECC394135032
:106830000302E79574FF6512700474FF651360240A
:1068400085100A7402780A1211617448250AF582CB
:106850007478350BF583780A12102C85168285170B
:1068600083E50AF0EE2402FE50010F85168285179B
:1068700083A3858216858317740C1211C0E5826E7E
:106880007003E5836F600302E782750A01750B00F0
:10689000780A1213F774021211DA7A877B0D12311B
:1068A000A7740212118A740C12118A7F0E0212B69A
:1068B000C082C0839061AE7468F0A3746AF0906285
:1068C0004574FBF0A304F053F4FD43FE0290053C35
:1068D0007401F09061A0E0643A90619A701912E935
:1068E0001F740164017009C29190039C7467801E3B
:1068F00090039C7461801712E9117401640170099E
:10690000D29190039C7471800590039C746A02E597
:10691000D6743FF0A3745AF09061A0747FF0227493
:1069200033F0A37455F09061A0743AF0227F040212
:1069300012B6C082C0839004EEE06401700A900435
:10694000F3E06004790C8002790002E72DC082C078
:106950008375E1F19004F1E0605114600914605511
:1069600014604D147054122B599004E0E0F97AE150
:106970007B04122D7B9083DB12104A122DB1908381
:106980007B12104A122D879004F2E0F9122D9379B0
:1069900001122DED12EA6C241AF582E438F58374A5
:1069A00071F0A3742BF0790002E72D122B5F80B9F0
:1069B000122B6580B4122B6B80AF791280EA74F4CD
:1069C0001211E475D90D9004E7E0A2E0E43313134B
:1069D000F812EBA4484401F5D97582E175830412DD
:1069E000EBAE7004E583640470F57582E87583048A
:1069F00012ECEDE58264EE7004E583640470F175D9
:106A0000E1959004E7E0F97AE87B04122D81901774
:106A10004074FFF0A3742A12EAE312EB2D12EB2468
:106A200012EC679004F1E064019004DE700B12EA4E
:106A30007512102C9083D7800912EA7512102C90D1
:106A40008393780A120FB89083AF780A1210061257
:106A5000EA6C12EB1B780A12103B12EA6C12EB1272
:106A60007413F09003987402F002E92D9004DEE0B4
:106A7000F8A3E0C82212F822780A2274F71211E46F
:106A800012EB94F5D97582E175830412EBAE7004B4
:106A9000E583640470F59004F7E0600A78F87904FF
:106AA000FA12EB88DAFB12EC3512EBAE7004E583D8
:106AB000640470F5900517E0600A78187905FA12F9
:106AC000EB88DAFB75E195901740740BF0A3742BFB
:106AD00012EAE312EAED7412F09003987401F0FFE9
:106AE0000212B612EC507405F0A3742B2212EB2D97
:106AF00012EB2412EC6B9004DEE0F8A3E0C812EB7A
:106B00001B74FF12F3A19004DEE0F8A3E0C812EBBF
:106B100012222414F582E438F58322240EF582E44F
:106B200038F58322F0A3741DF0A3742B2212EB31ED
:106B30002212EB3522F0A37485F0A3742C2274F793
:106B40001211E412EB944402F5D97582E1758304C5
:106B500012EBAE7004E583640470F59004F7E06016
:106B60000A78F87904FA12EB88DAFB75E195901748
:106B70004012EBB6F0A312EBB612EAF07414F090E8
:106B800003987404F002EEE98882898312ECF1A87C
:106B900082A983229004F712EB9B22E02407F5D907
:106BA00012EBA4229004E0E0C4333354C02212EC70
:106BB000F1E58264E722741712EBC312EBC3F0A372
:106BC000742B22F0A3742BF0A374172274F7121104
:106BD000E412EB944406F5D97582E175830412EB57
:106BE000AE7004E583640470F59004F7E0600A7801
:106BF000F87904FA12EB88DAFB12EC3512EBAE707E
:106C000004E583640470F5900517E0600A7818794C
:106C100005FA12EB88DAFB75E1959017407411F0D4
:106C2000A3742B12EC4612EAED7415F090039874DD
:106C300003F002EEE990051712EB9B4404F5D975B9
:106C400082E17583042212EC507485F0A3742C2227
:106C500012EC542212EC617485F0A3742C12EC61D6
:106C60002212EB35F0A32212EC6B22F090174E7437
:106C700085F0A3742C12EC547485F0A3742C12EBE1
:106C800031F022C082C08312EA6C2406F582E43817
:106C9000F583E402E5D474F71211E49003C612F50B
:106CA0006C74C828F8740339F9E82405FAE439FB50
:106CB0008A828B8312F62F88828983A3A3A3A3A33E
:106CC000A3A3A3A3ECF0A3ED12ECE6A3A3A3A3A3B9
:106CD000A3E024FFF8A3E034FFF98A828B83E8F075
:106CE000A3E9F002EEE9F088828983A32212ECF195
:106CF00022E0F5D9A3229061D0E0F87480C398FC1B
:106D000012ED0922F012ED0922EA2482F582E43B19
:106D1000F583E02212ED1F2404F8E43583F922F50F
:106D200082E43FF583E5822212ECF1E86582227469
:106D3000F71211E4EAFEEBFF9061D0E0707875D9AC
:106D40000E75D90375D904EE248B12EDBB12ED2814
:106D50007003E9658370F6EE248312ED1412ED28BA
:106D60007003E9658370F675E1957908EE248BFA76
:106D7000E43FFB122C197904EE2483FAE43FFB1262
:106D80002C197C00EE24AAF8E43FF9ECFAC3E49A4B
:106D9000FA95E0FBEE2AFAEF3BFBEA248A12F83C74
:106DA00088828983F00CA3A882A983ECC39408404D
:106DB000DA12EECA8002790002EEE912ED1F240811
:106DC000F8E43583F922C082C08375D90275D903EE
:106DD00075D90575E195EA246FF582E43B12F578E3
:106DE000EA2471F582E43B12EED702E72D74F61225
:106DF00011E4EAFEEBFF900542740612EE4C12130A
:106E0000F77C017903122C79740212118A75D90664
:106E100075D90375824275830512EE447004E583CB
:106E2000640570F575E195900398E064087010EEC4
:106E3000246FF582E43F12F578EE247112F6B079F2
:106E40000102F01412ECF1E582644722F0750A4267
:106E5000750B05780A2274F61211E4EAFEEBFF9036
:106E600061D0E070367801900542740BF090039881
:106E7000E064077019750A42750B05780A1213F75A
:106E80007C017903122C79740212118A780512F1AF
:106E90001C12ECEDDAFB12EEC78002790002F0144E
:106EA00074F71211E4EAFEEBFF75D90375D9037587
:106EB000D90DEE24DD12F816F5D975E19579041295
:106EC0002DB712EECA802275E195EE246F12F8B943
:106ED000EE2471F582E43FF583E8F0A3E9F079014F
:106EE00022F0EEA2E092AF79007F010212B674F6B2
:106EF0001211E412F0216004780480027800E82482
:106F00000BF8EAC39840477C09900542EC12EF6801
:106F100012EF77DDFB12F813601B750A42750B0543
:106F2000780A1213F77903EEFAEFFB122C79740248
:106F300012118A7C0D12EF5312F01970FB75E19556
:106F40007904122DB712F2AAA3F079018002790018
:106F500002F01412EF598C0A2274012CF5D975D95C
:106F60000375824275830522F0EE24E2F8E43FF9CE
:106F70007A437B057D082212EF7B2288828983E099
:106F80008A828B8312ECE6A882A9838A828B83A3F0
:106F9000AA82AB832274F61211E412F02160047805
:106FA0000480027800E82408F8EAC3984064780670
:106FB000900542740CF09003B5E0900543F0900307
:106FC000B6E0900544F09003B7E0900545F09003DB
:106FD000B8E0900546F09003B9E090054712F0B094
:106FE000601B750A42750B05780A1213F77C067947
:106FF00003EEFA122C79740212118A780A12F0AA9E
:1070000012F01970FB75E1957904122DB712EECAD2
:10701000800279007F020212B612ECF1150AE50A2D
:1070200022EAFEEBFF9061D0E0F87480C398FA1278
:10703000F0B52274F61211E412F021600478048095
:10704000027800E82404F8EAC398405978029005D1
:1070500042E8F0EE24F412F81690054312F0B06006
:107060001B750A42750B05780A1213F77C02790327
:10707000EEFA122C79740212118A780612F0AA1212
:10708000F01970FB75E195EE247312F2ADEE247FDA
:1070900012F2AD12F2AAA3F07904122DB7EE240D6C
:1070A00012EECD8002790002F01412F122880A2239
:1070B000F012F0B522EE2482F582E43FF583E0225F
:1070C00074F61211E412ECF6600478048002780081
:1070D000E82404F8ECC398403E7802900542740717
:1070E000F0EA24F512F83C90054312ED046019759E
:1070F0000A42750B05780A1213F77C027903122CE9
:1071000079740212118A780612F11C12ECEDDAFB86
:1071100075E19579018002790002F01412F122E8FC
:10712000FA22740128F5D975D90375824275830551
:107130002274F71211E4E9FFA2AFE433FEC2AF7C80
:107140000080010C12F1C85011ECF8EA28F8E43B79
:10715000F912F1BEE06F70EB8016EA246EF8E43BA2
:10716000F9E0FCEA2CFAE43BFB12F1EBEF12F2B689
:10717000EEA2E092AF02EEE9C082C083A2AFE43398
:10718000FDC2AF12F83914F07C00801BECF8EA283D
:10719000F8E43BF9E8246BF582E439F583E0C0E0DC
:1071A00012F1BED0E0F00C12F1C840E0EA246DF517
:1071B00082E43BF58374FF12F1F5ED02E729E82440
:1071C0006AF582E439F5832212F839F8ECC3982283
:1071D000C082C083A8A8C2AF12F1EBE912F1F5E8B2
:1071E000A2E7E433FAE8A2E702E72BEA246AF58291
:1071F000E43BF58322F0EA2469F582E43BF583E47D
:10720000F02274F31211E4EAFEEBFFECFAEDFB8AD4
:10721000828B83A3A3A3A3E0541FF0EE243612F2C3
:10722000AD750C00EE245DFCE43FFD8A828B83E0AB
:107230008C828D83F0750D00E50C33333354F8F5F3
:107240000E8A828B83E0F50A750B00E50D780A1231
:107250001142E50AA2E05027EE2436F8E43FF9880F
:10726000828983E0F50AEE250AF50AE43FF50BE58D
:107270000A2438F582E4350BF583E50E12F2B605E3
:107280000D050EE50DC3940840B7050C8A828B836B
:10729000A3AA82AB838C828D83A3AC82AD83E50CE1
:1072A000C3940540867F050212B6EE241DF582E4E4
:1072B0003FF583E4F02212F2BC04F022F0888289C8
:1072C00083E02274F71211E49003C4E064017003B8
:1072D00002F3999003CAE0600302F3997401F0A3EA
:1072E000E4F0A3F090042A04F090042FF09003CD72
:1072F00012F3A09003D704F09003FDE4F09003E0B4
:1073000012F3A7A3F0900447F090043BF0900430F0
:107310007480F0A3E4F0900436F09004B212F3BE4F
:107320009004BBF090044AF090049A12F3BEA3F0CC
:10733000A3F09004A6F09004A8F09004A4F09004A8
:10734000BE12F3BE9004D1F09004CB12F3A774FFE9
:107350009004327804F0A3D8FC7A257B0478D279A3
:107360000412F3B964D77003E9640470F47AAA7B59
:107370000478AC790312F3B964B47003E964037060
:10738000F49003C4E004F0640170089003CCE09032
:1073900003C6F07AC87B0380047A007B0002EEE922
:1073A000E412F3B3A3F02212F3AB2212F3B3A3124D
:1073B000F3B322F0A3F0A3F02212EF7BE82212F342
:1073C000ABA3F0A3F022C082C0838A828B83A3A3E5
:1073D000A3E0600F8A828B83A3A3A3E4F09003C58C
:1073E000E014F09003C4E014F070069003C674FF3C
:1073F000F08A828B83A3A3E4F09004D7E0700D9011
:1074000003C5E0640170057900122D9902E72DC0D3
:1074100082C0839003CBE4F09003CAF09003C4F0E1
:10742000A3F0A374FFF075E1F102E72DC082C083E1
:10743000780079009003CBE0600478C879038882F3
:107440008983A3A3A3A3E0F902E72D74EE1211E44C
:107450008A0C890E9003C5E0F8E9C398502278FFA2
:1074600079FF9003CBE0601390043BE0640170056A
:1074700090044180039003F612F57AE8FEE980114A
:10748000E96009A312F56C12F55D8005EA2AFEEBAE
:1074900033FF8E108F11740378101211529003C5B0
:1074A000E0F8C3E51098E5119400500302F549E5B2
:1074B0000C25E0F50CEB33F50DEC2CF50AED33F56E
:1074C0000BAC0CAD0D8007EC2402FCE43DFDC3E5E4
:1074D0000A9CE50B9D4060C3EC9EED9F403FECF89D
:1074E000EDF9EEFAEFFB1210E98B11EA4511600697
:1074F0008E108F118006751000751100ECF8EDF9F3
:10750000EEFAEFFB1210E98A128B13EC9512F8EDEC
:107510009513F9E82510FCE93511FD801AE0F8E52E
:107520000EC3985012EEF8EFF9ECFAEDFB1210E9E9
:107530008B11EA45117090C3EC950CED950D400947
:10754000C3E50A9CE50B9D50067AFF7BFF8009ECA2
:10755000FAEDC313FBEA13FA7F0A0212B674F62897
:10756000F582740339F583E0FEA3E022E0F875F0BC
:107570000AA4C8AAF02AF922F58312F8BF2274F6E9
:107580001211E474FC121174EAFEEBFF803CEE244D
:1075900063F8E43FF97A007B00A2AFE433F50A1206
:1075A000F629EC4D600F12F878700A88828983A35F
:1075B000A3E4F0A3F0E50AA2E092AF1234419004F4
:1075C000D8E004F09004D9E004F0EE2463F582E4FE
:1075D0003FF58312F8B370B69004D9E060358E821F
:1075E0008F83A3A3A3A3E0851A82851B83F0A3E462
:1075F000F09004D9E0F874021211C0E8F0A3E4F0AE
:1076000074021211DAAA1AAB1B79011228FB90043A
:10761000D9E4F0EEFAEFFB122BD1EEFAEFFB122CCD
:10762000AF740412118A02F014C2AF88828983E019
:10763000FCA3E0FD2274F71211E4EAFEEBFF8E8258
:107640008F83A3A3A3A3E0FA7B001228D1EEFAEF65
:10765000FB122BE9122C9102EEE9C082C083E49068
:1076600003AC7808F0A3D8FC9003AC0402E5D67410
:10767000F61211E4EAFEEBFFEC2403F8E43DF9888E
:107680000A890BEC2407F8E43DF9E8FCE9FD12F661
:10769000BC1210E9EE240D12F6B012F6BC1210E97D
:1076A0008B0BEA450B6006EE240D12F6CF02F014A8
:1076B000F582E43FF583E8F0A3E9F0228C828D8324
:1076C00012F8BF850A82850B83E0FAA3E0FB22F55E
:1076D00082E43FF583E02401F0A3E03400F022745B
:1076E000F61211E4EAFEEBFFEE242EF582E43FF5FC
:1076F0008312F62F780079FAECFAEDFB1210E9EE1E
:10770000246F12F6B0780079FAECFAEDFB1210E96A
:107710008B0BEA450B6006EE246F12F6CF02F014D5
:1077200074F41211E4EAFEEBFF122D518A0A8B0B5E
:107730008C0C8D0D90838F780A120FB89083AF78E0
:107740000A121006780A1213F38E828F8312F81E23
:1077500012104A122064740412118AE9600302F8BC
:107760000E8E828F83E02402F8A3E03400F9E8FA59
:10777000E9FB740C1211C0780A12102C8A828B83D8
:10778000780A120FCB9083AF780A12102C8A828B62
:1077900083780A121019EE240BF582E43FF583C0BA
:1077A00082C0838E828F83A3A3A3A3A3E02401F8C6
:1077B000A3E03400F9D083D082E0687003A3E069CD
:1077C00070047901804A8E828F83A3A3A3A3A3A30D
:1077D000A312F6D5EE247312F81664017013EE248A
:1077E0007412F8287003A3E0697006EE247412F690
:1077F000CFEE247F12F81664017013EE248012F885
:10780000287003A3E0697006EE248012F6CF790099
:1078100002E92DEE2482F582E43FF583E02212F89E
:10782000222212F85DA3A32212F8B98E828F83A3BD
:10783000A3A3A3A3A3A3E06822EA246EF582E43BFA
:10784000F583E02274F71211E412F8A88A828B8380
:107850006005A3A312F85D12F86602EEE1E0F8A35A
:10786000E0F58388822212F89EA3A3ECF0A3EDF04A
:107870008C828D83E4F0A32288828983E0FAA3E0DE
:10788000FB8A828B83E0FCA3E0FD8882898312F867
:107890009EE4F0A312F2BCFCA3E0FDEC4D22ECF060
:1078A000A3EDF08A828B8322A2AFE433FEC2AF8ABB
:1078B000828B8312F8BFE84922F582E43FF583E02A
:1078C000F8A3E0F92274F71211E4E96006F812F85F
:1078D000DAD8FBECFAEDFB02EEE98C828D83E08ACC
:1078E000828B8312F8F08A828B83A3AA82AB8322D5
:1078F000F08C828D83A3AC82AD832274F41211E4E8
:10790000890AEAFEEBFF12FFDF6005791102F9D167
:107910009002A5E0540560309002D412FFE26005A9
:1079200012FBFD7005791002F9D19002A5E0A2E0EA
:107930004006122637E960158E828F83E0F87403C3
:1079400068600A7402686005791202F9D17A0C7BCA
:10795000001234839002C012FB8B12FFDF606E12A4
:10796000FD15E50A12F9D4E4F0750C0AF50D780C52
:107970001213F7EEFCEFFD9002C0E02402FAA3E040
:107980003400FB1233BD740212118A1225DDE9FEA8
:10799000600512260180389002A6E0640370307AF8
:1079A0001D7B001224BD9002A712FB8B9002A71230
:1079B000FFE2601B9083E712140A7A047B009002B6
:1079C000DAE0F9123525740412118A80027E13EE72
:1079D000F902FF12F09002C012F9DC2212FF28F522
:1079E000838882A32274EE1211E4890E8A0C8B0D17
:1079F0008C108D119002A5E05405700302FA897471
:107A000001650C700D9002D412FFE2607C9002D4EC
:107A1000800B9002D612FFE2606F9002D6E0FEA3C8
:107A2000E0FFEBC394205008EB6009EC45117004B3
:107A300079028057E50E9016AAF08E828F83A38577
:107A4000820A85830B7C1F7D007900AA0AAB0B128A
:107A500033D5850D1275130078121213F7AC10ADE3
:107A600011AA0AAB0B1233BD740212118A8E828FD7
:107A700083E50DF0F9E50CAA0AAB0B600512285955
:107A8000800312285FE9F9800279127F0A0212B698
:107A900074F71211E412FFDD70047912803912FBC1
:107AA000FD6E60047903802F7A027B009002DAE099
:107AB000F912352B9002D8E4F0A3F07A04FB90027F
:107AC000DAE0F912352B9002A7E4F0A312F9D4748E
:107AD00003F0790012286502FB83D083D082020E66
:107AE0001274F71211E49002D412FFE2600D12FF3B
:107AF0001C1234899002D4E4F0A3F09002D612FF55
:107B0000E260109002D612FF1F1234899002D6E470
:107B1000F0A3F09002A5E05405605F7AAB7B1612EB
:107B2000264F7E009002A5E05405604A7A207B0033
:107B300012348312FB889002D412FFE260367C205C
:107B40007D0079001233D57A207B001234839002B5
:107B5000D612FB8B9002D612FFE2600B7C207D00D8
:107B600079001233D5800F12FF1C1234899002D491
:107B7000E4F0A3F07E13EEF980097A007B00122670
:107B80004F79007F010212B69002D4EAF0A3EBF025
:107B90002274F61211E47E018A828B83A3A3A3E0F0
:107BA000FCA3E0FD8C0A8D0B780A12143B0620041E
:107BB000F0FBBCFBF0FBCEFBCEFBC4FB12FF5A126A
:107BC00025E3800612FF5A1225E9E9FE8024740895
:107BD0006C700374206D70047901800279008A82D0
:107BE0008B83A3A3A3A3A312FBFAFA1225EF8002AF
:107BF0007E00EEF902FF179002D4E0F8A312FD1503
:107C0000E02274F21211E412FFDF700302FCD412BE
:107C1000FD10A3E0F50D122637E960137A0A7B0008
:107C20001224BD8A0A8B0BAE0AAF0B7A0B802A1284
:107C30002607E960137A067B001224BD8A0A8B0BA3
:107C4000AE0AAF0B7A0780117A087B001224BD8A36
:107C50000A8B0BAE0AAF0B7A097B001224BD8A0A8D
:107C60008B0B9002A6E07005750C008003750C016B
:107C70009002C0E02404FAA3E03400FB12F9D5A37B
:107C8000A3E0F91224E1E9F912FF25C8240B12FC44
:107C9000DB1213FB12FF25C8240A12FCDB1213FBB4
:107CA0009002C0E02404F50EA3E03400F50F780E36
:107CB0001213F7E9F50E780E1213FB780C1213FB72
:107CC000A90DAC0AAD0BEEFAEFFB122853740612A5
:107CD000118A800279017F060212B6F582E438F536
:107CE00083E0F50E780E2274F71211E412FFDD60C6
:107CF0001AEE700C12FD107401F0F9122865E9FEFD
:107D0000EE6004F91225FB79018002790002FB8301
:107D100012FD15A322E0F58388822274F01211E48B
:107D200012FFDD700302FDFC12FD10E06401600330
:107D300002FDD5122607E960557A017B001224BDA9
:107D40008A0A8B0BE4F50CF50DC3EA9442EB940020
:107D5000402B9083E712140A7A027B009002DAE04B
:107D6000F9123525740412118AE50A24C4F8E50BCA
:107D700034FFF99002D8E8F0A3E9F08041908387BE
:107D8000780E12102C780A790E120E7E80107A006E
:107D90007B001224BD8A0A8B0BE4F50CF50DE50A75
:107DA000450B450C450D6016780A1213F37A027BD9
:107DB000009002DAE0F912351F740412118A12F9E8
:107DC000D57402F09002A9E07007EEF91225FB804D
:107DD00027E4F080239002A9E0701D7A037B001253
:107DE00033E1EA4B600F12FE037404F09002C012FC
:107DF000FF631233ED1226017901800279007F08BA
:107E00000212B68A828B8374D0F0EEA3F08A828B42
:107E100083A3A32274F61211E4E9FEEAFF9016AAE6
:107E2000E0F4602A7A047B001233E1EA4B601F8A97
:107E3000828B8374D0F0EF12FE0B7402F0EE8A8214
:107E40008B83A3A3A3F09016AAE0F91233ED02FFEF
:107E50001774F41211E4E9FE74016E600302FEED82
:107E60009002D812FFE260069002A9E0601212FFB1
:107E7000DF700302FF1012FBFDF91225CB02FF1089
:107E80009002D8C3E0943CA3E09400400D9002D847
:107E9000E024C4F0A3E034FF80507A027B0090021B
:107EA000DAE0F912352B9002D8E0F50AA3E0F50BE1
:107EB000E50A75F0E8A4C50AA8F075F003A428F84F
:107EC00075F0E8E50BA428F50BE4F50CF50D780A40
:107ED0001213F37A027B009002DAE0F912351F7474
:107EE0000412118A9002D8E4F0A3F0802312FFDF7D
:107EF000601E9002A5E0A2E250167A027B0090027A
:107F0000DAE0F912352B9002D8E4F0A3F012260142
:107F100080007F040212B67F020212B69002D4E003
:107F2000FAA3E0FB229002C0E0F8A3E02274F6126C
:107F300011E412FFDD60207A037B001233E1EA4B8B
:107F4000600F12FE037403F09002C012FF6312333D
:107F5000EDEE600312260102FF178A828B83A3A332
:107F6000A3A3A3E0F8A312FD15E0F922C082C08309
:107F700012FFDF60109002C012FF1F1234899002BE
:107F8000C0E4F0A3F002FADA74F61211E474FF12FE
:107F900011749002D412FFE260399002D4E02401FF
:107FA000F50AA3E03400F50B780A1213F712FBF779
:107FB000FC74021211D2790112252F740212118A57
:107FC0008A828B83E58245836009E0A2E0500479D0
:107FD0000180027900740112118A02FF17E9FE90F4
:107FE00002C012FF28F9E849227408F5D575D42D8E
:107FF0007408F5D375D235020E12FFFFFFFFFFFFA5
:108000002124CD262D24D3263924D9264524DF2624
:108010005124E5266324E5266F24EB264524F1262A
:108020005D24F726000000008124F7268D24FD261C
:108030000000000000000000000000000000000040
:108040000000000000000000000000000000000030
:1080500000000000000000B000405104C1FF00F02B
:1080600000000000000000B000405104C2FF00F01A
:1080700001010201020101020102030304010301E3
:10808000010101010303020103632A9531F72F590E
:1080900034552931265B2F3F276D35C33087279113
:1080A00035546578617320496E737472756D656EB1
:1080B000747300312E3620284D61792031392032F9
:1080C00030313529004343323534312053656E73E6
:1080D0006F725461670000000000000000B00040B3
:1080E000510442AA00F000000000000000B000406F
:1080F000510443AA00F000000000000000B000405E
:10810000510444AA00F000000000000000B000404C
:108110005104C0FF00F000000000000000B000406B
:10812000510433AA00F0FB349B5F800000800010F4
:1081300000000000000000000000000000B000404F
:10814000510432AA00F000000000000000B000401E
:10815000510431AA00F000000000000000B000400F
:10816000510430AA00F000000000000000B0004000
:10817000510441AA00F000000000000000B00040DF
:10818000510402AA00F000000000000000B000400E
:10819000510440AA00F000000000000000B00040C0
:1081A000510401AA00F000000000000000B00040EF
:1081B000510400AA00F000000000000000B00040E0
:1081C000510423AA00F000000000000000B00040AD
:1081D000510422AA00F000000000000000B000409E
:1081E000510421AA00F000000000000000B000408F
:1081F000510420AA00F000000000000000B0004080
:10820000510453AA00F000000000000000B000403C
:10821000510452AA00F000000000000000B000402D
:10822000510451AA00F000000000000000B000401E
:10823000510450AA00F000000000000000000000FF
:1082400000000000008700000000000000B00040B7
:10825000510413AA00F000000000000000B000402C
:10826000510412AA00F000000000000000B000401D
:10827000510411AA00F000000000000000B000400E
:10828000510403AA00F000000000000000B000400C
:108290005104C3CC00F000000000000000B000401A
:1082A0005104C2CC00F000000000000000B000400B
:1082B0005104C1CC00F000000000000000B00040FC
:1082C0005104C0CC00F000000000000000B00040ED
:1082D000510410AA00F0F401FA00960064004B006B
:1082E00032001E001400FE006578706572696D65CD
:1082F0006E74616C496D67204964656E7469667956
:1083000000496D6720426C6F636B007869E0AB5089
:10831000C3F0D20C00000000001B85238B2300005B
:1083200057335D330000A923AF23000069336F3357
:10833000000067266D26000027302D300000000069
:10834000FF2700000F331533000035313B310000AB
:10835000F135F735000033333933000000000000F9
:1083600000003F30000000004E2E412E004E2E41F6
:108370002E004E2E412E000500000055555500F1EF
:10838000FFFFFFB80B0000E80300000000FF000241
:108390000000000400000050000000140000004035
:1083A000420F0013010000FFFFFFFF00001000FF5D
:1083B000FFFF003C00000071020000F4FFFFFF0D12
:1083C000000000F8FFFFFF01C8000003000000F6F6
:1083D000FFFFFFE7FFFFFF00080000D6BE898E0702
:1083E00000000031B1E1FF60EA00000A0000000176
:1083F000000000B40000006400000019000000004C
:10840000000100430000000100FF007D0000001A91
:1084100000000010568110868110068110C682026D
:10842000378410E68102638410268202598410B6D4
:1084300082025B8410A6810A18232A242A252A2670
:108440002A052A042A032A022A012A002A022901CB
:1084500029032801282A2A002801180018272A2879
:108460002A502AE0FFE1FF292AC082C0839003043A
:10847000E075F005A4FAABF0123483900300EAF043
:10848000A3EBF090030012891B70047913805A7AD1
:1084900000801574FFF0A31284ECF088828983A316
:1084A000A31284ECA3E4F00A900304E0F8EAC39872
:1084B0005020EA75F005A4F8A9F0900300E028F830
:1084C000A3E039F9EA8882898370C874FEF0A304B6
:1084D00080C57AC77B2612272D7A1B7B271223B5EE
:1084E0007A277B27122A0F79000294DEF08882898E
:1084F00083A3A3A32274F21211E4EAFEEBFF8E829F
:108500008F8312891B6055EE240312943C12864E11
:10851000750D00780C1213F78A828B83A312140E48
:108520007C027D007A577B8412249F740412118A86
:10853000E9702E850A82850B8312864E780C121301
:10854000F78A828B83A312140E7C027D007A537B00
:108550008412249F740412118AE97005790202863C
:108560003E8E828F83A3A3E024F9C3940A40057949
:108570001802863E90171A12891B600CC3E498FA01
:10858000E499FB1286415005790102863E7A077B09
:10859000001234838A0C8B0DEA450D7005791302A5
:1085A000863E7A007B00803D90171A1291738A0EE6
:1085B0008B0F7403780E121161850A82850B83E09C
:1085C000250EF8A3E0350F8882F583A3A3A3A3ECBF
:1085D000F0A3EDF090171AE02401F0A3E03400F0CE
:1085E0000AEA70010B12864140BE850C82850D831C
:1085F000E4F0A3F0750A05F50B780A1213F7EEFC08
:10860000EFFDE50C2402FAE4350DFB1233BD7402D4
:1086100012118A90030212891B9003026017E0FA7C
:10862000A3E08003E8FAE9FB8A828B8312891B703E
:10863000F38A828B83E50CF0A3E50DF079000288C4
:108640000C8E828F83129191C3EA98EB9922128C3F
:10865000A48A828B83E0F50C22C082C083E9901744
:1086600019F00294DE74F61211E48A0A8B0BE9FF0A
:10867000ECFAEDFB74145F60071226AF74018009F9
:10868000EFA2E6500E1226AFE4FCAA0AAB0B122AA8
:108690004B800AA2E04004790280027900028CCD6E
:1086A00074F61211E48A0A8B0BE9FFECFAEDFBEF8A
:1086B000A2E5500F1226AF7401FCAA0AAB0B122AD6
:1086C0004B804974885F603974085FFE1226AFEEF4
:1086D000FCAA0AAB0B122A4BE9F9602E740A12119C
:1086E000C0128CA08A828B83A3A3A3A3A3A3E06060
:1086F0001B8A828B83A3A3A3A3A3E06401600B80E6
:108700000BEFA2E14004790380027900028CCD7462
:10871000F21211E474FB1211748A0A8B0B890CE4B7
:10872000F50EF50F780E1213F7750E02780E121370
:10873000F7750E41750F84780E1213F77CFF7DFFDD
:108740007A017B00122697740612118A8A0E8B0F0B
:10875000AE0EAF0FEE4F7003028803E4F50EF50F77
:10876000780E1213F77C047D00791DAA0AAB0B1258
:10877000276F740212118A74031211C0EAF0A3EB7E
:10878000F074031211C012891B60748E828F8312E1
:108790009189851A82851B83E8F0A3E9F07402129F
:1087A00011C07404F0141211C0128F8F7401F07490
:1087B000031211C0128F8FA3E4F074031211C012C0
:1087C0008F8FA3A374FFF074031211C01288117469
:1087D000FFF0E50CF50D780D1213FB790074011212
:1087E00011DAAA0AAB0B1226B5740112118AE9FE3E
:1087F000601374031211C0128CA012344180067EE3
:108800001580027E01EEF9740512118A7F060212AC
:10881000B6128F93A3A3A32274EA1211E48A148BD5
:10882000158C128D13900302E0F50AA3E0F50B748A
:10883000161211C0E0F516A3E0F51774181211C056
:10884000E0F50CA3E0F50D800D850A82850B83E031
:10885000F50AA3E0F50BE50A450B70030289127EC9
:10886000007F00E50A2405F510E4350BF5118005BD
:108870000EEE70010F850A82850B8312918BC3EE79
:1088800098EF9950C48E0E8F0F7403780E121161F9
:10889000851082851183E0250EF50EA3E0350FF5D6
:1088A0000F850E82F583129189C3E89514E9951519
:1088B00040BEC3E51298E5139940B5E50C450D603F
:1088C00023780C1213F778161213F7850E82850F92
:1088D00083E0FC7D00A3128CA012249F740412116B
:1088E0008AE9608C741A1211C012891B601E8510EF
:1088F00082851183E0FAA3E0F5838A82A3A3A3A370
:10890000128CA088828983EAF0A3EBF0AA0EAB0F49
:1089100080047A007B007F0E0212B6129191E84922
:108920002274EE1211E4ECFEEDFF900302E0FCA3D2
:10893000E0800A8C828D8312918DE8FCE9FDEC4D7C
:1089400070030289DF8C828D83A3129189880A8942
:108950000B8882F583A3A3A3A3E0F50EA3E0F50F94
:10896000C3EA950EEB950F40CA8C828D83A3A3E0DA
:10897000F510A3E0F511E50E2510F8E50F3511F916
:10898000C3EA98EB9950AC750C00750D0080080592
:108990000CE50C7002050DC3E50C9510E50D951165
:1089A0005091850C12850D1374037812121161E534
:1089B0000A2512F8E50B3513F988828983A3A3A34E
:1089C000A3E06A7003A3E06B70C5EE4F600B8E826C
:1089D0008F83E50EF0A3E50FF0E8FAE9FB80047A57
:1089E000007B007F0A0212B674F01211E474FE12CA
:1089F0001174EAFEEBFF750A00750B00851A82857B
:108A00001B83E4F0A3F0EE2404F50EE43FF50F859C
:108A10000E82F58312961DA385820C85830D74FF4B
:108A20006A700374FF6B6038A81AA91B880A890B47
:108A3000780A1213F78E828F83E0F50A750B00789F
:108A40000A1213F7850C82850D8312140EEA240195
:108A50000A50010B122697740612118A8A0A8B0B90
:108A60008E828F83E0F51075110078101213F78550
:108A70000C82850D8312140E7C027D007A577B8454
:108A800012249F740412118AE970288E828F83E069
:108A9000F51078101213F7850C82850D8312140ED1
:108AA0007C027D007A537B8412249F740412118A05
:108AB000E9600B850E82850F83128CA080458E8223
:108AC0008F83E0F51078101213F7850C82850D83E3
:108AD00012140E7C027D007A517B8412249F740450
:108AE00012118AE9603674121211C0128CA0E50AC4
:108AF000450B600F851A82851B83E06A7003A3E033
:108B00006B60051226C1801F850A82850B83A3A393
:108B1000A3A3E024FFFAA3E034FF800A850E828538
:108B20000F83E0FAA3E0FB74141211C012918D8838
:108B3000828983E58245836005EAF0A3EBF0AA0A07
:108B4000AB0B02944874F61211E41227038A828B4D
:108B500083E58245836005128CA080047A007B0047
:108B6000028CCD74F61211E41227038A828B83E5FE
:108B70008245836006A3A3E0F980027910028CCDC0
:108B800074F21211E474FC121174EAFEEBFF8C0A09
:108B90008D0B890C74021211DA122709E9F50D7098
:108BA0007FE50C6022128C8C12269D851A82851B13
:108BB00083128CA01226AFE9F97C01EEFAEFFB12CA
:108BC0002A4BE9F50D7059AC0AAD0BEEFAEFFB122A
:108BD0002409E9F50D704974021211C0128C277432
:108BE000121211C0E0F50A74FF650A6033EE240228
:108BF000F50EE43FF50F780E1213F7750E1E750F84
:108C000000780E1213F7EEFCEFFD7A217B27122776
:108C100051740412118A8E828F83A3A3A3E50AF0F4
:108C2000A90D7404028809E0FEA3E0FF2274F51286
:108C300011E474FC121174EAFEEBFF8C0A8D0B89AF
:108C40000C74021211DA122709E9F97417696032FB
:108C5000E50C6021128C8C12269D851A82851B835F
:108C6000128CA01226AFE9F97C01EEFAEFFB122A72
:108C70004BE9F9700DAC0AAD0BEEFAEFFB122403D1
:108C8000E9F9740412118A7F030212B6851A8285EB
:108C90001B83E4F0A3F0AC1AAD1B850A82850B831D
:108CA000128CA422E0FAA3E0FB2274F61211E4EA8B
:108CB000FEEBFF1226A9EA4B600FEE24FFF8EF341B
:108CC000FFF9EA28FAEB398003EEFAEFFB7F0202A4
:108CD00012B674EC1211E474E61211748A0A8B0B4A
:108CE0008C0E8D0F7E007F00EC2402F50CE4350F16
:108CF000F50D850C82F583E0F8741E68705C122710
:108D00000F8A0E8B0FAE0EAF0FEE4F7003028DADBC
:108D10008E828F83A3A3E0F874FE687003028DAD8A
:108D200074FF687003028DADE4F50EF50F780E1236
:108D300013F7850C82850D83E0FD7C00AA0AAB0B3E
:108D40008E828F83A3A3A3E0F912274B7402121122
:108D50008AEEFAEFFB12271580538C828D83A38550
:108D600082128583137412687005E06401604312F7
:108D7000270F8A108B11AE10AF11EE4F6034EE2426
:108D800004F510E43FF511851082F583E0FC6022C4
:108D9000A2E74019850C82850D83E0F9AA0AAB0B86
:108DA000122763851082851183E0D2E7F0790002F3
:108DB0008F85901719E0F46068850C82850D83E03B
:108DC000FA74FE2AC394175058EAC313F5107511AC
:108DD000007402781012116174002510F874803547
:108DE00011F9E824FCF510E934FFF511851082F53E
:108DF00083129173EC4D6029E824FEF582E934FF7B
:108E0000F58312891B601A850E82850F83E0FB7043
:108E10000B851282851383E06401700A74126A6004
:108E2000057906028F8574041211CA881489157891
:108E3000141213F7850E82850F83A3A3A312140EB9
:108E4000850E82850F83A3A3A3A3A312917385121A
:108E500082851383E0FAEBF9851082851183128FE6
:108E60008F1211E2740412118AE9F50E6003028F69
:108E70008374041211DAAA0AAB0B850C82850D8368
:108E8000E0C313F50E750F007402780E12116174B1
:108E9000FE250EF582747F350FF583128F8F121128
:108EA000E2E9F50E6003028F2B850C82850D83E0CD
:108EB000FD74046D7003028F8374041211CA880E4E
:108EC000890F780E1213F77C00AA0AAB0B901719C2
:108ED000E0F912274B740212118AE9F50E600302C1
:108EE0008F83850C82850D83E0F974041211D212F0
:108EF00027698B0BEA450B600A742E1211C0128F82
:108F00008FE4F0850C82850D83E0F8741268700B95
:108F1000851282851383E064016068EE4F6064E827
:108F20008E828F83A3A3A3A3F0805885128285131A
:108F300083E0704F850C82850D83E0851A82851B46
:108F400083F074031211C0E9F0850C82850D83E073
:108F5000F8740468600D740668600874086860033B
:108F600074106874041211C012918D74011211C032
:108F7000E8F0A3E9F0AC1AAD1BAA0AAB0B1223BBB5
:108F8000750E00A90E741A12118A7F0C0212B61205
:108F90008F9322E0F8A3E0F5838882227900020E05
:108FA0001274EA1211E474FA1211748A128B138C7F
:108FB000828D83128CA0EC2402F514E43DF5158516
:108FC0001482F583C3E09AA3E09B4004EA4B70054A
:108FD000790102916B851A82851B83E4F074021279
:108FE00011C0E4F0A3F08007E82401FAE439FBE4BF
:108FF000F50AF50B780A1213F7780A1213F7780AB4
:109000001213F785148285158312917312269774B3
:109010000612118A8A0A8B0BEA450B700302910C27
:109020008A828B83A3858210858311EA2404F50C40
:10903000E4350BF50D851A82851B83E060030291F0
:109040001974041211CA880E890F780E1213F77C56
:10905000FF7DFF7905AA12AB1312276F740212115C
:109060008A8A0E8B0FAE0EAF0FEE4F70057911028C
:10907000916B74021211C0EEF0A3EFF0850A8285A5
:109080000B83E06402702374011211C07401F07448
:10909000041211C0E0F516A3E0F517740278161259
:1090A000115285160E85170F807974011211C07444
:1090B00002F074041211C012918D7A127B0012100A
:1090C000E9880E890F129197750A10750B00780ABE
:1090D0001213F71291791233BD740212118AEE2421
:1090E00010FE50010F851A82851B83E004F0C395A2
:1090F0000EE4950F5016850C82850D8312918D74A8
:10910000FF68700374FF696003028FE8851A828527
:109110001B83E0703B790A805274011211C0E06435
:109120000170A2850A82850B83E0640270DE1291D1
:1091300097750A02750B00780A1213F712917912CB
:1091400033BD740212118AEE2402FE50980F8095EE
:10915000AC1AAD1BAA12AB131223C7E9600B740241
:109160001211C0128CA01234417900740612118AB7
:10917000028916E0FCA3E0FD22851082851183E0C0
:10918000FCA3E0FDEEFAEFFB22A3A3A3A3129191AF
:1091900022E0F8A3E0F922850C82850D83E08E821F
:1091A0008F83F0A3AE82AF83850C82850D83A3E00D
:1091B0008E828F83F0A30EAF832274F61211E41215
:1091C00092624004EA4B700479018039E4F50AF5B3
:1091D0000B780A1213F78C828D83A3A3A3A3E0F567
:1091E0000A780A1213F71292561213F7EEFCEFFDEB
:1091F000122697740612118A8B0BEA450B700479BC
:109200000A80027900028CCD74F61211E412926287
:109210004004EA4B700479018039E4F50AF50B78D3
:109220000A1213F78C828D83A3A3A3A3E0F50A7817
:109230000A1213F71292561213F7EEFCEFFD1226E4
:1092400097740612118A8B0BEA450B7004790A8019
:10925000027900028CCDEC2405F50AE43DF50B788B
:109260000A228C828D83A3A3128C278C828D831279
:109270008CA4C3EE9AEF9B2274F61211E474FE12D2
:109280001174EAFEEBFF8C828D83AC1AAD1B128C3D
:10929000A012269D8A0A8B0BA80AA90BE849700424
:1092A0007901800A12937DEEFAEFFB122685740293
:1092B00012118A028CCD74F01211E474FE12117432
:1092C0008A0C8B0D8C0A8D0B750E008002050E85A5
:1092D0000A82850B83A3A3E0F8E50EC3985075AE10
:1092E0000EEE2EFEE433FF850A82850B83E02EF816
:1092F000A3E03FF988828983AC1AAD1BE0FAA3E0B2
:10930000F8E4C8F9EA28E439FB12269D8A108B118B
:10931000A810A911E849701812936BE0888289831C
:10932000F012936BA3E088828983A3F079018026F1
:1093300012937DAA0CAB0D122685E9F9608F12936A
:1093400059E08A828B83F0129359A3E08A828B833F
:10935000A3F080027900029448850A82850B83126B
:109360008CA4EA2EF582EB3FF58322850A82850BD9
:1093700083129191E82EF582E93FF58322851A82C6
:10938000851B83E0FCA3E0FD88828983A3A3A3E07F
:10939000F92274F01211E4ECFEEDFF8E828F83123D
:1093A000918D129439C3E098A3E0994004E8497084
:1093B000057901029437EE2405F510E43FF511EE2E
:1093C0002404F50CE43FF50D850C82F583E0F50EE1
:1093D000750F00780E1213F778101213F77C027DC8
:1093E000007A577B8412249F740412118AE9700456
:1093F00079108043E4F50E780E1213F7850C828500
:109400000D83E0F50C750D00780C1213F77810122F
:1094100013F7850A82850B831291738E828F8312D4
:109420008CA0122697740612118A8B0BEA450B70DA
:1094300004790A800279008014EE2402F50AE43FE0
:10944000F50B850A82F58322740212118A7F0802C5
:1094500012B674F41211E474FE121174EAFEEBFFFA
:109460008C0A8D0B128C9612269DEA4B70047901A2
:109470008022780A1213F774021211C01291738AB3
:10948000828B83A3A3A3E0F9EEFAEFFB12268B7481
:109490000212118A740212118A7F040212B6028F1C
:1094A0009CC082C0839003028004888289831289D1
:1094B0001B602788828983A3A3A3A3A3E0FCA3E066
:1094C000F5838C82A3A3A3A3E06A7003A3E06B706F
:1094D000D9E82402FAE439FB80047A007B00D083C7
:1094E000D082020E1274F61211E4ECFEEDFF122788
:1094F0000F8A0A8B0BA80AA90BE849602BEE4F6074
:10950000098E828F83E8F0A3E9F088828983A3A380
:10951000E0F874FE6870047917800F74FF687004B7
:1095200079008006791680027902028CCDC082C053
:10953000837C0080010C900304E0F8ECC398502574
:10954000EC75F005A4F8A9F0900300E028F8A3E07A
:1095500039F988828983E06A7003A3E06B70D6E8EA
:10956000FAE9FB80047A007B000294DE74F71211A2
:10957000E4EAFEEBFFEE2402FAE43FFB1227578EEB
:10958000828F83A3A3A374FFF07F010212B674F647
:109590001211E4E9FE12270F8A0A8B0BA80AA90B05
:1095A000E849601BE82404F582E439F583EEF8E02D
:1095B0007B00240150010B684B7004E05480F002E2
:1095C0008CCD74F41211E4EA4B604FEA2402F50AE0
:1095D000E43BF50B850A82F583E0F874FF68603A96
:1095E00074FE686035EA2403FEE43BFFE4F50CF505
:1095F0000D780C1213F77D1E7C178A828B831296CE
:109600001DE0F912274B740212118A850A82850B1C
:109610008374FEF08E828F8304F0029499128CA4DE
:109620008E828F832274F01211E48A0C8B0D890EC6
:1096300074FE650C700474FF650D70030296FAE900
:10964000702B12270F8B0BEA450B701E7AFF7BFFE6
:1096500012270F8A0A8B0BAE0AAF0BEE4F600B8EF0
:10966000828F83E50CF0A3E50DF00296FA74016594
:109670000E701A12270F8A0A8B0BAE0AAF0BEE4F31
:1096800060788E828F8374FFF0A3F080217402656E
:109690000E70677901122A2DE9705FAA0CAB0D12CA
:1096A000270F8A0A8B0BAE0AAF0BEE4F604C129459
:1096B00039E0F874FF68603874FE686023E4F510E0
:1096C000F51178101213F77D1E7C14AA0CAB0D8EC9
:1096D000828F83A3A3A3E0F912274B740212118A8D
:1096E000EEFAEFFB122715850A82850B8374FFF0D3
:1096F0008E828F83A3A3A3A3E4F002944D74F4128B
:1097000011E4907803E064427056900541E014F053
:10971000704EC2AF12971700782AD0E0F618D0E04A
:10972000F6E59F5407F87005750BFF8003750B7FF6
:10973000C4C0E07829E6F50A08E6550BF50B740B72
:10974000780A121152D0E0250AF8906270E0A2E780
:1097500040F8E8C333906272F0906270E0D2E0F0BB
:109760009003C6E0F470030299D312A09E1299EF01
:1097700012A0DC60151299EF12A02BEE2400F582E6
:10978000EF3401F583E0F91234118E828F83A3A3A5
:10979000A3A3A3A3A3129A1C129FFB906054E09072
:1097A000039FF0906055E09003A0F0906056E09029
:1097B00003A1F0906057E09003A2F0906058E09011
:1097C00003A3F0906059E09003A4F090605AE090F9
:1097D00003A5F090605BE09003A6F090605CE0FA77
:1097E0009003A7F090605DE0FC9003A8F090605EAD
:1097F000E0FD9003A9F090605FE0FB9003AAF09079
:1098000003A5E02AF50AE43400F50BE50A2DF50A74
:10981000E4350BF50BE50A2CFCE4350BFDEC2BFCD9
:10982000E43DFDEE24F612A48D2CF0A3E03DF0EE15
:1098300024F812A48D2AF0A3E03400F0EE24FA12EA
:109840009A29EE24FEF582E43FF58312A0DC603E07
:10985000129A0EF582E91299D83DF0906000E0FA74
:109860009003A7E0FCEA2AFAE433FBE82AFAE93B92
:10987000FBEA244AF582E41299D83400F0129A0ED9
:10988000F8E93BF9E82494F582E439129A2D900323
:10989000A5E0700E9003A8E07008A3E07004A3E0B8
:1098A00060638E828F83A3A3A3A3A312A0E2129965
:1098B000FA700312A8489003A0E0601FEE241C1267
:1098C000A47D12A80DE07013EE247312A48D700B0A
:1098D000EE247F12A48D700312A848906062E0709D
:1098E000030299728E828F8312A856E82406FCE444
:1098F00039FDE82402FAE439FB122D4B8E828F8366
:1099000012A0788074129FE7F09003A7E0600A121B
:1099100099FA702612A0848020EE24FC129A2990D5
:109920006000E0F825E0F8E433F9EE24FE12A00A26
:1099300024DEF582E439129A32F01299E1129A1C6F
:10994000E0687003A3E06960030298B612A48A601D
:10995000128E828F83A3A3A3A3A3E064057002A346
:10996000E0600479088002793EEEFAEFFB122BEFFB
:109970008061EE241DF582E43FF583E4F0A3F090CE
:109980006060E0C0E0EE2468F582E43FF583D0E05B
:10999000F09061C8E060061216E9E970F48E828FDB
:1099A00083A3A3A3E0602C9061C8E0700690606080
:1099B0007480F0EEFAEFFB122D09E964016014796E
:1099C00002EEFAEFFB12187A122CFDE96401600333
:1099D000122C917F040212B63BF583E02CF0A3E039
:1099E00022EE1299E622240BF582E43FF58322EE63
:1099F0002401F582EF3401F58322EE240FF582E491
:109A00003FF583E4F0EE241C12A4916401229060DF
:109A100000E0FA25E0FAE433FBE82A2212A85A8E85
:109A2000828F83A3A3A3A3A322F582E43F129A32D9
:109A3000F022F583E02401F0A3E034002253BFEFCD
:109A4000020E1274F01211E49003C612A09E9061EF
:109A5000D0E0700EEE2463F582E43FF58312A0DCC3
:109A60006005129FE78023EE246912A48D701CEE1E
:109A7000247312A48D7014EE247F12A48D700CEE4A
:109A8000241C12A4B1700412A084F08E828F83A3D0
:109A9000A3A3A3A312A023241D12A00A24010850EB
:109AA0000109EE2407F50CE43FF50D850C8212A0A8
:109AB000011299E2C3E098A3E09950208E828F832F
:109AC000A3A3A3A3A3A3A3C082C0831299E112A856
:109AD00056D083D08212A874501B80211299E1C005
:109AE00082C0838E828F83A3A312A851D083D08299
:109AF00012A86050089004DDE064017015129FE721
:109B0000F012A05C8E828F83A3A3A3A3A3A3A312AE
:109B10009FFBEE247312A4B16003029BB6129FCF89
:109B200012140E8E828F83A3A3A3A3A3A3A3E0FC8E
:109B3000A3E0FD8E828F83A3A3A3A3A312A02B1265
:109B40001698740212118AE9606C8E828F83A3A327
:109B5000A3A3A3A3A3C082C08312A05CD083D0829E
:109B6000E0687003A3E069604DEE247412A48D6870
:109B70007003A3E069603FEE2474F50AE43F850AB0
:109B800082F583E024FFFAA3E034FFFB850C828595
:109B90000D83EAF0A3EBF08E828F83A3A3A3A3A38C
:109BA000E0FCA3E0FD1216E1EA24FFF8EB34FFF934
:109BB000EE241D129FF5EE247312A4B16003029DE2
:109BC00011129FCFC082C08312A05CD083D082E0EC
:109BD000687003A3E0696003029D11EE2474F50A26
:109BE000E43FF50B850A82F58312A856850C828521
:109BF0000D8312A0032476FCE43FFDEEFAEFFB1286
:109C00002BFBEE247B12A01D2420F582E43F12A042
:109C100001241C12A46912A4C7F0EE240F12A49907
:109C2000850C82850D8312A0E28E828F83A3A3A36D
:109C3000A3A3E0FCA3E0FD850A82850B8312A02B81
:109C40001216E18A0A8B0B129FB912A02BE4F50CB5
:109C5000F50D8A0E8B0FF510F511780A790E120E9C
:109C60007EEE2477129FEB780A790E120FA5EE2470
:109C70007912A48D6A7003A3E06B701812A04DE0F6
:109C8000687003A3E069700C12A031E0687003A350
:109C9000E0696043EE247DF582E43FF58312A4E899
:109CA000121152780E1213F7EE247BF582E43FF581
:109CB0008312140EEE247912A48DFCA3E0C313FDCD
:109CC000EC13FC8E828F83A3A3A3A3E0FA7B001284
:109CD00028F5740412118AEE247612A48DC0E0EEE9
:109CE000242BF582E43FF583D0E0F0EE247912A036
:109CF0001D242E129FF512A031129FFB12A04D12AF
:109D0000A003FAEFFB122C01EE247312A469F08079
:109D10000312A0B2129FC3120E2A7014EE241F1257
:109D2000A48DF8EE241D12A48D687002A3E06030AB
:109D3000EE2412F50EE43FF50F780E1213F7EE2421
:109D400010F582E43FF58312140E129FD912140EFF
:109D5000AA0AAB0BAC0CAD0D122202740612118ACA
:109D6000129FC312103BEE241D12A48DC0E0EE24FE
:109D70001FF582E43FF583D0E0F0EE2412FCE43FCF
:109D8000FD12A00F12213E906062E0600A7C147DFB
:109D90008312A00F12213E8E828F8312A8568882D2
:109DA0008983A3A3E82408FCE439FD740612108714
:109DB0008E828F83E02402F8A3E03400F9E8FAE908
:109DC000FBEE241D129FEBE4F510F5119083EF7864
:109DD0000E120FB8780E790A120E7E8A828B837863
:109DE0000E120FCB9083AF780E12102C8A828B83C9
:109DF000780E1210199004D7E064016003029F38B6
:109E00007901122D9912A027750AFF750BFF750CA9
:109E1000FF750DFFEA240EF582E43BF583780A1204
:109E2000103BEA2412F8E43BF9E8FAE9FBEE2412CD
:109E3000F582E43FF583780A12102CE50A75F0E20A
:109E4000A4C50AA8F075F004A428F875F0E2E50BA3
:109E5000A428F50B8A828B83E0250AF0A3E0350B5A
:109E6000F0EE241612A48DF50AA3E0F50B74047825
:109E70000A121152E50A2401F8E4350BF98A828BA3
:109E800083E028F0A3E039F0906062E08E828F8357
:109E90007003029F9112A06FF0A3E03401F012A4AE
:109EA0008A602CEE242B12A48DF875F071A4C8AA38
:109EB000F075F002A42AF98E828F83E0FAA3E0CA3B
:109EC0002412F582E43AF583E028F0A3E039F01299
:109ED000A0278A828B83A3A3C082C08312A0B2D0A2
:109EE00083D082780A120FB89083C3780A120FB811
:109EF0009083AF780A121006EA2416F582E43BF547
:109F000083780A12103BEA2414F582E43BF583744B
:109F100010F08E828F83E0F8A3E0C8241AF582E463
:109F200038F5837477F0A3742BF0EEFAEFFB12157B
:109F3000D679007F080212B6908397780A120E5FD6
:109F40005003029E05129FD912A0DC6003029E05F9
:109F5000780A1213F3EEFAEFFB122C0774041211B5
:109F60008AE964016003029E0512A48A60128E824F
:109F70008F83A3A3A3A3A3E064057002A3E06004FE
:109F800079088002793EEEFAEFFB122BEF7901801F
:109F9000A212A06FF8A3E034FFF97A717B021210CD
:109FA000E9880A890B129FB912A856C3E50A98E5F9
:109FB0000B995003029E9E80C7EE242EF582E43F4B
:109FC000F58322EE2418F582E43FF583780A22EE29
:109FD0002474F582E43FF58322129FDD22EE241DD6
:109FE000F582E43FF5832212A4CC2212A491F50E4F
:109FF000A3E0F50F22F582E43FF583E8F0A3E9F052
:10A0000022F583E8F0A3E9F0EE2212A0F4E8228E14
:10A01000828F83E02402FAA3E03400FB22F582E47D
:10A020003FF58312A046228E828F83E0FAA3E0FBE5
:10A0300022EE247B12A0402430F582E43FF58322F7
:10A04000F582E43FF583E0F8A3E0F9EE22EE247D0B
:10A0500012A0402432F582E43FF583228E828F8362
:10A06000A3A3A3A3A3E02401F8A3E03400F92212E0
:10A07000A078F583E0241022E0F8A3E0C82412F5CC
:10A0800082E4382212A08822EE2420F582E43FF5F3
:10A0900083E0F8A3E0F9129FDDE8F0A3E922E0F8FD
:10A0A00075F00AA4C8AAF02AF974C828FE74033906
:10A0B000FF22EE242E12A491F50AA3E0F50BE4F59D
:10A0C0000CF50D22EE2471F8E43FF988828983E0D3
:10A0D00024FFF0A3E034FFF08882898312A85AE8B5
:10A0E000492212A046240D12A0F4EE1299E6E8F0DF
:10A0F000A3E9F022F582E43FF583E028F8A3E039F4
:10A10000F92274EC1211E4EAFEEBFF8C828D83E0FD
:10A11000F8A385820A85830B603B14700302A26A50
:10A1200014700302A43414700302A2AF24FD700360
:10A1300002A36F14700302A46214700302A3972495
:10A14000FE700302A37414700302A38D1470030243
:10A15000A3DC02A452EE2476F512E43FF513E08569
:10A16000128285138312A4D9EE2477F510E43FF50B
:10A17000117902AC0AAD0BAA10FB122C138A0A8BC0
:10A180000BEE2479F50EE43FF50F7902AC0AAD0B26
:10A19000AA0EFB122C138A0A8B0B7902AC0AAD0BA8
:10A1A000EE247BFAE43FFB122C138A0A8B0BEE247D
:10A1B0007D12A49E122C138A0A8B0B8512828513A2
:10A1C00083E0C333F085108285118312A4FD8510CE
:10A1D00082851183129FFB850E82850F8312A4FD59
:10A1E000850E82850F83129FFB850C82850D83125D
:10A1F000A4E8121161850C82850D83E50EF0A3E5BC
:10A200000FF0EE247412A49E122C13850C82850D7F
:10A2100083C082C08312A84DD083D08212A4F45090
:10A2200079EE247D12A0B5EE247B12A48D2401F5D5
:10A230000EA3E03400F50FE4F510F511EE2479F5E6
:10A2400082E43FF58312A4FD88128913E4F514F526
:10A2500015780E7912120E7E780A790E120E3F4092
:10A2600004793B8037EE2473803C7905AC0AAD0B52
:10A270007AD27B04122C138A0A8B0BEE248012A450
:10A280009E122C13850C82850D83C082C08312A878
:10A290004DD083D08212A4F440097928EEFAEFFB66
:10A2A00002A44DEE247F12A47D12A4C702A393EE54
:10A2B00024E112A48D700D12A47112A5077003EB96
:10A2C000640370F6EE24E212A48DA2E0EE401024A6
:10A2D000DDF582E43FF583741AF0790D02A42E12A5
:10A2E000A4B724E012A4997908AC0AAD0BEE249B24
:10A2F000FAE43FFB122C138A0A8B0B7902AC0AADED
:10A300000BEE24A3FAE43FFB122C138A0A8B0BEE0C
:10A310002493F50CE43FF50D7908AC0AAD0BAA0CBB
:10A32000FB122C138A0A8B0B7908AA0CAB0D122C8A
:10A3300019EE2487F50CE43FF50D7904AC0AAD0B5A
:10A34000AA0CFB122C137904AA0CAB0D122C19EEDB
:10A35000248BFAE43FFB122C2BEE2483FAE43FFB20
:10A36000122C3190039AE04480F0790402A42EEE7E
:10A3700024DE801CEE12A4B724D212A80324DC121F
:10A38000A7FB24D312A469F0790B02A45FEE24DFAB
:10A3900012A47DF002A46212A47112A5077003EB4F
:10A3A000640370F612A4718A828B83E0FC850A82B2
:10A3B000850B83E05C8882898312A4D98A828B838F
:10A3C000A3AA82AB8388828983A3A882A983EA6433
:10A3D000B47003EB640370CF79098052EE24EA1263
:10A3E000A4B1606E850A82850B83E0C0E0EE24EDA7
:10A3F000F582E43FF583D0E012A4D97902AC0AAD2E
:10A400000BEE24EEFAE43FFB122C138A0A8B0B7935
:10A4100002AC0AAD0BEE24F0FAE43FFB122C13EE73
:10A4200024EA12A7FB24EC12A48D7036790CEEFA04
:10A43000EFFB802BEE24F4F8E43FF9E08882898377
:10A44000F0EE24F312A49988828983E0F9122BEFAD
:10A450008010EE24F5F582E43FF583E8F0790712E9
:10A460002BB37F0C0212B624DEF582E43FF583E4C1
:10A4700022EE24E2F8E43FF97AAC7B032212A481B5
:10A4800022F582E43FF583740122EE240F12A49199
:10A4900022F582E43FF583E02212A481F022F50C3C
:10A4A000E43FF50D7902AC0AAD0BAA0CFB22EE24B9
:10A4B0006912A4916401222462F582E43FF583E4E9
:10A4C00012A829E4F0EE22F012A4CC22EE241DF50D
:10A4D00082E43FF583E4F0A322F0850A82850B83B2
:10A4E000A385820A85830B22E0F50EA3E0F50F74A5
:10A4F00004780E2212A86994FFE9947F2212A85AC8
:10A50000E828F8E933F9228A828B83E088828983FC
:10A51000F08A828B83A3AA82AB8388828983A3A8D3
:10A5200082A983EA64B42274F61211E4EAFEEBFF16
:10A5300002A693EEFAEFFB122BA702A7C112A4AE5C
:10A54000703C9003A2E0700302A722EEFAEFFB1228
:10A550002BB9EE24A3F50AE43FF50B780A1213F7A2
:10A56000EE249BFCE43FFD8E828F83A3A3A3A3E094
:10A57000FA7B001228DD740212118A02A693EEFA09
:10A58000EFFB122B7D02A7C112A4AE702E9003A286
:10A59000E06011EE248212A7FB24D412A7F2EE246D
:10A5A000D812A7F2EE24DE12A4B1600302A722792A
:10A5B00006EEFAEFFB122BBF02A693EE24D212A4F2
:10A5C000B1701BEEFAEFFB122B83E964016003020A
:10A5D000A7D7EE12A46712A80D740102A7C5EE2436
:10A5E000D312A48D700302A7D7EE24B2F50AE43F7C
:10A5F000F50B780A1213F7EE248BFCE43FFDEE24F2
:10A60000C2FAE43FFB122C37740212118AEE24D2F4
:10A6100012A47D805A12A4AE70589003A2E0700379
:10A6200002A72212A848EEFAEFFB122BB912A81CBF
:10A63000EE24DC12A4B1701379008E828F83A3A361
:10A64000A3A3E0FA7B001228E980137C0179008E35
:10A65000828F83A3A3A3A3E0FA7B001228E3EE2456
:10A66000DC12A80324E012A80312A80112A467F0C8
:10A670008021EEFAEFFB122B8902A7C112A4AE7063
:10A6800066EE24DF12A4B1600302A722EEFAEFFB0C
:10A69000122BB9EE246E12A48D700302A7D7EE24FC
:10A6A0006A12A48D24FE602C24FE700302A53D14C2
:10A6B000700302A58814700302A61514700302A784
:10A6C000C824FE607124FE60B314700302A7561400
:10A6D000603280BF12A4AE600302A5339003A1E0F4
:10A6E0006040791602A7AAEEFAEFFB122B8FE964FD
:10A6F00001600302A7D7EE12A801248212A8032446
:10A700006902A61012A4AE70239003A2E0600AEEC4
:10A71000248212A469F012A81C9003A1E060030235
:10A72000A68C12A0C4600302A7D7807CEEFAEFFBD0
:10A73000122B9502A7C112A4AE70129003A2E06082
:10A74000E1EE24E112A49912A84802A68CEEFAEFD9
:10A75000FB122B9B806B12A4AE705AEE24EA12A45B
:10A76000B17027EE24EB12A4B1600302A68C12A7ED
:10A77000DE12140E12A7E812140E12A83479001279
:10A7800028D7740412118A02A68C12A0C470481231
:10A79000A7DE12140E12A7E812140E12A8347922A2
:10A7A0001228D7740412118A7922EEFAEFFB122BC9
:10A7B000EF79018024EE24EC12A7FBFAEFFB122BB9
:10A7C000A112A812E9F0800FEEFAEFFB122BADE90F
:10A7D0006401700302A68C79007F020212B6EE2497
:10A7E000F0F582E43FF58322EE24EEF582E43FF5B6
:10A7F000832212A4CFF0A3F0A3F02212A481F0EEE2
:10A800002224DFF582E43FF583E4F0EE22F012A883
:10A810001222EE2469F582E43FF58322EE246212CF
:10A82000A48112A8297401F022F0EE2467F582E4D5
:10A830003FF58322EE24ED12A491FC8E828F83A338
:10A84000A3A3A3E0FA7B002212A088F0228E828FBD
:10A8500083A3A3A3A3A312A85A22E0F8A3E0F9229A
:10A8600012A86994ABE9941022E0C398F8A3E09988
:10A87000F9C3E82212A86994AAE994102274F2128A
:10A8800011E4890BEAFEEBFF8C0C750A1274FE6E64
:10A89000700374FF6F70189002C612B51C607212BC
:10A8A000A916606D7AFE7BFFA90B1211E2805A7423
:10A8B000FF6E700374FF6F70359002C612B51C6096
:10A8C0001312A916600E7AFF7BFFA90B1211E2E9A1
:10A8D000F50A600CAA0CA90B122589E9F50A70315A
:10A8E000E50B9002D2F0E50C9002D3F08023122AFF
:10A8F000218A828B83E58245836016E0650B700EAA
:10A90000A90CEEFAEFFB122835E9F50A8003750A67
:10A9100003A90A02B108E0F583888212B1FB88829C
:10A920008983E58245832274EE1211E4EAFEEBFF8F
:10A93000EE2402F510E43FF511EE2404F50EE43F99
:10A94000F50FEE2406F50CE43FF50DEE2408F50AAC
:10A95000E43FF50B850A82F58312140E850C82857F
:10A960000D8312140E850E82850F8312B05485104C
:10A970008285118312B322122907740412118AE905
:10A980007005790202AA37790112B31E122A2DE945
:10A990007005791402AA3712B31E122A33E964042F
:10A9A00070579016A8E0F47003A3E0F460057911E5
:10A9B00002AA378E828F8312B10D12B1F1851082F7
:10A9C00085118312B1F79002CA12B1F1850E82850A
:10A9D0000F8312B1F79002CC12B1F1850C82850D74
:10A9E0008312B1F79002CE12B1F1850A82850B83F2
:10A9F00012B1F79002D012B1F1E4F512F51378120A
:10AA00001213F778121213F7850A82850B8312143A
:10AA10000E850C82850D8312140E850E82850F83A0
:10AA200012140E85108285118312B05412B31E12B7
:10AA3000291F740A12118A02B67E74F21211E48977
:10AA40000A8C0C8D0D9002A5E064026005E06401A3
:10AA500070047912805DEC450D7004790280541207
:10AA60002A218A0E8B0FAE0EAF0FEE4F70047914B1
:10AA70008041E50A600B8E828F83A3A3A3E0D2E11D
:10AA8000F0750E10750F00780E1213F7AC0CAD0DAB
:10AA9000EE2410FAE43FFB1233BD740212118A1245
:10AAA000B982121062EE2420F582E43FF583121081
:10AAB0006E790002B10874F01211E4EAFEEBFF8C2B
:10AAC0000C8D0DEE4F7005790202ABC512B31E124C
:10AAD0002A218A0A8B0BEA450B7005791402ABC553
:10AAE0009002A5E06402601FE06401601AEA240B92
:10AAF000F50EE4350BF50F850E82F583E0640870E2
:10AB00000BE50C450D6005791202ABC59002C4122D
:10AB1000B51C6005791102ABC57A1F7B0012348326
:10AB20009002C412B2D69002C412B51C70057913FB
:10AB300002ABC57C1F7D0079001233D512B31E1203
:10AB4000ABC8A312B2D67510167511007810121387
:10AB5000F7EE2402FCE43FFD9002C4E02403FAA3D4
:10AB6000E03400FB1233BD740212118A12ABC874B8
:10AB700002F0850E82850F83E064087004790180FD
:10AB80000279009002C4E02403F50EA3E03400F53E
:10AB90000F780E1213F78E828F8312B0549002DA60
:10ABA000E0FA122E9B740212118AE9FEE50C450DA3
:10ABB000600BAC0CAD0DAA0AAB0B122ED7EE6003E6
:10ABC000122595EEF902B1E69002C4E0F8A3E0F593
:10ABD0008388822274F41211E474FF121174EAFE65
:10ABE000EBFF890A122A218B0DEA450D70047914B6
:10ABF0008014851A82851B83E50AF0AC1AAD1BEE22
:10AC0000FAEFFB122EBF740112118A7F040212B6F2
:10AC100074F01211E474F01211748A0E8B0F8C1000
:10AC20008D1174201211C0E0FEA3E0FFEEFAEFFBDD
:10AC3000122A218B0BEA450B7004791280659083F0
:10AC40009F780E120E5F5004790280577C107D00B1
:10AC50007900AA1AAB1B1233D5851A82851B83E5AE
:10AC60000EF0850F0BE50BF50A74011211C0E50A11
:10AC7000F0850E0A85100C85110D7410780A120FDC
:10AC80006D74021211C0E50AF07418780E120F6D7F
:10AC900074031211C0E50EF0EEFCEFFDAA1AAB1B17
:10ACA000122EA1741012118A02B1E674F11211E48D
:10ACB0008A0C8B0D89108C0E8D0F9002A5E064021A
:10ACC0006005E064017005791202AD79EC450F7002
:10ACD00005790202AD79122A218A0A8B0BAE0AAFDE
:10ACE0000BEE4F7005791402AD79EE2424F50AE4D9
:10ACF0003FF50B850A8212AD8760031234897C1BF5
:10AD00007D00AA0EAB0F1233C9850A82850B831210
:10AD1000B2D612B04EEC4D70047913805C12B76756
:10AD2000E06408703D740F1211C0E06035EC24122D
:10AD3000F50AE43DF50B780A1213F7EC2410F582BE
:10AD4000E43DF58312140EEC241AF582E43DF583FC
:10AD5000E0F9AA0CAB0D122EDD740412118AE9F988
:10AD600080027900EE2403F582E43FF583E0D2E22D
:10AD7000F0E5106004E0D2E1F07F070212B612B9EC
:10AD800079241BF582E438F58312B326EA4B22744A
:10AD9000EE1211E4122A218A0A8B0BAE0AAF0BEED7
:10ADA0004F700302AE3EEE2420F50AE43FF50B742B
:10ADB000121211C0121062850A82850B8312106E66
:10ADC0007A267B001224BDEAF50C70078E828F83F1
:10ADD000E0F50C850A82850B83780E12102C8E828A
:10ADE0008F83A3A3A3A3E0F50D7A0E7B001233E1BA
:10ADF0008A0A8B0BEA450B604512AE41740912AE0C
:10AE000052E50D12B7711213F7EE2405FCE43FFD75
:10AE1000EA2404FAE4350BFB1233BD740212118AE2
:10AE2000850A82850B83A3A3A3A3A3A3A3A3A3A3A0
:10AE3000780E12103BAA0AAB0BA90C1233ED02B626
:10AE40007E8A828B8374D0F0A3E4F08A828B83A302
:10AE5000A322F08A828B83A3A3A32274EA1211E4B3
:10AE60008A0E8B0FEA450F700302AFE48A828B8350
:10AE7000A3A3A3A3A3A3E07005750D088003750D1C
:10AE8000049002C212B51C600512ABCE800390166E
:10AE900059E0F50C9002DB12B51C600F12ABCEA38B
:10AEA000A312A91B600579001211E2E50E2407F533
:10AEB00010E4350FF511E50E2408F50AE4350FF519
:10AEC0000BAA0AFB851082851183E0F91224E7E9B9
:10AED000FB851082851183F0E50E2403FEE4350F17
:10AEE000FFE50E2404F516E4350FF517E50E240EE4
:10AEF000F512E4350FF513E50E2414F582E4350F51
:10AF0000F583E0F51475150078141213F7E50E2497
:10AF100012F582E4350FF58312140EE50E2410F5B8
:10AF200082E4350FF58312140E8512828513831285
:10AF3000140EE50DF50E780E1213FB85168285179B
:10AF40008312140EAC0AAD0BAA0C8E828F83E0F92B
:10AF5000122577740B12118A8E828F83E0704175EF
:10AF60000E17750F00780E1213F785128285138362
:10AF700012140E780D1213FB780A1213F785108243
:10AF8000851183E0FD7C0185168285178312B3222B
:10AF9000A90C122A15740712118AE98E828F83F088
:10AFA0009002C212B51C600312259B9002D2E06091
:10AFB000339002D3E0FA9002D2E0F9122589E960D9
:10AFC000238E828F83E0FB74316B6013851682853C
:10AFD000178312B0549002D2E0FAEBF912257D905B
:10AFE00002D2E4F07F0E0212B674F61211E4E4F518
:10AFF0000AF50B780A1213F7780A1213F7EA240CF1
:10B00000F582E43BF58312140E8A828B83A3A3A3FB
:10B01000A3A3A3A3A3A3A312140E8A828B83A3A327
:10B02000A3A3A3A3A3A312140E8A828B83A3A3A317
:10B03000A3A3A312B0548A828B83A3A3A3A312B3A6
:10B0400022122919740A12118A7F020212B6850A85
:10B0500082850B83E0FCA3E0FD2274F21211E4EA86
:10B06000FEEBFF750C00EE2403F8E43FF9880A8933
:10B070000B8882F58312B322122A218A828B83E500
:10B08000824583600FE0F50C850A82850B8312B33D
:10B0900022122A1B9002D2E06019650C70159002F2
:10B0A000D3E0FA9002D2E0F9122589E960249002F7
:10B0B000D2E4F0E50C601B8E828F83A3A3A3A3A32D
:10B0C000E0FB12B04EAA0C8E828F83A3A3E0F9128C
:10B0D000257D9002C412B51C6003122595850A8255
:10B0E000850B8312B322122A33E96404701A850A8D
:10B0F00082850B8312B10DE0687003A3E0697008CC
:10B100009016A874FFF0A3F07F060212B612B1FBEE
:10B110009016A82274F01211E4890B8A0E8B0A8C07
:10B120000C8D0D7A147B001233E18A108B11AE1056
:10B13000AF11EE4F700302B1E68E828F8374D0128E
:10B14000B2C2A3A3740512B2BBE50AF0EE2404FA5E
:10B15000E43FFBE50C450D6019751006751100788C
:10B16000101213F7AC0CAD0D1233BD740212118A1C
:10B1700080097C067D0079001233D574101211C04D
:10B1800012B1F78E828F83A3A3A3A3A3A3A3A3A328
:10B19000A312B1F174121211C0E0C0E012B75DD079
:10B1A000E0F074131211C012B201240D12B1EB744D
:10B1B000151211C012B201240F12B1EB7417121143
:10B1C000C012B201241112B1EB74191211C0E0C007
:10B1D000E0EE2413F582E43FF583D0E0F0EEFAEFE1
:10B1E000FBA90E1233ED7F080212B6F582E43FF59B
:10B1F00083E8F0A3E9F02212B1FB22E0F8A3E0F922
:10B200002212B1FBEE2274F21211E4890B8A0AECCD
:10B21000FEEDFF8B0C7A067B001233E1EA4B6023D4
:10B220008A828B8374D0F0A3E50B12AE4A740612A7
:10B23000AE52EEF0A3EF12AE52A3A3E50CF0A90AB2
:10B240001233ED02B10874F01211E4890E8A0A8BF0
:10B250000B8C0C8D0D7A0C7B001233E18A108B1154
:10B26000AE10AF11EE4F6050AA0AAB0B122A218A22
:10B27000828B83E58245837003901659E0F98E82B4
:10B280008F8374D0F0A3E50E12B4D8740712B2BB4A
:10B29000A3E50A12B2C212B2DC74101211C012B2CB
:10B2A000EA12B2D674121211C012B2EAA3A312B2F9
:10B2B000D6EEFAEFFB1233ED02B1E612B2CAA3A347
:10B2C000A322F0A3E50B12B2CA22F08E828F832252
:10B2D000F582E438F583EAF0A3EBF022A3A3A3A35D
:10B2E000A3A3E50CF0A3E50DF02212B3268E828F06
:10B2F00083A3A3A3A3A3A3A3A32274F61211E4EA36
:10B30000FE122A278A828B83E5824583600BEEF941
:10B31000A312B3221228358002791202B0498E821C
:10B320008F8312B32622E0FAA3E0FB2274EC121101
:10B33000E489138A0C8B0D8C12122A218A108B112E
:10B34000EA4511700302B4D39002C412B51C700315
:10B3500002B4D37A0E7B00E0C8241912B51660023D
:10B360007A2912B5116008EA2414FAE43400FB7457
:10B37000141211C0E0F50EA3E0F50FE50E450F60C5
:10B3800007EA241BFAE43BFB12B99412B5166007D6
:10B39000EA2416FAE43BFB1233E18A0A8B0BAE0A6D
:10B3A000AF0BEE4F700302B4D37C0E7D0079001218
:10B3B00033D57A267B001224BD8A0A8B0BEA450B13
:10B3C0007009851082851183E0F50A8E828F83745F
:10B3D000D0F0A3E51312B4D8740A12B2CA12B2DFC5
:10B3E0008E828F83A3A3A3A3A3E512F0EE240EF510
:10B3F0000CE43FF50D9002C4E0241912B4DE12B53E
:10B400001C6018EE240612B4E91213F78C828D83A7
:10B4100012B0541233BD740212118A9002C4E02497
:10B420001D12B4DE12B51C6038EE2408F8E43FF9B2
:10B430008882898312B2E28882898312B322EA2445
:10B4400014F50CE43BF50D7510147511007810120D
:10B4500013F78C828D8312B0541233BD7402121113
:10B460008AE50E450F6015EE240A12B4E91213F7AF
:10B47000AC0EAD0F1233BD740212118A9002C4E0FB
:10B48000241BF8A3E03400F9E8FAE9FB8A828B83F5
:10B4900012B51C6032EE240CF8E43FF9880E888265
:10B4A000F58312B2E2750C16750D00780C1213F7C5
:10B4B0008A828B8312B054850E82898312B3221242
:10B4C00033BD740212118AEEFAEFFBA90A1233EDB2
:10B4D0001225957F0C0212B612B2CAA3A322FCA3B6
:10B4E000E03400FD8C828D8322F8E43FF988828964
:10B4F00083E50CF0A3E50DF08882898312B326EA78
:10B50000241BF50CE43BF50D75101B75110078102C
:10B510002212B979241DF582E438F58312B1FBE8D3
:10B520004922C082C0839002C412B51C602FE0C8BB
:10B53000241912AD83600312348912AD7E600312A8
:10B54000348912B98E12AD8360031234899002C41B
:10B5500012B3221234899002C4E4F0A3F0D083D055
:10B5600082020E12C082C0839002C212B51C60100B
:10B570009002C212B3221234899002C2E4F0A3F006
:10B5800080DB74F01211E4890E8A0C8B0D122A21D3
:10B590008A0A8B0BEA450B604C7A267B001224BD8D
:10B5A0008A108B11AE10AF11EE4F7008850A82859C
:10B5B0000B83E0FE7A057B001233E18A0A8B0BEAEB
:10B5C000450B60217C057D0079001233D512B68EC3
:10B5D000740EF0850A82850B8312B2DFAA0AAB0BC8
:10B5E000EEF91233ED02B1E674EE1211E4890EEABF
:10B5F000FEEBFF8C0C8D0D122A218A108B11EA456F
:10B6000011607B7A0B7B001233E18A0A8B0BEA45CF
:10B610000B606B7C0B7D0079001233D57A267B00A2
:10B620001224BD8A128B13A812A913E84970088549
:10B630001082851183E0F812B68E740F12B689EE6F
:10B64000F0A3EF12B683E50C12B683A3E50DF074F8
:10B65000121211C012B6A8F074131211C012B6A8BB
:10B66000A3F074141211C0E50A2409FCE4350BFDA3
:10B670007402121087AA0AAB0BE8F91233ED7F0AA5
:10B680000212B612B689A3A32212B69EA322850A7D
:10B6900082850B8374D0F0A3E50E12B69E22F0854E
:10B6A0000A82850B83A3A322E0850A82850B83A3EC
:10B6B000A3A3A3A3A3A32274EE1211E48A0C8B0DFF
:10B6C0008910122A218A0E8B0FEA450F700302B7E8
:10B6D0005A7A0D7B001233E18A0A8B0BAE0AAF0B4C
:10B6E000EE4F60767A267B001224BD8A0A8B0BEA25
:10B6F000450B7009850E82850F83E0F50A8E828FD7
:10B700008374D0F0A3E412B4D8740B12B77112137F
:10B71000F7E50E2405FCE4350FFDEE2403FAE43FC3
:10B72000FB1233BD740212118A8E828F83A3A3A3EE
:10B7300012B2DC12B767E510A2E050047401800178
:10B74000E4F012B75DE510A2E1500474018001E459
:10B75000F0EEFAEFFBA90A1233ED02B67EEE240CEE
:10B76000F582E43FF58322EE240BF582E43FF58376
:10B7700022F075120675130078122274E81211E493
:10B7800089128A11ECFEEDFF8B10EEFAEFFB122A04
:10B79000218A0A8B0B74181211C0E0F50EA3E0F594
:10B7A0000F741A1211C0E0F516A3E0F517741C12FD
:10B7B00011C0E0F518A3E0F519741E1211C0E0F5F0
:10B7C0000CA3E0F50DEA450B700302B8A7E5126083
:10B7D0000302B8A7EA2403F582E4350BF583E0D22F
:10B7E000E4F0E510A2E2E05004D2E18002C2E1F010
:10B7F000E50E450F7012E5164517700CE518451952
:10B800007006E50C450D606AE0D2E2F0E50C450DEE
:10B81000603412B982121062E50A2420F582E43500
:10B820000BF58312106E7514107515007814121331
:10B83000F7AC0CAD0DE50A2410FAE4350BFB12331E
:10B84000BD740212118AE50A2424F50A5002050B80
:10B85000E50E450F6021E511701D850A82850B8379
:10B8600012AD8960031234897C1B7D00AA0EAB0FD8
:10B870008027E0C2E2802FE5164517602A74016533
:10B88000117024850A82850B8312AD8960031234FE
:10B89000897C1B7D00AA16AB171233C9850A8285E5
:10B8A0000B83EAF0A3EBF09002C412B51C70030204
:10B8B000B974E50E450F6039E0C8241912B5167049
:10B8C0000F7A1B7B0012348312B979241912B2D07B
:10B8D00012B979241912AD836017750A1B750B0014
:10B8E000780A1213F7AC0EAD0F1233BD74021211A9
:10B8F0008AE5184519603112B99412B516700D7A9F
:10B90000167B0012348312B99412B2D012AD7E604D
:10B9100017750A16750B00780A1213F7AC18AD19D3
:10B920001233BD740212118AE50C450D603112B557
:10B9300011700D7A147B0012348312B98E12B2D0BA
:10B9400012B98E12AD836017750A14750B00780A50
:10B950001213F7AC0CAD0D1233BD740212118A78BC
:10B96000161213F7AC10EEFAEFFBA91212258F7422
:10B970000212118A7F100212B69002C4E0F8A3E00E
:10B98000C822E50C2410F582E4350DF5832212B9A6
:10B9900079241D2212B979241B22C082C08390020F
:10B9A000C812B2D602B55D74F41211E4E99003979F
:10B9B000F0122D69907800E0C4540F5407640370AE
:10B9C00004793F8002797F750A06750B00780A12A8
:10B9D00013F77C857D037AEA7B071231A17402128A
:10B9E000118A900385E0F47049A3E0F47044A3E069
:10B9F000F4703FA3E0F4703AA3E0F47035A3E0F4F0
:10BA0000703090780EE0900385F090780FE090030E
:10BA100086F0907810E0900387F0907811E0900322
:10BA200088F0907812E0900389F0907813E090030A
:10BA30008AF090038B12BB3D12C8B09003B5740618
:10BA4000F0A3740D12C38A7441F0A37401F0900442
:10BA5000E112BB3D9004E0E4F09004EEF0A374A08A
:10BA600012C38A7403F0A3740712C38A742812C322
:10BA70008A04F0A3E4F0900517F090053A74FFF003
:10BA8000A3E4F090053CF090053E04F090053F746F
:10BA900090F0A37401F0122B41122A75122D0F7928
:10BAA000017A417B05122C25900541E075F0148444
:10BAB000E5F004F0790C7A627B05122C25122C3DFE
:10BAC0007A00900397E0F912349B907803E0644287
:10BAD0007056900541E014F0704EC2AF12BADF000C
:10BAE000782AD0E0F618D0E0F6E59F5407F8700504
:10BAF000750BFF8003750B7FC4C0E07829E6F50A5B
:10BB000008E6550BF50B740B780A121152D0E0259C
:10BB10000AF8906270E0A2E740F8E8C333906272DE
:10BB2000F0906270E0D2E0F09003C2E4F0A3F07A0B
:10BB300080FB900397E0F912341102C00274FF12E7
:10BB4000BED0F0A3F02274F41211E4EAFEEBFFEE93
:10BB5000A2E05040900399E0C39480E0500F25E0AC
:10BB6000F8E433F9744028F5827417800EF425E068
:10BB7000F8E433F9744E28F582741739F58312C747
:10BB8000371211E27A00900397E0F912349BEE64C9
:10BB90000102BD5A54026037750A00780A1213FB7D
:10BBA000E4F50B780A1213F7780A1213F7780A12E1
:10BBB00013F7780A1213F77D007C017A007B007975
:10BBC0003C1228CB740912118AEE640202BD5AEEAF
:10BBD0005404700302BC639003C6E0F875F00AA435
:10BBE000C8AAF02AF974C828FA740339FBEA242A8F
:10BBF000F582E43BF583E0F50A780A1213FBEA24A8
:10BC00003212BD66F50B7404780A121152780A12CA
:10BC100013F7EA2420F582E43BF58312140EEA249C
:10BC20002E12BD66C313F50BE50A13F50A780A1246
:10BC300013F7EA2403F50AEB3401F50B780A121323
:10BC4000F712BD72FD7C018A828B83A3A3A3A3E0BC
:10BC5000FA7B0079001228CB740912118AEE640471
:10BC600002BD5AEE54406037750A00780A1213FB81
:10BC7000E4F50B780A1213F7780A1213F7780A1210
:10BC800013F7780A1213F77D007C017A007B0079A4
:10BC90003B1228CB740912118AEE644002BD5AEEA1
:10BCA0005480603790053F12C382602A79001234B5
:10BCB0009590053FE0F50AA3E0F50BE4F50CF50DD2
:10BCC000780A1213F37A007B01900397E0F912359A
:10BCD0001F740412118AEE6480807FEF5401600C9F
:10BCE0007901123495EEFAEF64018070EF5402602E
:10BCF0000AC2AF75C9AB75C95B80FEEF5404600A18
:10BD0000122367EEFAEF6404805290039EE0640110
:10BD1000704DEE54206048900398E0146012146057
:10BD20000F14600C14600924FD601114600E80274C
:10BD30007900122AC97901122AC9801B793F900320
:10BD4000C6E0FA75F00AA4CAA8F028FB74C82AFA5B
:10BD500074033BFB122BEFEE6420FAEFFB80047AB6
:10BD6000007B0002C002F582E43BF583E0F50AA304
:10BD7000E022EA2409F582EB3401F583E02274F62F
:10BD80001211E4EA540F6004780180027800E8F9A7
:10BD90008A0A8B0B7404780A121152E50A29F50AF3
:10BDA000750B007404780A121161E50A2408FAE49C
:10BDB000350BFB12343B8A0A8B0BA80AA90BE84906
:10BDC0006009E82404FAE439FB80047A007B00026D
:10BDD000C51974F61211E4EA2405FA50010B123465
:10BDE0003B8A0A8B0BA80AA90BE8496009E82405DD
:10BDF000FAE439FB80047A007B0002C519C082C0D6
:10BE000083C2AF122D3FE5E170FC75E101122B2FCB
:10BE100075E1F1122D75122B237907122DE77901A7
:10BE2000122DED7902122D9F122DBD122DDB7900FE
:10BE3000122DE17901122DE190837B12104A122D0F
:10BE4000879004EEE4F0A3F0A3F09004F27407F0FE
:10BE50009004F17403F09004F7E4F09004F6F0908D
:10BE60000517F0122BD7122C8B122BF57900122DFF
:10BE7000F39004D274FF12BED0741FF0906012E4ED
:10BE8000F0A3F0906063F0752100900398F09004A7
:10BE9000D7F09004D8740CF09004D9E4F09004DA50
:10BEA00004F09004DBE4F09004DC04F09004DDE4A2
:10BEB000F090039AF0A3F090039DF090039E04F09D
:10BEC0009003B404F090053DE4F0D2AFF902C84B02
:10BED000F0A3F0A3F0A3F0A322C082C08390038557
:10BEE00012C03C90038612C066F090038712C071A6
:10BEF00090038812C07790038912C07C90038A1245
:10BF0000C066A3A3A3A302C848C082C0838A828B51
:10BF100083E090038B12C88EE090038C12C03690A1
:10BF2000038D12C89590038E12C8A190038F12C87A
:10BF30009CE090039002C848C082C083122B4DE958
:10BF4000F97005122DBD790002C84B74F71211E487
:10BF5000EAFEEBFF890A122B4DE9F9702CE50A6025
:10BF60000A7401650A600A7912801E7C00790080DB
:10BF7000047C007901EEFAEFFB122DC3E9F874039B
:10BF800068700479078002790002C74074F61211C4
:10BF9000E4EA4B600EEC4D600A740A1211C012C83C
:10BFA0008270047912800F780A1213F7122C3774FA
:10BFB0000212118A790002C51974F41211E4EAFE22
:10BFC000EBFF890A900398E064096014E0640A605A
:10BFD0000FE0640B600AE0640C6005E0640D70041F
:10BFE000790C801E122CB58B0DEA450D700BA90A39
:10BFF000EEFAEFFB122C25800990039AE04440F002
:10C00000790D7F040212B674F61211E4EA4B600354
:10C01000E970047912801CEAFEEBFF890A122C1FDA
:10C02000E98E828F83F0A3AE82AF83150AE50A7092
:10C03000EC790002C51912C88EA3E022E08A828B37
:10C0400083F022C082C083E9F8740168700B900508
:10C050003D7401F0790002C84BE8700690053DE49C
:10C0600080F1791280F012C06A22E08A828B83A369
:10C070002212C06AA3F02212C082F02212C082A350
:10C08000F02212C06AA3A322C082C083900398E06A
:10C09000640C701290618EE0F874806870258C8258
:10C0A0008D83747F8029C3EB940F5013EA4B700F7C
:10C0B0009003CBE070047902801890043080D87926
:10C0C00012800F90039CE0F9E8C3998C828D83F075
:10C0D000790002C84B74F71211E4E9FE74056E6032
:10C0E0001E74136E601974146E601474156E600FF4
:10C0F000741A6E600A74296E6005743B6E7026C3F4
:10C10000EB940F5020EA4B701C9003CBE070047945
:10C11000028026900431E064017016A3E06402708E
:10C1200008793A80147912801012C13C122BBF801A
:10C130000612C13C122BB3790002C740EE9004BC3A
:10C14000F09003E5E4F0A3F079027AC87B0322744F
:10C15000EC1211E4EC4D6014E9C3941C500E7414FD
:10C160001211C0E0F8600A7401686005791202C318
:10C1700068C3EB940F5019EA4B70159003CBE07035
:10C18000047902800D9004D8E0700A790702C36830
:10C19000791202C368EC24FEFCED34FFFD8C828D25
:10C1A00083E9F0E87004740280027401A3F0EC24C7
:10C1B000FEFCED34FFFD7A2B7B04122C0DA9A8C2E6
:10C1C000AF9004D8E014F0E9A2E7E433F8E9A2E77D
:10C1D00092AF900398E064086008E064076003028F
:10C1E000C3669003C6E0600302C36679007AC87B29
:10C1F0000312187A9061D0E0700302C3669004DCE9
:10C20000E06401600302C3669003E512C382700319
:10C2100002C366A2AFE433F50EC2AF122CB58A0A90
:10C220008B0BAE0AAF0B122D518A0A8B0B8C0C8D27
:10C230000D8A128B138C148D159083EF7812120FC8
:10C24000B878121213F38E828F83A3A312104A12AE
:10C250002064740412118AE96401600302C36090CF
:10C2600003F6E02406F512A3E03400F513E4F51418
:10C27000F515780A7912120FA5780A1213F38E8237
:10C280008F83A3A312104A122064740412118AE946
:10C290006401600302C360EE2408F510E43FF51169
:10C2A000851082F58312140AAA0AAB0BAC0CAD0DF3
:10C2B0001220C0740412118A9003F612140E121D7B
:10C2C0001C740212118A8A0A8B0B8C0C8D0D74104F
:10C2D000780A120F6D9003D112C36D9003CDE8F070
:10C2E000A3E9F0E82CF8E9350BF9A3E8F0A3E9F0AD
:10C2F000851082851183C082C08312C373120E7EA3
:10C30000D083D082780A120FB89083AF780A1210C7
:10C31000068E828F83A3A3780A12103B12C3731276
:10C320000FA59083C3780A120FB89083AF780A12D2
:10C330001006EE2416F582E43FF583E50AF0A3E546
:10C340000BF0A3E50CF0A3E50DF09003FDE09003E6
:10C35000FCF07AC87B031215D6EEFAEFFB122C978D
:10C36000E50EA2E092AF79007F0C0212B6E0F8A3CE
:10C37000E0F9229003F6E0F512A3E0F513780A79CC
:10C380001222E0F8A3E0F9E84922F0A3E4F0A322A6
:10C3900074F61211E4EAFEEBFF890B740B1211C064
:10C3A000E0F50A740C1211C012C36DE50B604874FD
:10C3B00001650B60127403650B60267402650B60E7
:10C3C000207404650B707DE8496079E50A600674A5
:10C3D00001650A706F7403650B60067402650B706B
:10C3E0002AEE2460FAEF12C5295059EC2460FAEDC8
:10C3F00012C5294016804DEE24E0FAEF12C51E50FA
:10C4000043EC24E0FAED12C51E5039C3EC9EED9FBB
:10C410004032740A1211C0E0FC600574016C702493
:10C42000740F1211C0E0FA600F74016A600A74029E
:10C430006A600574036A700C740E1211C0E0FB741C
:10C44000075B7005791202C5199004EEE064017073
:10C4500005790C02C51974075B9004F2F0E50B90A6
:10C4600004F1F0EA9004F3F0EC9004E0702FE4F0B3
:10C47000900385E09004E1F0900386E09004E2F000
:10C48000900387E09004E3F0900388E09004E4F0E8
:10C49000900389E09004E5F090038A802E7401F007
:10C4A00090038BE09004E1F090038CE09004E2F0C4
:10C4B00090038DE09004E3F090038EE09004E4F0AC
:10C4C00090038FE09004E5F0900390E09004E6F094
:10C4D0007401650B700B12C5349004EFE4F0A38077
:10C4E000357404650B700512C5348023EA70047935
:10C4F00000801974016A70047901801074026A70F6
:10C50000047902800774036A70057903122DC990BB
:10C5100004EFEEF0A3EFF079007F020212B634FFD1
:10C52000FBC3EA94E1EB943F2234FFFBC3EA94613E
:10C53000EB943F22E50AA3F088828983E09004E827
:10C5400012C569E09004E912C569A3E09004EA12FB
:10C55000C569A3A3E09004EB12C570E09004EC124F
:10C56000C570A3E09004EDF022F088828983A322B5
:10C57000F088828983A3A3A3A32274F61211E4E9AD
:10C58000FEC39420500BEE9004F7F0601EEA4B704F
:10C59000047912801E12C7811213F7EAFCEBFD7AB0
:10C5A000F87B041233BD740212118A9004F67401F0
:10C5B000F0790002C51974F41211E4E9FF900398B0
:10C5C000E06409700302C6C0E0640A700302C6C0DA
:10C5D000E0640B700302C6C0E0640C700302C6C0C6
:10C5E000E0640D700302C6C09004F1E060166401BF
:10C5F0006012E06403600DE064026008E0640460BF
:10C600000302C7339004E0E060076401600302C7DF
:10C61000339004F1E064036005E06402701090045C
:10C62000EFC3E094A0A3E09400500302C733EF707F
:10C630000302C6CC14600302C7339004EEE0640129
:10C64000607E9004F1E0600964016005E0640470BC
:10C6500008122CC1E954FD70677901122CA99004CD
:10C66000DEEAF0A3EBF09004EE7401F0900398E0A2
:10C670007055122D518A0A8B0B8C0C8D0D9083CB2B
:10C68000780A120FB89083AF780A1210069004DE71
:10C6900012C737A3A3780A12103B9004DEE0F8A378
:10C6A000E0C82406F582E438F583E4F0A3F0122B09
:10C6B00053E960107ADE7B04122CAF9004EEE4F0B4
:10C6C00079218005122C91790002C0029004EEE0DD
:10C6D00060EEA2AFE433FEC2AF7ADE7B04122CAF71
:10C6E0009004EEE4F0122CC7E97041122D3F9061E6
:10C6F00082E0C2E6F0E5E170FC75E1017591BF757D
:10C70000E1F190039EE0640170187A207B009003B1
:10C7100097E0F912352B7A207B00900397E0F9120D
:10C7200034177A00900397E0F912349BEEA2E0925E
:10C73000AF809479128092E0F8A3E0F5838882229A
:10C740007F010212B674F61211E4E9FEC394205080
:10C750000BEE900517F0601EEA4B70047912801EF4
:10C7600012C7811213F7EAFCEBFD7A187B0512332E
:10C77000BD740212118A9004F67401F0790002C5AA
:10C7800019E0F50A750B00780A22C082C083900375
:10C7900098E064076004790C805CEC4D605BC3EB4F
:10C7A000940F5055EA4B70519003CBE0700479021E
:10C7B00080447A008C828D83E0C0E0EAF8C3E4987C
:10C7C000F895E0F9749528F582740439F583A3A3EC
:10C7D000A3A3D0E0F00A8C828D83A3AC82AD83EA60
:10C7E000C3941040CF90049B7401F079057AC87B04
:10C7F00003122BB3790002C84B791280F9C082C0B2
:10C8000083900398E064076004790C8039C3EB944B
:10C810000F5020EA4B701C9003CBE070047902802B
:10C82000259004A4E06401700E9004BC7406F079B5
:10C8300002800A7912800FA37406F0790D7AC87B02
:10C8400003122BB379008003F07900D083D08202E9
:10C850000E12790C020E12C082C083E9F890053ED8
:10C86000E07004790C800EE8600E14701190039D46
:10C870007401F0790002C84B90039DE480F47912B2
:10C8800080F3E0F50AA3E0F50BE50A450B22F08AF8
:10C89000828B83A32212C88EA3A3E02212C8A6A370
:10C8A0002212C8A6E022F08A828B83A3A3A3A3222C
:10C8B000900385E0900391F0900386E0900392F05E
:10C8C000900387E0900393F0900388E0900394F046
:10C8D000900389E0900395F090038AE0900396F02E
:10C8E0002274F71211E474FF121174EA4B60078A84
:10C8F000828B837401F0EC4D60099003C5E08C825B
:10C900008D83F0740A1211C012C382700302C9ED44
:10C910007F007E0080787401F0E0C0E0E82CF582B2
:10C92000E439F583D0E0F0EA240312BD75C0E012CB
:10C93000C9F7D0E0F00FEA240412BD75C0E012C9B7
:10C94000F7D0E0F00FEA240512BD75C0E012C9F778
:10C95000D0E0F00FEA240612BD75C0E012C9F7D08E
:10C96000E0F00FEA240712BD75C0E012C9F7D0E06D
:10C97000F00FEA240812BD75C0E012C9F7D0E0F04C
:10C980000F12BD72C0E012C9F7D0E0F00F0E900395
:10C99000C5E0FAEEC39A5055EEFAC3E4940F50ED99
:10C9A000EA70EA9003CBE060E4EE75F00AA4CAAC4A
:10C9B000F02CFB74C82AFA74033BFBEFFCE82CF55F
:10C9C00082E439F583EEF074012CFC74012CFF8AAB
:10C9D000828B83E0FDA3E0F5838D82E06480851A7D
:10C9E00082851B83600302C916E402C918790074AA
:10C9F0000112118A02C740E82FF582E439F583223B
:10CA0000C082C083EA4B60069003C512C03C02C8D6
:10CA10004974F61211E47901122BE38A0A8B0B7424
:10CA2000FF650A700474FF650B7004791280027947
:10CA30000002C51974EE1211E4890D8A0E8C108D56
:10CA400011750C0012CB286005791102CB0274120B
:10CA50001211C0E0F50AA3E0F50BE50A450B6030C2
:10CA60007A217B001224BDE50A2415FEE4350BFF74
:10CA70008E828F83E0C39AE49B40157A227B00125A
:10CA800024BD8E828F83E0F8C3EA98EB94005004B3
:10CA90007902806E7A637B00123483900738EAF063
:10CAA000A3EBF012CB287004791380567C637D00D1
:10CAB00079001233D512CB07E4F0900738E012D199
:10CAC0008FE50D12CB1CE50E12CB1CA3E510F0A3D5
:10CAD000E511F012D5E0E50AF0A3E50BF012D5CB95
:10CAE000E4F0A3F012D5F2E4F0E50D6006122EE3B7
:10CAF000E9F50C12CB077401F0E50C6003122F1955
:10CB0000A90C7F0A0212B612CB0B2212CB0F229075
:10CB10000738E0F8A3E0F5838882A322F012CB2146
:10CB20002212CB0FA322E9FE90073812CEFFE8496C
:10CB30002274F61211E47E0012CB28601412D5FC88
:10CB4000E0F8740268600F740368600A7404686037
:10CB500005791202CBF712CC086C7003A3E06D606C
:10CB600005790202CBF7750A108E0B780A1213F7BB
:10CB7000EAFCEB12CBFA1233BD740212118A79105F
:10CB8000900738E0242BFAA3E03400FB122E5990D2
:10CB90000738E0241BF50AA3E03400F50B780A12ED
:10CBA00013F712D26012CBFA122ED1740212118A2C
:10CBB000900738E0240112D5C0E0FA900738E0FB76
:10CBC000A3E0F5838B82E0600D74036A702788828E
:10CBD00089837402801974046A7009888289837455
:10CBE00002F0801174036A700C888289837405F0E6
:10CBF000122EE9E9FEEEF902D69DFD900738E024F9
:10CC000007FAA3E03400FB22900738E0F8A312CC27
:10CC10001222E0F5838882A3A3A3E022C082C0830E
:10CC200090073A02CF3B74F71211E412CB2660133F
:10CC300012CC0E6A7003A3E06B700874016E70036F
:10CC4000122F197F010212B6C082C0837917122FEA
:10CC50001F02CF4074F41211E474ED121174EAF85B
:10CC6000EBF9851A82851B83E4F088828983A3A36C
:10CC7000A3A3A3A312D1438A828B83E0F50AE824FD
:10CC800002FEE439FFE50A14602714602414603AB8
:10CC900014605A14606114606814606F1460761434
:10CCA000607D14700302CD2914700302CD3302CDD0
:10CCB0003D74011211DA122F79E9F87412687014B8
:10CCC000851A82851B837406807B74011211DA1227
:10CCD0002F85E9F8E8600302CD84750B0712D13F78
:10CCE000122A21EA4B7061750A0802CD7B74011289
:10CCF00011DA122F9180DB74011211DA122F9D804C
:10CD0000D174011211DA122FA980C774011211DA3D
:10CD1000122FB580BD74011211DA122FC780B374BF
:10CD2000011211DA122FCD80A974011211DA122F1B
:10CD3000D9809F74011211DA122FE58095851A822D
:10CD4000851B837407F08045EA240BF582E43BF5EC
:10CD500083E06408700590073C800390073A12CB8B
:10CD60002B601512D19112CEF3600D74011211DAFD
:10CD7000A90A1211E2E9F50B850B0A851A82851BB7
:10CD800083E50AF0851A82851B83E0600CAC1AAD3E
:10CD90001B12D13F122EBF8003122E3574131211B5
:10CDA0008A7F040212B674F61211E4ECFEEDFF75F0
:10CDB0000A97750B2F780A1213F77902122FEB746A
:10CDC0000212118AE9F50A8E828F83E0F9122F1F71
:10CDD000A90A02D69D74F41211E4EAFEEBFF890A57
:10CDE00012CB28700302CEC412CC0E6E7003A3E0E7
:10CDF0006F600302CEC4900738E0240108A3E0343A
:10CE000000F9E8FAE9FB8A828B83E0F8740668602F
:10CE10000302CEB112D068607F90073912D8B812E1
:10CE2000CEFF900738E0FCA3E0CC2418F582E43C68
:10CE3000F583E0FCA3E0FDE82413F582E439F583F3
:10CE4000E0F8A2E050168C828D83A3A3A3A3A3E0F5
:10CE5000A2E050088A828B8374078034E854026011
:10CE6000168C828D83A3A3A3A3A3E0540260088A37
:10CE7000828B8374098019E8540460178C828D8337
:10CE8000A3A3A3A3A3E0540460098A828B83740B39
:10CE9000F0801590073C800390073A12CB2B600876
:10CEA00012CEEE60031211E212CF34703C79008092
:10CEB0000E741168700EE50A6003750A32A90A1231
:10CEC0002F1F8025E50A7018EEFAEFFB122A218A3F
:10CED000828B83E58245836007A3A3A3E0D2E4F0BD
:10CEE000EEFAEFFBA90A1225A1790102CDA112D118
:10CEF00095A3A312CEFF88828983E582458322E031
:10CF0000F8A3E0F922C082C08312CB28602412D19A
:10CF1000E7700590073A800390073C12CB2B60081E
:10CF200012CEEE60031211E212CF347005790012B6
:10CF30002F1F800C12CB0BE0641222EAF0A3EBF05F
:10CF4000D083D082020E1274E81211E474EB121135
:10CF5000748A188B198C168D1712CB2870057912CC
:10CF600002D05E12D1F2122A218A0A8B0BAE0AAFCE
:10CF70000BEE4F7005791402D05EAA1AAB1B122F6C
:10CF80002BEE2405F514E43FF515EE2404F512E428
:10CF90003FF51312D068602FA81AA91B880E890FBD
:10CFA00012D5E7FEA3E0FF122505E9F5107900127E
:10CFB000250B8A0A8B0B851282851383E0F5118578
:10CFC000140C85150D803690073912D5EDF50EA39A
:10CFD000E0F50FA81AA91B880A890BAE0AAF0B123D
:10CFE0002505E9F511790012250B8A0C8B0D8512A8
:10CFF00082851383E0F51085140A85150B740E12D3
:10D0000011DAEEFAEFFB122F6D74071211DAAA0E85
:10D01000AB0F122F67742D1211C012140E780C1260
:10D0200013F7E511F50C780C1213FB780A1213F7BD
:10D03000740E1211CA880A890B780A1213F7741732
:10D040001211CA880A890B780A1213F7A910AC16B4
:10D05000AD17AA18AB19122E47740B12118A74154A
:10D0600012118A7F100212B6900738E0F8A312D18D
:10D0700095E02274F61211E474F7121174EAFEEBD3
:10D08000FF8C0A8D0B90073A12CB2B700302D13A1A
:10D0900012D19112CB2B700302D13A8C828D83E096
:10D0A000C0E074021211C0D0E0F08C828D83A3E046
:10D0B000C0E074031211C0D0E0F08C828D83A3A372
:10D0C000E0F974041211C0AA82AB83122E65850A9E
:10D0D00082850B83A3A3A3E0C0E074061211C0D025
:10D0E000E0F0850A82850B83A3A3A3A3C082C0833B
:10D0F00074071211C0AC82AD83D083D08274021247
:10D10000108774021211DA7901EEFAEFFB90073AF8
:10D1100012D06B12D18F1211E2E9851A82851B831E
:10D12000F0601774011211C0E9F074011211DA8E67
:10D13000828F83A312D143122EBF740902D69A8E16
:10D14000828F83E0FAA3E0FB2274F71211E4890ACC
:10D1500090073C12CB2B603212D191A3A3A3A31250
:10D16000CEFFE8FEE9FFEE4F6020740B1211C012F3
:10D17000140E740B1211C012140EA90A8E828F8322
:10D180001211E2740412118A8002790202CC43F86F
:10D19000A312D19522E0F58388822274F61211E45D
:10D1A00074F912117412CB286033AA1AAB1B122F18
:10D1B0002B12D1EC12D1E46008750A67750B2F8031
:10D1C00006750A6D750B2F780A1213F77402121187
:10D1D000DA7907122FEB740212118A800279017436
:10D1E0000702D69A90073912D195E022900738E0CD
:10D1F000F8A312CC12FAA3E0FB2274F61211E47425
:10D20000F0121174750A10750B00780A1213F7905A
:10D210000738E0241BFCA3E03400FD74021211D295
:10D220001233BD740212118A750A7F750B2F02D654
:10D230008174F61211E474F0121174750A10750BF2
:10D2400000780A1213F712D260FD74021211D21282
:10D2500033BD740212118A750A8B750B2F02D681A9
:10D26000900738E0242BFCA3E034002274F0121164
:10D27000E48A0A8B0B750C0012D5CB12CB2B600302
:10D2800002D5777A077B00123483900738E02418A0
:10D2900012D5C0EAF0A3EBF088828983E0FA4B70E4
:10D2A0000302D57212D5E0E0FEA3E0FF750E07750C
:10D2B0000F00780E1213F7AC0AAD0B1233BD7402D7
:10D2C00012118A12D068600302D4E4EE2413FCE445
:10D2D0003FFD90073912D5ED2405F50EA3E034008B
:10D2E000F50F8C828D8312CEFF850E82850F83E031
:10D2F000A2E092F0E8A2E020F001B35007A2E0E43F
:10D3000033FA80027A00E854FE4AF88C828D831248
:10D31000D581C313A2E092F0E8C313A2E020F0018C
:10D32000B35012E854026004D2F08002C2F0A2F0BE
:10D33000E433FA80027A00E854FDF8EA25E0FAE4E2
:10D3400033FBE84AF8E94B12D5A1543FA2E092F032
:10D35000E81313543FA2E020F001B35013E8540443
:10D360006004D2F08002C2F0A2F0E433F510800332
:10D37000751000751100E854FBFAE9FB740278108F
:10D38000121161EA4510F8EB451112D5A113541F93
:10D39000A2E092F0E8131313541FA2E020F001B3AF
:10D3A0005013E854086004D2F08002C2F0A2F0E406
:10D3B00033F5108003751000751100E854F7FAE991
:10D3C000FB74037810121161EA4510FA12D58DA38F
:10D3D000E0A2E092F0EBA2E020F001B35011540182
:10D3E0006004D2F08002C2F0A2F0E433F880027848
:10D3F00000EB54FEFBE8F9EB4912D5AD7409781047
:10D40000121152E510A2E092F08A108B1174097883
:10D4100010121152E510A2E020F001B35013EB54AA
:10D42000026004D2F08002C2F0A2F0E433F5108072
:10D4300003751000EB54FDFB74097810121161EBB9
:10D44000451112D5AD740A7810121152E510A2E000
:10D4500092F08A108B11740A7810121152E510A202
:10D46000E020F001B35013EB54046004D2F08002CA
:10D47000C2F0A2F0E433F5108003751000EB54FB0A
:10D48000FB740A781012116112D58DE0F50EA3E03D
:10D49000F50F740B780E121152E50EA2E092F08A8D
:10D4A0000E8B0F740B780E121152E50EA2E020F0D5
:10D4B00001B35013EB54086004D2F08002C2F0A212
:10D4C000F0E433F50E8003750E00EB54F7FB740B9C
:10D4D000780E121161EAF8EB450FF98C828D83E822
:10D4E000F0A3E9F0850A82850B83A3E0600F8E82AA
:10D4F0008F83A3E0600712D5F27405806D850A82E0
:10D50000850B83A3A3E054047015EE2412F582E486
:10D510003FF583E0A2E2400712D5F27401804B127E
:10D52000D0688E828F83600CE0FA850A82850B8337
:10D53000E0F8800AE0F8850A82850B83E0FAEAC306
:10D5400094055029E8C394055023E875F005A4F824
:10D55000A9F0747028F8748039F9E82AF582E43962
:10D56000F583E0C0E012D5F2D0E0F0800D750C1824
:10D570008008750C138003750C11A90C7F0802122A
:10D58000B6F0A3E9F0850E82850F83E022EB45110A
:10D59000FB8C828D83EAF0A3EBF0850E82850F83EE
:10D5A00022F98C828D83E812D581131322FB8C82A1
:10D5B0008D83EAF0A3EB12D584F510A3E0F51122D8
:10D5C000F8A3E03400F98882898322900738E0F8D4
:10D5D000A312D5D522E0C82418F582E438F58322B9
:10D5E00012CB21A3A3A322900738E0F8A312D5D52C
:10D5F000E022900738E0F8A312D5FC22E0C8241AF4
:10D60000F582E438F5832274F61211E4750AA375E5
:10D610000B2F780A1213F77911122FEB7402807A0C
:10D6200074F61211E474EE121174EAFEEBFF851A1F
:10D6300082851B83ECF0A3EDF0750A08750B00786A
:10D640000A1213F7741E1211C0E0FCA3E0FD74046B
:10D650001211C0AA82AB831233BD740212118A75F3
:10D660000AAF750B2F780A1213F774021211DA79C8
:10D670000BEEFAEFFB122FEB740212118A74128078
:10D6800019780A1213F774021211DA791112D1EC17
:10D69000122FEB740212118A741012118A7F020287
:10D6A00012B674F61211E4750ABB750B2F02D6126E
:10D6B00074F41211E474F9121174EAFEEBFF851A86
:10D6C00082851B83E9F0750C06750D00780C12132A
:10D6D000F774031211C0AA82AB831233BD74021215
:10D6E000118A750CC1750D2F780C1213F774021284
:10D6F00011DA7908EEFAEFFB122FEB740212118A9D
:10D70000740702CD9E74F61211E4750AD3750B2FBF
:10D7100002D612C082C08312CB286050E0C8241801
:10D7200012D772600312348912D7E9245B12D772C0
:10D73000600312348912D7E9245D12D77260031294
:10D74000348912D7E9245F12D77260031234891228
:10D75000D7E9246112D77260031234899007381216
:10D76000D143123489900738E4F0A3F0122E3B0223
:10D77000CF40F582E438F583E0FAA3E0FBEA4B22E0
:10D7800074F71211E412CB26605CE0C82461F582C4
:10D79000E438F58312140E12D7E9245FF582E438D9
:10D7A000F58312140E12D7E9245DF582E438F5836F
:10D7B00012140E12D7E9245BF582E438F5831214B3
:10D7C0000E12D7E92417F582E438F583E0FB12CC7A
:10D7D00008FCA3E0FD12D1E4FAEEF91225B37408B7
:10D7E00012118A122F1902CC43900738E0F8A3E0F7
:10D7F000C822C082C083791090073812D77860356C
:10D8000012D5E7FAA3E0FBEAFCEBFDEC4D60261233
:10D81000D5E012D778601EEA2415F582E43BF58343
:10D82000E0F88C828D83A3A3A3A3E0FAC3985003EE
:10D83000EA8001E8F902CF4074F61211E4EAFEEB47
:10D84000FF12CB28606612D8B812CB2B605E880A14
:10D85000890B88828983E08E828F83F08882898316
:10D86000A3E08E828F83A3F0E82412F582E4350BC7
:10D87000F583E0F9EE2402FAE43FFB122E65E50A97
:10D880002415F582E4350BF583E08E828F83A3A304
:10D89000A3A3F0E50A2413F582E4350BF583EE2407
:10D8A00005FCE43FFD740212108780097C077D00AF
:10D8B00079001233D502D69D12D195A3A3A3A3A3B9
:10D8C00022C082C083900574E4F090057374FFF069
:10D8D000900590E4F090058F74FFF0900570F09043
:10D8E000056FE4F090056EF0900571F0A302E2F58B
:10D8F00074F01211E4900571E0F50CA3E0F50DE56C
:10D900000C450D7006122B3502DC05850C82850D49
:10D9100083E014601814601524FE601124C47003A1
:10D9200002DA5324C0700302DA5302DC05E0F91274
:10D930002CA38A0A8B0BAE0AAF0B9003C5E0607470
:10D94000122BDD12DC20AC0AFDEEFAEFFB122C9D4F
:10D95000E9F5107402651060468E828F83E06401E1
:10D96000600302DC05EE650C7003EF650D600312C9
:10D970002B53E5107026122D518A0E8B0F8C108DB3
:10D98000119083CB780E120FB89083AF780E1210DF
:10D99000068E828F83A3A3780E12103B02DAE51263
:10D9A000DC10122CEB8E828F83E0FA9003C6F079A4
:10D9B0000202DB35EE650C7003EF650D700302DCCF
:10D9C000028E828F83E06401600302DC05122B5318
:10D9D000122D518A0A8B0B8C0C8D0D9083EB780ADB
:10D9E000120FB8780A1213F38E828F83A3A312103A
:10D9F0004A122064740412118AE97054122D518A5B
:10DA00000A8B0B8C0C8D0D9083CB780A120FB8907B
:10DA100083AF780A1210068E828F83A3A3780A122E
:10DA2000103B900398E0640270238E828F83A3A33F
:10DA3000780A12102C9083D7780A120FB89083AF0F
:10DA4000780A12100612DC0A12103B800312E29EC2
:10DA500002DBF89003C5E0700302DB50122BDD12ED
:10DA6000DC209003C6E0F875F00AA4C8AAF02AF9F1
:10DA700074C828F50C740339F50D90056FE0540750
:10DA80006076A3E0F9122CA38A108B11AE10AF11AF
:10DA9000AC0AAD0B122C9DE9F510740265106058AC
:10DAA000850C82850D83A3A3A3A3E0F9122CE58E38
:10DAB000828F83E064017040122B53E510702612B0
:10DAC0002D518A0E8B0F8C108D119083CB780E12F6
:10DAD0000FB89083AF780E1210068E828F83A3A3A7
:10DAE000780E12103B850A82850B83A3A3780A1255
:10DAF000102C90837F02DBE0E50E650C7004E50FCF
:10DB0000650D602A850C82850D83A3A3A3E0600FB9
:10DB1000850C82850D83A3A3A3A3E0F9122CE51243
:10DB2000DC10122CEB8E828F83E09003C6F079021A
:10DB30009003C6E0FA75F00AA4CAA8F028FB74C8DE
:10DB40002AFA74033BFB12187AAA0AAB0B02DC0216
:10DB500090056FE05407700302DC05A3E0F9122C76
:10DB6000A38A0A8B0BAE0AAF0B8E828F83E064010F
:10DB7000600302DC05122B53122D518A0A8B0B8C89
:10DB80000C8D0D9083EB780A120FB8780A1213F3FC
:10DB90008E828F83A3A312104A1220647404121180
:10DBA0008AE97054122D518A0A8B0B8C0C8D0D90C2
:10DBB00083CB780A120FB89083AF780A1210068EC2
:10DBC000828F83A3A3780A12103B900398E064022B
:10DBD00070238E828F83A3A3780A12102C9083D790
:10DBE000780A120FB89083AF780A12100612DC0A76
:10DBF00012103B800312E29E9005707401F0EEFA61
:10DC0000EFFB122C977F080212B612DD83780A22EE
:10DC1000E50E2404FEE4350FFF8E828F83E0F922A7
:10DC2000E9F875F00AA4C8AAF02AF974C828F50E14
:10DC3000740339F50F850E82F583E0F50AA3E0F54C
:10DC40000B2274F01211E4EAFEEBFFEE2402F8E47A
:10DC50003FF9880A890BEE2406F8E43FF9880C891D
:10DC60000D8882F58312140E850A82850B831210AB
:10DC70004A122D2D740212118A850C82850D831291
:10DC8000140E850A82850B8312104A122D2174020C
:10DC900012118A12DD8312104A122D338E828F8365
:10DCA000E06440701BEE2412F8E43FF98882898317
:10DCB000E0906064F088828983A3E09060658006CC
:10DCC000906064E4F0A3F0900571EEF0A3EF12E22F
:10DCD0009312E71C1211E2906054E412DD8DA3123E
:10DCE000DD8D906182E0C2E6F07591BF12E289E0BD
:10DCF00064017003122D6FE5E170FC12E279E0F42B
:10DD00006003E0F5E112E283F090039EE0640170AD
:10DD10006F122D518A0A8B0B8C0C8D0D780A121301
:10DD2000F38E828F83A3A312104A1220C0740412B0
:10DD3000118A8A0A8B0B8C0C8D0D908377780E12CA
:10DD4000102C780A790E120E7E7403780A120F6D69
:10DD5000E50A24F4F50AE50B3401F50B90053EE0E5
:10DD60006003123471E4F50CF50D780A1213F37A9E
:10DD7000207B00900397E0F912351F740412118A7A
:10DD800002DC05EE240EF582E43FF58322F0A3F0D9
:10DD9000A3F0A3F0A3F0A3F02274EC1211E4EAFEC6
:10DDA000EBFF8C0A8D0BEE4F700302DE51122D51EA
:10DDB0008A0E8B0F8C108D119083EF780E120FB896
:10DDC0009083AF780E12100690840FC082C08378C3
:10DDD0000E1213F3850A82850B83A3A312104A1235
:10DDE00020C0740412118A8A128B138C148D15D0E2
:10DDF00083D0827812120E5F5057850A82850B837A
:10DE0000A3A3780A12102C9083D3780A120FB87843
:10DE10000A1213F38E828F83A3A312104A12206476
:10DE2000740412118AE970299083DF780E120FB8FA
:10DE3000780E1213F38E828F83A3A312104A12203E
:10DE400064740412118AE9700479008006790180F3
:10DE50000279027F0C0212B674F01211E4890A747E
:10DE6000FF650A600302DF1590056FE05407700339
:10DE700002E1947904122CBBE96401702C780090C3
:10DE80000573E064047006A3E064016016780190F5
:10DE9000058FE064047006A3E0640160067A007BED
:10DEA00000800312E19B02E1987901122CBBE96426
:10DEB00001702C7800900573E064017006A3E064A3
:10DEC000016016780190058FE064017006A3E0649C
:10DED0000160067A007B00800312E19B02E19879E1
:10DEE00002122CBBE96401702C7800900573E06489
:10DEF000027006A3E064016016780190058FE0646B
:10DF0000027006A3E0640160067A007B00800312C1
:10DF1000E19B02E1987800900573E0650A7006A322
:10DF2000E064016016780190058FE0650A7006A331
:10DF3000E0640160067E007F008010E875F01CA49C
:10DF4000F8A9F0747328FE740539FFA90A122CBBD6
:10DF5000E964017005750B018003750B00E50A1477
:10DF6000601014700302E03024FE700302E0A60289
:10DF7000E1947902122CBBE9640170697800900584
:10DF800073E064027006A3E06401601878019005F4
:10DF90008FE064027006A3E064016008750C0075F0
:10DFA0000D00800312E1ACE50BA2E05031850C823C
:10DFB000850D83A3A3780E12102C9083CF780E12B8
:10DFC0000FB8780E1213F38E828F83A3A312104A18
:10DFD000122064740412118AE9700302E18EAA0C03
:10DFE000AB0D02E1987904122CBBE96401702E7824
:10DFF00000900573E064047006A3E0640160187883
:10E000000190058FE064047006A3E0640160087568
:10E010000C00750D00800312E1AC02E0DBE50BA201
:10E02000E05006EEFAEFFB80047A007B0002E198F4
:10E030007904122CBBE96401702D7800900573E01F
:10E0400064047006A3E064016018780190058FE015
:10E0500064047006A3E064016008750C00750D008F
:10E06000807912E1AC80747901122CBBE9640170F3
:10E07000227800900573E064017006A3E0640160FB
:10E0800057780190058FE064017045A3E06401605A
:10E0900047803DE50BA2E05006EEFAEFFB80047AE4
:10E0A000007B0002E1987901122CBBE964017067E2
:10E0B0007800900573E064017006A3E064016018C5
:10E0C000780190058FE064017006A3E064016008A8
:10E0D000750C00750D00800312E1ACE50BA2E04069
:10E0E0000302DFDE850C82850D83A3A3780E121058
:10E0F0002C9083CF780E120FB8780E1213F38E8205
:10E100008F83A3A312104A122064740412118AE9A7
:10E11000600302DFDE80777902122CBBE9640170B4
:10E12000677800900573E064027006A3E064016004
:10E1300018780190058FE064027006A3E064016026
:10E1400008750C00750D00800312E1ACE50BA2E030
:10E15000400302DFDE850C82850D83A3A3780E12B7
:10E16000102C9083CF780E120FB8780E1213F38E06
:10E17000828F83A3A312104A122064740412118A9E
:10E18000E9600302DFDE8006E50BA2E05006EEFA4E
:10E19000EFFB80047A007B0002DC05E875F01CA42C
:10E1A000F8A9F0747328FA740539FB22E875F01C9D
:10E1B000A4F8A9F0747328F50C740539F50D2274D0
:10E1C000F61211E4890B750A00900574E0600302F1
:10E1D000E264E50A75F01CA4F8A9F0747328FE74D3
:10E1E0000539FF8E828F83A37401F08E828F83E5C1
:10E1F0000BF0122D51EAF8EBF9ECFAEDFB8E828F61
:10E2000083A3A312106E8E828F83A3A3A3A3A3A3C1
:10E21000E4F0A3F012E29E12E2797401F012E283BC
:10E2200012E293E4F0A3F090056FE0450BF0900547
:10E230006EE004F06401600C7480650B600674404D
:10E24000650B7019E50A75F01CA4F8A9F074732821
:10E25000F8740539F9900571E8F0A3E9F0E50A12C0
:10E26000E19C8010750A01900590E0700302E1D2F4
:10E270007A007B007F020212B6EE2414F582E43F9E
:10E28000F5832212E289740122EE2415F582E43F1F
:10E29000F58322F0EE241AF582E43FF5832212DDA5
:10E2A0008374FFF0A3F0A3F0A3F022C082C0838A9E
:10E2B000828B83E0F8A3E0F98A828B83E4F0A3F0F9
:10E2C00088828983A3F088828983E0F4F890056FBF
:10E2D000E058F090056EE014F07014900571E4F0D1
:10E2E000A3F0900398F0FA900397E0F912349B8022
:10E2F00005ED9061C6F0D083D082020E12C082C0BC
:10E300008390056EE0600A900571E0FAA3E0FB805F
:10E31000047A007B0080DFC082C083E9FB78009034
:10E320000573E06B7016E875F01CA4F8A9F074741E
:10E3300028F582740539F583E0F9800B78019005A2
:10E340008FE06B60E1790080ADC082C08390056F83
:10E35000E0F980A2C082C08390056E80F374F7124A
:10E3600011E4EAFEEBFF9061D0E0C0E0EE24001281
:10E37000E4A6D0E0F09061D7E0F89061D512E4D93E
:10E38000C0E012E3F6D0E0F09061D612E4D9F812C2
:10E39000E3FDE8F070109061C5E0A2E45008E0A24F
:10E3A000E7500312E408122DFF12E3F6E0701C128E
:10E3B000E3FDE070169061C5E0A2E4500EE0A2E734
:10E3C000500912E40812E3F67480F075E1957A00C2
:10E3D00080149061D3E0C0E0EAF8EE28F582E43FD3
:10E3E000F583D0E0F00AEE240012E4C040E475E1C9
:10E3F000917F010212B6EE240112E4B82212E40168
:10E4000022EE240212E4B82212E4017480F0227495
:10E41000F71211E4EAFEEBFF9061C8E0C0E0EE24E1
:10E420000312E4A6D0E0F09061CFE0F89061CD1245
:10E43000E4D9C0E012E4D2D0E0F09061CE12E4D989
:10E44000F812E4ADE8F070109061C5E0A2E0500869
:10E45000E0A2E3500312E4CB122E0512E4D2E070E6
:10E460001C12E4ADE070169061C5E0A2E0500EE031
:10E47000A2E3500912E4CB12E4D27480F0122E0B06
:10E480007A0080149061CBE0C0E0EAF8EE28F8E46E
:10E490003F12E56DD0E0F00AEE240312E4C040E440
:10E4A00075E18102E3F1F582EF12E4BB2212E4B1DF
:10E4B00022EE240512E4B822F582EF3401F583221E
:10E4C000F582EF12E57FF8EAC3982212E4B1748076
:10E4D000F022EE240412E4B822E0C398547F22C054
:10E4E00082C0839061C6E0FDE0540FF075E1917C3D
:10E4F000008010ECF8EA28F582E43BF583E09061B7
:10E50000D2F00CEA240012E58440E8EA240212E585
:10E510007860049061D6F0EA240112E578600490F6
:10E5200061D5F002E2F1C082C0839061C6E0FDE0F7
:10E5300054F0F075E1817C008010ECF8EA28F8E4F2
:10E540003B12E56DE09061CAF00CEA240312E58409
:10E5500040E8EA240512E57860049061CEF0EA24F0
:10E560000412E57860049061CDF002E2F1F9E8244C
:10E5700080F582E439F5832212E57C22F582EB12E4
:10E58000E4BBE02212E57CF8ECC3982274F412118B
:10E59000E412E701122CD3EEFAEFFB122CCD750C2E
:10E5A00080750D00780C1213F77C007D60EE240658
:10E5B000FAEF3401FB122C43740212118A90619518
:10E5C000E0C0E0EE248612E4A6D0E0F0906196E090
:10E5D000C0E0EE248712E4A6D0E0F0906197E0C09E
:10E5E000E0EE248812E4A6D0E0F0906198E0C0E06C
:10E5F000EE248912E4A6D0E0F07F040212B674F291
:10E600001211E412E701122CDFEEFAEFFB122CD903
:10E61000750E09750F00780E1213F7EE2406FCEF45
:10E620003401FD7A007B60122C43740212118A754A
:10E630000E18780E1213F7EE2410FCEF3401FD7A59
:10E640000A7B60122C43740212118A750E2C780E0C
:10E650001213F7EE245AFCEF3401FD7A547B60125A
:10E660002C43740212118AEE2486F582EF12E6F929
:10E67000EE2487F582EF12E6F1EE2488F582EF12A0
:10E68000E6E9EE2489F582EF12E6E2F0E50A75F09C
:10E690000AA4C50AA8F028F50B74C8250AF58274E7
:10E6A00003350BF58312E71CE06480700790039834
:10E6B0007408801E90174012E72512E7257485F034
:10E6C000A3742C12E72B74F7F0A3742CF09003982A
:10E6D0007407F090174E12E736A312E7367F060252
:10E6E00012B612E57F9061982212E57F906197F053
:10E6F0002212E57F906196F02212E57F906195F0FD
:10E7000022890AA80AE875F08AA4C8AAF02AF9742E
:10E71000AB28FE740539FFEEFAEFFB22E0F8A3E028
:10E72000F58388822274F1F0A3742CF0A374F1F0C5
:10E73000A3742CF0A322748512E74412E744F0A3DB
:10E74000742CF022F0A3742CF0A374852274F212BE
:10E7500011E4E9FF8C0A8D0B7E008F0C8E0D8A0E62
:10E760008B0F780E12143B01031ABEEAA2E7B9E739
:10E77000D0E7BEEAE8E7ACE8BDE8F6E838E955E9F5
:10E7800072E991E9AEE9BEEACBE90DEA29EA3EEA8F
:10E790004DEA67EABEEABEEABEEABEEA83EABEEA3C
:10E7A00031E874106F600302EABA750C10780C122D
:10E7B00013F77A367B1502E98674106F600302EA5C
:10E7C000BA750C10780C1213F77A467B1502E9869D
:10E7D00074046F600302EABA8C828D831210629017
:10E7E000155612106E02EADC74016F600302EABA79
:10E7F000901560E06401700302E8A79019BAE0F890
:10E800008C828D83E09019BAF0E86010E06003021A
:10E81000EADC901534E06402704B8051E070030232
:10E82000EADC901534E06401606EE064047061809D
:10E830006774016F600302EABA9019BAE06401607C
:10E8400066901560E0F88C828D83E0901560F0E8AA
:10E850006026E0600302EADC901534E06403600D9A
:10E86000E064076008E06405600302EADC901533A9
:10E87000E0F91225CB02EADCE0700302EADC901535
:10E8800034E064016012E06404600DE06406600836
:10E89000E06405600302EADC7A017B00901533E056
:10E8A000F912341102EADC7E1202EADC74026F60B3
:10E8B0000302EABA12F3D39019BB02EA61EFC394E0
:10E8C00020400302EABA7C1F7D0079007ABE7B19E2
:10E8D0001233D5780C1213F7AC0AAD0B7ABE7B1944
:10E8E0001233BD740212118AEF9019BDF07CBE7D07
:10E8F00019FB7A018037EFC39420400302EABA7C07
:10E900001F7D0079007A627B151233D5780C1213C3
:10E91000F7AC0AAD0B7A627B151233BD740212118B
:10E920008AEF901561F07C627D15FB7A00901533BB
:10E93000E0F91225C502EAD674016F600302EABA53
:10E940008C828D83E0F8C39405400302EABAE89014
:10E95000158102EA8074016F600302EABA8C828D2D
:10E9600083E0F8C39404400302EABAE890158202F7
:10E97000EA8074066F600302EABA750C06780C121E
:10E9800013F77A837B151233BD740212118A02EADF
:10E99000DC74016F600302EABA8C828D83E0F8C3F5
:10E9A0009408400302EABAE890158902EA807401EB
:10E9B0006F600302EABA8C828D83E0F8C39404404E
:10E9C0000302EABAE890158A02EA8074026F6003D3
:10E9D00002EABA12F3D390158B12F3BBE849700325
:10E9E00002EADC901534E06406600302EADC90156C
:10E9F0008B12F40D780A1213F37A027B0090153310
:10EA0000E0F912351F740412118A02EADC74016FF6
:10EA1000600302EABA8C828D83E0F8C3940240035B
:10EA200002EABAE8901593805712EAF7600302EA07
:10EA3000BA12EAEB400302EABA9019DF803E12EA0A
:10EA4000F7707712EAEB50729019E1802F12F3D32E
:10EA500074026F7065C3E894F4E99401505C9015FA
:10EA600094E8F0A3E9801912EAF7704EEA24F6124E
:10EA7000EAE39477E9940C50419019E3EAF0A3EBB0
:10EA8000F0805974016F70328C828D83E064017064
:10EA9000297A087B00901533E0F9123531EA4B4CA6
:10EAA0004D7013790012357F7A047B00901533E0A6
:10EAB000F912352B80267E1680227E18801EC3EA2E
:10EAC0009427EB9400501374026F700E8C828D8328
:10EAD00012EF261224B7E9FE80027E02EEF97F06CD
:10EAE0000212B6F8EB34FFF9C3E822EA24FA12EA7C
:10EAF000E3947BE9940C228C828D83E0FAA3E0FB03
:10EB000074026F2274F41211E4ECFEEDFF750A003A
:10EB10008A0C8B0D780C12143B00031B65EC56EB32
:10EB20005CEB6EEB80EB90EBA2EBAEEBB4EBC3EBEC
:10EB3000D2EBD8EBDEEBEFEBF4EBF9EBFEEB03EC17
:10EB400010EC15EC1AEC1FEC24EC41EC46EC4BEC11
:10EB500065EC5BECA8EB90153502EC5E750C10755E
:10EB60000D00780C1213F77C367D1502EC33750C12
:10EB700010750D00780C1213F77C467D1502EC33EE
:10EB80009015561210628E828F8312106E02EC7FE7
:10EB9000750C06750D00780C1213F77C5A7D150262
:10EBA000EC339019BA02EC5E90156002EC5E90199D
:10EBB000BB02EC4E9019BD12EC831213F77CBE7DA4
:10EBC00019807090156112EC831213F77C627D1529
:10EBD000806190158102EC5E90158202EC5E750CEE
:10EBE00006750D00780C1213F77C837D1580449018
:10EBF0001589806A90158A80659019DD805090157E
:10EC00008B804B901593E08E828F83F0A3E4806914
:10EC10009019DF80399019E18034901594802F90FD
:10EC200019E3802A750C06750D00780C1213F77C19
:10EC30008D7D15EEFAEFFB1233BD740212118A803E
:10EC40003E9015968008901598800390159A12F3BF
:10EC5000D78E828F83E8F0A3E9801E901534E08E72
:10EC6000828F838014C3EA9427EB9400500E122401
:10EC7000BD8E828F83EAF0A3EBF08003750A02A9B0
:10EC80000A800EE0F50C750D00780C22740A121142
:10EC90008A7F040212B674F61211E4901534E07003
:10ECA0003EEA4B600890159DEAF0A3EBF0750A561A
:10ECB000750B15780A1213F7750A46750B15780A45
:10ECC0001213F77C367D157B00901535E0FA901510
:10ECD00033E0F9123045740412118A790080027908
:10ECE000117F020212B6C082C083EA4B6008901501
:10ECF0009FEAF0A3EBF0D083D082020E12C082C054
:10ED000083901534E06406700F7C1312F3CA9015DB
:10ED100033E0F91225358002791280DA74F7121186
:10ED2000E4E9901533F0901534E4F09019DD74FFA8
:10ED3000F0A3F01226259015357404F07C107D00A8
:10ED400079007A367B151233D57C107D0079007AF4
:10ED5000467B151233D5901556E4F0A3F0A3F0A32B
:10ED6000F0901581F0901582F09015897407F0905D
:10ED7000158AE4F07C367D157A1079021234FB7C1A
:10ED8000467D157A1079031234FB7C567D157A0482
:10ED900079041234FB7F010212B674F41211E47488
:10EDA000F6121174EAFEEBFF54806023901533E0F5
:10EDB000F91233F98A0A8B0BEA450B600A12357394
:10EDC000AA0AAB0B1233E7EEFAEF648002EF1CEFF6
:10EDD000544060137C567D157A0479041234F5EEA4
:10EDE000FAEF644002EF1CEEA2E0400302EE9990BD
:10EDF00019BAE07009901560E0700302EE93901567
:10EE000060E0600B851A82851B837403F080399063
:10EE10001581E0851A82851B83F0901582E0C0E0A1
:10EE200074011211C0D0E0F0750A06750B00780A63
:10EE30001213F77C837D1574041211C0AA82AB8370
:10EE40001233BD740212118A901589E0C0E0740873
:10EE50001211C0D0E0F090158AE0C0E074091211E0
:10EE6000C0D0E0F0AA1AAB1B901533E0F91225BF11
:10EE7000E960209015347408F012F418601512F34C
:10EE8000C412F3D788828983E582458360057908B7
:10EE90001211E2EE640102EF1A540260359015344B
:10EEA000E06406702812F3CA12284790158B12F4FA
:10EEB0001B601A90158B12F4051213F37A027B0073
:10EEC000901533E0F912351F740412118AEE6402B2
:10EED0008048EE5404600A790012357FEE640480A5
:10EEE00039EE5408603990159CE0146008147027BE
:10EEF00012356180229019E312140E9015941214A9
:10EF00000E79019019E112EF269019DF12F3CD125C
:10EF10003585740412118AEE6408FAEFFB80047AD6
:10EF2000007B0002EC8CE0FCA3E0FD2274F41211E3
:10EF3000E4EA2405F8E43BF98A828B83E0246F60DD
:10EF40000B24EF606D24D2606402F00DA3E0640E28
:10EF5000600302F00D8A828B83A3A3A3E064057093
:10EF600004A3E06414600302F00D8882898312F325
:10EF7000C1A3A3A3E0F9901534E06406600302F096
:10EF80000D747F69700302F00D90159D12F3CDEAA8
:10EF90004B607A90159D12F3C1A3A312F3CD8A8220
:10EFA0008B83E582458360651211E28060123579BA
:10EFB000805B88828983E0641370528A828B83A38A
:10EFC000A3A3A3A3A3E064017002A3E070199015AA
:10EFD0009CE0640270117A087B00901533E0F9120E
:10EFE000352B12356180267A057B001224BD8A0AF2
:10EFF0008B0BE4F50CF50D780A1213F37A087B00FD
:10F00000901533E0F912351F740412118A02EC9145
:10F0100074EC1211E4EAFEEBFF8E828F83A3A3E06F
:10F02000F8EE2403F50EE43FF50FEE240AF50CE4A8
:10F030003FF50D8E828F83A385820A85830BE8605E
:10F040002724FE700302F0DF14700302F1451470F0
:10F050000302F14514700302F1B414700302F2C309
:10F0600014700302F3388072E0704B7C367D157AA1
:10F070001079021234F57C467D157A10790312342A
:10F08000F5750A06750B00780A1213F7AC0EAD0F72
:10F090007A5A7B151233BD740212118A901534749A
:10F0A00001F07CBE7D199019BDE0FB7A019015330B
:10F0B000E0F91225C5E9600302F13C12F418601A68
:10F0C00012F3C412F3D7E8FAE9FBEA4B600C90158F
:10F0D00034E0F98A828B831211E27F0C0212B6E0CF
:10F0E0007051850E82850F83E0601D7C627D1590D6
:10F0F0001561E0FB7A00901533E0F91225C5E9852A
:10F100000A82850B83F0802B901534E06402602323
:10F11000E06407601E7A017B00901533E0F9123538
:10F1200031EA4B4C4D700C7A017B00901533E0F9BD
:10F13000123411850A82850B83E0609E9015347429
:10F1400008F002F0BBE070F4740368701D90153491
:10F15000E064067004740780E89019BAE0901534F2
:10F160006004740280DB740380D79019BB12F41B17
:10F170009019BA6025E07006901560E0602690193D
:10F18000BB12F4051213F37A017B00901533E0F9FA
:10F1900012351F740412118A800AE0640160039022
:10F1A0001560E4F0901534E06407700474068091F3
:10F1B0007404808DE0F8600302F2B0EE2404F50AD6
:10F1C000E43FF50B75100675110078101213F7ACBB
:10F1D0000AAD0B7A8D7B151233BD740212118A852C
:10F1E0000C82850D8312F3D79019DD12F3BB9015B5
:10F1F000347406F090158B12F41B602590158BE08B
:10F20000F512A3E0F513E4F514F51578121213F3D3
:10F210007A027B00901533E0F912351F7404121145
:10F220008AEE240DF582E43FF58312F3F9EE240F04
:10F23000F582E43FF58312F3EDEE2411F582E43F0D
:10F24000F58312F3E1901593E06401703B7A1F7B24
:10F25000001224BD8A12EA75F0E8A4C512A8F07560
:10F26000F003A428F875F0E8EBA428F513E4F514EE
:10F27000F51578121213F37A047B00901533E0F938
:10F2800012351F740412118A75100478101213FBC2
:10F29000850C82850D8312EF26AA0AAB0B850E82A0
:10F2A000850F83E0F9123051740112118A02F0BB0C
:10F2B000743168600302F13C9019BAE4F09015349F
:10F2C00002F1B01230757C067D0079007A8D7B15D5
:10F2D0001233D5901596E4F0A3F0901598F0A3F0B2
:10F2E00090159AF0A3F07A04FB901533E0F91235EB
:10F2F0002B7A087B00901533E0F912352B9019DD3D
:10F3000074FFF0A3F0901560E0600690153402F1F0
:10F31000668E828F83A3A3A3A3A3E0640890153411
:10F320007004740580027404F07A017B0090153338
:10F33000E0F912341102F0BB7A087B00901533E03B
:10F34000F912352B850A82850B83E0600302F0DA1F
:10F350008E828F83A3A3A3A3A3A312F3F98E828F1C
:10F3600083A3A3A3A3A3A3A3A312F3ED850C828578
:10F370000D8312F3E17A047B00901533E0F9123526
:10F3800031EA4B4C4D600302F0DA90159F12F41BEA
:10F39000700302F0DA90159A12140E90159812EF7D
:10F3A0002690159612F3CD90159F12F3C112F3C15A
:10F3B0001211E2740212118A02F0DAE8F0A3E9F005
:10F3C00022E0F8A3E0F5838882229019DDE0FAA319
:10F3D000E0FB228C828D8312F3DB22E0F8A3E0F9BC
:10F3E0002212F3DB90159AE8F0A3E9F02212F3DB86
:10F3F000901598E8F0A3E9F02212F3DB901596E857
:10F40000F0A3E9F02212F40DF50D780A22E0F50AD6
:10F41000A3E0F50BE4F50C2290159D12F3DBE8490F
:10F420002274F41211E474F6121174E9FE9019DFDB
:10F4300012F3D7758315758296C3E098A3E09940BF
:10F440003890159612F3D77583197582E1C3E09849
:10F45000A3E099402490159812F3D7901594E06892
:10F460007003A3E069701290159A12F3D79019E314
:10F47000E0687003A3E06960797A057B001224BD1F
:10F480008A0A8B0B9019DD12F3D7851A82851B83AC
:10F4900012F3BB9019DF12F3D774021211C012F3EA
:10F4A000BB9019E112F3D774041211C012F3BB9090
:10F4B000159412F3D774061211C012F3BB9019E31E
:10F4C00012F3D774081211C012F3BBAA1AAB1B12A5
:10F4D000253BEE90159CF0E4F50CF50D780A12131F
:10F4E000F37A087B00901533E0F912351F7404128B
:10F4F000118A02EC8C74F41211E4E9FE901534E0E8
:10F5000064066005791402F58CEA24FAF8EB12F52A
:10F510008F5077EC24FAF8ED12F58F506D740C12C1
:10F5200011C0E0F50CA3E0F50DC3E50C94F4E50D76
:10F5300094015056740E1211C0E0F50AA3E0F50BC9
:10F54000E50A24F6F8E50B12EAE59476E9940C5006
:10F55000399019DFEAF0A3EBF09019E1ECF0A3ED9C
:10F56000F0901594E50CF0A3E50DF09019E3E50A91
:10F57000F0A3E50BF0EEF912357F7A047B009015CD
:10F5800033E0F912352B79008002791802EC9112E0
:10F59000EAE5947AE9940C2274EE1211E48A0A8B5B
:10F5A0000B890D8C108D11900741E0700990074375
:10F5B000E0700302F66590032AE0600302F66589B5
:10F5C0000E750F00E92407FAE43400FB1233E18AD8
:10F5D000128B13AE12AF13EE4F700302F67674184F
:10F5E000650A70047420650B600C7417650A70045A
:10F5F0007420650B7010900743E0600AF50C8E8252
:10F600008F837492800C900741E0F50C8E828F837B
:10F610007491F0A3740E12FEC6740112FECEE50AB8
:10F62000F0A3E50BF0EE2405F8E43FF9E8FAE9FB76
:10F63000EE2407F8E43FF98A828B83E8F0A3E9F02F
:10F64000780E1213F7AC10AD118A828B83E0FAA307
:10F65000E0FB1233BD740212118AEEFAEFFBA90C23
:10F660001233ED801178101213F7AC0D790E1228B9
:10F67000BF740212118A7F0A0212B674F51211E4E5
:10F68000890CEAFEEBFF900741E0603990032AE025
:10F6900070337A067B001233E1EA4B60358A828B45
:10F6A000837491F0A3740F12F86AA3A3E50C12FC03
:10F6B00030740112FC3FEEF0A3EFF0900741E0F947
:10F6C0001233ED800DEEFCEFFDAA0C7B00790F12DA
:10F6D00028B97F030212B612FF9C12F6E4740412DA
:10F6E000F6E4A32212F6E822F088828983E0FCA3E4
:10F6F000E0F5838C822274F71211E474FC12117409
:10F70000EA851A82851B83F074011211C07401F01E
:10F7100074021211C0ECF074031211C0EDF0AC1AB7
:10F72000AD1B7A041228C5740412118A7F010212DB
:10F73000B674F21211E4890B8A0C8B0D8C0A7407D3
:10F740002CFA74FF650B6004780380027802E82AC3
:10F75000FA7B001233E18A0E8B0FAE0EAF0FEE4F25
:10F76000700302F84F8E828F837401F0A374FFF050
:10F77000EE2402FAE43FFBEE2404F8E43F12F8F82A
:10F78000E50B12F86AE02402F8A3E03400F9890FCF
:10F79000E50DF9740E1211C012FB4174FF650B6088
:10F7A0002E7403250A8882850F8312F8F1A3740151
:10F7B00012F874E50C12F874A3E9F0850A0C750DC3
:10F7C00000780C1213F78A828B83E024068066741B
:10F7D00002250A8882850F83F08C828D83E0C0E049
:10F7E0008A828B8312F854D0E0F08C828D83A3E060
:10F7F000C0E012F85FD0E0F08C828D83A3A3E0C05C
:10F80000E012F85FA3D0E012F86312FB34E50C12AB
:10F81000F86312FB38E9F0E50A24FDF50CE434FF47
:10F82000F50D780C1213F7EC2403FC50010D8A82BD
:10F830008B83E02408FAA3E03400FB1233BD74028A
:10F8400012118AEEFAEFFB90073FE0F91233ED7FD9
:10F85000060212B612F8582212FD3AA3A3A32212EE
:10F86000F8792212F86A12FD222212F86E22F08A2A
:10F87000828B8322F012F879228A828B8312F858C5
:10F88000A32274F21211E4890C8A0DECFEEDFF74D0
:10F89000072AFA7B001233E18A0A8B0BEA450B60D8
:10F8A0004D12FB88E4350B0A0AFBE50A2404F8E450
:10F8B000350B12F8F8E50C12F8F1E50DF06023F5C0
:10F8C0000E750F00780E1213F7EEFCEFFD8A828B97
:10F8D00083E02403FAA3E03400FB1233BD74021268
:10F8E000118AAA0AAB0B90073FE0F91233ED02F838
:10F8F0004F12F86A12FB7B22F98A828B83E8F0A30D
:10F90000E912FD2F740412FD2FA3227F100212B6FC
:10F9100074E81211E48919EAFEEBFF8C188D157456
:10F920001A1211C0E0F50EA3E0F50F741C1211C0FD
:10F93000E0F50AA3E0F50B741E1211C0E0F50CA36C
:10F94000E0F50D74201211C0E0F514900741E0704D
:10F950000302FA167A157B001233E18A108B11EA42
:10F960004511700302FB3112FB477401F0EA2408D1
:10F97000FAE43511FBE5102403F582E43511F58333
:10F98000E519701EE4F0751206F51378121213F7DC
:10F99000741A1211C012FB411233BD740212118A83
:10F9A000800C7431F07C067D0079001233D585100F
:10F9B00082851183A3A3A3A3EEF0A3EF12FB5BE563
:10F9C0001812FB5BA3E515F0E510240EF582E43573
:10F9D00011F583E50EF0A3E50FF0E5102410F58294
:10F9E000E43511F583E50AF0A3E50BF0E5102412E8
:10F9F000F582E43511F583E50CF0A3E50DF0E51093
:10FA00002414F582E43511F583E514F0AA10AB1146
:10FA100090074102FB2C900336E0A2E550089003CA
:10FA20002EE0A2E0400302FB317A1A7B001233E1A0
:10FA30008A128B13EA4513700302FB3112FB88F51F
:10FA400010E43513F511EA2404F8E43513F98510B0
:10FA500082851183E8F0A3E912FB65740412FB654B
:10FA6000A3743E12FB6C741312FB6CA3740112FBA3
:10FA700081E51912FB81A3EE12FB9B12FB34EF12FE
:10FA8000FB9B12FB38E51812FB9B12FD0FE515F0EE
:10FA900075160675170078161213F7741A1211C02E
:10FAA00012FB41851082851183E02409FAA3E0341A
:10FAB00000FB1233BD740212118A12FD18240FF5D7
:10FAC00082E438F583E50EF0E50FF50E12FD1824FB
:10FAD00010F582E438F583E50E12FB9B2411F582C4
:10FAE000E438F583E50AF0E50BF50A12FD18241257
:10FAF000F582E438F583E50A12FB9B2413F582E4D2
:10FB000038F583E50CF0E50DF50C12FD182414F51D
:10FB100082E438F583E50C12FB9B2415F582E4386A
:10FB2000F583E514F0AA12AB1390073FE0F9123306
:10FB3000ED02F90B12FC27222407F582E438F58345
:10FB400022E0FCA3E0FD228A828B83749112FB5198
:10FB500022F0A3743E12F86EA3A32212FB73A3A398
:10FB6000A3A3A3A32212FB7312FD322212FB731272
:10FB7000FB7B22F08510828511832212FD36A3A320
:10FB80002212FB7312F87D2212FB8C228A828B8355
:10FB90007401F0A374FFF0EA24022212FB7312FD39
:10FBA000222274F41211E4EAFEEBFF890A90074165
:10FBB000E0602E7A067B001233E1EA4B605F8A82B6
:10FBC0008B837491F0A3740512F86AA3A3E412FC6A
:10FBD00030EEF0A3EF12FC3FA3E50AF0900741805E
:10FBE0003790032FE0A2E450347A0B7B001233E10C
:10FBF000EA4B602912F6D7740512FC44740412FC17
:10FC000044A3E412FC4EEE12FC4EA3EF12FEC0120F
:10FC1000FC20E50AF090073FE0F91233ED02FF27E0
:10FC200012FD2212FC27222406F582E438F58322F5
:10FC300012FC342212FC382212F86EA3A3A3221263
:10FC4000FC34A32212FC482212F6E8A3A32212FCE1
:10FC500048A3A32274F41211E4890AEAFEEBFF8C94
:10FC60000B900330E0A2E3400302FD0C7A0F7B000F
:10FC70001233E1EA4B700302FD0C12FB88F50CE431
:10FC80003BF50DEA2404F8E43BF9850C82850D83ED
:10FC9000E8F0A3E912FD28740412FD28A3740C12E5
:10FCA000FD43740812FD43A3E50A12FD4AEE12FD5E
:10FCB0004AA3EF12FD5912FB34E50BF0740C12113C
:10FCC000C012FB41850C82850D8312FD1E12FB388C
:10FCD000EC12FD5912FD0FEDF0740E1211C0E0F898
:10FCE000A3E0F9850C82850D83E0FCA3E0CC240918
:10FCF000F582E43CF583E812FD59240AF582E438E4
:10FD0000F583E9F090073FE0F91233ED02FF272475
:10FD100008F582E438F5832285108285118312FD6F
:10FD20002222E0F8A3E0C82212FD5112FD32221275
:10FD3000F86E12FD362212FD3A22E0F8A3E0F583B8
:10FD400088822212FD5112FB7B2212FD5112F87D96
:10FD500022F0850C82850D832212FD5112FD222294
:10FD600074EC1211E48A0E8B0F8C108D1174141226
:10FD700011C0E0F50CA3E0F50D850C82F583A38599
:10FD80008212858313900743E060777A0F7B00121D
:10FD900033E18A0A8B0BAE0AAF0BEE4F700302FE03
:10FDA000BB8E828F837492F0A3743E12FEC67405DC
:10FDB00012FECEE50EF0A3E50FF0750A08750B00F4
:10FDC000780A1213F7AC10AD11EE2405FAE43FFBEC
:10FDD0001233BD740212118A850C82850D83E0FAFC
:10FDE000851282851383E0F9EAF8EE240DF582E4AA
:10FDF0003FF583E8F0A3E9F0EEFAEFFB900743024A
:10FE0000FEB6900336E0A2E5500890032EE0A2E48F
:10FE10004006122ADB02FEBB7A147B001233E18A11
:10FE20000A8B0BEA450B700302FEBB12FB88F8E459
:10FE3000350BF9EA2404FAE4350BFB88828983EA5E
:10FE4000F0A3EB12FEC0E0FEA3E0FF8E828F83746E
:10FE500004F0A3743EF0A3740DF0A37405F0A3E5C1
:10FE60000EF0A3E50FF0A3AE82AF83750E08750FF9
:10FE700000780E1213F7AC10AD11EEFAEFFB12334F
:10FE8000BD740212118AEE2408FE50010F850C8207
:10FE9000850D83E08E828F83F085120C85130DA370
:10FEA0000EAF83850C82850D83E08E828F83F0AA4E
:10FEB0000AAB0B90073FE0F91233ED7F0C0212B64C
:10FEC000F08882898322F08E828F83A3A32212FE80
:10FED000C6A32274F41211E4EAFEEBFF890A8C0B2C
:10FEE000900743E060167A077B001233E1EA4B602B
:10FEF0003612FFB3E50BF0900743802690032FE006
:10FF0000A2E750237A0B7B001233E1EA4B60181210
:10FF1000FF887408F0A3740412FF7CA3E50BF09033
:10FF2000073FE0F91233ED7F040212B674F41211A8
:10FF3000E4EAFEEBFF890A900743E060167A077B4C
:10FF4000001233E1EA4B603212FFB37401F0900704
:10FF5000438022900334E0A2E7501F7A0A7B00120C
:10FF600033E1EA4B601412FF887430F0A37403127B
:10FF7000FF7C90073FE0F91233ED80ABF0A3E50A78
:10FF8000F0A3EEF0A3EFF02212FF9C12FEC0E0F807
:10FF9000A3E0F9888289837404F0A32212FB8CF811
:10FFA000E43BF9EA2404FCE43BFD88828983ECF01D
:10FFB000A3ED228A828B83749212FB51740812FC87
:10FFC00034EEF0A3EF12FFCFE50A12FFCFA3221207
:10FFD000FC38A3A322C082C0838A828B838001A3C2
:10FFE000E070FCE582C39AFAE5839BFBD083D08264
:10FFF000020E12FFFFFFFFFFFFFFFFFFFFFFFFFFEC
:020000040003F7
:1000000074F71211E474EC121174E99015A1F07CEC
:10001000087D007A1F7B001224B774051211C0E41A
:10002000F0740E1211C0E4F0A3F074041211C0E4D5
:10003000F0740C1211C07450F0A3E4F0740A1211A1
:10004000C07420F0A37403F074081211C0E4F0A38C
:10005000F074061211C074E8F0A37403F074051272
:1000600011DA79017A057B03123549740E1211DA1F
:1000700079027A067B031235497CE57D1979147A79
:10008000087B031235497CF97D1979037A077B03D4
:1000900012354974041211DA79017A107B03123592
:1000A00049740C1211DA79027A117B031235497402
:1000B0000A1211DA79027A127B0312354974081296
:1000C00011DA79027A137B0312354974061211DAB8
:1000D00079027A147B031235497CFC7D197A1279F6
:1000E000001226557CA07D007A067B001224B77C86
:1000F000A07D007A077B001224B77CA07D007A08DF
:100100007B001224B77CA07D007A097B001224B703
:1001100074101211C0E4F0A3F0A3F0A3F074031262
:1001200011C07401F0041211C07401F01211C0E486
:10013000F0851A82851B8304F074101211DA790499
:100140007A087B0412304B74031211DA79017A00B9
:100150007B0412304B74021211DA79017A027B04AB
:1001600012304B74011211DA79017A037B041230D8
:100170004BAC1AAD1B79017A067B0412304B90838D
:10018000A712104A12265B9083A712104A122799D1
:1001900012303312331B12236D1232F712333F1217
:1001A000239112311D9083A712104A1235E51230A7
:1001B0000F1233631235DF9015A1E0F91233A57ADF
:1001C0000079031232791232251231E312329D1274
:1001D00031411231591231B37A207B1A1233217A0C
:1001E000267B1A1233457A227B1A1223737A247BD8
:1001F0001A1232FD7A1E7B1A1223977A287B1A1262
:1002000031237A2A7B1A1230157A2C7B1A12355B2D
:1002100079011228897A017B009015A1E0F9123446
:10022000110289E174F41211E474F3121174EAFEFC
:10023000EBFF5480603A9015A1E0F91233F98A0A75
:100240008B0BEA450B60218A828B83E064C07011BE
:10025000A3A3A3E0FA850A828B83A3A3E0F9123556
:100260009DAA0AAB0B1233E7EEFAEF64800285A772
:10027000EE548060179015ABE0600AC2AF75C9AB51
:1002800075C95B80FEEE6480FA0285AEEEA2E05096
:10029000147A1A7B1A1235557AB17B1512306FEE2B
:1002A00064010285A55402700302832E9015A3E019
:1002B000605912323DE96402702FAA1AAB1B123248
:1002C00037E9600BAC1AAD1B7A0479001233279022
:1002D0001A12E024EDF50AA3E034FEF50BE4F50C68
:1002E000F50D780A1213F3800F12323DE9703912BE
:1002F000322B9083A312140A7A027B009015A1E09E
:10030000F912351F740412118A801D1232317D04D6
:100310007C0079007A007BAA1235D97D017C0079B6
:10032000017A007BAA1235D9EE64020285A5EE544B
:100330000460599015A5E06033740A1211D212318D
:100340004DE9600C740A1211DA7A037900122379EC
:10035000901A101285B81213F37A047B009015A13D
:10036000E0F912351F740412118A801A7D037C0093
:1003700079007A107BAA1235D97D017C0079017A47
:10038000107BAA1235D9EE64040285A5EE540860EC
:10039000779015A7E060519015AAE0F91231E99025
:1003A00015AAE064027025AA1AAB1B1231EFE960AE
:1003B0000BAC1AAD1B7A0479001233039015AAE432
:1003C000F0901A141285B81213F38009E004F0902B
:1003D000839B12140A7A087B009015A1E0F912356C
:1003E0001F740412118A801A7D047C0079007A201F
:1003F0007BAA1235D97D017C0079017A207BAA1273
:1004000035D9EE64080285A5EE5410606F9015A4EE
:10041000E060461232A3E96402701974041211D22A
:100420001232B5E9601774041211DA7A06790012F3
:10043000334B80091232A3E970031232A9901A0ECD
:100440001285B81213F37A107B009015A1E0F9120F
:10045000351F740412118A801D1232AF7D067C0094
:1004600079007A307BAA1235D97D017C0079017A36
:10047000307BAA1235D9EE64100285A5EE542060B7
:100480007A9015A6E060479015A9E06022E4F0AAF2
:100490001AAB1B123165E9600BAC1AAD1B7A0479FB
:1004A0000012239D901A161285B81213F3800C7453
:1004B00001F012315F90839712140A7A207B00902A
:1004C00015A1E0F912351F740412118A80277D04EA
:1004D0007C0079007A407BAA1235D97D017C0079B5
:1004E000017A407BAA1235D97D107C0079037A40CD
:1004F0007BAA1235D9EE64200285A5EE5440700324
:100500000285AA1231D1E9F50A9015A8E06076E9D2
:10051000700D9015ACE0F91231D71231B9804D90C1
:1005200015ADE0600D9015ACE0F91231D79015AD26
:10053000E4F07402650A703174041211D21231C5EC
:10054000E9600C74041211DA7A06790012312990EC
:100550001A18E024C4F50AA3E034FFF50BE4F50C07
:10056000F50D780A1213F380091231CB9083B31280
:10057000140A7A407B009015A1E0F912351F74042B
:1005800012118A801D1231BF7D067C0079007A50DD
:100590007BAA1235D97D017C0079017A507BAA12A1
:1005A00035D9EE6440FAEFFB80047A007B00740DCD
:1005B00012118A7F040212B6E0F50AA3E0F50BE4FB
:1005C000F50CF50D780A22C082C0831232CD901549
:1005D000AEEAF0A3EBF07A0079021232799015AE10
:1005E000E0FAA3E0FBD083D082020E1274F712115E
:1005F000E474FD121174EAFE74011211C0E4F0EE0D
:10060000A2E0400302868B9015AB7401F0908383C7
:1006100012140A7A807B009015A1E0F912351F743C
:100620000412118A9015B0E070589015A2E064068B
:10063000603574021211DA7A057B0312354F7402A9
:100640001211C0E0851A82851B8370047401800139
:10065000E4F0AC1AAD1B79017A057B0312354990A1
:1006600015A2E064067024851A82851B837401F04C
:10067000123561AC1AAD1B79017A057B031235493D
:10068000800974011211C0E0D2E2F0EEA2E150093B
:1006900074011211C0E0D2E0F0EEA2E25009740140
:1006A0001211C0E0D2E1F0EEA2E040059015ABE4FB
:1006B000F074011211DA7A0179001235EB74030239
:1006C00089E374F71211E474EC121174E9FE1460FA
:1006D0001714700302877124FE700302880D24FE34
:1006E000700302877B028877AC1AAD1B7A047B0308
:1006F00012354F851A82851B83E0C0E0740C1211FD
:10070000C0D0E0F074011211C0E0C0E0740D12110D
:10071000C0D0E0F074021211C0E0C0E0740E1211FB
:10072000C0D0E0F074101211C0E4F0740F1211C0C8
:10073000E4F074051211C0E0C0E074131211C0D0CF
:10074000E0F074041211C0E0C0E074121211C0D0C5
:10075000E0F074031211C0E0C0E074111211C0D0B7
:10076000E0F0740C1211DA7A08790012303902883C
:10077000777A0179011232790288777A0079011249
:100780003279740A1211DA7A167B0312354F740823
:100790001211DA7A137B0312354F74061211DA7ACA
:1007A000187B0312354F740A1211C0E0851A828536
:1007B0001B83F0740A1211C0A3E0C0E0740112118F
:1007C000C0D0E0F074081211C0E0C0E07402121151
:1007D000C0D0E0F074081211C0A3E0C0E0740312AE
:1007E00011C0D0E0F074061211C0E0C0E074041231
:1007F00011C0D0E0F074061211C0A3E0C0E074058F
:100800001211C0D0E0128C1112301B806A12323DDE
:10081000E970069015A3E060081232319015A3E448
:10082000F09015A5E06002E4F01232A3E9700690A2
:1008300015A4E060081232AF9015A4E4F09015A85A
:10084000E060081231BF9015A8E4F09015A6E060B2
:10085000081231599015A6E4F09015A7E06008122F
:1008600031E39015A7E4F09015ACE4F09015ADF0ED
:100870009015B0F01235DFEE9015A2F00289E17408
:10088000F41211E474FF121174E914600514606A23
:10089000807AAA1AAB1B79011223A3851A82851BC1
:1008A00083E0600814601214602680609015A6E052
:1008B000605AE4F07A20FB800D9015A6E0704D742C
:1008C00001F07A207B009015A1E0F9123411803CF0
:1008D0007A107B001234838A0C8B0DAE0CAF0DEEB8
:1008E0004F602912316BEEFCEFFD7A107903122371
:1008F0009DEEFAEFFB1234898012AA1AAB1B790223
:100900001223A3128A4E901A16128A5A7401028573
:10091000B074F71211E474FF121174E91460051435
:10092000603C804CAA1AAB1B790112332D851A82C8
:10093000851B83E0700D9015A3E06034E4F07A022B
:10094000FB8011640170299015A3E070237401F0FD
:100950007A027B009015A1E0F91234118012AA1AD4
:10096000AB1B790212332D128A4E901A12128A5A38
:10097000028A4A74F71211E474FF121174E91460C8
:10098000051460498059AA1AAB1B790112237F858F
:100990001A82851B83E09015A57012E06041E4F097
:1009A0007A04FB9015A1E0F91234118032E0700C4A
:1009B0007A047B009015A1E0F9123411851A828522
:1009C0001B83E09015A5F0F91231478012AA1AABEB
:1009D0001B790212237F128A4E901A10128A5A80B3
:1009E00069741412118A7F010212B674F71211E4AD
:1009F00074FF121174E914600514603C804CAA1A4B
:100A0000AB1B7901123351851A82851B83E0700D6F
:100A10009015A4E06034E4F07A10FB80116401705A
:100A2000299015A4E070237401F07A107B009015D2
:100A3000A1E0F91234118012AA1AAB1B7902123309
:100A400051128A4E901A0E128A5A74018095851A94
:100A500082851B83E075F00AA422F0A3E5F0F02262
:100A600074F71211E474FF121174E9146005146034
:100A70003F804FAA1AAB1B7901123309851A828570
:100A80001B83E0700C9015A7E06037128AC4123403
:100A900011851A82851B83E0640170269015A7E0FA
:100AA00070207401F09015AA128AC41234118012B9
:100AB000AA1AAB1B7902123309128A4E901A141229
:100AC0008A5A8086E4F07A08FB9015A1E0F9227436
:100AD000F71211E474FF121174E9146005146045F3
:100AE0008055AA1AAB1B790112312F851A82851BFA
:100AF00083E09015A8700AE0603DE4F07A40FB8046
:100B00001A7401F0851A82851B83E054079015AC96
:100B1000F09015AD7401F07A407B009015A1E0F9DA
:100B20001234118012AA1AAB1B790212312F128AC9
:100B30004E901A18128A5A028A4A74F41211E474F6
:100B4000F8121174890A7401650A705CAA1AAB1B49
:100B5000790112302174061211C0E0FA74071211E3
:100B6000C0128BB61213F774061211C0E0FA7407A4
:100B70001211C0128BB61213F7790074061211C04D
:100B8000E0FC74071211C0E0FBEC29E43BFD7404A7
:100B90001211C0E0FE74051211C0E0FBEEFA12352E
:100BA00085740412118A80097402650A7003123573
:100BB0006174080285B0E0F8E4C8F9EA28F50CE4AD
:100BC00039F50D780C22C082C08374FA121174EAD0
:100BD000851A82851B83F074011211C0EBF0740238
:100BE0001211C0ECF074031211C0EDF07406121172
:100BF000C0E0F8A3E0F974041211C0E8F074051223
