:020000040000FA
:0600000002011A02225D5C
:03002B0002299F08
:030033000229811E
:030053000222D3B3
:03006B000229580F
:100083000220B3E5C754F84401F5C7790122000003
:100093000080FB120086B90003020104E479217891
:1000A30008B800028004F709D8FCE479297802B87B
:1000B30000028004F709D8FCE4900281788A79135E
:1000C3008002F0A3D8FCD9FA781A90014A7A01BACF
:1000D30000028007E493A3F608DAF97A0A7B159005
:1000E300014B780879048015E493A3AD82AE838A2B
:1000F300828B83F0A3AA82AB838D828E83D8E9D9C6
:10010300E77582C87583B1740312012C75829175EA
:100113008300740012012C75D00075813F7518811E
:10012300751902759F00020096C09FF59FE473D076
:100133009F22D083D082C09FE493C0E0740193C018
:10014300E0740293F59F2201FF0000B40000280031
:100153002800283075A000A000A000A0000008001F
:1001630008E001F000100010001000100010001053
:100173000050005000500010001000D00700000095
:100183000000000F0001000500307507001000019A
:100193000081FF00000000FFFFFF740692067A064D
:1001A300B606FF02020208025000A0000000E803A6
:1001B30002B882010000A58202B282010000651527
:1001C30002AA82010000BF0202B28201000066158A
:1001D30002A882010000D50202B282010000671565
:1001E30002B682010000D70202B282010000681544
:1001F30002C082080000D80202B282010000691521
:1002030002C8820100006A15FF0100FF2002B882C4
:100213000100009F8202B282010000CE1502CA8251
:10022300000000000002AC82030000060317002256
:100233000D220D220D220D220D220D220D220D2243
:100243000D220D220D220D220DDA0FEC0FD40F0219
:100253000202020202020202010D0000001001026A
:10026300B882010000A28202B282010000111602CC
:10027300E282010000230702B2820100001216028B
:10028300D6820100006A8102B282010000131602C5
:10029300D4820100004F8102B282010000141602D1
:1002A300D282010000978002B2820100001516027B
:1002B300D082010000DF8002B28201000016160224
:1002C300CC82010000CD8002B28201000017160229
:1002D300C682010000BB8002B28201000018160230
:1002E300C482010000418102B2820100001916029A
:1002F300C2820100001A1601E8030577100AFFFF06
:10030300FF00013075030201060000000000000039
:1003130000000000000000000000000000000000DA
:100323000000000000FFFF0600800CE803140953DF
:10033300696D706C65424C45506572697068657291
:10034300616C051250002003020A00020106030239
:10035300F0FF53696D706C6520424C452050657207
:100363006970686572616C781400007E140A4368D2
:100373006172616374657269737469632031000229
:10038300436861726163746572697374696320326F
:1003930000084368617261637465726973746963A9
:1003A300203300104368617261637465726973740A
:1003B3006963203400024368617261637465726922
:1003C3007374696320350002B882010000D1810291
:1003D300B2820100002F1702DA82030000FF140229
:1003E300B082010000301702B282010000411702FF
:1003F300DC82010000001502B082010000421702F6
:10040300B282010000531702DE82020000011502CE
:10041300B082010000541702B28201000065170286
:10042300E082000000021502AC8203000003150203
:10043300B082010000661702B28201000077170242
:10044300CE82040000051502B08201000078171265
:1004530001351B8C031201352E8C031201355F8C81
:1004630003120135998C03120135F28C0312013505
:10047300398D03120135818D03120135B08D0312BD
:100483000135DF8D03120135168E031201355D8EA2
:1004930003120135768E03120135CB8E031201351B
:1004A300E48E03120135328F031201356C8F031270
:1004B300013501AB0212013504AC021201353DAC2A
:1004C3000212013560AC0212013572AC0212013521
:1004D300B0AC021201352CAD02120135F4AD02129B
:1004E300013516AE02120135ADAE02120135FFAE73
:1004F3000212013530AF021201353DAF0212013550
:10050300A7AF02120135FEAF0212013501B002128C
:1005130001353AB0021201353DB00212013547B040
:10052300021201359BB002120135DCB00212013513
:100533000FB1021201354CB1021201354EB2021253
:100543000135F2B2021201355BB30212013599B3E0
:10055300021201353A840312013562840312013514
:100563008F8403120135C7840312013525850312D5
:100573000135718503120135D885031201351886BB
:1005830003120135558603120135838603120135A3
:100593002D87031201353787031201354487031270
:1005A30001357787031201358387031201359B8752
:1005B30003120135A5870312013596AE03120135E7
:1005C300A4AE03120135BCAE03120135D3AE031240
:1005D3000135FAA601120135A4A701120135B7A806
:1005E3000112013533A90112013551AA0112013556
:1005F3008DAA0112013528AB011201350CAC011291
:100603000135D8AC0112013566AE01120135D7AE02
:100613000112013591AF0112013583B00112013589
:10062300C3B00112013577B101120135A9B101122D
:1006330001359FB301120135E1B301120135FFB357
:100643000112013565B40112013534B501120135CA
:10065300F8B50112013517B801120135CACB0212E0
:100663000135B4CC021201355FCD02120135B0CD94
:100673000212013560CE02120135D1CE02120135CC
:10068300B6CF02120135EACF02120135E3D00212CE
:10069300013520D102120135FCD1021201353BD2C2
:1006A3000212013557D2021201351DA10312013581
:1006B300A1A103120135CCA103120135E6A2031255
:1006C30001353388031201354988031201356788E0
:1006D300031201357889031201358289031201352A
:1006E300AD8A03120135A48B03120135118C031259
:1006F3000135B8D202120135E8D3021201351FD4F5
:100703000212013569D4021201352CD602120135C9
:10071300E68201120135728301120135D68401127A
:100723000135E284011201351D85011201358C85E5
:10073300011201359586011201359E87011201359B
:10074300658801120135C28901120135E089011260
:100753000135FD8901120135AA8A01120135278B62
:10076300011201354F8B01120135198E011201352A
:100773001E8E011201353790011201358590011249
:100783000135F590011201353391011201350F92B4
:1007930001120135CF92011201351B93011201356C
:1007A3001E9301120135629301120135AA930112BE
:1007B3000135E993011201350B94011201353F9480
:1007C30001120135A29401120135FBD70212013542
:1007D30009D8021201355CD8021201357BD8021206
:1007E3000135C0D80212013504DA021201359FDA4D
:1007F30002120135E3DA021201350DDB0212013573
:100803007CDB02120135C2DB0212013539DC021234
:100813000135EADC02120135D82900120135E82935
:1008230000120135892A00120135E52A001201352B
:10083300A22B00120135BE2C00120135F02C001240
:1008430001351F2D00120135CC2E00120135433125
:1008530000120135B33300120135A53400120135FE
:100863009E3500120135A53700120135993A001261
:100873000135C83B00120135CC3D00120135DC3E89
:10088300001201356B40001201355C410012013545
:10089300AA41001201351942001201353D420012EE
:1008A30001358E42001201352F47001201353048C1
:1008B30000120135914800120135BC480012013580
:1008C3008249001201350080031201350A800312A8
:1008D30001354F8003120135638003120135F38024
:1008E300031201352C81031201356781031201358F
:1008F300908103120135E48103120135F98103125A
:1009030001351B8203120135308203120135448203
:100913000312013559820312013593820312013503
:10092300BF82031201350883031201357A83031250
:100933000135BD8303120135E783031201351284A8
:100943000312013588AB03120135888D021201357C
:100953006B8E02120135E68E02120135218F0212CF
:100963000135729002120135009102120135929302
:1009730002120135449402120135509502120135D9
:10098300C396021201351C970212013525F4021297
:10099300013568F402120135ECF402120135C3F794
:1009A30002120135A99C031201355B9D0312013527
:1009B300579E03120135969E03120135F09E0312D2
:1009C3000135EFA40312013552A503120135EFA53A
:1009D3000312013524A60312013554A6031201356F
:1009E3008FA603120135AFA603120135D0E102121F
:1009F30001355CE2021201351BE30212013533E4D7
:100A0300021201354DE602120135D372001201358F
:100A1300F87200120135C573001201359974001282
:100A23000135067500120135467500120135E27570
:100A330000120135167700120135F17700120135E6
:100A4300507800120135DC78001201354A79001222
:100A53000135D679001201351C7A001201358E7AE0
:100A630000120135207B00120135C17B00120135D4
:100A7300E17B00120135297C00120135727C0012E2
:100A830001358E7C00120135B47C001201352E7DB8
:100A9300001201353C7D00120135CB7D001201357A
:100AA300347E0012013584E60212013509E7021291
:100AB30001354BE7021201352FE8021201359CE89C
:100AC30002120135E0E80212013524E90212013570
:100AD30051E90212013579E902120135B1E9021235
:100AE3000135EFE90212013516EA0212013590EAE7
:100AF30002120135DAEA0212013524B80112013576
:100B0300C3B901120135FBBB011201354FBC011200
:100B130001357ABC0112013556BD0112013586BD7E
:100B230001120135B5BD01120135C8BD01120135F0
:100B330009BE0112013536BE0112013584BE011210
:100B43000135C0BE0112013505BF0112013552BF87
:100B530001120135CCBF011201350DC2011201355D
:100B6300F7C30112013533C401120135C2C50112A5
:100B7300013507C6011201357AC601120135CFC608
:100B830001120135D4C6011201355EC701120135C8
:100B93007DC8011201358EC801120135C5970212B5
:100BA30001353E9802120135F89D02120135039F6B
:100BB30002120135ACA0021201353AA1021201352D
:100BC300BB5E001201353C5F00120135695F001204
:100BD3000135B25F00120135B360001201350C61BB
:100BE300001201358862001201350A6300120135D3
:100BF3002563001201359663001201355364001218
:100C03000135166500120135A465001201355B66D6
:100C1300001201356E6600120135076700120135B7
:100C23009E6700120135C567001201352E68001258
:100C33000135786800120135C668001201356D6907
:100C4300001201350B6A00120135986A0012013552
:100C5300096B00120135506B00120135A86B0012AD
:100C63000135DA6B001201359B6C001201359E6D64
:100C730000120135E76D00120135046E00120135D3
:100C8300236E00120135566F001201350D700012EC
:100C93000135327000120135477000120135B7700B
:100CA30000120135F870001201351C720012013573
:100CB3009D720012013564A102120135AFA1021227
:100CC3000135BBA1021201358FA202120135A6A282
:100CD30002120135E3A20212013514A302120135F7
:100CE3004CA302120135A2A302120135B8A30212CA
:100CF3000135F4A30212013507A4021201352EA413
:100D03000212013562A40212013588A502120135CF
:100D1300D2A602120135CEA702120135E4A80212AF
:100D23000135F57F001201353ED7011201356DD72C
:100D330001120135BFDA0112013516DC011201354A
:100D4300D5DC011201353CE00112013528E1011225
:100D530001357AE10112013594E101120135C6E151
:100D630001120135D1E101120135DAE10112013538
:100D73008CE2011201355CE301120135A3E3011298
:100D8300013509E4011201357BE4011201357A953D
:100D930001120135BA9801120135C09801120135CB
:100DA3007F9F01120135A4A301120135D48F0312D1
:100DB30001356A9003120135809003120135D990F1
:100DC300031201351D9103120135579103120135A9
:100DD300EF91031201355E920312013567920312FC
:100DE30001357392031201358D9203120135B792C7
:100DF30003120135CC92031201352E9303120135F0
:100E030055930312013575F80212013582F8021267
:100E130001359CF802120135CFF8021201350DF9A4
:100E23000212013572F90212013587F902120135F6
:100E330092F9021201359FF902120135B6F9021235
:100E43000135C4F902120135CFF902120135DBF97C
:100E530002120135EAF902120135F5F902120135E0
:100E630018FA02120135BCFA02120135CCFA021249
:100E73000135E6FA0212013503FB021201351EFBAE
:100E83000212013543FB021201354EFB02120135FA
:100E930063FB0212013577FB02120135D8FB021204
:100EA3000135DEFB02120135E4FB02120135EAFBD8
:100EB3000212013502FC0212013535FC0212013522
:100EC3000580021201359C80021201353481021221
:100ED30001352482021201355B82021201356E82D2
:100EE30002120135DC8202120135778402120135C8
:100EF3009E84021201354085021201357585021266
:100F03000135868502120135FF85021201352086DF
:100F1300021201353886021201359087021201351B
:100F2300998902120135E98B02120135EC8C021208
:100F330001353B8D02120135B1C801120135AEC92D
:100F43000112013599CA01120135A3CA01120135F3
:100F5300C5CA01120135D1CA0112013523CC0112D0
:100F6300013552CC0112013582CD01120135C4CDB8
:100F730001120135F0CE01120135C6CF0112013540
:100F830018D00112013577D001120135AED001120C
:100F93000135E9D00112013584D4011201359DD404
:100FA300011201351FD5011201352DD5011201356D
:100FB30082D50112013590D501120135FDD50112FB
:100FC30001356FD601120135B5D60112013505F48D
:100FD3000112013527F40112013511F60112013511
:100FE300B6F901120135F9FA01120135D3FB0112E9
:100FF3000135BDA603120135E2A60312013553A73D
:1010030003120135BFB302120135C8B30212013511
:10101300D1B30212013502B50212013521B7021212
:10102300013557B70212013591B702120135C7B71F
:101033000212013501B80212013535B80212013529
:1010430061B802120135AAB802120135E4B80212DE
:1010530001352CB90212013582B902120135B7B933
:101063000212013512BA021201354CBA02120135CD
:101073009DBA02120135D3BA021201350DBB021219
:1010830001353BBB021201355EBB0212013517B0BD
:101093000312013543B0031201359EB0031201352B
:1010A300A8B003120135B8B0031201351797031224
:1010B30001353E970312013568970312013520B2BB
:1010C30003120135EE4900120135564C0012013569
:1010D300094E00120135664E00120135634F0012AE
:1010E3000135F34F001201357850001201359D5040
:1010F300001201359553001201350B5400120135CE
:10110300FC54001201353655001201357655001294
:1011130001351C5700120135715700120135BE57B6
:10112300001201352C5800120135535800120135B5
:101133006D5800120135835900120135935900127D
:1011430001351F5B00120135415B00120135775BEE
:1011530000120135255D00120135645D0012013571
:10116300965E001201351AEB0212013572EB021280
:101173000135BAEC0212013529ED02120135D8ED21
:1011830002120135F7ED021201354BEE0212013561
:1011930089EE0212013563AF0312013574AF0312F6
:1011A30001356AB203120135A9B203120135A3B3A3
:1011B3000312013515FF0112013525FF0112013517
:1011C3003AFF01120135ECFF011201359CAC031209
:1011D300013520AD0312013586AD0312013573A825
:1011E300031201359CA80312013502A9031201352C
:1011F30021A90312013575A903120135CEA90312E2
:10120300013509AA031201350CAA03120135B7FCF3
:1012130002120135CCFC02120135F0FD0212013538
:101223005AFE02120135CEFE02120135E8FE021209
:101233000135FFFE0212013512FF021201352AFFAA
:10124300021201353FFF0212013560FF0212013520
:10125300B1FF02120135E6FF02120135F6FF021259
:101263000135F9FF02120135F87F0012013515A38C
:10127300031201358BA403120135ECA403120135CB
:1012830016AA031201353FAA0312013568AA0312F5
:10129300013501AB0312013543AB03120135ECBB3E
:1012A30002120135F6BB0212013536BC02120135BA
:1012B3007FBC02120135B9BC021201350FBD021207
:1012C30001352EBD02120135B3BF02120135BCBF79
:1012D300021201350DC00212013536C0021201356A
:1012E3004BC002120135BBC00212013549C10212C3
:1012F30001358DC102120135B5C10212013534C267
:101303000212013577C202120135B4C2021201354D
:10131300C6C202120135E5C202120135EEC2021243
:101323000135B8C302120135577E00120135A87E7C
:1013330000120135317F00120135977F001201350C
:10134300E599031201350F9A03120135099B031224
:101353000135389B03120135BE9B031201359FAD46
:10136300031201351B9F03120135519F03120135EF
:101373008A9F03120135E3A003120135C2B00312A1
:101383000135D8B003120135E2B00312013538B18B
:101393000312013569B103120135E4C302120135A9
:1013A300A1C402120135DCC40212013504C50212C4
:1013B300013566C502120135B2C50212013512C6E6
:1013C30002120135A3C6021201359FC7021201356D
:1013D3002CC902120135AFC90212013513CA021218
:1013E30001352ACA0212013520CB021201356CCB1A
:1013F30002120135A4EF02120135B9EF02120135D1
:1014030069F002120135A9F002120135C2F002128D
:101413000135F5F00212013542F10212013576F180
:1014230002120135B8F102120135BFF30212013580
:10143300CAE50112013581E90112013513EB0112ED
:1014430001356AEB0112013589EB0112013507EC15
:101453000112013599ED011201357DEE01120135BD
:101463008EF20112013562F301120135FCDC021226
:1014730001352FDF02120135F1DF021201356EE172
:1014830002120135839303120135EB9303120135E5
:10149300089403120135D3940312013526950312E0
:1014A3000135099603120135B3B20312013530B386
:1014B30003120135F9B2031201355CB3031201358E
:1014C30085B303E066701008A3E066700A08A3E022
:1014D30066700408A3E06622C3E7960809E7960846
:1014E30009E7960809E79622C3E09608A3E0960861
:1014F300A3E09608A3E09622C008C3E096F5080887
:10150300A3E096420808A3E096420808A3E09645A4
:10151300087001D3D00822080808EAC0E0EBC0E055
:1015230086F0E7A4FA180986F0E7A42AFA180986D0
:10153300F0E7A42AFA180986F0E7A42AFA1986F034
:10154300E7A4FBE5F02AFA190886F0E7A42BFBE5EC
:10155300F03AFA190886F0E7A42BFBE5F03AFA18FB
:10156300180986F0E7A4C5F02BFBE43AFA1908E75B
:10157300C5F0C6A426F6E5F03BFBE43AFA1886F07C
:10158300E7A4F6E5F00826F6E43B08F6E43A08F6A5
:10159300D0E0FBD0E0FA22E4CFC0E0E4CEC0E0E448
:1015A300CDC0E0E4CCC0E075F020E626F608E633D3
:1015B300F608E633F608E633F6181818EC33FCEDB4
:1015C30033FDEE33FEEF33FFC3EC9709ED9709EEDE
:1015D3009709EF97191919400FFFEC97FC09ED973D
:1015E300FD09EE97FE191906D5F0BFECF709EDF7E3
:1015F30009EEF709EFF7191919D0E0FCD0E0FDD097
:10160300E0FED0E0FF226016080808C6C313C61820
:10161300C613C618C613C618C613C6D5E0EA227089
:1016230009080808226016181818C6C333C608C666
:1016330033C608C633C608C633C6D5E0EA22E62752
:10164300F60809E637F60809E637F60809E637F635
:1016530022E026F608A3E036F608A3E036F608A350
:10166300E036F622E026F008A3E036F008A3E036E1
:10167300F008A3E036F022C3E697F60809E697F6EA
:101683000809E697F60809E697F622C3E096F008FC
:10169300A3E096F008A3E096F008A3E096F022E01A
:1016A30056F608A3E056F608A3E056F608A3E0565C
:1016B300F622E056F008A3E056F008A3E056F0083F
:1016C300A3E056F022E0F608A3E0F608A3E0F6084C
:1016D300A3E0F622E6F008A3E6F008A3E6F008A3E9
:1016E300E6F022E0FAA3E0FBA3E0FCA3E0FD22E0A6
:1016F300F8A3E0F9A3E0FAA3E0FB22E8F0A3E9F002
:10170300A3EAF0A3EBF022CAC0E0E6F0A308DAFAFA
:10171300D0E0FA22CAC0E0E0A3C582CCC582C5836B
:10172300CDC583F0A3C582CCC582C583CDC583DA7D
:10173300E6D0E0CA22C3E498F8E499F91217798055
:1017430026C3E49AFAE49BFBE920E7E9121779E45C
:1017530098F8E499F922C3E498F8E499F91217790F
:10176300E498F8E499F9C3E49AFAE49BFB22EB20AA
:10177300E7CFE920E7E0B90010BB0008E88AF0846E
:10178300F8AAF022E4FBC8FA22EB70227B10C833DC
:10179300C8C933C9335007C39AC3DBF280069A50D2
:1017A300012ADBEAC833F4C8C933F4C9FA2275F055
:1017B30008E4C833C8C933C933C99AC99B5004C99B
:1017C3002AC93BD5F0ECFBC833F4C8E4C9FA22605C
:1017D3000D08C6A2E713C618C613C6D5E0F32260E8
:1017E3000C08C6C313C618C613C6D5E0F42270048A
:1017F30022600D18C6C333C608C633C6D5E0F41835
:1018030022251810AF08F518400C15198008F51893
:1018130040021519D2AF2200C0D0251810AF08F529
:1018230018500C05198008F51850020519D2AFD0CD
:10183300D0222518F58210AF08F518400C15198031
:1018430008F51840021519D2AF851983222518F51A
:1018530082E43519F583222518F8E43519F9222590
:1018630018FAE43519FB222518FCE43519FD22E4A6
:10187300732518C582C0E0E51934FFC583C0E0E5D0
:1018830018C3958224F810AF0885831985821880C0
:1018930008858319858218D2AFCEF0A3E520F0A383
:1018A3007808E608F0A3DEFAEFF0A3E58124FAF85E
:1018B300E608F0A3E608F0A3E608F0A30808E608A4
:1018C300F0A3E608F0A315811581D0E0FED0E0F87F
:1018D300158115811581E8C0E0EEC0E0222518C509
:1018E30082C0E0E51934FFC583C0E0E518C39582E3
:1018F30024F910AF08858319858218800885831918
:10190300858218D2AFCEF0A3E520F0A37808E608CD
:10191300F0A3DEFAEFF0A3E58124FBF8E608F0A3D9
:10192300E608F0A30808E608F0A3E608F0A315818B
:101933001581D0E0FED0E0F815811581E8C0E0EE16
:10194300C0E022851983851882E0A3FEE0A3F52079
:101953007808E0A3F608DFFAE0A3FFE0A3C0E0E025
:10196300A3C0E0E0A3C0E0E0A3C0E0E0A3C0E010B8
:10197300AF088582188583198008858218858319A5
:10198300D2AFD083D082020132851983851882E0D9
:10199300A3FEE0A3F5207808E0A3F608DFFAE0A3AE
:1019A300FFE0A3C0E0E0A3C0E0E0A3C0E0E0A3C089
:1019B300E010AF0885821885831980088582188511
:1019C3008319D2AFD083D08222C0D02518C582C05C
:1019D300E0E51934FFC583C0E0E518C3958224F31D
:1019E30010AF08858319858218800885831985823D
:1019F30018D2AFC8F0A3E9F0A3EAF0A3EBF0A37900
:101A030008E709F0A3D8FAECF0A3EDF0A3EEF0A3F6
:101A1300EFF0A3D0E0F0A3D0E0F0A3D0E0F0A3E593
:101A230020F0A3E5F0F0A322851983851882E0C096
:101A3300E0A3E0F9A3E0FAA3E0FBA37808E0F6084B
:101A4300A3DFFAE0FCA3E0FDA3E0FEA3E0FFA3E035
:101A5300C0E0A3E0C0E0A3E0F5D0A3E0F520A3E05D
:101A6300A3F5F010AF088583198582188008858354
:101A730019858218D2AFD082D083D0E0F8D0E0327B
:101A830074048006740280027401C0E0F404121826
:101A930035D0E012170A227404800474028000CC4B
:101AA300C0E0EDC0E0E518C39CCCAD1950011D109A
:101AB300AF068C188D1980068C188D19D2AF1217AA
:101AC30017D0E0FDD0E0FC22D083D082E9C0E0E46F
:101AD30093A3C386F0C5F095F0F908E493A386F0C9
:101AE300C5F095F0700BE493A3C3994005E9048016
:101AF30002A3E475F002A42582F582E5F03583F5AF
:101B030083D0E0F9E493A3C0E0E493C0E022D08360
:101B1300D082ECC0E0EDC0E0E493A3FCE493A3FD2A
:101B2300ED4C600D121B5DEC24FFFCED34FFFD80DA
:101B3300EFE493A3FCE493A3FDED4C600D121B9C17
:101B4300EC24FFFCED34FFFD80EFD0E0FDD0E0FCA2
:101B5300E493A3C0E0E493C0E022C0E0C3E493961F
:101B6300087401939618400FE49366700808740193
:101B730093661870007019A3A3C3E49396087401C5
:101B8300939618A3A3400DD0E0D0E0D0E0021B4D04
:101B9300A3A3A3A3A3A3D0E022C0E0C0F088F0E4F2
:101BA300936670080874019366187000A8F0A3A3E5
:101BB300700BD0F0D0E0D0E0D0E0021B4DA3A3D057
:041BC300F0D0E0225C
:101BC80074F61218E0EAFEEBFF8C088D09EE243457
:101BD800F8E43FF9E8FCE9FDEE2435121F02FAEEBD
:101BE8002437121F02F88508F0A4C885F00A850971
:101BF800F0A4250AF9EA28F8E439F97A257B0012D5
:101C08001779EA8C828D83F0FA131313541FF8EEB8
:101C180028F8E43FF9E8245DF582E439F583E0C06B
:101C2800E074075AF8D0E0B800028004C313D8FC67
:101C3800A2E0EE50082434F582E43F8018243612DE
:101C48001F02F5F0EA84A8F0EE28F8E43FF9E8244A
:101C580038F582E439F583E0F97F0302198C74F7CB
:101C68001218E0EAFEEBFFEE2434121F02C0E0EE89
:101C78002435F582E43FF583D0E0F08E828F83A38C
:101C8800A3A3A3A3A3A3C082C0838E828F83A3A38D
:101C9800A3A3A3121D6BD083D082E0C398F508A339
:101CA800E099F509EE247F121F026401705DEE24AD
:101CB80080121D658E828F83A3A3A3A3A3A3A3125F
:101CC80020A58E828F83A3A3A3A3A3E0FAA3E0FB9E
:101CD800C3EA9CEB9D5010C3EC98ED99402DC3EAE4
:101CE80098EB995026800EC3EA98EB994007C3EC0D
:101CF80098ED9940167CB07D04EEFAEFFB120C6269
:101D0800EE247FF582E43FF583E4F0AC08AD09EEFC
:101D1800FAEFFB121BC8E9F912294A7F0202198C53
:101D2800C082C083851882851983121D6BC3EA9C03
:101D3800EB9D5010C3EC98ED99401BC3EA98EB99C2
:101D48005014800EC3EA98EB994007C3EC98ED99BC
:101D58004004790180027900D083D08222F582E4A0
:101D68003FF583E0F8A3E0F922EAC39CFAEB9DFB78
:101D78002274EF1218E0900376E064086005E064CE
:101D880007702A9061C8E060249003A4E0F4601D05
:101D9800E0F875F00AA4C8AAF02AF974A628FE7417
:101DA8000339FF8E828F83A3A3A3E07003021E87EB
:101DB800906060E0C0E0EE2468F582E43FF583D0EF
:101DC800E0F0750C20750D05750800750900E5D95A
:101DD80014F50AE5D95403F50E60127403650E6014
:101DE80043E50A600AEE2467121F027002807590AC
:101DF800051BE06401601F121EFF60047A04800264
:101E08007A00E50AC39AFA95E0FB120B0C8A088B54
:101E180009EA45097005120EA28064121EFF7004BB
:101E28008A0C8B0DE50A6012850C82850D83F50BF3
:101E3800E5D9F0A3150BE50B70F6121EFF6044748C
:101E4800FC250AF50A780C121A87AC0AA90EEEFAD4
:101E5800EFFB120D1C740212181AE97026AA08ABBF
:101E68000912132E793D8E828F83A3A3A3A3E0FAD0
:101E78007B0012096EEEFAEFFB120C86120D2E791A
:101E880000806F7403650E6051850A107511007823
:101E980010121A87AC0CAD0DAA08AB09120CE0742D
:101EA8000212181AEE2468121F0264807004747FEC
:101EB8008001E0F50C780C121A8BE50EF50C780C05
:101EC800121A8BA90AAC08AD099003A4E0FA7B00AA
:101ED800120944740212181A8013900376E06408F9
:101EE800600BAC0CAD0DEEFAEFFB120DA0120EAEAE
:101EF80079017F0A02198CEE2482F582E43FF5838A
:101F0800E02274F21218E074FC121804EAFEEBFFE7
:101F18008909A2AFE433F508C2AF021FC6E0601B0F
:101F2800780C121A87AC0BA90EEEFAEFFB120D16FD
:101F3800740212181A7404250BF50B7401250BF59D
:101F4800D9850ED9E50B6018F50A850C82850D83B5
:101F5800E0F5D9A385820C85830D150AE50A70EA98
:101F680075E195EE2463F8E43FF97A007B00A2AFAF
:101F7800E433F50BC2AF1220A1EC4D6032888289A0
:101F880083E0FAA3E0FB8A828B831220A5888289EA
:101F980083ECF0A3EDF08A828B83E4F0A3F01220A7
:101FA800A1EC4D700A88828983A3A3E4F0A3F0E52D
:101FB8000BA2E092AF12132E9004B7E004F0EE24C7
:101FC80063121D65E8496064EE2463121F0224024F
:101FD800F8A3E03400F988828983E5822402F50CAD
:101FE800E43583F50DE0F50BA3E0F50EEE2462125F
:101FF8001F02640170369061D0E0F8121EFF600481
:102008007C0480027C007480C398FA95E0FBE50BA1
:102018002CF8E43400F9E82402F8500109C3EA98DE
:10202800EB99A2D265D0334003021F259004B7E094
:10203800604D9004B8E0F89004B7E0C398500C7471
:10204800026509703A9004B9E060348E828F83A3E8
:10205800A3A3A3E08518828519831220977402121E
:102068001850E81220979004B6E028F0740212186D
:102078006AAA18AB1979011209989004B7E4F0E537
:1020880008A2E092AF740412181A7F0702198CF0A4
:10209800A3E4F09004B7E0F82288828983E0FCA3E7
:1020A800E0FD22008521878522C622C0E074EB125C
:1020B80019CCA2AFE433F508C2AF759B00906182DA
:1020C800E0A2E05030E591A2E0502A7591FE74013B
:1020D80065217021122246120DEE122234121A9A2C
:1020E8001226F4740412181AE964017005790112B1
:1020F8000E36121D79906182E0A2E5505DE591A24D
:10210800E550577591DF900376E064076005E06459
:1021180008702F12224674016521703E120DEE12CE
:102128002234121A9A1226F4740412181AE9640155
:1021380070057901120E367901EEFAEFFB121F0ACB
:102148008018E0640D7013900398E004F064287020
:1021580002E4F07A00E0F9120EB4906182E0A2E69F
:102168004003022209E591A2E64003022209759183
:10217800BF900376E064057008120DD6120DE28058
:1021880003120DDC752100120E42E9900377F079F5
:1021980000120E36120BD27A017B00900375E0F91B
:1021A8001212FE907803E06442705690051FE01406
:1021B800F0704EC2AF1221C000782AD0E0F618D0D5
:1021C800E0F6E59F5407F87005750DFF8003750D5F
:1021D8007FC4C0E07829E6F50A08E6550DF50B74CA
:1021E8000B780A1217E2D0E0250AF8906270E0A294
:1021F800E740F8E8C333906272F0906270E0D2E092
:10220800F0906181E0A2E35009E5E9A2E35003758B
:10221800E9F7A3E0A2E75009E591A2E75003759119
:102228007FE508A2E092AF7F08021A2B8E828F8387
:10223800E0F8A3E0C82416F582E438F58322900379
:10224800A4E0F875F00AA4C8AAF02AF974A628FE32
:10225800740339FF22C0E0C0D0C082C0839061837C
:10226800E0A2E05009E5BFA2E0500375BFFEE0A27E
:10227800E15009E5BFA2E1500375BFFDE0A2E250BD
:1022880009E5BFA2E2500375BFFBE0A2E35009E5F0
:10229800BFA2E3500375BFF7E0A2E45009E5BFA26F
:1022A800E4500375BFEFE0A2E55009E5BFA2E55091
:1022B8000375BFDFE0A2E65009E5BFA2E65003754B
:1022C800BFBFD083D082D0D0D0E032C0E074F21249
:1022D80019CCE5A7A2E6500FE5A1A2E6500953A73D
:1022E800BF75A1BF122327E5A7A2E5500CE5A1A25F
:1022F800E5500653A7DF75A1DFE5A7A2E15009E580
:10230800A1A2E1500375A1FDE5A7A2E2500CE5A149
:10231800A2E2500653A7FB75A1FB7F01021A2B749A
:10232800F71218E0752101900376E0640670151223
:102338000D528A828B83A3A3A3A3A3A3E0FAA3E0ED
:10234800FB120DC4A2AFE433FED2AF90037CE0646D
:102358000170187A207B00900375E0F91214187A3E
:10236800207B00900375E0F9121304906182E0D29B
:10237800E6F090051CE0602185C622801690037B5C
:10238800E064017008E5C654F84405F5C653BEFC80
:102398001220AC7401652160E4EEA2E092AF7F02E6
:1023A80002198C008E238F2485822885832785181F
:1023B80082851983E0CEA3E0CF852882852783EB29
:1023C800C9EAC8EDCBECCA75F010C3E833C8E933E5
:1023D800C9EA33CAEB33CBC3EA9EF526EB9FF52552
:1023E800B35004AB25AA26EC33CCED33CDD5F0DAC7
:1023F800AE23AF242274E91218E074FA121804EA22
:10240800FEEBFF8C0A8D0B120DFAEAF8EBF9ECFAE9
:10241800EDFB8E828F831216FE900376E024F7C3BD
:1024280094055006751401022564120D528A088B12
:1024380009EA45097003022561EEFCEFFDAA18AB15
:1024480019120DF4850882850983A3A3780C121646
:10245800C8908223780C1216A28518828519837871
:10246800101216C890822378101216A2780C7910D0
:102478001214DB501F780C791012167A90823F786C
:102488000C1214FB4047850C14850D15850E168516
:102498000F17804590823F851014851115851216F7
:1024A8008513177814790C12167A78141214FB50C5
:1024B8001C751400751500751600751701781479C8
:1024C8001012167A7814790C121641800C751401C2
:1024D8007515007516007517007409781412162200
:1024E80090828F780C1216C87814790C12159A8578
:1024F8000882850983A3A3A3A3A3A3122582121785
:1025080079880C890DE4F50EF50F7814790C1216FC
:10251800417404121850122582121779E8FA8A0CAD
:10252800E4F50D7814790C1214DB50077814790C43
:1025380012167A900376E06408600AE06406600583
:10254800E06405702090823B78141214FB501690BA
:1025580082377814121654800C751400751500759E
:102568001600751700850A82850B8378141216D712
:10257800740612181A7F1002198CE0F8A3E0F97A91
:10258800D07B032274F71218E0120E0C90051AE0A3
:1025980064017010906245E4F0A3F053F4F343FE35
:1025A8000C5390F3120DB2E5C654B84441F5C6E594
:1025B8009E5447644170F8906185740FF090051837
:1025C800E0F47002A3E0604E900519E06008146022
:1025D8001B14602E8040750801750900900518E0ED
:1025E80078081217F1E508F45280802A75080175F9
:1025F8000900900518E078081217F1E508F45290E0
:102608008014750801750900900518E078081217FC
:10261800F1E508F452A079007F0202198C74F712D0
:1026280018E0E9FEEAFF120E0C74016E700C7A8055
:102638007B00900375E0F91212FE9029D0E493F420
:102648006008E493F9120BC6800953C6B8E59E5496
:102658004770FA120DB890051AE064017003120B66
:10266800E4900518E0F47002A3E0604B900519E0CF
:10267800600814601A14602C803D75080175090003
:10268800900518E078081217F1E50842808028754F
:102698000801750900900518E078081217F1E50897
:1026A80042908013750801750900900518E07808B4
:1026B8001217F1E50842A0120D528A088B09A808E2
:1026C800A909E8496014E5E170FCE82414F582E4FE
:1026D80039F583E0F46003E0F5E174016F700A7A7C
:1026E80001900375E0F912138802262074F112187C
:1026F800E08A088B098C0A8D0B90822378081216C1
:10270800A2740F121850780C1216C8908223780CF5
:102718001216A27808790C1214DB90823F501078B8
:1027280008790C12167A78081214FB4014800E7877
:102738000C790812167A780C1214FB50047901806F
:102748000279007F0802198C74ED1218E08A088B50
:10275800098C0A8D0B90822378081216A274131222
:102768001850780C1216C8908223780C1216A2788A
:102778000C79081214DB40117808790C12167AAA21
:1027880008AB09AC0AAD0B802275100075110075F5
:1027980012007513017810790C12167A78107908DE
:1027A800121641AA10AB11AC12AD137F0C02198C92
:1027B80090822378081216C88A828B8378081216AA
:1027C800B57F0402198C74F51218E08C828D837819
:1027D800081216C88A828B83780812168E12282649
:1027E800C3E09CF0A3E09D122818402290825B78F9
:1027F800081216C88A828B8378081216678A828B19
:1028080083A3A3A3A3E02420F0A3E0344EF080A088
:10281800F088828983C3E09420A3E0944E22EA24BE
:1028280004F8E43BF98C828D83A3A3A3A3E0FCA363
:10283800E0FD888289832274F51218E0E9FE90048D
:10284800D2E0FAA3E0FBEE29F8E433F9740228F5A4
:1028580082748139F583E02AF508A3E03BF509780D
:1028680008121A8790829B1216E61223AC74021281
:10287800181A8A088B098C0A8D0B7410780812169E
:1028880009AA08AB097F0402198C74F11218E08AAE
:102898000C8B0D8C0E8D0F7411121850121A9E7419
:1028A80011121850E02401F508A3E03400F509E4FA
:1028B800F50AF50B780C790812151A908233780806
:1028C8001216C8780C790812151AAA0CAB0DAC0EA2
:1028D800AD0F1223AC740212181A8B09EA4509606D
:1028E800047A0180027A00EC2AFCE43DFD7413129C
:1028F8001850E0F8A3E0F9E8FEE9FFECF8EDF97A02
:10290800717B0212177988088909E4F50AF50B8E9C
:10291800828F8378081216D7ECF8EDF97A717B026A
:102928001217798A088B09740578081217F18E82B4
:102938008F83A3A3A3A3E508F0A3E509F07F08020A
:10294800198CC082C083E9906000F0D083D08222C5
:10295800C0E074F21219CCA2AFE433FED2AFE5891D
:10296800A2E150031211FC758900C2C5751A00EE68
:10297800A2E092AF7F01021A2BC0E074F21219CCC8
:10298800A2AFE433FED2AFE58BA2E050031211FCF4
:10299800758B00C2E880D5C0E0C0D0E8C0E0E9C0CF
:1029A800E0A9A8D2AFC2C7751A00E9A2E7E433F8D4
:1029B800E9A2E792AFD0E0F9D0E0F8D0D0D0E03289
:0629C800C2AF0200002274
:1029D000FFFFFFFFFFFFFFFFC082C083E99015CD1F
:1029E000F0D083D08202013274F6121874E990029A
:1029F000E8F0900348E0F5087509007402780812C1
:102A000017F1AA08AB091213709002E912339B90D8
:102A100002E9123788606F900348E075F003A4FA6A
:102A2000ABF012137090030612339B90030612371B
:102A300088700B9002E91237591213768048900380
:102A4000061246ED7AFF7BFF1211667A0080198A22
:102A500008750900740278081217F112419574FF85
:102A6000122B9BE4F0A3F00A900348E0F8EAC39825
:102A700040DD79051208309002E8E0F912071C7A6F
:102A8000BA7B08120AAC02423874F41218748A082D
:102A90008B09EB548060479002E8E0F91212E68A55
:102AA0000A8B0BAE0AAF0BEE4F602A8E828F83E04B
:102AB00064B0701A120842E960148E828F83A3A357
:102AC000A3A3E0F9EE2405FAE43FFB120812EEFAA4
:102AD000EFFB1212D4AA08E5096480FB80047A0097
:102AE0007B00022CEB74F212187474FB121804EAC7
:102AF000FEEBFFEE4F60457403121850EEF0A3EFAB
:102B0000F0851882851983ECF0A3EDF07402121899
:102B100050E9F0AA18AB19120716E9F50870757498
:102B200013121850E0F50AA3E0F50BE50A450B6017
:102B3000638E828F83123124EE4F700575080280F8
:102B4000537A067B001213708A0C8B0DA80CA90D0A
:102B5000E8497005750813803B88828983E4122B4D
:102B60009BEEF0A3EF122CB7E50AF0A3E50BF09073
:102B700002EC122CB09002EC6017E0FCA3E08003A2
:102B8000EAFCEBFD8C828D83122CB070F38C828D6D
:102B900083123DB0A908740502496DF0A31246CF17
:102BA000A32274F21218748908890C750D0074033D
:102BB000780C1217F1850C0A850D0B9002EBF09042
:102BC00002E9123BBB122CAE602E12137679008004
:102BD0001D890C750D007402780C1217F19002E932
:102BE0001240548882F583A3A3E4F0A3F009900374
:102BF00048E0F8E9C39840D9900348E0FA850AF024
:102C0000A4CAA8F0850BF0A428FB1213708A0C8BC1
:102C10000DAE0CAF0DEE4F7003022CA4900348E0F4
:102C2000FC850AF0A4CCA8F0850BF0A428FD79005F
:102C30001212BC7C0080318D0C750D007403780C71
:102C40001217F18A828B83122CA988828983E4F07F
:102C5000122CB6A3A3F0A3F00DEDC3950840D8EE57
:102C6000250AFEEF350BFF0C900348E0F8ECC39803
:102C700050288C0C750D007402780C1217F190021C
:102C8000E9122CA9E82402500109FAE9FB8A828B97
:102C900083EEF0A3EFF07D0080BFE5089002EBF03B
:102CA000790080027913024970124058F922A3A3D7
:102CB00012375DEA4B22A31246CFA3A3A32274F4DA
:102CC0001218747900EAA2E0501F7508E2750981B4
:102CD0007808121A8779107C047D007ACF7B151250
:102CE000082A740212181AE9F980007F04021946B2
:102CF000C082C0839002EC123788601C888289836E
:102D0000A3A3E06A7003A3E06B8882898370E8A3C1
:102D1000A3A3A312375980047A007B000229E1742F
:102D2000F212187474FD121804EAFEEBFF85188283
:102D3000851983E4F0A3F074021218507401F012A4
:102D4000378570141209E61213709002EF12339B4C
:102D50001237857003022EB112349BEE2404F50A5B
:102D6000E43FF50B850A82F583E024FE603C24FCF9
:102D7000607424FE607E24FE7003022E0124FE7027
:102D800003022E0E24FE7003022E1B24FE7003028B
:102D90002E2824FE7003022E3524FC7003022E56CA
:102DA00024FE7003022E6E022EAA1209E69002F192
:102DB000EAF0A3EB122EBD12045EE96003022EAA14
:102DC0009002F1121A9E8E828F83A3A3A3A3A31253
:102DD00046ED8508828509831237591207FA740275
:102DE00012181A022EAAAC18AD19EEFAEFFB12084F
:102DF00048022E79AC18AD19EEFAEFFB12084E809E
:102E000078AC18AD19EEFAEFFB120854806BAC18D1
:102E1000AD19EEFAEFFB12085A805EAC18AD19EE50
:102E2000FAEFFB1208608051AC18AD19EEFAEFFB17
:102E30001208668044740212185A880C890D780CA6
:102E4000121A87740212186AEEFAEFFB12086C74F9
:102E50000212181A8023AC18AD19EEFAEFFB120813
:102E600072E9F870167402121850E4F0803CAC1845
:102E7000AD19EEFAEFFB120878E9F8E8602C8E82C3
:102E80008F83A3E064146022850A82850B83E0901F
:102E900002F1F08518828519831237599002F212D7
:102EA000339BE8A3122EBD120458EEFAEFFB120773
:102EB000D07402121850E0F9740302496DF07CF1ED
:102EC0007D0285088285098312375D2274E8121815
:102ED0007474FA1218047404121850ECF0A3EDF094
:102EE0008A128B13EA2405F50EE43513F50FEA2454
:102EF00002F510E43513F511851082F58312375968
:102F000012054E8A0A8B0B7508007C037D00790040
:102F10007AF17B021212BCE50E2402F516E4350F9D
:102F2000F517740212185A880C890D780C121A873A
:102F3000850E82850F83A3A3A3A3E0F50C750D0076
:102F4000780C121A87E50E2405F50CE4350FF50D03
:102F5000780C121A87851682851783123A60120739
:102F600034740612181A8A0C8B0DE50C450D70038B
:102F70000230ED8020851882851983E0888289835C
:102F8000F00508851882851983A3E0C0E012312E70
:102F9000D0E0F00508E50A24FBFAE50B34FFFBC39B
:102FA000E5089AE49B40030230ED7E007F00851225
:102FB00082851383A3A3A3A3E0F5097809121A8BD2
:102FC000E4F514F5157814121A877514EE751502C8
:102FD0007814121A879002EF121A9E740912185070
:102FE000121A9EE50A24F9F9AC0CAD0D8510828504
:102FF00011831237591208A2740912181AE96003D2
:1030000002308E850E82850F83A3A3A3A3A3A3A35F
:10301000E0F89002EEE0687075E0F5148E15781413
:10302000121A871246EA850E82850F83A3A3A3A3F3
:10303000A3A3A3A31237591212B6740212181AE9E5
:10304000604C9002F2123788703BE4F51478141249
:103050001A877CFF7DFF79078510828511831237DF
:103060005912080C740212181A12378E7017850E36
:1030700082850F8312488774041218501241481237
:103080003A91023121850C82850D83123124A818D2
:10309000A919881489157814121A87740412185003
:1030A000121A9E8516828517831233911207407477
:1030B0000412181A8A0C8B0DEE4F7003022F6A123D
:1030C000312EEE123139123A47EF123139F8A3E0BE
:1030D0003400F9E50C450D6003022F758882898361
:1030E00074FFF0050812312E74FFF00508E5086042
:1030F0001A1313543F1233A112046AE960099002B3
:10310000F212375912132E79008016850E82850F20
:10311000831248877404121850124148123DB07946
:103120000A023A1AA3A3A3A3E0FEA3E0FF22A80881
:103130009002F2E028123A4722F00508089002F2C5
:10314000E0282274E812187474FA12180474021237
:10315000185012339B7404121850ECF0A3EDF07465
:1031600002121850E02405123A30E0F50CA3E0F505
:103170000D7402121850E02402F510A3E03400F59B
:1031800011851082F58312375912054E75080075A6
:103190000900EA24FCFEEB34FFFF8008050CE50C77
:1031A0007002050DA808C3EE98EF94005003023397
:1031B0004DA818A919880E890F780E121A87851440
:1031C00082851583A3A3A3A31246F1121A87E514DF
:1031D0002405F50EE43515F50F780E121A878514BF
:1031E0008285158312338F120734740612181A8AD7
:1031F0000E8B0FEA450F700302334DEA2404F516D7
:10320000E4350FF517851682F583E0F50CA3E0F59C
:103210000D8518828519831246ED8A828B83A3A3BC
:10322000A3E0F9851082851183123759120722E92C
:10323000F509600302334D7402121850123A57F523
:10324000097809121A8BE4F512F5137812121A870D
:103250007512EE7513027812121A879002EF121A85
:103260009E7407121850121A9EEEF9AC0EAD0F851F
:1032700010828511831237591208A2740912181A84
:10328000E9F509600302334DE508703FE4F50EF5FA
:103290000F780E121A877CFF7DFF790985108285D1
:1032A000118312375912080C740212181A123A7D3F
:1032B000700D740412185012338479110233819006
:1032C00002EEE024029002F2F080149002F2E0FAA2
:1032D0009002EEE0790024025001096A497072A858
:1032E000089002EEE0FAE82AFAE43400FBEE9AEFE6
:1032F0009B405A851682851783E0C0E09002F31246
:103300003133D0E0F00508851682851783A3E0C02D
:10331000E0089002F3123133D0E0F005089002EE9D
:103320001246F1121A871246EAA808123A2412121B
:10333000A4740212181A9002EEE02508F50874FF32
:10334000650C700474FF650D600302319CE5086034
:103350001F9002F2E0F5F0E508841233A112047028
:10336000E960099002F312375912132E7900801187
:10337000E509700375090A7404121850123384A900
:1033800009023A1A123BBFE50CF0A3E50DF022A3A7
:10339000A312497CAA0CAB0D22A3A3EAF0A3EBF085
:1033A000229002F1F07CF17D02851082851183125A
:1033B000375D2274EC12187474FC121804123EC0AB
:1033C000740212186A12375312073A8A0C8B0DEAEC
:1033D000450D700302348B12349BA818A91988106C
:1033E00089117810121A877CFF7DFF790B8508827E
:1033F00085098312375912080C740212181A1235F3
:1034000091700C850A82850B83123A8E0234988E55
:10341000828F83A3A3A3A3E0F5127812121A8BE480
:10342000F512F5137812121A877512F175130278D6
:1034300012121A877810121A877409121850121A69
:103440009E7409121850E0F9AC0CAD0D8508828508
:1034500009831237591208A2740912181AE9FE706A
:10346000157CF17D02850882850983123759120483
:1034700076E97009802074166E70027E009002F268
:1034800012375912132EEE7004800B7E01850A82CA
:10349000850B83123DADEEF9023DC2EE2402F50824
:1034A000E43FF5092274EC12187474FC121804EA53
:1034B000FEEBFF8C0E8D0FEE2405F508E43FF509B9
:1034C000740212186A850882850983123759120717
:1034D0003A8A0C8B0DEA450D7003023581EE240209
:1034E000F50AE43FF50BA818A9198810891178107E
:1034F000121A877CFF7DFF790D12375312080C7466
:103500000212181A123591700B85088285098312F0
:103510003A8E807A8E828F83A3A3A3A3E0F51278DC
:1035200012121A8B850882850983A3A3121A9E752D
:1035300012F17513027812121A877810121A877412
:1035400009121850121A9E7409121850E0F9123715
:103550004F1208A2740912181AE9FE700F7CF17D4F
:103560000212375312047CE97009802074166E70C1
:10357000027E009002F212375912132EEE70048070
:103580000B7E01850882850983123DADEEF9023D6F
:10359000C2123798F510A3E0F511EA45112274E83C
:1035A00012187474FE1218048A168B178C148D1559
:1035B000EA2405F50CE43517F50DEA2402F50EE4CE
:1035C0003517F50F850E82F58312375912054E8A8D
:1035D000088B09750B007C037D0079007AF17B0272
:1035E0001212BC750A00E50814F5100424FFF50852
:1035F000E50934FFF50980549002F1E0FA9002EEFB
:10360000E0F8EA28F8E43400F9E50898E50999506B
:103610000D9002F1E0F8E510C3989002EEF0E0F5AD
:10362000127513007812121A871246EA9002F2E01D
:103630002AFAA3E03400FB1212A4740212181A90A2
:1036400002EEE0F89002F1E028F0050A850C828590
:103650000D83A3A312406440030237349002F1E0CB
:10366000C39508E495094003023734AE0AEE2EFEF6
:10367000E433FF123773AC18AD19124705E439FB78
:1036800012073A8A128B13AC12AD13EC4D701B75F6
:103690000B01123763123DB19002F2122CB060039D
:1036A00012132EA90B7402023A1C85168285178309
:1036B000A3A3A3A3E0F50B780B121A8BE4F512F584
:1036C000137812121A877512EE7513027812121AF5
:1036D000879002EF121A9E7407121850121A9EA9B0
:1036E00010850E82850F831237591208A2740912B1
:1036F000181AE9F50B709B9002F2123788600302EA
:1037000035F8E4F512F5137812121A877CFF7DFF65
:10371000790F850E82850F8312375912080C7402B7
:1037200012181A12378E60030235F8123763123AF4
:10373000920236A57CF17D02850E82850F831237B9
:1037400059120482E9600302369879000236A5AC6A
:103750000CAD0D850A82850B8312375D22E0FAA33A
:10376000E0FB22123773E0FAA3E0F9EA85148285C0
:10377000158322850C82850D83E02EF8A3E03FF9A6
:1037800088828983229002EF12488BE849221237FF
:1037900098F8A3E0F9E849229002F2EAF0A3EBF0EE
:1037A0009002F2E02274E812187474FA1218047489
:1037B0000412185012339B8C168D17740412185073
:1037C000E02405F50EA3E03400F50F740412185040
:1037D000E02402123A3012375912054E8A0A8B0B36
:1037E0007F007E00A818A919880889097808121A8C
:1037F00087850E82850F83A3A3A3A3E0F5088E0916
:103800007808121A87E50E2405F508E4350FF50946
:103810007808121A87850E82850F83A3A3123A6057
:10382000120734740612181A8A0C8B0D8029123A6A
:1038300051F00F123A51F00F9002EE123D9C121A05
:10384000871246EAEFF8123A241212A474021218F0
:103850001A9002EEE02FFFE50C450D70030238E0F0
:10386000851882851983123ED2A3A3A3E0F985149B
:1038700082851583123759120722E9FEE50C2404CC
:10388000F510E4350DF511EE705074041218501255
:103890003A57F5087808121A8BE4F508F509780804
:1038A000121A877508EE7509027808121A879002B5
:1038B000EF121A9E7407121850121A9EE50A24FA83
:1038C000F9AC0CAD0D851482851583123759120899
:1038D000A2740912181AE9FE6039123A6D123DB04D
:1038E000EF7003023A079002F2E0F5F0EF849002E5
:1038F000F1F07CF17D02851482851583123759120F
:103900000488E960099002F312375912132E7900E6
:10391000023A1A8F08EF703BE4F512F51378121291
:103920001A877CFF7DFF79118514828515831237F4
:103930005912080C740212181A123A7D7009123AC0
:103940006D123A91023A1A9002EEE024049002F2CB
:10395000F080359002EEE0F89002F2E0FAE82404FC
:10396000FCE43400FDEC6A4D60030238E6E50A240D
:10397000FAFAE50B34FFFBE50828F8E43400F9EA2D
:1039800098EB9950030238E6851082851183E0C0D8
:10399000E09002F3E02FF8A3E034008882F583D0B2
:1039A000E0F00F851082851183A3E0C0E0123A3E5B
:1039B000D0E0F00F740212185A88088909780812AA
:1039C0001A877402121850121A9E850E82850F8370
:1039D00012338F120740740412181A8A0C8B0DEAE6
:1039E000450D700302382E7402121850E0C0E01228
:1039F0003A3ED0E0F00F7402121850A3E0C0E0127B
:103A00003A3ED0E0023836EE70027E0A850E82859C
:103A10000F83123A73123DB0EEF9740612181A7F32
:103A2000100219469002F3E028FAA3E03400FB22CA
:103A3000F514A3E03400F515851482F58322123ABB
:103A400042229002F3E02FFAA3E034008A82F58349
:103A500022123A4274FF22123BBFA3A3A3A3E02287
:103A600012497C850E82850F8312375D2285108274
:103A700085118312488B851682851783229002F365
:103A8000EAF0A3EBF09002F312488BE84922123DD2
:103A9000B6E8F0A3E9F079112274EA12187474FE02
:103AA0001218048A088B098C128D13EA2405FEE48F
:103AB0003509FFAC18AD198E828F83123759120762
:103AC0003A8A0C8B0DEE2406F50EE43FF50FEA451D
:103AD0000D7003023B91E5082402F50AE43509F56F
:103AE0000B8A828B83A3A3A3E0A2E55028851882CA
:103AF0008519831237591208968A108B11EA4511DD
:103B00006020791212374F85108285118312187246
:103B1000E9F50C707F850E82850F83E0600979528C
:103B20008011750C0E806D850882850983A3A3A37F
:103B3000A3E0F9E4F508F5097808121A878E828F58
:103B400083A3A3E0F5087808121A878E828F83A3D7
:103B5000A3A3121A9E8E828F831246ED1237531240
:103B600008A8740612181AE9F50C7011850E8285E2
:103B70000F83E0702D12375312048E802574166562
:103B80000C7011750C007418121850123BBBE480B5
:103B900010750C01124883851282851383E8F0A307
:103BA000E9F0850E82850F83E0600479008002A928
:103BB0000C740212181A7F0E021946123BBF22E043
:103BC000F8A3E0F58388822274EC12187474F7125B
:103BD00018048A0A8B0B8C108D11EA2405FEE4353B
:103BE0000BFF750C00AC18AD198E828F83123759FC
:103BF00012073A8A088B09EA45097003023D87E5F6
:103C00000A2402F50A5002050B8A828B83A3A3A320
:103C1000E0A2E5502F8518828519831237591208C2
:103C2000968A0C8B0DEA450D604F7912AC08AD09F0
:103C3000123753850C82850D83121872E9F50C60DA
:103C400003023D8A850A82850B83E0F508A3E0F52F
:103C500009AA08FB12088AEA4B70197AFF7BFF1247
:103C6000088AEA4B7003023D7D8A828B83E508F067
:103C7000A3E509F07508008008750C0E023D8A0561
:103C8000089002EBE0F8E508C3984003023D7D850B
:103C9000080E750F007403780E1217F18A828B8359
:103CA000A3A3E0250EF8A3E0350F12415170D08E8A
:103CB000828F83123DA512339B8E828F83A3A31222
:103CC0003DA5123399EE2404F508E43FF509850873
:103CD00082F583E088828983A3A3A3A3F0A3E4F001
:103CE000EE2405F50EE43FF50F850E82F583123DB7
:103CF000A5A3A3A3A3123399751207751300781215
:103D0000121A87EEFCEFFD74041218621212A474EA
:103D10000212181AE4F5127812121A8785088285A1
:103D20000983E0FC7D00791712375312080C7402E6
:103D300012181A740712185012339B740712185075
:103D4000E0FA4B603D850882850983123D9C121A7A
:103D500087850E82850F831246ED1212A47402121B
:103D6000181A740212186A123753120494E9602662
:103D7000740712185012375912132E8019750C0936
:103D80008008750C118003750C0112488385108220
:103D9000851183123DB0A90C74098028E0F50875DF
:103DA000090078082212375D8882898322123DB685
:103DB000E8F0A3E9F022E0F8A3E0F9850E82850F90
:103DC0008322740412181A7F0C02194674EC12181C
:103DD00074123EC0751000EE2402F50CE43FF50DA0
:103DE000850C82F58312375912088A8A088B09EAF2
:103DF00045097003023EA4850A82850B83E06401B5
:103E00006003023E99AC08AD09AA0AAB0B12087E0A
:103E1000E9606E850882850983123126EE2406F555
:103E20000AE43FF50B8E828F83A3A3121A9E8E8223
:103E30008F83A3A3A3A3121A9E850A82850B8312E4
:103E40001A9E79188E828F83123ED2123759120829
:103E5000A8740612181AE9F8741668700B850A829D
:103E6000850B83E4F0A38014E860128E828F8312A6
:103E70003759850E82850F83EAF0A3EBF088108016
:103E800018780E121A87AC08AD09EEFAEFFB12088B
:103E900084740212181AE9F510AA08AB09120890E6
:103EA000E510700E850C82850D8312375912049A25
:103EB0008009741665107003751000A910023DC7C3
:103EC000EAFEEBFF8C0E8D0FEE2405F50AE43FF5BC
:103ED0000B2212497C850C82850D832274EA12180C
:103EE000747508007509007E007F00750A00EC24D7
:103EF00002F510E43DF5118035EC65087003ED65C1
:103F0000096003023F9188828983A3A3E06A70035A
:103F1000A3E06B707C88828983A3A3A3A312488744
:103F2000EE28FEEF39FFEA28FAEB39FB050A1240CA
:103F300061503A850A0C750D007403780C1217F164
:103F4000851082851183124054124151601FE5088B
:103F5000450970A58C088D098882898312312488CF
:103F6000828983A3A3E02EFAA3E03F80BEE50AC3C3
:103F70009402500302404F750800750900EE4F602F
:103F800010EEFAEFFB1213288A0E8B0FEA450F7022
:103F9000057900024051750B00024024850B0C7519
:103FA0000D007403780C1217F1851082851183E0DF
:103FB000250CF50CA3E0350DF50DE50C2406F514E4
:103FC000E4350DF515851482F5831241566042E5FE
:103FD0000C2404F512E4350DF513851282F58312D5
:103FE0001A9EE50E2508FAE50F3509FB1212A47496
:103FF0000212181A851282851383E02508F508A39A
:10400000E03509F509851482851583123759121395
:104010002EE50B600D7C087D007900AA0CAB0D121B
:1040200012BC050BE50BC3950A5003023F9C85109B
:104030008285118312488788828983A3A3A3A3A3BF
:10404000A3E50EF0A3E50F122CB7EEF0A3EFF07985
:1040500001023BB612405822E0250CF8A3E0350DD2
:10406000229002EBE0F8E50AC3982274F01218746B
:104070008A0E8B0F8C0A8D0B750D00750C0080500D
:104080007916EE2406F508E43FF5098E828F83A3A6
:10409000A3121A9E8E828F83A3A3A3A3121A9E85B6
:1040A0000882850983121A9E850E82850F83A3A339
:1040B0001237591208A8740612181AE9F50D741669
:1040C000650D706C850882850983E4F0A3F0050C0A
:1040D0009002EBE0F8E50CC3985066AA0C8A0875CC
:1040E0000900740378081217F1850A82850B83A3EF
:1040F000A31241A0E8FEE9FF8E828F831241566031
:1041000040EA2401F508E43400F5099002EBE0658B
:10411000087002E509601488828983A3A3A3A3A37E
:10412000A3A3A3123788600302408079180240825B
:10413000E9609B1248837410121850124148123DD6
:10414000B0A90D7F08021946E0FAA3E0F5838A8240
:1041500022F98882898312497CEC4D2274F6121868
:10416000747C0080010C900348E0F8ECC398501E6A
:104170008C08750900740278081217F1124195E055
:104180006A7003A3E06B70DDE8FAE9FB80047A0053
:104190007B000242389002E91241A0888289832282
:1041A000E02508F8A3E03509F92274F21218748AA0
:1041B000088B09750A0080278E828F83A3A3A3A38F
:1041C000122CAE600312132E7C087D007900EEFAEB
:1041D000EFFB1212BC8E828F83E4F0A3F0050A126B
:1041E00040615027850A0C750D007403780C121776
:1041F000F1850882850983A3A3E0250CFEA3E035A1
:104200000DFF8E828F8312378870AD8508828509F5
:104210008374FFF0A3F002497074F6121874120848
:104220003C8A828B83E582458370067A007B00801E
:1042300007A3A3A3A31237597F0202194674F412ED
:10424000187489088C828D83E06402703C124826C1
:10425000FEA3E0F9EEF8740268700374296970290E
:10426000750A02750B00780A121A8774101218501A
:10427000121A9E7410121850121A9EA90812117860
:10428000740612181AE9F980027901022CEB74E81D
:1042900012187474FB121804E9851882851983F0CA
:1042A0008A168B17ECFEEDFF7510008E828F83A3AC
:1042B000A3A3E0A2E4502D741D1218501237591216
:1042C00008968A828B83E582458370030246C5790E
:1042D0000AEEFCEFFDAA16AB17121872E9F5106092
:1042E000030246C8741F121850E0F508A3E0F50950
:1042F0007421121850E0F50AA3E0F50B742312188C
:1043000050E0F50EA3E0F50F8E828F83E06402602B
:1043100003024666A3124887850882850983A38520
:104320008212858313EE2406F50CE43FF50D888296
:104330008983124705F514E439F5157814121B1119
:104340000100002801286843070002282D440328A3
:104350009B4300295C4501298745022928450329FB
:104360005C45042900466646E50E450F600302469B
:1043700061850C82850D83124887E8FAE9FB8A8201
:104380008B83E0850A82850B83124710121A878A75
:10439000828B83A3E0FCA3E00245EAE50E450F60B3
:1043A00003024661850A82850B837401F01246FA86
:1043B000850882850983F07C007D008E828F83A32F
:1043C000A3A3A3E02401FAA3E03400FB12073AEA16
:1043D0004B60408A828B83E02402F8850A82850B39
:1043E00083E028F0EA2404F8E43BF988828983E03A
:1043F00085128285138312471E124710121A878A6C
:10440000828B83A31246EDE5082403FAE43509FB09
:104410000245EF850A82850B83E02404F07C047D4D
:10442000007900AA12AB131212BC0246C8E50E4571
:104430000F60030246611246FAFEA3E0FF850A827E
:10444000850B837404F0EE850882850983F0EF857F
:104450001282851383F0740312186AEEFAEFFB12CE
:10446000073A8A0C8B0DEA450D700302450B8A82D0
:104470008B83A3A3123124740112185A880E890F5A
:10448000780E121A877405121850121A9E7CFF7D3E
:10449000FF120740740412181A8B0FEA450F70338D
:1044A000850C82850D831246F1121A87850C828550
:1044B0000D83A3121A9E7C027D007AB47B821205C2
:1044C0003C740412181AE9700A740112185074FF2F
:1044D000F0A3F08E828F83E064027039750C027550
:1044E0000D00780C121A878E828F83A31246EDE599
:1044F000082404FAE43509FB1212A4740212181AF3
:10450000850A82850B83E024028009740112185009
:10451000EEF0A3EFF074011218501246DF7401128E
:1045200018501246D602465BE50E450F6003024660
:1045300061850C82850D83124975AA16AB1712117D
:104540007E850A82850B837402F085088285098343
:10455000EAF0851282851383EB02465EE50E450F75
:1045600060030246611246FAF8A3E0F9850A8285E3
:104570000B837402F0E8850882850983F0E98512CF
:104580008285138302465E850C82850D831237591E
:1045900012129EEAFAF8C3950EE4950F405CE865A6
:1045A0000E450F70047A008021851882851983E0FA
:1045B000FCE50E2CFCE4350FFDC3EC98ED940050A7
:1045C00003E08005E50ECAC39AFAEA850A82850BE4
:1045D00083F08A0A750B00780A121A87850C828587
:1045E0000D83E0250EFCA3E0350FFDAA08AB0912F0
:1045F00012A4740212181A0246C87510070246C89F
:10460000E50E450F705B850C82850D83124887850A
:104610000A82850B837407F0888289831246D71239
:1046200046CFE0851282851383F0E82402FAE4394C
:10463000FB8A828B831246DF8A828B831246D6A343
:10464000A3122CB61246E4F0E82405F850010988BC
:104650008289831246E4A312471EA3A3A3A3F0807A
:104660006775100B8062741D1218501237591208AA
:104670003C8A828B83E5824583604A124887880C96
:10468000890DE8450D603E7425121850E0F510784C
:1046900010121A8B780E121A87780A121A87780865
:1046A000121A877407121850E0F9EEFCEFFDAA16F3
:1046B000AB17850C82850D83121872740712181AB5
:1046C000E9F510800375100EA9107405023A1CF06C
:1046D00088828983A322A3E0850882850983221228
:1046E0004725F022124725A3A3229002EF12497C0E
:1046F00022E0F50E750F00780E22850C82850D8361
:10470000123BBFE022E0FAA3E0F8E4C8F9EA28226D
:10471000F08A828B83E0F50A750B00780A22124634
:10472000CF12472522E0850882850983A3A322743E
:10473000EE12187474FE1218048A088B09ECFEED50
:10474000FF890AAC18AD19EEFAEFFB12073A8A0C92
:104750008B0DEA450D700302481785188285198371
:1047600012375912083C8A828B83E5824583700395
:10477000024812A3A3124887880E890FE8450F70DC
:10478000030248127414121850E0F510A3E0F5115A
:10479000E50AF50B780B121A8B7419121850121ABD
:1047A0009E7810121A87741B121850E0F9AC0CADE9
:1047B0000DAA08AB09850E82850F83121872740545
:1047C00012181AE9F50B705274FE650A604C850CDC
:1047D00082850D83E064027041124826FAA3E0F955
:1047E000EAF87402687003742969702E8510828556
:1047F0001183124705F50CE439F50D780C121A8770
:10480000EEFCEFFDAA08AB091208C0740212181AD8
:104810008008750B0E8003750B01A90B740212182A
:104820001A7F0A021946A312488B88828983E022E4
:1048300074F612187474FE121804740C12185012C4
:104840004887E8851882851983F07401121850E9A9
:10485000F0E4F508F5097808121A87750802780857
:10486000121A87740412185A880889097808121ACB
:104870008779FE1208A8740612181A740212181A00
:104880000242388E828F8312488B22E0F8A3E0F92F
:104890002274F7121874EAFEEBFF890890030612DF
:1048A00046ED12117EEA5402600BA908EEFAEFFB06
:1048B00012072E800279017F0102194674F2121844
:1048C0007474FE121804EAFEEBFF890A7401650A8B
:1048D00060147402650A600302496B7901120ACA06
:1048E000E9600302496BEEFAEFFB12088AEA4B60BB
:1048F00003120890A818A919880889097808121ABB
:10490000877508027509007808121A877508AC7552
:1049100009827808121A877CFF7DFF7A017B0012DA
:104920000734740612181A8038850882850983A313
:10493000A3A3A3A3A3124975EEFAEFFB121166E439
:10494000F50CF50D780C121A877402121850121A11
:104950009E7CFF7DFFAA08AB091207407404121861
:104960001A8A088B09E508450970BE740212181AE4
:104970007F06021946123BBF12497C22E0FCA3E0ED
:10498000FD2274F41218748A088B09ECFEEDFF9076
:1049900015CDE0F4604B7A097B001212CEEA4B6031
:1049A000408A828B8374B1F0A3E41249E4F08A82D6
:1049B0008B83A3A3E508F0A3E5091249E4A3EEF075
:1049C000A3EFF0740C1218501248878A828B83A3CD
:1049D000A3A3A3A3A3A3123DB09015CDE0F9121297
:1049E000DA022CEBF08A828B83A3A3A3A32274F0B8
:1049F00012187474FA1218048909ECFEEDFF750898
:104A0000008A0A8B0B780A121ACB000410144C315E
:104A10004A4F4A694A814A9F4AB74ADA4AF24A06E5
:104A20004B304BAB4BBC4BD34BEE4B144C144C4666
:104A30004B740165096003024C0F8E828F83E0F88E
:104A4000C394034003024C0FE89016B9024BEB7479
:104A50000265096003024C0F8E828F83124C5090C6
:104A600016BAE8F0A3E9024BEB7401650960030292
:104A70004C0F124C414003024C0FE890072C024BA4
:104A8000EB740165096003024C0F8E828F83E0F89E
:104A9000C394054003024C0FE890072D024BEB74C2
:104AA0000165096003024C0F124C414003024C0F98
:104AB000E890072E024BEB741065096003024C0F5F
:104AC000750A10750B00780A121A877A2F7B071265
:104AD00012A4740212181A024C357401650960039D
:104AE000024C0F124C414003024C0FE890073F026A
:104AF0004BEB740165096003024C0F8E828F83E0DB
:104B00009016BD024BEB740465096003024C0F8ED6
:104B1000828F83780C1216C890829B780C1214FB3B
:104B20005003024C0F900741780C1216D7024C35F7
:104B3000E96003024C0F1206D4E9700512112A80B5
:104B4000559007D48061740765096003024C0F75A6
:104B50000A06750B00780A121A878E828F83A3AC1F
:104B600082AD8374021218621212AA740212181A09
:104B70007C007D00AA18AB198E828F83E0F9121099
:104B8000D6E9FEC3940A4003024C321206D4E970FF
:104B90000CEEF912113079501213EE806D74D52E8F
:104BA000F582E43407F5837401804074016509706F
:104BB0005E124C415059E8900740802F74016509FE
:104BC000704D8E828F83E0F8C3940A5042E89016AD
:104BD000BC80187401650970368E828F83E0F8748A
:104BE000F928C3940A5028E89016BEF08047740153
:104BF0006509701B9007D3E0F88E828F83E09007E1
:104C0000D3F0E87030E06401702B12111E8026751D
:104C100008188021C3EA9427EB94005015740265AC
:104C200009700F8E828F83125716120554E9F5080A
:104C30008003750802A908740612181A7F08021961
:104C4000468E828F83E0F8C3940222A908024FEEB9
:104C5000E0F8A3E0F92274F012187474B112180489
:104C60008C0C8D0D9081F4742012186A7406121742
:104C700017742012186A1210D6E9F508745F12181A
:104C800050E0F50AE9C3940A4003024DD475F006DA
:104C9000E9A4F509744112186A7A0E74202509F9FD
:104CA0001213E8E97009744D121850E0FF80027F7A
:104CB000009016B9E064027005750E018003750E50
:104CC000007408650A70047422800274212509F5B5
:104CD0000F7C1B7D00790074261218621212BCEF43
:104CE000A2E0E433FE742612186A7A1BA90F12138D
:104CF000E8E970257440121850E024F9C3940A5072
:104D000018780E121A8B742712186AEEF9AA0CABD7
:104D10000D1205F6740112181A7C147D00790074C6
:104D20000C1218621212BC740C12186A7A107424D5
:104D30002509F91213E8E970307C1079FF740C1220
:104D40001862121322E97021741C121850AC82AD43
:104D5000837A0474252509F91213E8740C12186A71
:104D6000EEF9AA0CAB0D1205DEAC18AD197A0C7475
:104D7000702508F91213E8E97049AA18AB19121145
:104D8000067E00EE75F003A4F8A9F0851882851957
:104D900083E58228F8E58312552F125710601D888D
:104DA000828983A3A3E0F5087509007808121A87A1
:104DB000AA0CAB0D1208AE740212181A0EEEC394B0
:104DC0000440C0EFA2E1500C90072BE0F9AA0CAB15
:104DD0000D1208B47404650A70289016B9E06402D4
:104DE00070207A0090073FE060027A0190072CE083
:104DF0006004780480027800E84AF9AA0CAB0D122E
:104E000006AA7900744F024C3974F712187412060E
:104E1000D4E9704F9007D4E06401701512112A9004
:104E200007D4E4F07C0AFDF97AD57B071212BC8026
:104E30002A750800A80874D528FEE43407FF8E827E
:104E40008F83E06401700BA9081211308E828F836A
:104E5000E4F00508E508C3940A40D979501213EE2E
:104E600012111E02584E74F012187474F0121804C5
:104E7000EAFEEBFF8C088D09750A0AE9600C1460E4
:104E80000914603B14607D024F5C121118E9F50AA9
:104E9000C3940A4003024F5CE50845097003024FC2
:104EA0005C750C06750D00780C121A87EEFCEFFD90
:104EB000AA08AB091212A4740212181A024F5C75E8
:104EC0000C00750E06750F00780E121A87EEFCEFB7
:104ED000FDE50C75F00EA4F8A9F0744D28FA7407DE
:104EE00039FB1212B6740212181AE9700B050CE5A0
:104EF0000CC3940A506680CA850C0AE50AC3940A5A
:104F0000505A8049750C00AC18AD197A1075F0062E
:104F1000E50CA42423F91213E8E9701C7C1079FF36
:104F2000AA18AB19121322E9700EEEFCEFFDAA18B5
:104F3000AB191205BAE9600B050CE50CC3940A50D5
:104F40001B80C4850C0AE50AC3940A500FE5084586
:104F5000096009AA08AB09A90A121112A90A74105A
:104F6000024C3974F4121874890975081574FF6AB3
:104F7000700374FF6B70277E00AC097A027B00EE31
:104F8000F91210F4E960037508000EEEC3940A40AC
:104F9000E8E50960537A427B11120AEE804A120A50
:104FA000BE8A0A8B0BAE0AAF0BEE4F60387C007DD9
:104FB00000EE2405FAE43FFB8E828F83A3A3A3A314
:104FC000E0F91210D6E9F9C3940A500CAC097A0240
:104FD0007B001210F4750800E509600CEEFAEFFB97
:104FE0001211428003750814024C4B12181A7F04E8
:104FF00002194674F2121874ECFEEDFF7508157470
:105000000E121850E0F50AA3E0F50B74FF6A700366
:1050100074FF6B7021750900AC0AAD0BEEFAEFFB63
:10502000A9091210FAE960037508000509E509C32A
:10503000940A503F80E2120ABE8A828B83E5824541
:1050400083602D7C007D00E5822405FAE43583FB36
:10505000A3A3A3A3E0F91210D6E9F9C3940A50134D
:10506000AC0AAD0BEEFAEFFB1210FA7508008003E4
:10507000750814A9080254F7C082C083900745EA56
:10508000F0A3EBF090072BE0FC7D007A267B00126A
:10509000055490072BE0F9120818025B7074EF12A8
:1050A000187474EC121804EAFEEBFFEE240CF50CF5
:1050B000E43FF50DEE2405F50EE43FF50FEE24096F
:1050C000F50AE43FF50BEE2403F508E43FF5098EFD
:1050D000828F83A3A3E024FA700302537324FD702C
:1050E0000302529514700302517314601024FD7072
:1050F000030252691470030252CC025379125E8B80
:105100006049E0F5838882124C50880E890FE8458B
:105110000F6038850C82850D83E0F50C780C121A2F
:105120008BEE240BF582E43FF583E0F9850A828556
:105130000B831257160A0A0AAB09850E82850F8364
:10514000121872740112181A025379850A82850B9B
:1051500083121A9E9007411216E61205F07402128D
:10516000181AE970030253797901850A82850B8345
:105170000253437510008E828F83A385820A858334
:105180000BE06003025236850E82850F83E0A2E0B9
:1051900040030252369007DF125E8E6003025236E1
:1051A0007C0E7D007900AA18AB191212BC850C8206
:1051B000850D83125B3BEA4B6010750C06750D0084
:1051C000780C121A87EA2410801B125B35120ABE73
:1051D000EA4B7003025379750C06750D00780C12BA
:1051E0001A87EA2405FCE43BFD74021218621212CD
:1051F000A4740212181A850E82850F83E0A2E25071
:1052000004D2F08002C2F0A2F0E433F8740C121859
:1052100050E048F0EEFCEFFDAA18AB1912110CE9B2
:1052200070117A027B0090072BE0F91212FE7900D0
:1052300002537B751015125E8B7003025379125A5C
:10524000FF7003025379850A82850B83E0FC7901A4
:10525000125385121872E5107003025379FC79031A
:10526000125B35125AE502536E125E8B70030253C5
:1052700079125B12124C50890BE8450B70030253F4
:10528000798E828F83A3E0FC7902125B3588828558
:105290000B8302536E7C007D00EE2404FAE43FFB96
:1052A000850882850983E0F91210D6E9F8C3940ACB
:1052B0004003025379EE240AFCE43FFD7A0475F0C2
:1052C00006E8A42425F91213E2025379125B359003
:1052D0000740E060079016BCE0F9806A9016B9E0DC
:1052E000700479058060120ABE8A0C8B0DA80CA987
:1052F0000DE8497003025379E82404F50CE439F50C
:105300000D8E828F83A3A3A3A3A3A3A3E0A2E05047
:105310003A850C82850D83E0FE6030850A82850B1C
:1053200083A3E054027024740E12186AE82405FA6C
:10533000E439FBEEF91210D6E97010790385088282
:10534000850983125B3B1205EA802EAC0EAD0F85FA
:105350000C82850D83E0F9125B3512114E125E8BC3
:105360006017125AFF60127C0079001253851218E0
:10537000728006125B351210D07901741412181A5B
:105380007F09021946850882850983E0FAA3E0FBBC
:105390008E828F832274F512187474F2121804EA44
:1053A000FE8C0A75F006E9A42420F508AC18AD19A6
:1053B0007A0EF91213E8E970467C0679FFAA18AB59
:1053C00019121322E97038740C121850125B3BEA60
:1053D000F8E50A6005EEC8488004EEF4C858F8EA1B
:1053E000687001EB6015740C121850E8F0A3E4F03B
:1053F000AC18AD197A0EA9081213E279018002796E
:1054000000740E12181A7F0302194674F2121874EF
:1054100074E6121804890A8A088B09ECFEEDFF7401
:105420000C12186A7A0E75F006E9A42420F91213FA
:10543000E8E960030254F07C0679FF740C121862EC
:10544000121322E960030254F07470250AF50BACC4
:1054500018AD197A0CF91213E8E960030254ECAAAA
:1054600018AB19121106E5084509701D7C0C79006E
:10547000AA18AB19121322E970727C0C7D00790016
:10548000AA18AB191212BC8051AC18AD19AA08ABFE
:10549000091211008A0C8B0DA80CA90DE849702285
:1054A000EE4F604CAC18AD197A007B00121100EA87
:1054B000F8EBF9EA4B603988828983E508F0A3E5C7
:1054C00009F012556BFAEE6A7001EF601FEEF04FB3
:1054D000700888828983E4F0A3F0AA18AB1912112E
:1054E00006AC18AD197A0CA90B1213E279018002EF
:1054F0007900741A12181A7F0602194674F71218E6
:10550000747E00EE75F003A4F8A9F0EC28F8ED1213
:10551000552FE06A7003A3E06B7006E8FAE9FB80A0
:105520000B0EEEC3940440DB7A007B0002584E3928
:10553000F9888289832274F71218747C00EC75F064
:1055400003A4F8A9F0EA28F8EB12552FE0F4FEA323
:10555000E0F4FF88828983EEF0A3EFF012556BF43C
:10556000F00CECC3940440D502584EE82402F582B6
:10557000E439F583E02274F412187474F4121804F8
:10558000EAFEEBFF8C088D099007DF125E8E704FEC
:10559000EE4F70030256EFEC450970030256EF120E
:1055A0001118E99016BFF0C3940A4033750B007CC4
:1055B0000679FFE50B75F00EA4FAABF074472AFAF2
:1055C00074073BFB121322E96003025650050BE5FA
:1055D0000BC3940A40D9750A0AE50A9016BFF090E9
:1055E00016BFE0C3940A40030256EF75F006E0A42C
:1055F000FB9007DF125E8E705CEEFCEFFD7A0E749E
:10560000202BF91213E27C0C7D0079FFAA18AB194C
:105610001212BCAC18AD197A0C9016BFE02470F9C8
:105620001213E2750A0E750B00780A121A87EEFC47
:10563000EFFD9016BFE01257AE1212A474021218BA
:105640001A9007DFE508F0A3E509F079000256F1AA
:10565000850B0A8084E0C8240612570A60197A1B59
:1056600074212BF91213E21256F62406F582E4385F
:10567000F583E4F0A380D31256F6240A12570A6089
:10568000107A1B74222BF91213E21256F6240A80A8
:10569000DB1256F6240C12570A60107A1074232B72
:1056A000F91213E21256F6240C80C11256FF12575B
:1056B0000A60307A1074242BF91213E21256FFF5A7
:1056C00082E438F583E02410FCA3E03400FD7A0482
:1056D00075F0069016BFE0A42425F91213E21256C5
:1056E000FF80899007D3E0600312115412114879AA
:1056F00001740C024FEB9007DFE0F8A3E0C82290A2
:1057000007DFE0F8A3E0C8240822F582E438F58337
:10571000125716EC4D22E0FCA3E0FD2274F412189F
:105720007474F2121804EAFEEBFFE9C3940A500401
:10573000EE4F700479028034AC18AD197A0E75F012
:1057400006E9A42420F91213E8E9F508701C750A8B
:1057500006750B00780A121A87740212186AEEFA9C
:10576000EFFB1212A4740212181AA908740E024F49
:10577000EB74F4121874EAFEEBFF750800750A0664
:10578000750B00780A121A87EEFCEFFDE508125738
:10579000AE1212B6740212181AE96004A908800B3E
:1057A0000508E508C3940A40D4790A024FEE75F063
:1057B0000EA4F8A9F0744728FA740739FB2274F78D
:1057C000121874750800E50875F00EA4F8A9F074B5
:1057D0004728FE740739FFEEFCEFFD7A0E75F006E0
:1057E000E508A42420F91213E8E960297C067D006D
:1057F00079FFEEFAEFFB1212BC7C067D0079FFEE1A
:105800002CFAE43FFB1212BCEE240CF582E43FF5C7
:1058100083E4F0A3F00508E508C3940A40A89007C4
:10582000D3E06003121154121148802274F7121849
:10583000747E007F007C06EF1257AE74FFF91213DE
:1058400022E970010E0FEFC3940A40E9EEF97F01DF
:1058500002194674F71218747E00EEF9121130E93D
:10586000F90EEEC3940A5003E960EF80E174F3127D
:10587000187474CB12180489089016BFE06508707C
:105880001B7A017B0090072BE0F91213047A027B4C
:105890000090072BE0F912130412116075F006E571
:1058A00008A4FF74202FFE742712186A7A0EEEF9EE
:1058B0001213E8E960030259757C0679FF74271218
:1058C0001862121322E960030259757C0E7D00797B
:1058D000FF74271218621212BC7C1B7D0079FF74C2
:1058E0000C1218621212BC7C0C7D0079FFAA18AB56
:1058F000191212BC742712186A7A0EEEF91213E20A
:10590000E9FE740C12186A7A1B74212FF91213E243
:10591000E9F509740C12186A7A1B74222FF9121314
:10592000E2E9F50A740C12186A7A1074232FF9123E
:1059300013E2E9F50B740C12186A7A1074242FF92B
:105940001213E2E9F50C740C12186A7A0474252F0C
:10595000F91213E2E9FFAC18AD197A0C747025083E
:10596000F91213E2E9F8E509450A450B450C4F48E1
:10597000CE4EFE80027E00EEF9743512181A7F05B5
:1059800002194674F7121874E990072BF012111ED1
:1059900002584E74F4121874EAFEEBFF5480700340
:1059A000025A5690072BE0F91212E68A088B09EA90
:1059B00045097003025A4F7A01E5082404F8E435DA
:1059C00009F9880A890B8508828B83E0245060409E
:1059D00014600624E16067806C88828983E07068C7
:1059E0008508828B83A3A3A3A3A3A3A3121A9E85D6
:1059F00008828B83A3A3A3A3A31257168508828BC7
:105A000083A3A3125B3B1210E2740212181A8038AF
:105A100088828983E0641E700F79008508828B83F9
:105A2000A3A3125B3B1210DC850A82850B83E0F98D
:105A3000E5082405FAE43509FB120812800AAA08D1
:105A40001210EEE9FAEA6007AA08AB091212D4EEC6
:105A5000FAEF6480802AEE54026028EE6402FE7C35
:105A6000007D007A007B0012110CE960047A01804D
:105A7000027A027B0090072BE0F91212FEEEFAEF99
:105A8000FB805FEEA2E0504C6401F508EFF50912CF
:105A90005AF312115AE9602A125E8B6020125AFFE3
:105AA000601B7C007901125AF38E828F8312187268
:105AB0007C007903125AF3125AE51218721211601F
:105AC000800C7A017B0090072BE0F91212FEAA08E5
:105AD000AB09800E54046006EE6404FA80047A0078
:105AE0007B00024FEE900745E0F8A3125B0AF583B6
:105AF0008882229007DF125E7BE0FAA3E0FB22128D
:105B00005B0AF9E8FEE9FFEE4F22125B12E0F8A310
:105B1000E022E0F5838882A3A3227F02021946C017
:105B200082C08390072BE0F98A828B83A3125B3BB0
:105B30001208B4803B850882850983E0FAA3E0FB64
:105B400022C082C08374FF121804121124E9C39486
:105B500002851882851983400474028002740AF059
:105B6000AC18AD197A0179051206F2740112181AEF
:105B7000D083D08202013274F212187474E81218C1
:105B800004EAFEEBFF890A8C088D097C187D0079F8
:105B900000AA18AB191212BC851882851983EEF081
:105BA000A3EFF090072DE0C0E07402121850D0E08F
:105BB000F090072EE0C0E07403121850D0E0F0908F
:105BC00016BEE0C0E07417121850D0E0F074151241
:105BD0001850E054FEFAA3E0FB9016BDE0A2E0E40A
:105BE00033F8EA48F8EBF97415121850125D1BA24D
:105BF000E15004D2F08002C2F0E854FDFAA2F0E4D1
:105C00003325E0F8EA48F87415121850125D1BA20B
:105C1000E45004D2F08002C2F0E8FAE954FEFBA29C
:105C2000F0E433F9EB49F97415121850125D1BA218
:105C3000E55004D2F08002C2F0E954FDFBA2F0E48A
:105C400033F50C750D007409780C1217F1EAF8EBB6
:105C5000450DF97415121850125D1BA2E65004D2BE
:105C6000F08002C2F0E954FBFBA2F0E433F50C75BE
:105C70000D00740A780C1217F1EAF8EB450DF9746F
:105C800015121850125D1BA2E25004D2F08002C21D
:105C9000F0E854FBFAA2F0E433F50C750D00740241
:105CA000780C1217F1EA450CF87415121850E8F048
:105CB000A3E9F090072EE0601D750C10780C121A05
:105CC000877C2F7D077406121850AA82AB831212AC
:105CD000A4740212181A90073FE06011E50A6009E7
:105CE0007415121850E04402F078018002780074B4
:105CF00014121850E048F090072CE06004780480FB
:105D00000278007414121850E048F0AC08AD09AAEB
:105D100018AB191205E474180254F4E8F0A3E9F082
:105D20009016BDE02274F712187412090875080065
:105D3000E50875F00EA4F8A9F0744728FE74073939
:105D4000FF7C0679FFEEFAEFFB121322E97009EEF1
:105D5000FAEFFB790012090E0508E508C3940A4022
:105D6000CF02584E74F612187474FD121804EAFE2D
:105D7000EBFF9007E1125E8E70397508E375090735
:105D80007808121A877508027509007808121A87B0
:105D90007508AC7509827808121A877CFF7DFF7A36
:105DA000017B00120734740612181A9007E1EAF01A
:105DB000A3EBF09007E1125E8E7003025E6D750832
:105DC000FF7808121A8BE4F508F5097808121A878B
:105DD000740512185A880889097808121A877405F8
:105DE00012185A880889097808121A879007E3124E
:105DF0001A9E79029007E1125E831208A2740912BA
:105E0000181AE97036851882851983E0FA74011230
:105E10001850E0F8E4C8F9EA28F508E439F509EA89
:105E2000450960177808121A879007E1125E7BA374
:105E3000125E831210E2740212181AE4F508F509D2
:105E40007808121A879007E3121A9E7CFF7DFF9054
:105E500007E1125B3B120740740412181A9007E125
:105E6000EAF0A3EBF09007E1125E8E7004790180F6
:105E7000027900740312181A025B1AE0F8A3125B8D
:105E800012A322125716EEFAEFFB22900745E0F814
:105E9000A3E0F9E84922C082C0839007DF125E8E3A
:105EA00060109007DF125B3B1212D49007DFE4F022
:105EB000A3F09016BF740AF0025B70C082C083909A
:105EC00061907404F0A37448F0A37402F0906180B0
:105ED0007440F09061BC7403F09061877419F09085
:105EE0006265741BF0906249E0C3941390619C401A
:105EF000107409F09060667401F090619F742880BE
:105F00000D740BF0906066E4F090619F742CF012B9
:105F100060A67009C29190037A7467800590037A35
:105F20007461F01260F79029D0E493F46006E49372
:105F3000F9120BC67905120E96026105C082C08364
:105F4000E9540FF9906185E0696012E5C654B844E0
:105F500041F5C6E59E5447644170F8E9F053C6B870
:105F6000E59E544770FA026105C082C083A8A85319
:105F7000A87E906181E4126D8BC2BA539AFEC289E9
:105F8000759B00C2C275E90075910075BF0075A9C7
:105F90001175B905906181F0A374C0F0A3E4F0D24B
:105FA000BA439A0174805842A8026105F0A3F00236
:105FB0006105C082C08374F81218049003781272CD
:105FC0008B700302609E900378E05440601779085C
:105FD000AA18AB19120CC2AA18AB1912092C9003FB
:105FE00078E054BFF0E054806010790C7A407B0573
:105FF000120CC2900378E0547FF0E0A2E0501E1231
:1060000060A67009C29190037A7467800590037A44
:106010007461F0120932900378E054FEF0E054020B
:10602000601E1260EA7009D29190037A7471800543
:1060300090037A746AF0120932900378E054FDF00C
:10604000E0540460109029D41260FA1209389003C9
:1060500078E054FBF0E0540860109029D51260FA03
:10606000120938900378E054F7F0E05410600D12F4
:1060700060F7120938900378E054EFF0E0542060A4
:106080000A120938900378E054DFF0A3E05401606D
:106090000D120BE412093E900379E054FEF07408EF
:1060A00012181A02610590619A1262F790051AE0BF
:1060B000640122C082C083E9600514601780291240
:1060C00060A67009C29190037A7467801A90037A6F
:1060D000746180131260EA7009D29190037A74712E
:1060E000800590037A746AF0801B90619A1262E9CD
:1060F00090051AE06401229029D6E493906186F01D
:1061000022A2E092AFD083D08202013274EA121848
:106110007474F412180490822FAC18AD1974041220
:1061200017179029D493F4600302627E907808E0F8
:10613000C3940250030262629081DA740412186AF6
:106140007408121717A818A919881489157404124D
:10615000185A88088909AE08AF097510FF7511FF34
:10616000750EFF7C00750C48750D78801274086CF4
:1061700070030261F874096C607E740A6C60798542
:106180000C82850D8378081216C88E828F83A90928
:10619000E50AC9F8881274187808121609E512453C
:1061A00008F8C3E098A3E099850C82850D837808F0
:1061B0001216C840188E828F837418780812160938
:1061C000E5124508F8E0C398F8A3E0801A7418783F
:1061D00008121609E5124508FAE9FB8E828F831230
:1061E0006F52EAC398F8EB99F9C3E89510E9951155
:1061F0005006881089118C0E0CE50C2404F50C5007
:1062000002050DECC39413500302616D74FF651019
:10621000700474FF65116024850E087402780812FA
:1062200017F174482508F58274783509F5837808E4
:106230001216C8851482851583E508F0EE2402FE47
:1062400050010F851482851583A3858214858315DB
:10625000740C121850E5826E7003E5836F600302C0
:10626000615A7508017509007808121A87740212BC
:10627000186A7A757B0A1211D2740212181A740CF9
:1062800012181A7F0E021946C082C0839061AE7444
:1062900068F0A3746AF090624574FBF0A304F053B5
:1062A000F4FD43FE0290051A7401F09061A0E064D1
:1062B0003A90619A70191262F7740164017009C210
:1062C0009190037A7467801E90037A74618017122C
:1062D00062E9740164017009D29190037A7471804B
:1062E0000590037A746A025FAE743FF0A3745AF0AB
:1062F0009061A0747FF0227433F0A37455F0906124
:10630000A0743AF0227F04021946C082C083900430
:10631000CCE06401700A9004D1E06004790C800242
:106320007900026105C082C08375E1F19004CFE07D
:10633000605114600914605514604D147054120BB0
:10634000F69004BEE0F97ABF7B04120E18908263C7
:106350001216E6120E4E90821F1216E6120E2490AE
:1063600004D0E0F9120E307901120E8A126444242E
:106370001AF582E438F583740EF0A3740CF07900FA
:10638000026105120BFC80B9120C0280B4120C08D9
:1063900080AF791280EA74F412187475D90D9004E4
:1063A000C5E0A2E0E4331313F812657C484401F51C
:1063B000D97582BF7583041265867004E583640411
:1063C00070F57582C67583041266C5E58264CC706B
:1063D00004E583640470F175E1959004C5E0F97AF1
:1063E000C67B04120E1E9015F1749CF0A3740B1260
:1063F00064BB1265051264FC12663F9004CFE06432
:10640000019004BC700B12644D1216C890826F800C
:106410000912644D1216C8908273780812165490AF
:10642000822378081216A21264441264F3780812C8
:1064300016D71264441264EA7413F090037674025F
:10644000F00263059004BCE0F8A3E0C8221271FAE0
:1064500078082274F712187412656CF5D97582BF2A
:106460007583041265867004E583640470F59004F6
:10647000D5E0600A78D67904FA126560DAFB126614
:106480000D1265867004E583640470F59004F5E0F0
:10649000600A78F67904FA126560DAFB75E1959086
:1064A00015F174A8F0A3740B1264BB1264C57412C6
:1064B000F09003767401F0FF02194612662874A268
:1064C000F0A3740B221265051264FC12664390045B
:1064D000BCE0F8A3E0C81264F374FF126D79900475
:1064E000BCE0F8A3E0C81264EA222414F582E43880
:1064F000F58322240EF582E438F58322F0A374BAE2
:10650000F0A3740B221265092212650D22F0A37408
:1065100022F0A3740D2274F712187412656C4402F1
:10652000F5D97582BF7583041265867004E58364AE
:106530000470F59004D5E0600A78D67904FA126503
:1065400060DAFB75E1959015F112658EF0A3126586
:106550008E1264C87414F09003767404F00268C15B
:10656000888289831266C9A882A983229004D512E1
:10657000657322E02407F5D912657C229004BEE001
:10658000C4333354C0221266C9E58264C52274B490
:1065900012659B12659BF0A3740B22F0A3740BF0A1
:1065A000A374B42274F712187412656C4406F5D9FA
:1065B0007582BF7583041265867004E58364047078
:1065C000F59004D5E0600A78D67904FA126560DAAD
:1065D000FB12660D1265867004E583640470F59005
:1065E00004F5E0600A78F67904FA126560DAFB7562
:1065F000E1959015F174AEF0A3740B12661E12644F
:10660000C57415F09003767403F00268C19004F528
:106610001265734404F5D97582BF7583042212662E
:10662000287422F0A3740D2212662C22126639748B
:1066300022F0A3740D1266392212650DF0A3221206
:10664000664322F09015FF7422F0A3740D12662C9D
:106650007422F0A3740D126509F022C082C0831267
:1066600064442406F582E438F583E4025FAC74F7F1
:106670001218749003A4126F4474A628F874033996
:10668000F9E82405FAE439FB8A828B8312700788C3
:10669000828983A3A3A3A3A3A3A3A3A3ECF0A3ED45
:1066A0001266BEA3A3A3A3A3A3E024FFF8A3E03430
:1066B000FFF98A828B83E8F0A3E9F00268C1F088D1
:1066C000828983A3221266C922E0F5D9A3229061B0
:1066D000D0E0F87480C398FC1266E122F01266E103
:1066E00022EA2482F582E43BF583E0221266F72455
:1066F00004F8E43583F922F582E43FF583E582224C
:106700001266C9E865822274F7121874EAFEEBFF7C
:106710009061D0E0707875D90E75D90375D904EE03
:10672000248B1267931267007003E9658370F6EE9D
:1067300024831266EC1267007003E9658370F675B6
:10674000E1957908EE248BFAE43FFB120CB679044C
:10675000EE2483FAE43FFB120CB67C00EE24AAF888
:10676000E43FF9ECFAC3E49AFA95E0FBEE2AFAEF7B
:106770003BFBEA248A12721488828983F00CA3A856
:1067800082A983ECC3940840DA1268A280027900DF
:106790000268C11266F72408F8E43583F922C08242
:1067A000C08375D90275D90375D90575E195EA24B9
:1067B0006FF582E43B126F50EA2471F582E43B12DC
:1067C00068AF02610574F6121874EAFEEBFF9005DB
:1067D000207406126824121A877C017903120D16A0
:1067E000740212181A75D90675D90375822075833B
:1067F0000512681C7004E583640570F575E19590D9
:106800000376E064087010EE246FF582E43F126FA7
:1068100050EE247112708879010269EC1266C9E5A4
:1068200082642522F075082075090578082274F61F
:10683000121874EAFEEBFF9061D0E0703678019098
:106840000520740BF0900376E0640770197508203A
:106850007509057808121A877C017903120D1674E0
:106860000212181A7805126AF41266C5DAFB126869
:106870009F800279000269EC74F7121874EAFEEB4B
:10688000FF75D90375D90375D90DEE24DD1271EEAC
:10689000F5D975E1957904120E541268A28022751B
:1068A000E195EE246F127291EE2471F582E43FF5CA
:1068B00083E8F0A3E9F0790122F0EEA2E092AF794B
:1068C000007F0102194674F61218741269F9600407
:1068D000780480027800E8240BF8EAC39840477CEB
:1068E00009900520EC12694012694FDDFB1271EB33
:1068F000601B7508207509057808121A877903EE60
:10690000FAEFFB120D16740212181A7C0D12692B85
:106910001269F170FB75E1957904120E54126C82C4
:10692000A3F07901800279000269EC1269318C08C8
:106930002274012CF5D975D903758220758305223F
:10694000F0EE24E2F8E43FF97A217B057D0822127B
:1069500069532288828983E08A828B831266BEA86B
:1069600082A9838A828B83A3AA82AB832274F612C4
:1069700018741269F96004780480027800E8240829
:10698000F8EAC39840647806900520740CF09003F0
:1069900093E0900521F0900394E0900522F090039D
:1069A00095E0900523F0900396E0900524F0900385
:1069B00097E0900525126A88601B75082075090507
:1069C0007808121A877C067903EEFA120D16740203
:1069D00012181A780A126A821269F170FB75E19531
:1069E0007904120E541268A2800279007F02021903
:1069F000461266C91508E50822EAFEEBFF9061D051
:106A0000E0F87480C398FA126A8D2274F612187432
:106A10001269F96004780480027800E82404F8EA36
:106A2000C39840597802900520E8F0EE24F41271E2
:106A3000EE900521126A88601B750820750905789B
:106A400008121A877C027903EEFA120D16740212EC
:106A5000181A7806126A821269F170FB75E195EED8
:106A60002473126C85EE247F126C85126C82A3F065
:106A70007904120E54EE240D1268A58002790002EA
:106A800069EC126AFA880822F0126A8D22EE2482DA
:106A9000F582E43FF583E02274F61218741266CE94
:106AA0006004780480027800E82404F8ECC398407D
:106AB0003E78029005207407F0EA24F512721490D3
:106AC00005211266DC601975082075090578081221
:106AD0001A877C027903120D16740212181A7806AE
:106AE000126AF41266C5DAFB75E1957901800279C4
:106AF000000269EC126AFAE8FA22740128F5D975E5
:106B0000D9037582207583052274F7121874E9FF82
:106B1000A2AFE433FEC2AF7C0080010C126BA05028
:106B200011ECF8EA28F8E43BF9126B96E06F70EB91
:106B30008016EA246EF8E43BF9E0FCEA2CFAE43B28
:106B4000FB126BC3EF126C8EEEA2E092AF0268C133
:106B5000C082C083A2AFE433FDC2AF12721114F041
:106B60007C00801BECF8EA28F8E43BF9E8246BF59C
:106B700082E439F583E0C0E0126B96D0E0F00C12AD
:106B80006BA040E0EA246DF582E43BF58374FF12CC
:106B90006BCDED026101E8246AF582E439F58322C8
:106BA000127211F8ECC39822C082C083A8A8C2AFA9
:106BB000126BC3E9126BCDE8A2E7E433FAE8A2E76F
:106BC000026103EA246AF582E43BF58322F0EA24B9
:106BD00069F582E43BF583E4F02274F3121874EA59
:106BE000FEEBFFECFAEDFB8A828B83A3A3A3A3E069
:106BF000541FF0EE2436126C85750A00EE245DFCFD
:106C0000E43FFD8A828B83E08C828D83F0750B00DC
:106C1000E50A33333354F8F50C8A828B83E0F508A8
:106C2000750900E50B78081217D2E508A2E0502795
:106C3000EE2436F8E43FF988828983E0F508EE25F2
:106C400008F508E43FF509E5082438F582E435093C
:106C5000F583E50C126C8E050B050CE50BC394084F
:106C600040B7050A8A828B83A3AA82AB838C828D6C
:106C700083A3AC82AD83E50AC3940540867F0502F9
:106C80001946EE241DF582E43FF583E4F022126CF0
:106C90009404F022F088828983E02274F712187439
:106CA0009003A2E064017003026D719003A8E0609C
:106CB00003026D717401F0A3E4F0A3F090040804E2
:106CC000F090040DF09003AB126D789003B504F0D2
:106CD0009003DBE4F09003BE126D7FA3F0900425D7
:106CE000F0900419F090040E7480F0A3E4F0900486
:106CF00014F0900490126D96900499F0900428F08E
:106D0000900478126D96A3F0A3F0900484F09004A0
:106D100086F0900482F090049C126D969004AFF07F
:106D20009004A9126D7F74FF9004107804F0A3D82A
:106D3000FC7A037B0478B07904126D9164B570031A
:106D4000E9640470F47A887B04788A7903126D917F
:106D500064927003E9640370F49003A2E004F064A9
:106D60000170089003AAE09003A4F07AA67B038048
:106D7000047A007B000268C1E4126D8BA3F022123A
:106D80006D8322126D8BA3126D8B22F0A3F0A3F002
:106D900022126953E822126D83A3F0A3F022C0826D
:106DA000C0838A828B83A3A3A3E0600F8A828B8334
:106DB000A3A3A3E4F09003A3E014F09003A2E014D3
:106DC000F070069003A474FFF08A828B83A3A3E47F
:106DD000F09004B5E0700D9003A3E06401700579B4
:106DE00000120E36026105C082C0839003A9E4F050
:106DF0009003A8F09003A2F0A3F0A374FFF075E154
:106E0000F1026105C082C083780079009003A9E097
:106E1000600478A6790388828983A3A3A3A3E0F9F9
:106E200002610574EE1218748A0A890C9003A3E0BB
:106E3000F8E9C398502278FF79FF9003A9E0601326
:106E4000900419E06401700590041F80039003D43E
:106E5000126F52E8FEE98011E96009A3126F441233
:106E60006F358005EA2AFEEB33FF8E0E8F0F740319
:106E7000780E1217E29003A3E0F8C3E50E98E50F31
:106E800094005003026F21E50A25E0F50AEB33F583
:106E90000BEC2CF508ED33F509AC0AAD0B8007ECD3
:106EA0002402FCE43DFDC3E5089CE5099D4060C368
:106EB000EC9EED9F403FECF8EDF9EEFAEFFB121778
:106EC000798B0FEA450F60068E0E8F0F8006750EC8
:106ED00000750F00ECF8EDF9EEFAEFFB1217798A66
:106EE000108B11EC9510F8ED9511F9E8250EFCE9E1
:106EF000350FFD801AE0F8E50CC3985012EEF8EF5C
:106F0000F9ECFAEDFB1217798B0FEA450F7090C37D
:106F1000EC950AED950B4009C3E5089CE5099D50E9
:106F2000067AFF7BFF8009ECFAEDC313FBEA13FA44
:106F30007F0A02194674D428F582740339F583E078
:106F4000FEA3E022E0F875F00AA4C8AAF02AF9220C
:106F5000F5831272972274F612187474FC121804D6
:106F6000EAFEEBFF803CEE2463F8E43FF97A007B15
:106F700000A2AFE433F508127001EC4D600F1272FD
:106F800050700A88828983A3A3E4F0A3F0E508A2E5
:106F9000E092AF12132E9004B6E004F09004B7E034
:106FA00004F0EE2463F582E43FF58312728B70B631
:106FB0009004B7E060358E828F83A3A3A3A3E085FE
:106FC0001882851983F0A3E4F09004B7E0F8740206
:106FD000121850E8F0A3E4F0740212186AAA18AB71
:106FE0001979011209989004B7E4F0EEFAEFFB1258
:106FF0000C6EEEFAEFFB120D4C740412181A0269B3
:10700000ECC2AF88828983E0FCA3E0FD2274F71212
:107010001874EAFEEBFF8E828F83A3A3A3A3E0FA8A
:107020007B0012096EEEFAEFFB120C86120D2E0297
:1070300068C1C082C083E490038A7808F0A3D8FCBA
:1070400090038A04025FAE74F6121874EAFEEBFF36
:10705000EC2403F8E43DF988088909EC2407F8E4F6
:107060003DF9E8FCE9FD127094121779EE240D1237
:1070700070881270941217798B09EA45096006EE40
:10708000240D1270A70269ECF582E43FF583E8F065
:10709000A3E9F0228C828D8312729785088285097C
:1070A00083E0FAA3E0FB22F582E43FF583E02401CC
:1070B000F0A3E03400F02274F6121874EAFEEBFF3D
:1070C000EE242EF582E43FF583127007780079FAFA
:1070D000ECFAEDFB121779EE246F127088780079C4
:1070E000FAECFAEDFB1217798B09EA45096006EE16
:1070F000246F1270A70269EC74F4121874EAFEEBA4
:10710000FF120DEE8A088B098C0A8D0B908277781E
:107110000812165490822378081216A27808121AC0
:10712000838E828F831271F61216E61226F474048F
:1071300012181AE960030271E68E828F83E024023E
:10714000F8A3E03400F9E8FAE9FB740C121850785F
:10715000081216C88A828B837808121667908223D9
:1071600078081216C88A828B8378081216B5EE2426
:107170000BF582E43FF583C082C0838E828F83A3A8
:10718000A3A3A3A3E02401F8A3E03400F9D083D0A3
:1071900082E0687003A3E06970047901804A8E82FE
:1071A0008F83A3A3A3A3A3A3A31270ADEE24731292
:1071B00071EE64017013EE24741272007003A3E088
:1071C000697006EE24741270A7EE247F1271EE64CB
:1071D000017013EE24801272007003A3E069700640
:1071E000EE24801270A77900026305EE2482F582F6
:1071F000E43FF583E0221271FA22127235A3A32232
:107200001272918E828F83A3A3A3A3A3A3A3E0688A
:1072100022EA246EF582E43BF583E02274F712182B
:10722000741272808A828B836005A3A31272351256
:10723000723E0268B9E0F8A3E0F5838882221272F8
:1072400076A3A3ECF0A3EDF08C828D83E4F0A3226F
:1072500088828983E0FAA3E0FB8A828B83E0FCA327
:10726000E0FD88828983127276E4F0A3126C94FCAC
:10727000A3E0FDEC4D22ECF0A3EDF08A828B83229B
:10728000A2AFE433FEC2AF8A828B83127297E849C1
:1072900022F582E43FF583E0F8A3E0F92274F712C7
:1072A0001874E96006F81272B2D8FBECFAEDFB0232
:1072B00068C18C828D83E08A828B831272C88A8235
:1072C0008B83A3AA82AB8322F08C828D83A3AC82B2
:1072D000AD832274F71218748C828D831275428CE0
:1072E000828D83A3E08A828B83A3F08C828D8312AC
:1072F00078D11279950279D074F212187474FE1252
:107300001804EAFEEBFF89098C0A8D0BA818A9194D
:10731000880C890D780C121A877416121850127D79
:107320001B7415121850E0F9120A64740212181A2C
:10733000E9F50860030273BE7412121850E0C0E051
:10734000851882851983E0F8A3E0F5838882D0E070
:10735000F0900347E004F070077401F07C018001B5
:10736000FC851882851983E02403F8A3E03400F932
:10737000E8FAE9FBEC8A828B83F074101218501241
:107380001A9E780A121A878A828B83E0FCA909EE7A
:10739000FAEFFB120A16740412181AE9F5087012B3
:1073A0007C1E7D00851882851983127D28120A763D
:1073B000800C851882851983127D28120A6AA90813
:1073C00074020277E974F212187474FA121804EA5B
:1073D000FEEBFF890B8C0A7A177B00120AA08A0841
:1073E0008B09EA4509700302748A74161218501248
:1073F00076F660217414121850127D1BEA2404FAE8
:10740000E43509FB888289831218728A0C8B0DA8D7
:107410000CA90D800478007900850882850983E530
:107420000BF0A3E50AF0E8850882850983A3A3F0A1
:10743000E9850882850983A3A3A3F08518828519AD
:10744000837405F0A3E4F07402121850E508F0A369
:10745000E509F0E82404F8500109740412185012E8
:107460007493900346E0AC18AD196009EEFAEFFB97
:10747000120A2E8007EEFAEFFB120A1CE9FEEE60FC
:107480000BAA08AB0912132E80027E13EEF97406C4
:107490000277E9E8F0A3E9F02274F51218748C82FF
:1074A0008D83127A16E875F009A4F8AEF075F0092C
:1074B000E9A42EF974FB28F8740239F9E82403FED4
:1074C000E439FF8E828F83127A0670338C828D832B
:1074D000A3A3127A0E8E828F83E508F0A3E509122A
:1074E00077E0127D1A88828983A3A3A3A3A3ECF07B
:1074F000A3ED127BA8A3EAF0A3EBF0790080027958
:10750000167F03021946C082C0837A057B00120AE7
:1075100028E9701E7A067B00120A28E970147A04A2
:107520007B00120A28E9700A7A077B00120A28E910
:1075300060047901800279008000D083D08202014A
:1075400032A312793F2274F612187474FA121804D6
:10755000EAF8EBF9E875F009A4F8ACF075F009E980
:10756000A42CF974FB28F8740239F988088909E811
:107570002403FEE43509FF8E828F831276F660586D
:10758000900346E0604E851882851983EAF0A3EBEC
:10759000F07402121850127493850882850983A32F
:1075A000A3A3A3A3127A167404121850127493ACF6
:1075B00018AD19850882850983127D21120A2EE9EA
:1075C000600A8E828F83127D2812132E8E828F8303
:1075D000E4F0A3F0790180027900740612181A020F
:1075E00079F874F01218748A0A8B0BECFEEDFFEE3A
:1075F0002404F508E43FF509850882F5831276F640
:10760000600B9015EFC3E098A3E0995005791B0239
:1076100076E27C047D008E828F83127D26121334E5
:107620008A0E8B0F850882850983127542A3858295
:107630000C85830D850882850983A31276FE127658
:10764000FEA312770D850882850983E02404FEA33A
:10765000E03400FF74FE650A700474FF650B70412E
:107660007A097B001212CEEA4B60328A828B8374D5
:1076700090F0A3A3A3A374021276EE74FEF0A30409
:107680001276E7EEF0A3EF1276E7A3A3E50EF0A3E0
:10769000E50FF090031EE0F91212DA8037791380BB
:1076A00041780E121A87EEFCEFFD7900AA0AAB0BA7
:1076B0001208CC740212181AE9F9601024FE60183E
:1076C00024FB601C24F5601424F37016900346E03C
:1076D000600214F07900800A791480067902800231
:1076E00079047F080219461276EEA3A3A322F08A3A
:1076F000828B83A3A322E0F8A3E0F9E84922127762
:107700000DA385820C85830D8E828F8322E0850CEC
:1077100082850D83F02274F21218748A088B09EAAC
:107720002402FEE43509FF8E828F83E4F0A31277F2
:10773000E0A3E0640260030277DC8C828D83A3A364
:10774000A3A3A3E0F50CA3E0F50DC3E50C9404E5B9
:107750000D940050030277DC8C828D83127D218A88
:10776000828B83E0FCA3E0F8E4C8F9EC28E439FD5F
:107770008A828B83A3A3E0F50A8A828B83A3A3A3C7
:10778000E0F9A80AEC2404F50AE43DF50BE50C65E4
:107790000A7004E50D650B70437405687001E960BB
:1077A000167404687001E9600E7406687001E9607F
:1077B00006740768497025850882850983A3A3A3F9
:1077C000A3ECF0A3ED127BB47CFC7DFF1213348E8E
:1077D000828F83EAF0A3EBF0790080027901800CBC
:1077E000F08C828D83A3A3A32212181A7F0602199C
:1077F0004674F4121874750802750900127915A3FD
:10780000A983EC2402FEE43DFF8C828D83E0F50A1F
:10781000A3E0F50B7401650A450B700B1278411259
:10782000754175080480117402650A450B700912D0
:107830007841127931750806AA08AB097F0402194C
:10784000468E828F8312793F0AE9FB8E828F8322D4
:1078500074F6121874740A121850C3E09402A3E06C
:10786000940040631279B7EA2402F8E43BF98A8273
:107870008B83E0FEA3E0FF74016E4F70138C828D4A
:10788000831278CCE0FBEE88828983F0A3EB803210
:1078900074026E4F702D8C828D83A3A3E0F5088C4B
:1078A000828D83A3A3A3E0FFE50888828983F0A3E8
:1078B000EFF08C828D83A3A31278CCA31279A6F06B
:1078C000A3E9F07900800279010279F81278D1A356
:1078D00022A3A3E0FE8C828D83A3A32274F7121847
:1078E00074127915EC2402127901127931A30AABD2
:1078F00083EC24061279011275417A087B00027923
:10790000D112790522F8E43DF98882898312792918
:1079100088828983228C828D831279FD8C828D836B
:1079200012792422A312792922127943A30AAB8364
:1079300022127924EC2404127905A312793F221231
:10794000794322E08A828B83F02274F712187474D0
:1079500009121850E064087002A3E070341279B77D
:10796000EC2402FC50010D8C828D83E0FE1279958F
:10797000F0EC2402FC50010D12799C127494EC245A
:1079800002FC50010D12799CA3A31274947900801B
:10799000027901803C1279ACF0A3E9228C828D83BC
:1079A000E0FE1279A6221279ACA3A322A3E0F9EE9D
:1079B0008A828B83A3A3221279BB228C828D83E0DF
:1079C000FEA3E0F9EE8A828B83F0A3E9F02274FF34
:1079D000F07F0102194674F71218747409121850D6
:1079E000E064027002A3E070051279F2800279016E
:1079F00080DF1279BB7900227F0202194612794397
:107A0000A3AA82AB8322127A0EE508450922E0F58B
:107A100008A3E0F50922E0F8A3E0F92274F01218B7
:107A200074890A8A0C8B0DECFEEDFF7A0A7B00123A
:107A300012CE8A088B09EA4509604E8A828B8374CC
:107A4000A0F0A3E41276EEE50CF0A3E50DF0EA2435
:107A500004FAE43509FBEE4F6019750C06750D004C
:107A6000780C121A87EEFCEFFD1212A474021218A1
:107A70001A80097C067D0079001212BCAA08AB09A5
:107A8000A90A1212DA7900800279010276E274F012
:107A900012187489088A0C8B0D8C098D0A7A1C7B4C
:107AA000001212CE8A0E8B0FAE0EAF0FEE4F606D2E
:107AB0008E828F8374A2F0A3E509F08E828F83A358
:107AC000A3E50CF0A3E50DF07410121850E08E82BF
:107AD0008F83A3A3A3A3F08E828F83A3A3A3A3A3C7
:107AE000E50AF0EE2406FAE43FFB74111218501276
:107AF0007D1BEC4D6015750C16750D00780C121A77
:107B0000871212A4740212181A80097C167D00795B
:107B1000001212BCEEFAEFFBA9081212DA0276E2AA
:107B200074F1121874EAFEEBFF890A740F121850F0
:107B3000127A067901606C120ACAE9606490034502
:107B4000E0F50E750B008002050BE50BC3950E509A
:107B50004CA80B7900127C12A3AC82AD83E0F50C2B
:107B6000A3E0F50DE50C450D70DE8A828B83E4F011
:107B7000E824405001098C828D83127494EAF8EB5A
:107B8000F9E849601888828983A3A3A3A3EEF0A330
:107B9000EF127BA8E50A127BB47900800679158084
:107BA0000279147F07021946F088828983A3A3A370
:107BB000A3A3A322F0850882850983E8F0A3E9F056
:107BC0002274F7121874EAFEEBFF7C0A7D0079003C
:107BD0001212BC8E828F83A3A3A3A3A3A3A30279B3
:107BE000CEC082C0837800800108900345E0FAE8A7
:107BF000C39A5017127C12127D1AEC4D60EB8A82E8
:107C00008B83A3A3A3E06970E080047A007B000269
:107C1000753AE875F00AA4FAABF0900343E02AFA4B
:107C2000A3E03BFB8A828B832274F4121874EA244B
:107C300007F508E43BF5097808121A87EC75F0E8B7
:107C4000A4CCA8F075F003A428F875F0E8EDA428FA
:107C5000FD8C088D09E4F50AF50B7808121A83EA01
:107C6000FCEBFD7A827B0A12134C740612181A027E
:107C7000783C74F7121874EA2407FEE43BFF8E8206
:107C80008F83E0F91213528E828F830279CE74F7BC
:107C9000121874EAFEEBFFEE4F60168E828F83A3FC
:107CA0001276F6600C7917120A88EEFAEFFB120AC8
:107CB0006A0279D174F2121874EAFEEBFF890A8E17
:107CC000828F83E06404704FEE2404F8E43FF98867
:107CD000088909E4F50CF50D780C121A87750B006C
:107CE000780B121A8B7D13AC0A8508828983127D6A
:107CF000288E828F83A3A3A3A3A3A3E0F9120A5E15
:107D0000740312181A7912850882850983127D1B63
:107D10007A057B00120A9A0277ECA3E0FCA3E0FD4F
:107D200022A3A3A3A3A3A3A3E0FAA3E0FB22C08200
:107D3000C0837C077D00120A9402753A74F512180C
:107D4000748A088B09750A00EC4D707C8051E50A35
:107D500075F00AA4F8A9F0900343E028FEA3E039E7
:107D6000FF8E828F83E06035A3A3A3A3A3A3A3E028
:107D7000F4602A8E828F83A3A3A3A3E06508700416
:107D8000A3E065097017EEFAEFFB120A7C7914EE96
:107D9000FAEFFB120A88EEFAEFFB120A6A050A9064
:107DA0000345E0F8E50AC39840A47E047F0079FF0C
:107DB000AC08AD09EEFAEFFB120A9A0EEE70010F55
:107DC000C39408EF940040E602750174F71218742A
:107DD0008908EA75F009A4FAA8F075F009EBA4285F
:107DE000FB74FB2AF874023BF988828983A3A3A35E
:107DF000A3A3A3A3E06C7003A3E06D7034E8240395
:107E0000500109FEE9FF8E828F83127A16888289DB
:107E100083E5824583601A74FF65086005E06508A4
:107E2000700FAA82AB8312132E8E828F83E4F0A38D
:107E3000F00279D174F6121874EA2404FA50010B96
:107E40001208C6EA4B60097CFC7DFF1213348004E3
:107E50007A007B000279F874F41218748A088B098E
:107E6000A2AFE433FEC2AFEA2404FAE43509FB1200
:107E70001370EA4B60288A828B83A3A3E508F0A3E2
:107E8000E509F0127FD88A828B83E8F0A3E9F090AD
:107E9000081CEAF0A3EBF0EA2404FA50010BEEA26E
:107EA000E092AF7F0402194674F6121874EAF8EBF8
:107EB000F9A2AFE433FEC2AF7C007D0090081CE065
:107EC000FAA3E0FB88088909800DEAFCEBFD8A82B1
:107ED0008B83E0FAA3E0FBEA4B604CEA2404F8E46D
:107EE0003BF9C3E50898E5099940DF8A828B83A3B3
:107EF000A3127FDBEA28F582EB39F583A3A3A3A3C2
:107F0000C3E5829508E583950940BF8A828B831279
:107F10007FDBEC4D700590081C80048C828D83E81B
:107F2000F0A3E9F0121376EEA2E092AF7F020219FD
:107F30004674F4121874EAFEEBFF8C088D091213D4
:107F40003A8A0A8B0BA80AA90BE8496043C3E49557
:107F500008FAE49509FBEE2AFAEF3BFB8A088B0945
:107F6000E82404FCE439FDC3EA9CEB9D40228882AE
:107F70008983A3A3E0FCA3E0FDE82CF582E93DF5AD
:107F800083A3A3A3A3C3E5829508E58395095004C1
:107F9000EEFAEFFB027EA3C082C083127FD8EAFC18
:107FA000EBFD800788828983127FDBE849601EE849
:107FB0002404FAE439FBC3EC9AED9B40E7127FE11D
:107FC000A3A3A3A3C3E5829CE5839D40D7E8FAE978
:107FD000FBD083D08202013290081CE0F8A3E0F9C4
:107FE0002288828983A3A3E0FAA3E0FBE82AF58232
:107FF000E93BF58322020132851A87C2AF020132C2
:10800000BE046A07CA047007D6047607E2047C0738
:10801000EE048207000582070C058807E2048E073C
:10802000FA049407000000001E0594072A059A0729
:108030000000000000000000000000000000000040
:108040000000000000000000000000000000000030
:108050000101020102010102010203030401030103
:10806000010101010303020103000BC0119410463A
:1080700013F209CE06F80FDC074E143C11240872E7
:1080800014436F6E6E656374656420416476657237
:10809000746973696E67004669726D7761726520F5
:1080A0005265766973696F6E005465786173204913
:1080B0006E737472756D656E7473004D616E756666
:1080C00061637475726572204E616D6500536F66F1
:1080D0007477617265205265766973696F6E0048C6
:1080E00061726477617265205265766973696F6E3B
:1080F0000030313233343536373839414243444524
:108100004600F401FA00960064004B0032001E00A5
:10811000140000000000000000000000000000004B
:108120000087FB349B5F800000800010000000008F
:108130000000424C45205065726970686572616C40
:1081400000FE006578706572696D656E74616C53D0
:10815000657269616C204E756D6265720044697369
:10816000636F6E6E6563746564004D6F64656C204B
:108170004E756D62657200416476657274697369EB
:108180006E6700496E697469616C697A6564004361
:108190006F6E6E65637465640054696D6564204F2D
:1081A00075740000000000000000000000000000E6
:1081B00000000000000000000000000000000000BF
:1081C000004368617220333A004368617220313A9B
:1081D0000002D88200000000001B7869E0AB50C3A9
:1081E000F0D200009C0800004572726F72009C146F
:1081F000A2140000000000000000B8100000000001
:1082000004070A0700000102030405881300006048
:10821000EA0000010000000A000000E80300005529
:10822000555500FFFFFF00F8FFFFFF03000000317E
:10823000B1E1FF71020000F4FFFFFF0D000000013B
:10824000C8000050000000F6FFFFFF070000001A02
:108250000000000500000043000000FFFFFFFF00DA
:10826000001000D6BE898E00E1F505102700000041
:108270000800000400000002000000E7FFFFFF7D8F
:108280000000000000FF000100FF00640000001972
:10829000000000F1FFFFFF419C000040420F000280
:1082A000BA8202BE8202BC82012A002A0229300060
:1082B000012903280128022A0028011800180A1899
:1082C000032A502A2A2A292A042A052A282AF5FFBD
:1082D000272A262A252A242AF0FFF1FFF2FFF3FF9E
:1082E000F4FF232A0C00C082C0839002E2E075F004
:1082F00005A4FAABF01213709002DEEAF0A3EBF0E3
:108300009002DE12879870047913805A7A008015E3
:1083100074FFF0A3128369F088828983A3A3128378
:1083200069A3E4F00A9002E2E0F8EAC3985020EA78
:1083300075F005A4F8A9F09002DEE028F8A3E03972
:10834000F9EA8882898370C874FEF0A30480C57A34
:10835000647B071207CA7AB87B071204527AC47B7F
:1083600007120AAC790002935BF088828983A3A389
:10837000A32274F2121874EAFEEBFF8E828F83122E
:1083800087986055EE24031292B91284CB750B00C6
:10839000780A121A878A828B83A3121A9E7C027D26
:1083A000007AB87B8212053C740412181AE9702E08
:1083B0008508828509831284CB780A121A878A82FB
:1083C0008B83A3121A9E7C027D007AB47B821205F5
:1083D0003C740412181AE9700579020284BB8E827B
:1083E0008F83A3A3E024F9C3940A4005791802847B
:1083F000BB9015CB128798600CC3E498FAE499FB04
:108400001284BE500579010284BB7A077B001213E7
:10841000708A0A8B0BEA450B700579130284BB7ACC
:10842000007B00803D9015CB128FF08A0C8B0D7471
:1084300003780C1217F1850882850983E0250CF872
:10844000A3E0350D8882F583A3A3A3A3ECF0A3EDED
:10845000F09015CBE02401F0A3E03400F00AEA70BC
:10846000010B1284BE40BE850A82850B83E4F0A313
:10847000F0750805F5097808121A87EEFCEFFDE59E
:108480000A2402FAE4350BFB1212A4740212181A21
:108490009002E01287989002E06017E0FAA3E08073
:1084A00003E8FAE9FB8A828B8312879870F38A8249
:1084B0008B83E50AF0A3E50BF079000286898E82B2
:1084C0008F8312900EC3EA98EB9922128B218A8235
:1084D0008B83E0F50A22C082C083E99015CAF002BE
:1084E000935B74F61218748A088B09E9FFECFAEDB5
:1084F000FB74145F600712074C74018009EFA2E659
:10850000500E12074CE4FCAA08AB09120AE8800AD4
:10851000A2E04004790280027900028B4A74F612CC
:1085200018748A088B09E9FFECFAEDFBEFA2E5501D
:108530000F12074C7401FCAA08AB09120AE8804923
:1085400074885F603974085FFE12074CEEFCAA085D
:10855000AB09120AE8E9F9602E740A121850128B5E
:108560001D8A828B83A3A3A3A3A3A3E0601B8A829B
:108570008B83A3A3A3A3A3E06401600B800BEFA2F2
:10858000E14004790380027900028B4A74F21218E8
:108590007474FB1218048A088B09890AE4F50CF537
:1085A0000D780C121A87750C02780C121A87750C4C
:1085B000CA750D82780C121A877CFF7DFF7A017BC9
:1085C00000120734740612181A8A0C8B0DAE0CAF09
:1085D0000DEE4F7003028680E4F50CF50D780C1259
:1085E0001A877C047D00791DAA08AB0912080C7457
:1085F0000212181A7403121850EAF0A3EBF0740375
:1086000012185012879860748E828F83129006859C
:108610001882851983E8F0A3E9F0740212185074E7
:1086200004F014121850128E0C7401F07403121816
:1086300050128E0CA3E4F07403121850128E0CA387
:10864000A374FFF0740312185012868E74FFF0E5C5
:108650000AF50B780B121A8B7900740112186AAAAA
:1086600008AB09120752740112181AE9FE6013745C
:1086700003121850128B1D12132E80067E158002D5
:108680007E01EEF9740512181A7F06021946128E41
:1086900010A3A3A32274EA1218748A128B138C10ED
:1086A0008D119002E0E0F508A3E0F50974161218A8
:1086B00050E0F514A3E0F5157418121850E0F50A0F
:1086C000A3E0F50B800D850882850983E0F508A3FA
:1086D000E0F509E5084509700302878F7E007F00F9
:1086E000E5082405F50EE43509F50F80050EEE705A
:1086F000010F850882850983129008C3EE98EF99CF
:1087000050C48E0C8F0D7403780C1217F1850E82F5
:10871000850F83E0250CF50CA3E0350DF50D850CD8
:1087200082F583129006C3E89512E9951340BEC303
:10873000E51098E5119940B5E50A450B6023780AE4
:10874000121A877814121A87850C82850D83E0FC33
:108750007D00A3128B1D12053C740412181AE960E7
:108760008C741A121850128798601E850E82850F1D
:1087700083E0FAA3E0F5838A82A3A3A3A3128B1D4F
:1087800088828983EAF0A3EBF0AA0CAB0D80047A0F
:10879000007B007F0E02194612900EE8492274EE0B
:1087A000121874ECFEEDFF9002E0E0FCA3E0800AFA
:1087B0008C828D8312900AE8FCE9FDEC4D70030277
:1087C000885C8C828D83A312900688088909888230
:1087D000F583A3A3A3A3E0F50CA3E0F50DC3EA95ED
:1087E0000CEB950D40CA8C828D83A3A3E0F50EA3FC
:1087F000E0F50FE50C250EF8E50D350FF9C3EA9805
:10880000EB9950AC750A00750B008008050AE50A63
:108810007002050BC3E50A950EE50B950F50918587
:108820000A10850B11740378101217F1E508251052
:10883000F8E5093511F988828983A3A3A3A3E06A27
:108840007003A3E06B70C5EE4F600B8E828F83E5E3
:108850000CF0A3E50DF0E8FAE9FB80047A007B0058
:108860007F0A02194674F012187474FE121804EA92
:10887000FEEBFF750800750900851882851983E4F1
:10888000F0A3F0EE2404F50CE43FF50D850C82F521
:108890008312949AA385820A85830B74FF6A7003FE
:1088A00074FF6B6038A818A919880889097808121C
:1088B0001A878E828F83E0F5087509007808121AEE
:1088C00087850A82850B83121A9EEA24010A5001C9
:1088D0000B120734740612181A8A088B098E828FBD
:1088E00083E0F50E750F00780E121A87850A8285CF
:1088F0000B83121A9E7C027D007AB87B8212053CA3
:10890000740412181AE970288E828F83E0F50E78AD
:108910000E121A87850A82850B83121A9E7C027DAD
:10892000007AB47B8212053C740412181AE9600BB9
:10893000850C82850D83128B1D80458E828F83E08E
:10894000F50E780E121A87850A82850B83121A9EFD
:108950007C027D007AB27B8212053C740412181AE4
:10896000E960367412121850128B1DE50845096033
:108970000F851882851983E06A7003A3E06B600598
:1089800012075E801F850882850983A3A3A3A3E045
:1089900024FFFAA3E034FF800A850C82850D83E072
:1089A000FAA3E0FB741412185012900A888289838B
:1089B000E58245836005EAF0A3EBF0AA08AB090263
:1089C00092C574F61218741207A08A828B83E5820E
:1089D00045836005128B1D80047A007B00028B4A60
:1089E00074F61218741207A08A828B83E58245837D
:1089F0006006A3A3E0F980027910028B4A74F21298
:108A0000187474FC121804EAFEEBFF8C088D0989B7
:108A10000A740212186A1207A6E9F50B707FE50ABC
:108A20006022128B0912073A851882851983128BEE
:108A30001D12074CE9F97C01EEFAEFFB120AE8E996
:108A4000F50B7059AC08AD09EEFAEFFB1204A6E97C
:108A5000F50B70497402121850128AA4741212187D
:108A600050E0F50874FF65086033EE2402F50CE46D
:108A70003FF50D780C121A87750C1E750D00780CD9
:108A8000121A87EEFCEFFD7ABE7B071207EE740424
:108A900012181A8E828F83A3A3A3E508F0A90B7482
:108AA00004028686E0FEA3E0FF2274F512187474B7
:108AB000FC121804EAFEEBFF8C088D09890A740287
:108AC00012186A1207A6E9F97417696032E50A609C
:108AD00021128B0912073A851882851983128B1D82
:108AE00012074CE9F97C01EEFAEFFB120AE8E9F90A
:108AF000700DAC08AD09EEFAEFFB1204A0E9F974B1
:108B00000412181A7F03021946851882851983E416
:108B1000F0A3F0AC18AD19850882850983128B216A
:108B200022E0FAA3E0FB2274F6121874EAFEEBFFCF
:108B3000120746EA4B600FEE24FFF8EF34FFF9EA24
:108B400028FAEB398003EEFAEFFB7F020219467434
:108B5000EC12187474E61218048A088B098C0C8DB8
:108B60000D7E007F00EC2402F50AE4350DF50B853F
:108B70000A82F583E0F8741E68705C1207AC8A0CF8
:108B80008B0DAE0CAF0DEE4F7003028C2A8E828FD0
:108B900083A3A3E0F874FE687003028C2A74FF6854
:108BA0007003028C2AE4F50CF50D780C121A8785F7
:108BB0000A82850B83E0FD7C00AA08AB098E828FB8
:108BC00083A3A3A3E0F91207E8740212181AEEFABD
:108BD000EFFB1207B280538C828D83A385821085B0
:108BE00083117412687005E0640160431207AC8A57
:108BF0000E8B0FAE0EAF0FEE4F6034EE2404F50E69
:108C0000E43FF50F850E82F583E0FC6022A2E74089
:108C100019850A82850B83E0F9AA08AB09120800BE
:108C2000850E82850F83E0D2E7F07900028E0290F4
:108C300015CAE0F46068850A82850B83E0FA74FE49
:108C40002AC394175058EAC313F50E750F00740227
:108C5000780E1217F17400250EF87480350FF9E8BC
:108C600024FCF50EE934FFF50F850E82F583128F93
:108C7000F0EC4D6029E824FEF582E934FFF583121B
:108C80008798601A850C82850D83E0FB700B851038
:108C900082851183E06401700A74126A60057906A6
:108CA000028E02740412185A881289137812121A4A
:108CB00087850C82850D83A3A3A3121A9E850C823F
:108CC000850D83A3A3A3A3A3128FF0851082851122
:108CD00083E0FAEBF9850E82850F83128E0C121851
:108CE00072740412181AE9F50C6003028E00740401
:108CF00012186AAA08AB09850A82850B83E0C313A0
:108D0000F50C750D007402780C1217F174FE250C29
:108D1000F582747F350DF583128E0C121872E9F509
:108D20000C6003028DA8850A82850B83E0FD740424
:108D30006D7003028E00740412185A880C890D7825
:108D40000C121A877C00AA08AB099015CAE0F91228
:108D500007E8740212181AE9F50C6003028E008508
:108D60000A82850B83E0F974041218621208068BDC
:108D700009EA4509600A742E121850128E0CE4F0AC
:108D8000850A82850B83E0F8741268700B85108267
:108D9000851183E064016068EE4F6064E88E828F25
:108DA00083A3A3A3A3F08058851082851183E0706C
:108DB0004F850A82850B83E0851882851983F074BC
:108DC00003121850E9F0850A82850B83E0F87404D9
:108DD00068600D7406686008740868600374106841
:108DE000740412185012900A7401121850E8F0A37B
:108DF000E9F0AC18AD19AA08AB09120458750C00BB
:108E0000A90C741A12181A7F0C021946128E10221D
:108E1000E0F8A3E0F583888222790002013274EA47
:108E200012187474FA1218048A108B118C828D83B4
:108E3000128B1DEC2402F512E43DF513851282F528
:108E400083C3E09AA3E09B4004EA4B7005790102DA
:108E50008FE8851882851983E4F07402121850E4B3
:108E6000F0A3F08007E82401FAE439FBE4F508F503
:108E7000097808121A877808121A877808121A8750
:108E8000851282851383128FF0120734740612182C
:108E90001A8A088B09EA45097003028F898A828B36
:108EA00083A385820E85830FEA2404F50AE435093D
:108EB000F50B851882851983E06003028F96740490
:108EC00012185A880C890D780C121A877CFF7DFFC6
:108ED0007905AA10AB1112080C740212181A8A0C28
:108EE0008B0DAE0CAF0DEE4F70057911028FE8744B
:108EF00002121850EEF0A3EFF0850882850983E096
:108F00006402702374011218507401F07404121872
:108F100050E0F514A3E0F515740278141217E285F9
:108F2000140C85150D807974011218507402F074B8
:108F30000412185012900A7A127B00121779880CCA
:108F4000890D1290147508107509007808121A8797
:108F5000128FF61212A4740212181AEE2410FE5088
:108F6000010F851882851983E004F0C3950CE49500
:108F70000D5016850A82850B8312900A74FF687063
:108F80000374FF696003028E65851882851983E08A
:108F9000703B790A80527401121850E0640170A28B
:108FA000850882850983E0640270DE1290147508DA
:108FB000027509007808121A87128FF61212A4742B
:108FC0000212181AEE2402FE50980F8095AC18ADCC
:108FD00019AA10AB11120464E9600B740212185044
:108FE000128B1D12132E7900740612181A02879321
:108FF000E0FCA3E0FD22850E82850F83E0FCA3E068
:10900000FDEEFAEFFB22A3A3A3A312900E22E0F839
:10901000A3E0F922850A82850B83E08E828F83F09C
:10902000A3AE82AF83850A82850B83A3E08E828FF5
:1090300083F0A30EAF832274F61218741290DF40EF
:1090400004EA4B700479018039E4F508F5097808E1
:10905000121A878C828D83A3A3A3A3E0F508780856
:10906000121A871290D3121A87EEFCEFFD12073402
:10907000740612181A8B09EA45097004790A8002ED
:109080007900028B4A74F61218741290DF4004EAD9
:109090004B700479018039E4F508F5097808121A53
:1090A000878C828D83A3A3A3A3E0F5087808121A06
:1090B000871290D3121A87EEFCEFFD120734740664
:1090C00012181A8B09EA45097004790A800279009E
:1090D000028B4AEC2405F508E43DF5097808228C5A
:1090E000828D83A3A3128AA48C828D83128B21C3C9
:1090F000EE9AEF9B2274F612187474FE121804EAAA
:10910000FEEBFF8C828D83AC18AD19128B1D1207FC
:109110003A8A088B09A808A909E8497004790180EE
:109120000A1291FAEEFAEFFB120722740212181AD1
:10913000028B4A74F012187474FE1218048A0A8B97
:109140000B8C088D09750C008002050C8508828542
:109150000983A3A3E0F8E50CC3985075AE0CEE2E7E
:10916000FEE433FF850882850983E02EF8A3E03F03
:10917000F988828983AC18AD19E0FAA3E0F8E4C855
:10918000F9EA28E439FB12073A8A0E8B0FA80EA9D8
:109190000FE84970181291E8E088828983F01291F3
:1091A000E8A3E088828983A3F0790180261291FAEE
:1091B000AA0AAB0B120722E9F9608F1291D6E08A56
:1091C000828B83F01291D6A3E08A828B83A3F080F6
:1091D0000279000292C5850882850983128B21EAF3
:1091E0002EF582EB3FF58322850882850983129054
:1091F0000EE82EF582E93FF58322851882851983D2
:10920000E0FCA3E0FD88828983A3A3A3E0F9227494
:10921000F0121874ECFEEDFF8E828F8312900A120A
:1092200092B6C3E098A3E0994004E849700579013B
:109230000292B4EE2405F50EE43FF50FEE2404F59A
:109240000AE43FF50B850A82F583E0F50C750D0005
:10925000780C121A87780E121A877C027D007AB871
:109260007B8212053C740412181AE970047910808C
:1092700043E4F50C780C121A87850A82850B83E08B
:10928000F50A750B00780A121A87780E121A87856C
:109290000882850983128FF08E828F83128B1D12B4
:1092A0000734740612181A8B09EA45097004790A02
:1092B000800279008014EE2402F508E43FF5098568
:1092C0000882F58322740212181A7F080219467464
:1092D000F412187474FE121804EAFEEBFF8C088D69
:1092E00009128B1312073AEA4B7004790180227835
:1092F00008121A877402121850128FF08A828B8318
:10930000A3A3A3E0F9EEFAEFFB12072874021218E8
:109310001A740212181A7F04021946028E19C082AA
:10932000C0839002E0800488828983128798602736
:1093300088828983A3A3A3A3A3E0FCA3E0F5838C85
:1093400082A3A3A3A3E06A7003A3E06B70D9E8240F
:1093500002FAE439FB80047A007B00D083D08202D9
:10936000013274F6121874ECFEEDFF1207AC8A0895
:109370008B09A808A909E849602BEE4F60098E8285
:109380008F83E8F0A3E9F088828983A3A3E0F874CF
:10939000FE6870047917800F74FF6870047900808C
:1093A00006791680027902028B4AC082C0837C0053
:1093B00080010C9002E2E0F8ECC3985025EC75F0C7
:1093C00005A4F8A9F09002DEE028F8A3E039F988B6
:1093D000828983E06A7003A3E06B70D6E8FAE9FB48
:1093E00080047A007B0002935B74F7121874EAFE23
:1093F000EBFFEE2402FAE43FFB1207F48E828F8328
:10940000A3A3A374FFF07F0102194674F612187427
:10941000E9FE1207AC8A088B09A808A909E8496087
:109420001BE82404F582E439F583EEF8E07B0024A0
:109430000150010B684B7004E05480F0028B4A74B9
:10944000F4121874EA4B604FEA2402F508E43BF585
:1094500009850882F583E0F874FF68603A74FE6855
:109460006035EA2403FEE43BFFE4F50AF50B780AD5
:10947000121A877D1E7C178A828B8312949AE0F9D8
:109480001207E8740212181A85088285098374FE8F
:10949000F08E828F8304F0029316128B218E828FBE
:1094A000832274F01218748A0A8B0B890C74FE657F
:1094B0000A700474FF650B7003029577E9702B1234
:1094C00007AC8B09EA4509701E7AFF7BFF1207ACD7
:1094D0008A088B09AE08AF09EE4F600B8E828F832E
:1094E000E50AF0A3E50BF00295777401650C701A9C
:1094F0001207AC8A088B09AE08AF09EE4F60788E70
:10950000828F8374FFF0A3F080217402650C706772
:109510007901120ACAE9705FAA0AAB0B1207AC8A7A
:10952000088B09AE08AF09EE4F604C1292B6E0F816
:1095300074FF68603874FE686023E4F50EF50F78F8
:109540000E121A877D1E7C14AA0AAB0B8E828F83A3
:10955000A3A3A3E0F91207E8740212181AEEFAEFB7
:10956000FB1207B285088285098374FFF08E828F13
:1095700083A3A3A3A3E4F00292CA74F41218749014
:109580007803E06442705690051FE014F0704EC2FC
:10959000AF12959400782AD0E0F618D0E0F6E59F57
:1095A0005407F870057509FF800375097FC4C0E092
:1095B0007829E6F50808E65509F509740B780812CC
:1095C00017E2D0E02508F8906270E0A2E740F8E8E2
:1095D000C333906272F0906270E0D2E0F09003A426
:1095E000E0F47003029850129F1B12986C129F595E
:1095F000601512986C129EA8EE2400F582EF3401DB
:10960000F583E0F91212FE8E828F83A3A3A3A3A396
:10961000A3A3129899129E78906054E090037DF075
:10962000906055E090037EF0906056E090037FF0EC
:10963000906057E0900380F0906058E0900381F0D4
:10964000906059E0900382F090605AE0900383F0BC
:1096500090605BE0900384F090605CE0FA9003859A
:10966000F090605DE0FC900386F090605EE0FD901D
:109670000387F090605FE0FB900388F0900383E045
:109680002AF508E43400F509E5082DF508E4350964
:10969000F509E5082CFCE43509FDEC2BFCE43DFD67
:1096A000EE24F612A30A2CF0A3E03DF0EE24F8120B
:1096B000A30A2AF0A3E03400F0EE24FA1298A6EEF2
:1096C00024FEF582E43FF583129F59603E12988B89
:1096D000F582E91298553DF0906000E0FA9003851C
:1096E000E0FCEA2AFAE433FBE82AFAE93BFBEA2445
:1096F0004AF582E41298553400F012988BF8E93B51
:10970000F9E82494F582E4391298AA900383E07072
:109710000E900386E07008A3E07004A3E060638EFF
:10972000828F83A3A3A3A3A3129F5F1298777003D2
:1097300012A6C590037EE0601FEE241C12A2FA124E
:10974000A68AE07013EE247312A30A700BEE247F36
:1097500012A30A700312A6C5906062E0700302971C
:10976000EF8E828F8312A6D3E82406FCE439FDE84D
:109770002402FAE439FB120DE88E828F83129EF5E3
:109780008074129E64F0900385E0600A12987770EE
:1097900026129F018020EE24FC1298A6906000E023
:1097A000F825E0F8E433F9EE24FE129E8724DEF576
:1097B00082E4391298AFF012985E129899E06870BE
:1097C00003A3E069600302973312A30760128E823D
:1097D0008F83A3A3A3A3A3E064057002A3E06004A6
:1097E00079088002793EEEFAEFFB120C8C8061EE74
:1097F000241DF582E43FF583E4F0A3F0906060E07F
:10980000C0E0EE2468F582E43FF583D0E0F090619B
:10981000C8E06006121D79E970F48E828F83A3A3DD
:10982000A3E0602C9061C8E070069060607480F0E6
:10983000EEFAEFFB120DA6E9640160147902EEFA6C
:10984000EFFB121F0A120D9AE964016003120D2E3C
:109850007F040219463BF583E02CF0A3E022EE12D0
:10986000986322240BF582E43FF58322EE2401F570
:1098700082EF3401F58322EE240FF582E43FF58375
:10988000E4F0EE241C12A30E640122906000E0FAC2
:1098900025E0FAE433FBE82A2212A6D78E828F83D2
:1098A000A3A3A3A3A322F582E43F1298AFF022F56D
:1098B00083E02401F0A3E034002253BFEF02013221
:1098C00074F01218749003A4129F1B9061D0E07082
:1098D0000EEE2463F582E43FF583129F5960051272
:1098E0009E648023EE246912A30A701CEE24731276
:1098F000A30A7014EE247F12A30A700CEE241C122B
:10990000A32E7004129F01F08E828F83A3A3A3A3C2
:10991000A3129EA0241D129E87240108500109EE67
:109920002407F50AE43FF50B850A82129E7E129801
:109930005FC3E098A3E09950208E828F83A3A3A3F6
:10994000A3A3A3A3C082C08312985E12A6D3D08320
:10995000D08212A6F1501B802112985EC082C08373
:109960008E828F83A3A312A6CED083D08212A6DDCF
:1099700050089004BBE064017015129E64F0129EC2
:10998000D98E828F83A3A3A3A3A3A3A3129E78EE51
:10999000247312A32E6003029A33129E4C121A9E55
:1099A0008E828F83A3A3A3A3A3A3A3E0FCA3E0FDC4
:1099B0008E828F83A3A3A3A3A3129EA8121D287433
:1099C0000212181AE9606C8E828F83A3A3A3A3A34B
:1099D000A3A3C082C083129ED9D083D082E06870D6
:1099E00003A3E069604DEE247412A30A687003A318
:1099F000E069603FEE2474F508E43F850882F58352
:109A0000E024FFFAA3E034FFFB850A82850B83EA9A
:109A1000F0A3EBF08E828F83A3A3A3A3A3E0FCA308
:109A2000E0FD121D71EA24FFF8EB34FFF9EE241D6E
:109A3000129E72EE247312A32E6003029B8E129E5E
:109A40004CC082C083129ED9D083D082E06870035C
:109A5000A3E0696003029B8EEE2474F508E43FF5F1
:109A600009850882F58312A6D3850A82850B8312A5
:109A70009E802476FCE43FFDEEFAEFFB120C98EE9C
:109A8000247B129E9A2420F582E43F129E7E241CA1
:109A900012A2E612A344F0EE240F12A316850A8246
:109AA000850B83129F5F8E828F83A3A3A3A3A3E062
:109AB000FCA3E0FD850882850983129EA8121D7112
:109AC0008A088B09129E36129EA8E4F50AF50B8AC5
:109AD0000C8B0DF50EF50F7808790C12151AEE2483
:109AE00077129E687808790C121641EE247912A339
:109AF0000A6A7003A3E06B7018129ECAE0687003D4
:109B0000A3E069700C129EAEE0687003A3E0696088
:109B100043EE247DF582E43FF58312A3651217E23C
:109B2000780C121A87EE247BF582E43FF583121A33
:109B30009EEE247912A30AFCA3E0C313FDEC13FCF0
:109B40008E828F83A3A3A3A3E0FA7B0012099274F1
:109B50000412181AEE247612A30AC0E0EE242BF5A4
:109B600082E43FF583D0E0F0EE2479129E9A242E11
:109B7000129E72129EAE129E78129ECA129E80FA99
:109B8000EFFB120C9EEE247312A2E6F08003129FEC
:109B90002F129E401214C67014EE241F12A30AF84E
:109BA000EE241D12A30A687002A3E06030EE2412B6
:109BB000F50CE43FF50D780C121A87EE2410F582AF
:109BC000E43FF583121A9E129E56121A9EAA08AB03
:109BD00009AC0AAD0B122892740612181A129E4094
:109BE0001216D7EE241D12A30AC0E0EE241FF58240
:109BF000E43FF583D0E0F0EE2412FCE43FFD129E3A
:109C00008C1227CE906062E0600A7CD47D81129E27
:109C10008C1227CE8E828F8312A6D388828983A34B
:109C2000A3E82408FCE439FD74061217178E828F0E
:109C300083E02402F8A3E03400F9E8FAE9FBEE241B
:109C40001D129E68E4F50EF50F908213780C121623
:109C500054780C790812151A8A828B83780C1216A4
:109C600067908223780C1216C88A828B83780C1234
:109C700016B59004B5E064016003029DB579011248
:109C80000E36129EA47508FF7509FF750AFF750B45
:109C9000FFEA240EF582E43BF58378081216D7EA32
:109CA0002412F8E43BF9E8FAE9FBEE2412F582E429
:109CB0003FF58378081216C8E50875F0E2A4C508D8
:109CC000A8F075F004A428F875F0E2E509A428F5D9
:109CD000098A828B83E02508F0A3E03509F0EE24A1
:109CE0001612A30AF508A3E0F50974047808121700
:109CF000E2E5082401F8E43509F98A828B83E0283B
:109D0000F0A3E039F0906062E08E828F83700302EE
:109D10009E0E129EECF0A3E03401F012A307602C1B
:109D2000EE242B12A30AF875F071A4C8AAF075F0FE
:109D300002A42AF98E828F83E0FAA3E0CA2412F5E6
:109D400082E43AF583E028F0A3E039F0129EA48A79
:109D5000828B83A3A3C082C083129F2FD083D08223
:109D6000780812165490822778081216549082238D
:109D700078081216A2EA2416F582E43BF5837808E7
:109D80001216D7EA2414F582E43BF5837410F08EA2
:109D9000828F83E0F8A3E0C8241AF582E438F583C3
:109DA0007414F0A3740CF0EEFAEFFB121C66790049
:109DB0007F0802194690824378081214FB50030270
:109DC0009C82129E56129F596003029C8278081250
:109DD0001A83EEFAEFFB120CA4740412181AE96449
:109DE000016003029C8212A30760128E828F83A3FC
:109DF000A3A3A3A3E064057002A3E0600479088034
:109E000002793EEEFAEFFB120C8C790180A2129ED1
:109E1000ECF8A3E034FFF97A717B02121779880815
:109E20008909129E3612A6D3C3E50898E509995010
:109E300003029D1B80C7EE242EF582E43FF58322AA
:109E4000EE2418F582E43FF583780822EE2474F5B9
:109E500082E43FF58322129E5A22EE241DF582E40D
:109E60003FF5832212A3492212A30EF50CA3E0F5BD
:109E70000D22F582E43FF583E8F0A3E9F022F583B3
:109E8000E8F0A3E9F0EE22129F71E8228E828F8320
:109E9000E02402FAA3E03400FB22F582E43FF583DC
:109EA000129EC3228E828F83E0FAA3E0FB22EE246F
:109EB0007B129EBD2430F582E43FF58322F582E4D7
:109EC0003FF583E0F8A3E0F9EE22EE247D129EBD7B
:109ED0002432F582E43FF583228E828F83A3A3A3ED
:109EE000A3A3E02401F8A3E03400F922129EF5F5C3
:109EF00083E0241022E0F8A3E0C82412F582E438BD
:109F000022129F0522EE2420F582E43FF583E0F83B
:109F1000A3E0F9129E5AE8F0A3E922E0F875F00AEE
:109F2000A4C8AAF02AF974A628FE740339FF22EE09
:109F3000242E12A30EF508A3E0F509E4F50AF50BAB
:109F400022EE2471F8E43FF988828983E024FFF04F
:109F5000A3E034FFF08882898312A6D7E849221251
:109F60009EC3240D129F71EE129863E8F0A3E9F0EE
:109F700022F582E43FF583E028F8A3E039F9227462
:109F8000EC121874EAFEEBFF8C828D83E0F8A38557
:109F90008208858309603B14700302A0E7147003F4
:109FA00002A2B114700302A12C24FD700302A1ECE3
:109FB00014700302A2DF14700302A21424FE7003C3
:109FC00002A1F114700302A20A14700302A2590242
:109FD000A2CFEE2476F510E43FF511E085108285DE
:109FE000118312A356EE2477F50EE43FF50F7902A4
:109FF000AC08AD09AA0EFB120CB08A088B09EE243E
:10A0000079F50CE43FF50D7902AC08AD09AA0CFB1B
:10A01000120CB08A088B097902AC08AD09EE247BDA
:10A02000FAE43FFB120CB08A088B09EE247D12A3E0
:10A030001B120CB08A088B09851082851183E0C33E
:10A0400033F0850E82850F8312A37A850E82850FE9
:10A0500083129E78850C82850D8312A37A850C82EB
:10A06000850D83129E78850A82850B8312A3651263
:10A0700017F1850A82850B83E50CF0A3E50DF0EE60
:10A08000247412A31B120CB0850A82850B83C08234
:10A09000C08312A6CAD083D08212A3715079EE2455
:10A0A0007D129F32EE247B12A30A2401F50CA3E05B
:10A0B0003400F50DE4F50EF50FEE2479F582E43F5A
:10A0C000F58312A37A88108911E4F512F513780C40
:10A0D000791012151A7808790C1214DB4004793BB8
:10A0E0008037EE2473803C7905AC08AD097AB07BEB
:10A0F00004120CB08A088B09EE248012A31B120CE8
:10A10000B0850A82850B83C082C08312A6CAD08321
:10A11000D08212A37140097928EEFAEFFB02A2CA9D
:10A12000EE247F12A2FA12A34402A210EE24E1123E
:10A13000A30A700D12A2EE12A3847003EB640370E5
:10A14000F6EE24E212A30AA2E0EE401024DDF5822E
:10A15000E43FF583741AF0790D02A2AB12A3342404
:10A16000E012A3167908AC08AD09EE249BFAE43F8F
:10A17000FB120CB08A088B097902AC08AD09EE24F9
:10A18000A3FAE43FFB120CB08A088B09EE2493F586
:10A190000AE43FF50B7908AC08AD09AA0AFB120CDA
:10A1A000B08A088B097908AA0AAB0B120CB6EE2408
:10A1B00087F50AE43FF50B7904AC08AD09AA0AFB60
:10A1C000120CB07904AA0AAB0B120CB6EE248BFA6F
:10A1D000E43FFB120CC8EE2483FAE43FFB120CCEE2
:10A1E000900378E04480F0790402A2ABEE24DE8094
:10A1F0001CEE12A33424D212A68024DC12A67824EA
:10A20000D312A2E6F0790B02A2DCEE24DF12A2FA4E
:10A21000F002A2DF12A2EE12A3847003EB640370BB
:10A22000F612A2EE8A828B83E0FC85088285098380
:10A23000E05C8882898312A3568A828B83A3AA82D8
:10A24000AB8388828983A3A882A983EA649270037E
:10A25000EB640370CF79098052EE24EA12A32E60DA
:10A260006E850882850983E0C0E0EE24EDF582E486
:10A270003FF583D0E012A3567902AC08AD09EE2475
:10A28000EEFAE43FFB120CB08A088B097902AC08A5
:10A29000AD09EE24F0FAE43FFB120CB0EE24EA1212
:10A2A000A67824EC12A30A7036790CEEFAEFFB8044
:10A2B0002BEE24F4F8E43FF9E088828983F0EE2461
:10A2C000F312A31688828983E0F9120C8C8010EEB9
:10A2D00024F5F582E43FF583E8F07907120C507F0E
:10A2E0000C02194624DEF582E43FF583E422EE24D5
:10A2F000E2F8E43FF97A8A7B032212A2FE22F58279
:10A30000E43FF583740122EE240F12A30E22F5829E
:10A31000E43FF583E02212A2FEF022F50AE43FF5C5
:10A320000B7902AC08AD09AA0AFB22EE246912A33C
:10A330000E6401222462F582E43FF583E412A6A6AE
:10A34000E4F0EE22F012A34922EE241DF582E43F50
:10A35000F583E4F0A322F0850882850983A3858232
:10A360000885830922E0F50CA3E0F50D7404780C50
:10A370002212A6E694FFE9947F2212A6D7E828F8D5
:10A38000E933F9228A828B83E088828983F08A828A
:10A390008B83A3AA82AB8388828983A3A882A983A3
:10A3A000EA64922274F6121874EAFEEBFF02A5101A
:10A3B000EEFAEFFB120C4402A63E12A32B703C9067
:10A3C0000380E0700302A59FEEFAEFFB120C56EE3D
:10A3D00024A3F508E43FF5097808121A87EE249BB8
:10A3E000FCE43FFD8E828F83A3A3A3A3E0FA7B004E
:10A3F00012097A740212181A02A510EEFAEFFB1273
:10A400000C1A02A63E12A32B702E900380E060115E
:10A41000EE248212A67824D412A66FEE24D812A6B7
:10A420006FEE24DE12A32E600302A59F7906EEFADA
:10A43000EFFB120C5C02A510EE24D212A32E701BAF
:10A44000EEFAEFFB120C20E96401600302A654EE61
:10A4500012A2E412A68A740102A642EE24D312A329
:10A460000A700302A654EE24B2F508E43FF5097819
:10A4700008121A87EE248BFCE43FFDEE24C2FAE4B6
:10A480003FFB120CD4740212181AEE24D212A2FA54
:10A49000805A12A32B7058900380E0700302A59F8E
:10A4A00012A6C5EEFAEFFB120C5612A699EE24DCAA
:10A4B00012A32E701379008E828F83A3A3A3A3E02F
:10A4C000FA7B0012098680137C0179008E828F83CB
:10A4D000A3A3A3A3E0FA7B00120980EE24DC12A65A
:10A4E0008024E012A68012A67E12A2E4F08021EE63
:10A4F000FAEFFB120C2602A63E12A32B7066EE2486
:10A50000DF12A32E600302A59FEEFAEFFB120C569A
:10A51000EE246E12A30A700302A654EE246A12A35C
:10A520000A24FE602C24FE700302A3BA14700302F6
:10A53000A40514700302A49214700302A64524FE1D
:10A54000607124FE60B314700302A5D314603280DE
:10A55000BF12A32B600302A3B090037FE060407999
:10A560001602A627EEFAEFFB120C2CE96401600339
:10A5700002A654EE12A67E248212A680246902A4AA
:10A580008D12A32B7023900380E0600AEE248212C8
:10A59000A2E6F012A69990037FE0600302A50912DB
:10A5A0009F41600302A654807CEEFAEFFB120C324E
:10A5B00002A63E12A32B7012900380E060E1EE240D
:10A5C000E112A31612A6C502A509EEFAEFFB120CC2
:10A5D00038806B12A32B705AEE24EA12A32E702738
:10A5E000EE24EB12A32E600302A50912A65B121A39
:10A5F0009E12A665121A9E12A6B1790012097474F1
:10A600000412181A02A509129F41704812A65B1283
:10A610001A9E12A665121A9E12A6B1792212097408
:10A62000740412181A7922EEFAEFFB120C8C7901DD
:10A630008024EE24EC12A678FAEFFB120C3E12A650
:10A640008FE9F0800FEEFAEFFB120C4AE96401701B
:10A650000302A50979007F02021946EE24F0F58273
:10A66000E43FF58322EE24EEF582E43FF5832212E7
:10A67000A34CF0A3F0A3F02212A2FEF0EE2224DFFE
:10A68000F582E43FF583E4F0EE22F012A68F22EE8D
:10A690002469F582E43FF58322EE246212A2FE12C1
:10A6A000A6A67401F022F0EE2467F582E43FF5835C
:10A6B00022EE24ED12A30EFC8E828F83A3A3A3A30C
:10A6C000E0FA7B0022129F05F0228E828F83A3A3E3
:10A6D000A3A3A312A6D722E0F8A3E0F92212A6E6CC
:10A6E00094ABE9941022E0C398F8A3E099F9C3E889
:10A6F0002212A6E694AAE994102274F21218748920
:10A7000009EAFEEBFF8C0A75081274FE6E70037482
:10A71000FF6F70189002A412B399607212A7936031
:10A720006D7AFE7BFFA909121872805A74FF6E7051
:10A730000374FF6F70359002A412B399601312A7CF
:10A7400093600E7AFF7BFFA909121872E9F5086081
:10A750000CAA0AA909120626E9F5087031E5099044
:10A7600002B0F0E50A9002B1F08023120ABE8A829C
:10A770008B83E58245836016E06509700EA90AEEB9
:10A78000FAEFFB1208D2E9F5088003750803A9085F
:10A7900002AF85E0F583888212B07888828983E5EC
:10A7A0008245832274EE121874EAFEEBFFEE240257
:10A7B000F50EE43FF50FEE2404F50CE43FF50DEE45
:10A7C0002406F50AE43FF50BEE2408F508E43FF50E
:10A7D00009850882F583121A9E850A82850B8312E9
:10A7E0001A9E850C82850D8312AED1850E82850F4F
:10A7F0008312B19F1209A4740412181AE970057922
:10A800000202A8B4790112B19B120ACAE970057953
:10A810001402A8B412B19B120AD0E96404705790D4
:10A820001559E0F47003A3E0F46005791102A8B4AF
:10A830008E828F8312AF8A12B06E850E82850F834F
:10A8400012B0749002A812B06E850C82850D83122E
:10A85000B0749002AA12B06E850A82850B8312B082
:10A86000749002AC12B06E85088285098312B074B0
:10A870009002AE12B06EE4F510F5117810121A873E
:10A880007810121A87850882850983121A9E850A14
:10A8900082850B83121A9E850C82850D83121A9E67
:10A8A000850E82850F8312AED112B19B1209BC7442
:10A8B0000A12181A02B4FB74F212187489088C0A6E
:10A8C0008D0B900283E064026005E06401700479FE
:10A8D00012805DEC450B700479028054120ABE8A26
:10A8E0000C8B0DAE0CAF0DEE4F700479148041E56A
:10A8F00008600B8E828F83A3A3A3E0D2E1F0750CD6
:10A9000010750D00780C121A87AC0AAD0BEE2410EE
:10A91000FAE43FFB1212A4740212181A12B7FF12C3
:10A9200016F2EE2420F582E43FF5831216FE79003C
:10A9300002AF8574F0121874EAFEEBFF8C0A8D0BDF
:10A94000EE4F7005790202AA4212B19B120ABE8A2A
:10A95000088B09EA45097005791402AA429002831E
:10A96000E06402601FE06401601AEA240BF50CE465
:10A970003509F50D850C82F583E06408700BE50A56
:10A98000450B6005791202AA429002A212B39960A7
:10A9900005791102AA427A1F7B001213709002A25D
:10A9A00012B1539002A212B3997005791302AA4210
:10A9B0007C1F7D0079001212BC12B19B12AA45A324
:10A9C00012B153750E16750F00780E121A87EE2409
:10A9D00002FCE43FFD9002A2E02403FAA3E034006D
:10A9E000FB1212A4740212181A12AA457402F085FE
:10A9F0000C82850D83E0640870047901800279007F
:10AA00009002A2E02403F50CA3E03400F50D780CCD
:10AA1000121A878E828F8312AED19002B8E0FA129A
:10AA20000F38740212181AE9FEE50A450B600BACE8
:10AA30000AAD0BAA08AB09120F74EE6003120632BE
:10AA4000EEF902B0639002A2E0F8A3E0F5838882F9
:10AA50002274F412187474FF121804EAFEEBFF89D2
:10AA600008120ABE8B0BEA450B700479148014851A
:10AA70001882851983E508F0AC18AD19EEFAEFFBE2
:10AA8000120F5C740112181A7F0402194674F01236
:10AA9000187474F01218048A0C8B0D8C0E8D0F74C0
:10AAA00020121850E0FEA3E0FFEEFAEFFB120ABE00
:10AAB0008B09EA450970047912806590829B780CB5
:10AAC0001214FB5004790280577C107D007900AA93
:10AAD00018AB191212BC851882851983E50CF08514
:10AAE0000D09E509F5087401121850E508F0850C08
:10AAF00008850E0A850F0B74107808121609740267
:10AB0000121850E508F07418780C12160974031224
:10AB10001850E50CF0EEFCEFFDAA18AB19120F3E31
:10AB2000741012181A02B06374F11218748A0A8B26
:10AB30000B890E8C0C8D0D900283E064026005E0A1
:10AB400064017005791202ABF6EC450D70057902CF
:10AB500002ABF6120ABE8A088B09AE08AF09EE4FA7
:10AB60007005791402ABF6EE2424F508E43FF509EC
:10AB700085088212AC0460031213767C1B7D00AA48
:10AB80000CAB0D1212B085088285098312B15312E5
:10AB9000AECBEC4D70047913805C12B5E4E0640830
:10ABA000703D740F121850E06035EC2412F508E483
:10ABB0003DF5097808121A87EC2410F582E43DF57A
:10ABC00083121A9EEC241AF582E43DF583E0F9AA7B
:10ABD0000AAB0B120F7A740412181AE9F980027981
:10ABE00000EE2403F582E43FF583E0D2E2F0E50EC7
:10ABF0006004E0D2E1F07F0702194612B7F6241B89
:10AC0000F582E438F58312B1A3EA4B2274EE1218F0
:10AC100074120ABE8A088B09AE08AF09EE4F7003A2
:10AC200002ACBBEE2420F508E43FF50974121218BB
:10AC3000501216F28508828509831216FE7A267B49
:10AC40000012055AEAF50A70078E828F83E0F50A32
:10AC5000850882850983780C1216C88E828F83A39B
:10AC6000A3A3A3E0F50B7A0E7B001212CE8A088B09
:10AC700009EA4509604512ACBE740912ACCFE50B78
:10AC800012B5EE121A87EE2405FCE43FFDEA240417
:10AC9000FAE43509FB1212A4740212181A8508820C
:10ACA000850983A3A3A3A3A3A3A3A3A3A3780C129F
:10ACB00016D7AA08AB09A90A1212DA02B4FB8A82D3
:10ACC0008B8374D0F0A3E4F08A828B83A3A322F059
:10ACD0008A828B83A3A3A32274EA1218748A0C8B32
:10ACE0000DEA450D700302AE618A828B83A3A3A394
:10ACF000A3A3A3E07005750B088003750B049002F5
:10AD0000A012B399600512AA4B800390150AE0F5D2
:10AD10000A9002B912B399600F12AA4BA3A312A70B
:10AD20009860057900121872E50C2407F50EE435D9
:10AD30000DF50FE50C2408F508E4350DF509AA0812
:10AD4000FB850E82850F83E0F9120584E9FB850EF1
:10AD500082850F83F0E50C2403FEE4350DFFE50C3E
:10AD60002404F514E4350DF515E50C240EF510E476
:10AD7000350DF511E50C2414F582E4350DF583E06D
:10AD8000F5127513007812121A87E50C2412F58259
:10AD9000E4350DF583121A9EE50C2410F582E43596
:10ADA0000DF583121A9E851082851183121A9EE575
:10ADB0000BF50C780C121A8B851482851583121AE8
:10ADC0009EAC08AD09AA0A8E828F83E0F9120614A0
:10ADD000740B12181A8E828F83E07041750C1775F0
:10ADE0000D00780C121A87851082851183121A9E25
:10ADF000780B121A8B7808121A87850E82850F83BA
:10AE0000E0FD7C0185148285158312B19FA90A1289
:10AE10000AB2740712181AE98E828F83F09002A08A
:10AE200012B39960031206389002B0E060339002CA
:10AE3000B1E0FA9002B0E0F9120626E960238E82B2
:10AE40008F83E0FB74316B60138514828515831248
:10AE5000AED19002B0E0FAEBF912061A9002B0E41B
:10AE6000F07F0E02194674F6121874E4F508F5091D
:10AE70007808121A877808121A87EA240CF582E4F7
:10AE80003BF583121A9E8A828B83A3A3A3A3A3A359
:10AE9000A3A3A3A3121A9E8A828B83A3A3A3A3A313
:10AEA000A3A3A3121A9E8A828B83A3A3A3A3A3A303
:10AEB00012AED18A828B83A3A3A3A312B19F1209DE
:10AEC000B6740A12181A7F0202194685088285098B
:10AED00083E0FCA3E0FD2274F2121874EAFEEBFF9B
:10AEE000750A00EE2403F8E43FF98808890988828E
:10AEF000F58312B19F120ABE8A828B83E582458355
:10AF0000600FE0F50A85088285098312B19F120A55
:10AF1000B89002B0E06019650A70159002B1E0FACD
:10AF20009002B0E0F9120626E960249002B0E4F045
:10AF3000E50A601B8E828F83A3A3A3A3A3E0FB1269
:10AF4000AECBAA0A8E828F83A3A3E0F912061A90D1
:10AF500002A212B399600312063285088285098322
:10AF600012B19F120AD0E96404701A85088285091B
:10AF70008312AF8AE0687003A3E0697008901559E6
:10AF800074FFF0A3F07F0602194612B078901559AD
:10AF90002274F012187489098A0C8B088C0A8D0BA4
:10AFA0007A147B001212CE8A0E8B0FAE0EAF0FEE0C
:10AFB0004F700302B0638E828F8374D012B13FA3AF
:10AFC000A3740512B138E508F0EE2404FAE43FFB5F
:10AFD000E50A450B6019750E06750F00780E121AFA
:10AFE00087AC0AAD0B1212A4740212181A80097CE5
:10AFF000067D0079001212BC741012185012B07441
:10B000008E828F83A3A3A3A3A3A3A3A3A3A312B0FE
:10B010006E7412121850E0C0E012B5DAD0E0F0748D
:10B020001312185012B07E240D12B0687415121845
:10B030005012B07E240F12B068741712185012B05C
:10B040007E241112B0687419121850E0C0E0EE248A
:10B0500013F582E43FF583D0E0F0EEFAEFFBA90CA4
:10B060001212DA7F08021946F582E43FF583E8F010
:10B07000A3E9F02212B07822E0F8A3E0F92212B09E
:10B0800078EE2274F212187489098A08ECFEEDFF3A
:10B090008B0A7A067B001212CEEA4B60238A828BDF
:10B0A0008374D0F0A3E50912ACC7740612ACCFEEDE
:10B0B000F0A3EF12ACCFA3A3E50AF0A9081212DAAD
:10B0C00002AF8574F0121874890C8A088B098C0AF7
:10B0D0008D0B7A0C7B001212CE8A0E8B0FAE0EAF48
:10B0E0000FEE4F6050AA08AB09120ABE8A828B830A
:10B0F000E5824583700390150AE0F98E828F837490
:10B10000D0F0A3E50C12B355740712B138A3E508CB
:10B1100012B13F12B159741012185012B16712B126
:10B1200053741212185012B167A3A312B153EEFA5E
:10B13000EFFB1212DA02B06312B147A3A3A322F00D
:10B14000A3E50912B14722F08E828F8322F582E4B3
:10B1500038F583EAF0A3EBF022A3A3A3A3A3A3E50E
:10B160000AF0A3E50BF02212B1A38E828F83A3A372
:10B17000A3A3A3A3A3A32274F6121874EAFE120ACF
:10B18000C48A828B83E5824583600BEEF9A312B1FA
:10B190009F1208D28002791202AEC68E828F83126D
:10B1A000B1A322E0FAA3E0FB2274EC121874891117
:10B1B0008A0A8B0B8C10120ABE8A0E8B0FEA450F7F
:10B1C000700302B3509002A212B399700302B350FD
:10B1D0007A0E7B00E0C8241912B39360027A291218
:10B1E000B38E6008EA2414FAE43400FB74141218D5
:10B1F00050E0F50CA3E0F50DE50C450D6007EA24E1
:10B200001BFAE43BFB12B81112B3936007EA241651
:10B21000FAE43BFB1212CE8A088B09AE08AF09EEA6
:10B220004F700302B3507C0E7D0079001212BC7A7D
:10B23000267B0012055A8A088B09EA4509700985A0
:10B240000E82850F83E0F5088E828F8374D0F0A381
:10B25000E51112B355740A12B14712B15C8E828F98
:10B2600083A3A3A3A3A3E510F0EE240EF50AE43F05
:10B27000F50B9002A2E0241912B35B12B399601887
:10B28000EE240612B366121A878C828D8312AED119
:10B290001212A4740212181A9002A2E0241D12B312
:10B2A0005B12B3996038EE2408F8E43FF98882898C
:10B2B0008312B15F8882898312B19FEA2414F50A50
:10B2C000E43BF50B750E14750F00780E121A878C7F
:10B2D000828D8312AED11212A4740212181AE50CD8
:10B2E000450D6015EE240A12B366121A87AC0CAD38
:10B2F0000D1212A4740212181A9002A2E0241BF874
:10B30000A3E03400F9E8FAE9FB8A828B8312B3994F
:10B310006032EE240CF8E43FF9880C8882F5831241
:10B32000B15F750A16750B00780A121A878A828B2C
:10B330008312AED1850C82898312B19F1212A4743C
:10B340000212181AEEFAEFFBA9081212DA120632EC
:10B350007F0C02194612B147A3A322FCA3E03400DC
:10B36000FD8C828D8322F8E43FF988828983E50A87
:10B37000F0A3E50BF08882898312B1A3EA241BF5C0
:10B380000AE43BF50B750E1B750F00780E2212B701
:10B39000F6241DF582E438F58312B078E84922C01E
:10B3A00082C0839002A212B399602FE0C8241912C0
:10B3B000AC00600312137612ABFB6003121376121B
:10B3C000B80B12AC0060031213769002A212B19F68
:10B3D0001213769002A2E4F0A3F0D083D08202018F
:10B3E00032C082C0839002A012B39960109002A074
:10B3F00012B19F1213769002A0E4F0A3F080DB74E8
:10B40000F0121874890C8A0A8B0B120ABE8A088BF8
:10B4100009EA4509604C7A267B0012055A8A0E8B90
:10B420000FAE0EAF0FEE4F7008850882850983E0DE
:10B43000FE7A057B001212CE8A088B09EA45096064
:10B44000217C057D0079001212BC12B50B740EF040
:10B4500085088285098312B15CAA08AB09EEF9124E
:10B4600012DA02B06374EE121874890CEAFEEBFF74
:10B470008C0A8D0B120ABE8A0E8B0FEA450F607B79
:10B480007A0B7B001212CE8A088B09EA4509606BA1
:10B490007C0B7D0079001212BC7A267B0012055AC3
:10B4A0008A108B11A810A911E8497008850E8285B1
:10B4B0000F83E0F812B50B740F12B506EEF0A3EF90
:10B4C00012B500E50A12B500A3E50BF074121218CC
:10B4D0005012B525F0741312185012B525A3F0744C
:10B4E00014121850E5082409FCE43509FD74021211
:10B4F0001717AA08AB09E8F91212DA7F0A021946EF
:10B5000012B506A3A32212B51BA3228508828509C2
:10B510008374D0F0A3E50C12B51B22F08508828558
:10B520000983A3A322E0850882850983A3A3A3A39B
:10B53000A3A3A32274EE1218748A0A8B0B890E122D
:10B540000ABE8A0C8B0DEA450D700302B5D77A0D41
:10B550007B001212CE8A088B09AE08AF09EE4F604D
:10B56000767A267B0012055A8A088B09EA4509700B
:10B5700009850C82850D83E0F5088E828F8374D057
:10B58000F0A3E412B355740B12B5EE121A87E50C52
:10B590002405FCE4350DFDEE2403FAE43FFB121212
:10B5A000A4740212181A8E828F83A3A3A312B15916
:10B5B00012B5E4E50EA2E0500474018001E4F0123B
:10B5C000B5DAE50EA2E1500474018001E4F0EEFA70
:10B5D000EFFBA9081212DA02B4FBEE240CF582E4A8
:10B5E0003FF58322EE240BF582E43FF58322F075CC
:10B5F000100675110078102274E812187489108AE8
:10B600000FECFEEDFF8B0EEEFAEFFB120ABE8A087E
:10B610008B097418121850E0F50CA3E0F50D741A9C
:10B62000121850E0F514A3E0F515741C121850E040
:10B63000F516A3E0F517741E121850E0F50AA3E002
:10B64000F50BEA4509700302B724E510600302B761
:10B6500024EA2403F582E43509F583E0D2E4F0E539
:10B660000EA2E2E05004D2E18002C2E1F0E50C4516
:10B670000D7012E5144515700CE51645177006E5BA
:10B680000A450B606AE0D2E2F0E50A450B6034122D
:10B69000B7FF1216F2E5082420F582E43509F58398
:10B6A0001216FE7512107513007812121A87AC0A62
:10B6B000AD0BE5082410FAE43509FB1212A474025C
:10B6C00012181AE5082424F50850020509E50C456E
:10B6D0000D6021E50F701D85088285098312AC0677
:10B6E00060031213767C1B7D00AA0CAB0D8027E053
:10B6F000C2E2802FE5144515602A7401650F70249D
:10B7000085088285098312AC0660031213767C1BC0
:10B710007D00AA14AB151212B0850882850983EA50
:10B72000F0A3EBF09002A212B399700302B7F1E517
:10B730000C450D6039E0C8241912B393700F7A1BC1
:10B740007B0012137012B7F6241912B14D12B7F61E
:10B75000241912AC00601775081B750900780812CF
:10B760001A87AC0CAD0D1212A4740212181AE51649
:10B770004517603112B81112B393700D7A167B0021
:10B7800012137012B81112B14D12ABFB601775088D
:10B79000167509007808121A87AC16AD171212A494
:10B7A000740212181AE50A450B603112B38E700D3F
:10B7B0007A147B0012137012B80B12B14D12B80B31
:10B7C00012AC0060177508147509007808121A8702
:10B7D000AC0AAD0B1212A4740212181A7814121AC1
:10B7E00087AC0EEEFAEFFBA91012062C74021218A9
:10B7F0001A7F100219469002A2E0F8A3E0C822E5E1
:10B800000A2410F582E4350BF5832212B7F6241DC5
:10B810002212B7F6241B22C082C0839002A612B166
:10B820005302B3DA74F4121874E9900375F0120E2F
:10B8300006907800E0C4540F540764037004793F05
:10B840008002797F7508067509007808121A877CCE
:10B85000637D037AEA7B071211CC740212181A90E6
:10B860000363E0F47049A3E0F47044A3E0F4703F94
:10B87000A3E0F4703AA3E0F47035A3E0F4703090E4
:10B88000780EE0900363F090780FE0900364F090FE
:10B890007810E0900365F0907811E0900366F090E6
:10B8A0007812E0900367F0907813E0900368F090CE
:10B8B000036912B9BA12C72D9003937406F0A374EA
:10B8C0000D12C2077441F0A37401F09004BF12B9C5
:10B8D000BA9004BEE4F09004CCF0A374A012C207A6
:10B8E0007403F0A3740712C207742812C20704F08D
:10B8F000A3E4F09004F5F090051874FFF0A3E4F0D1
:10B9000090051AF090051C04F090051D7490F0A3AA
:10B910007401F0120BDE120B12120DAC79017A1FBA
:10B920007B05120CC290051FE075F01484E5F0044D
:10B93000F0790C7A407B05120CC2120CDA7A009076
:10B940000375E0F9121388907803E0644270569012
:10B95000051FE014F0704EC2AF12B95C00782AD017
:10B96000E0F618D0E0F6E59F5407F870057509FF7A
:10B97000800375097FC4C0E07829E6F50808E6551C
:10B9800009F509740B78081217E2D0E02508F89041
:10B990006270E0A2E740F8E8C333906272F0906210
:10B9A00070E0D2E0F09003A0E4F0A3F07A80FB9086
:10B9B0000375E0F91212FE02BE7F74FF12BD4DF056
:10B9C000A3F02274F4121874EAFEEBFFEEA2E0502A
:10B9D00040900377E0C39480E0500F25E0F8E43313
:10B9E000F974F128F5827415800EF425E0F8E4333B
:10B9F000F974FF28F582741539F58312C5B412184D
:10BA0000727A00900375E0F9121388EE640102BBAC
:10BA1000D7540260377508007808121A8BE4F509CC
:10BA20007808121A877808121A877808121A877805
:10BA300008121A877D007C017A007B00793C12098C
:10BA400068740912181AEE640202BBD7EE5404702F
:10BA50000302BAE09003A4E0F875F00AA4C8AAF0C3
:10BA60002AF974A628FA740339FBEA242AF582E439
:10BA70003BF583E0F5087808121A8BEA243212BBF2
:10BA8000E3F509740478081217E27808121A87EAB5
:10BA90002420F582E43BF583121A9EEA242E12BB81
:10BAA000E3C313F509E50813F5087808121A87EAC5
:10BAB0002403F508EB3401F5097808121A8712BB44
:10BAC000EFFD7C018A828B83A3A3A3A3E0FA7B0012
:10BAD0007900120968740912181AEE640402BBD7BF
:10BAE000EE544060377508007808121A8BE4F509A7
:10BAF0007808121A877808121A877808121A877835
:10BB000008121A877D007C017A007B00793B1209BC
:10BB100068740912181AEE644002BBD7EE548060B4
:10BB20003790051D12C1FF602A790012138290051B
:10BB30001DE0F508A3E0F509E4F50AF50B78081215
:10BB40001A837A007B01900375E0F912140C7404D7
:10BB500012181AEE6480807FEF5401600C79011294
:10BB60001382EEFAEF64018070EF5402600AC2AFF4
:10BB700075C9AB75C95B80FEEF5404600A1229C811
:10BB8000EEFAEF6404805290037CE06401704DEEA5
:10BB900054206048900376E014601214600F146023
:10BBA0000C14600924FD601114600E8027790012C6
:10BBB0000B667901120B66801B793F9003A4E0FAB3
:10BBC00075F00AA4CAA8F028FB74A62AFA74033BED
:10BBD000FB120C8CEE6420FAEFFB80047A007B00F1
:10BBE00002BE7FF582E43BF583E0F508A3E022EA9C
:10BBF0002409F582EB3401F583E02274F6121874FF
:10BC0000EA540F6004780180027800E8F98A088B12
:10BC100009740478081217E2E50829F50875090087
:10BC2000740478081217F1E5082408FAE43509FBD2
:10BC30001213288A088B09A808A909E8496009E8AD
:10BC40002404FAE439FB80047A007B0002C3967472
:10BC5000F6121874EA2405FA50010B1213288A0808
:10BC60008B09A808A909E8496009E82405FAE4391C
:10BC7000FB80047A007B0002C396C082C083C2AFFF
:10BC8000120DDCE5E170FC75E101120BCC75E1F100
:10BC9000120E12120BC07907120E847901120E8A4D
:10BCA0007902120E3C120E5A120E787900120E7E94
:10BCB0007901120E7E90821F1216E6120E24900455
:10BCC000CCE4F0A3F0A3F09004D07407F09004CF7C
:10BCD0007403F09004D5E4F09004D4F09004F5F0EF
:10BCE000120C74120D28120C927900120E9090040E
:10BCF000B074FF12BD4D741FF0906012E4F0A3F019
:10BD0000906063F0752100900376F09004B5F09098
:10BD100004B6740CF09004B7E4F09004B804F0900A
:10BD200004B9E4F09004BA04F09004BBE4F090038A
:10BD300078F0A3F090037BF090037C04F0900392E2
:10BD400004F090051BE4F0D2AFF902C6C8F0A3F0EE
:10BD5000A3F0A3F0A322C082C08390036312BEB9F4
:10BD600090036412BEE3F090036512BEEE9003668A
:10BD700012BEF490036712BEF990036812BEE3A3EB
:10BD8000A3A3A302C6C5C082C0838A828B83E0902E
:10BD9000036912C70BE090036A12BEB390036B12E3
:10BDA000C71290036C12C71E90036D12C719E09062
:10BDB000036E02C6C5C082C083120BEAE9F97005A2
:10BDC000120E5A790002C6C874F7121874EAFEEB14
:10BDD000FF8908120BEAE9F9702CE508600A740182
:10BDE0006508600A7912801E7C00790080047C005E
:10BDF0007901EEFAEFFB120E60E9F8740368700443
:10BE000079078002790002C5BD74F6121874EA4BF6
:10BE1000600EEC4D600A740A12185012C6FF7004CE
:10BE20007912800F7808121A87120CD47402121833
:10BE30001A790002C39674F4121874EAFEEBFF89B3
:10BE400008900376E064096014E0640A600FE0641F
:10BE50000B600AE0640C6005E0640D7004790C80EE
:10BE60001E120D528B0BEA450B700BA908EEFAEF70
:10BE7000FB120CC28009900378E04440F0790D7FFA
:10BE80000402194674F6121874EA4B6003E9700450
:10BE90007912801CEAFEEBFF8908120CBCE98E8245
:10BEA0008F83F0A3AE82AF831508E50870EC7900AC
:10BEB00002C39612C70BA3E022E08A828B83F02292
:10BEC000C082C083E9F8740168700B90051B74018F
:10BED000F0790002C6C8E8700690051BE480F1798D
:10BEE0001280F012BEE722E08A828B83A32212BE68
:10BEF000E7A3F02212BEFFF02212BEFFA3F022122F
:10BF0000BEE7A3A322C082C083900376E0640C70D6
:10BF10001290618EE0F874806870258C828D837435
:10BF20007F8029C3EB940F5013EA4B700F9003A945
:10BF3000E070047902801890040E80D87912800F86
:10BF400090037AE0F9E8C3998C828D83F07900023E
:10BF5000C6C874F7121874E9FE74056E601E741377
:10BF60006E601974146E601474156E600F741A6E1E
:10BF7000600A74296E6005743B6E7026C3EB940FE3
:10BF80005020EA4B701C9003A9E0700479028026CF
:10BF900090040FE064017016A3E064027008793A1F
:10BFA00080147912801012BFB9120C5C800612BF87
:10BFB000B9120C50790002C5BDEE90049AF09003BE
:10BFC000C3E4F0A3F079027AA67B032274EC121882
:10BFD00074EC4D6014E9C3941C500E741412185084
:10BFE000E0F8600A7401686005791202C1E5C3EBEC
:10BFF000940F5019EA4B70159003A9E07004790270
:10C00000800D9004B6E0700A790702C1E57912024A
:10C01000C1E5EC24FEFCED34FFFD8C828D83E9F05C
:10C02000E87004740280027401A3F0EC24FEFCEDBD
:10C0300034FFFD7A097B04120CAAA9A8C2AF9004B0
:10C04000B6E014F0E9A2E7E433F8E9A2E792AF9092
:10C050000376E064086008E06407600302C1E390CF
:10C0600003A4E0600302C1E379007AA67B03121FF8
:10C070000A9061D0E0700302C1E39004BAE0640169
:10C08000600302C1E39003C312C1FF700302C1E366
:10C09000A2AFE433F50CC2AF120D528A088B09AE81
:10C0A00008AF09120DEE8A088B098C0A8D0B8A10D5
:10C0B0008B118C128D1390821378101216547810F5
:10C0C000121A838E828F83A3A31216E61226F474AB
:10C0D0000412181AE96401600302C1DD9003D4E080
:10C0E0002406F510A3E03400F511E4F512F51378F9
:10C0F0000879101216417808121A838E828F83A352
:10C10000A31216E61226F4740412181AE9640160E8
:10C110000302C1DDEE2408F50EE43FF50F850E8223
:10C12000F583121A9AAA08AB09AC0AAD0B12275074
:10C13000740412181A9003D4121A9E1223AC7402BB
:10C1400012181A8A088B098C0A8D0B741078081241
:10C1500016099003AF12C1EA9003ABE8F0A3E9F02F
:10C16000E82CF8E93509F9A3E8F0A3E9F0850E8297
:10C17000850F83C082C08312C1F012151AD083D0FC
:10C1800082780812165490822378081216A28E82A2
:10C190008F83A3A378081216D712C1F0121641900C
:10C1A0008227780812165490822378081216A2EE7D
:10C1B0002416F582E43FF583E508F0A3E509F0A332
:10C1C000E50AF0A3E50BF09003DBE09003DAF07AE8
:10C1D000A67B03121C66EEFAEFFB120D34E50CA2EF
:10C1E000E092AF79007F0C021946E0F8A3E0F92253
:10C1F0009003D4E0F510A3E0F5117808791022E05F
:10C20000F8A3E0F9E84922F0A3E4F0A32274F612BF
:10C210001874EAFEEBFF8909740B121850E0F50858
:10C22000740C12185012C1EAE509604874016509DE
:10C230006012740365096026740265096020740445
:10C240006509707DE8496079E50860067401650854
:10C25000706F74036509600674026509702AEE2424
:10C2600060FAEF12C3A65059EC2460FAED12C3A68F
:10C270004016804DEE24E0FAEF12C39B5043EC24AD
:10C28000E0FAED12C39B5039C3EC9EED9F4032742F
:10C290000A121850E0FC600574016C7024740F12CF
:10C2A0001850E0FA600F74016A600A74026A60054F
:10C2B00074036A700C740E121850E0FB74075B7004
:10C2C00005791202C3969004CCE064017005790CE4
:10C2D00002C39674075B9004D0F0E5099004CFF098
:10C2E000EA9004D1F0EC9004BE702FE4F090036368
:10C2F000E09004BFF0900364E09004C0F090036508
:10C30000E09004C1F0900366E09004C2F0900367EF
:10C31000E09004C3F0900368802E7401F0900369EC
:10C32000E09004BFF090036AE09004C0F090036BCB
:10C33000E09004C1F090036CE09004C2F090036DB3
:10C34000E09004C3F090036EE09004C4F0740165C3
:10C3500009700B12C3B19004CDE4F0A380357404CE
:10C360006509700512C3B18023EA70047900801951
:10C3700074016A70047901801074026A7004790291
:10C38000800774036A70057903120E669004CDEE7F
:10C39000F0A3EFF079007F0202194634FFFBC3EAF5
:10C3A00094E1EB943F2234FFFBC3EA9461EB943FAA
:10C3B00022E508A3F088828983E09004C612C3E6D0
:10C3C000E09004C712C3E6A3E09004C812C3E6A33A
:10C3D000A3E09004C912C3EDE09004CA12C3EDA318
:10C3E000E09004CBF022F088828983A322F0888237
:10C3F0008983A3A3A3A32274F6121874E9FEC3943D
:10C4000020500BEE9004D5F0601EEA4B70047912B8
:10C41000801E12C5FE121A87EAFCEBFD7AD67B0459
:10C420001212A4740212181A9004D47401F0790044
:10C4300002C39674F4121874E9FF900376E064095D
:10C44000700302C53DE0640A700302C53DE0640B61
:10C45000700302C53DE0640C700302C53DE0640D4D
:10C46000700302C53D9004CFE0601664016012E0E5
:10C470006403600DE064026008E06404600302C5C8
:10C48000B09004BEE060076401600302C5B0900490
:10C49000CFE064036005E0640270109004CDC3E057
:10C4A00094A0A3E09400500302C5B0EF700302C54E
:10C4B0004914600302C5B09004CCE06401607E9032
:10C4C00004CFE0600964016005E064047008120DA7
:10C4D0005EE954FD70677901120D469004BCEAF0E4
:10C4E000A3EBF09004CC7401F0900376E070551249
:10C4F0000DEE8A088B098C0A8D0B90822B7808121E
:10C50000165490822378081216A29004BC12C5B467
:10C51000A3A378081216D79004BCE0F8A3E0C824BF
:10C5200006F582E438F583E4F0A3F0120BF0E9603D
:10C53000107ABC7B04120D4C9004CCE4F07921807D
:10C5400005120D2E790002BE7F9004CCE060EEA2B1
:10C55000AFE433FEC2AF7ABC7B04120D4C9004CC26
:10C56000E4F0120D64E97041120DDC906182E0C2CA
:10C57000E6F0E5E170FC75E1017591BF75E1F190C0
:10C58000037CE0640170187A207B00900375E0F969
:10C590001214187A207B00900375E0F91213047AC4
:10C5A00000900375E0F9121388EEA2E092AF809438
:10C5B00079128092E0F8A3E0F5838882227F01025D
:10C5C000194674F6121874E9FEC39420500BEE90CD
:10C5D00004F5F0601EEA4B70047912801E12C5FE4D
:10C5E000121A87EAFCEBFD7AF67B041212A474029D
:10C5F00012181A9004D47401F0790002C396E0F581
:10C6000008750900780822C082C083900376E06430
:10C61000076004790C805CEC4D605BC3EB940F50B9
:10C6200055EA4B70519003A9E07004790280447A76
:10C63000008C828D83E0C0E0EAF8C3E498F895E0CE
:10C64000F9747328F582740439F583A3A3A3A3D0E6
:10C65000E0F00A8C828D83A3AC82AD83EAC3941090
:10C6600040CF9004797401F079057AA67B03120C0F
:10C6700050790002C6C8791280F9C082C083900345
:10C6800076E064076004790C8039C3EB940F502086
:10C69000EA4B701C9003A9E0700479028025900495
:10C6A00082E06401700E90049A7406F07902800AA8
:10C6B0007912800FA37406F0790D7AA67B03120C11
:10C6C0005079008003F07900D083D0820201327962
:10C6D0000C020132C082C083E9F890051CE07004AE
:10C6E000790C800EE8600E14701190037B7401F0D9
:10C6F000790002C6C890037BE480F4791280F3E0ED
:10C70000F508A3E0F509E508450922F08A828B8344
:10C71000A32212C70BA3A3E02212C723A32212C78E
:10C7200023E022F08A828B83A3A3A3A32290036336
:10C73000E090036FF0900364E0900370F090036565
:10C74000E0900371F0900366E0900372F09003674D
:10C75000E0900373F0900368E0900374F02274F7A4
:10C7600012187474FF121804EA4B60078A828B83D4
:10C770007401F0EC4D60099003A3E08C828D83F08E
:10C78000740A12185012C1FF700302C86A7F007E3B
:10C790000080787401F0E0C0E0E82CF582E439F51F
:10C7A00083D0E0F0EA240312BBF2C0E012C874D0D8
:10C7B000E0F00FEA240412BBF2C0E012C874D0E02B
:10C7C000F00FEA240512BBF2C0E012C874D0E0F00A
:10C7D0000FEA240612BBF2C0E012C874D0E0F00FDA
:10C7E000EA240712BBF2C0E012C874D0E0F00FEAEE
:10C7F000240812BBF2C0E012C874D0E0F00F12BBE4
:10C80000EFC0E012C874D0E0F00F0E9003A3E0FA7E
:10C81000EEC39A5055EEFAC3E4940F50EDEA70EA75
:10C820009003A9E060E4EE75F00AA4CAACF02CFB1A
:10C8300074A62AFA74033BFBEFFCE82CF582E4397A
:10C84000F583EEF074012CFC74012CFF8A828B833B
:10C85000E0FDA3E0F5838D82E06480851882851970
:10C8600083600302C793E402C7957900740112182C
:10C870001A02C5BDE82FF582E439F58322C082C0D3
:10C8800083EA4B60069003A312BEB902C6C674F6D3
:10C890001218747901120C808A088B0974FF6508DC
:10C8A000700474FF6509700479128002790002C374
:10C8B0009674EE121874890B8A0C8C0E8D0F750A03
:10C8C0000012C9A56005791102C97F7412121850AF
:10C8D000E0F508A3E0F509E508450960307A217B19
:10C8E0000012055AE5082415FEE43509FF8E828FF3
:10C8F00083E0C39AE49B40157A227B0012055A8E8E
:10C90000828F83E0F8C3EA98EB94005004790280A8
:10C910006E7A637B00121370900716EAF0A3EBF0B7
:10C9200012C9A57004791380567C637D00790012CA
:10C9300012BC12C984E4F0900716E012D00CE50B8B
:10C9400012C999E50C12C999A3E50EF0A3E50FF001
:10C9500012D45DE508F0A3E509F012D448E4F0A391
:10C96000F012D46FE4F0E50B6006120F80E9F50ACF
:10C9700012C9847401F0E50A6003120FB6A90A7F98
:10C980000A02194612C9882212C98C22900716E0A1
:10C99000F8A3E0F5838882A322F012C99E2212C96F
:10C9A0008CA322E9FE90071612CD7CE8492274F68A
:10C9B0001218747E0012C9A5601412D479E0F874BC
:10C9C0000268600F740368600A7404686005791275
:10C9D00002CA7412CA856C7003A3E06D6005790207
:10C9E00002CA747508108E097808121A87EAFCEBDF
:10C9F00012CA771212A4740212181A79109007162C
:10CA0000E0242BFAA3E03400FB120EF6900716E0A8
:10CA1000241BF508A3E03400F5097808121A8712E0
:10CA2000D0DD12CA77120F6E740212181A90071610
:10CA3000E0240112D43DE0FA900716E0FBA3E0F5F4
:10CA4000838B82E0600D74036A7027888289837407
:10CA500002801974046A7009888289837402F080E4
:10CA60001174036A700C888289837405F0120F8632
:10CA7000E9FEEEF902D51AFD900716E02407FAA3A5
:10CA8000E03400FB22900716E0F8A312CA8F22E0E0
:10CA9000F5838882A3A3A3E022C082C083900718F5
:10CAA00002CDB874F712187412C9A3601312CA8B9E
:10CAB0006A7003A3E06B700874016E7003120FB606
:10CAC0007F01021946C082C0837917120FBC02CDC4
:10CAD000BD74F412187474ED121804EAF8EBF985B9
:10CAE0001882851983E4F088828983A3A3A3A3A372
:10CAF000A312CFC08A828B83E0F508E82402FEE40B
:10CB000039FFE50814602714602414603A14605A51
:10CB100014606114606814606F14607614607D1492
:10CB2000700302CBA614700302CBB002CBBA74011F
:10CB300012186A121016E9F87412687014851882B7
:10CB40008519837406807B740112186A121022E919
:10CB5000F8E8600302CC0175090712CFBC120ABEC7
:10CB6000EA4B706175080802CBF8740112186A125A
:10CB7000102E80DB740112186A12103A80D17401F1
:10CB800012186A12104680C7740112186A121052E5
:10CB900080BD740112186A12106480B374011218F7
:10CBA0006A12106A80A9740112186A121076809FA6
:10CBB000740112186A121082809585188285198373
:10CBC0007407F08045EA240BF582E43BF583E064CA
:10CBD00008700590071A800390071812C9A86015FD
:10CBE00012D00E12CD70600D740112186AA90812CD
:10CBF0001872E9F509850908851882851983E50801
:10CC0000F0851882851983E0600CAC18AD1912CF3D
:10CC1000BC120F5C8003120ED2741312181A7F0418
:10CC200002194674F6121874ECFEEDFF750834759F
:10CC300009107808121A87790212108874021218E3
:10CC40001AE9F5088E828F83E0F9120FBCA9080259
:10CC5000D51A74F4121874EAFEEBFF890812C9A5FC
:10CC6000700302CD4112CA8B6E7003A3E06F6003A4
:10CC700002CD41900716E0240108A3E03400F9E852
:10CC8000FAE9FB8A828B83E0F8740668600302CDC0
:10CC90002E12CEE5607F90071712D73512CD7C900B
:10CCA0000716E0FCA3E0CC2418F582E43CF583E011
:10CCB000FCA3E0FDE82413F582E439F583E0F8A253
:10CCC000E050168C828D83A3A3A3A3A3E0A2E0501F
:10CCD000088A828B8374078034E8540260168C8241
:10CCE0008D83A3A3A3A3A3E0540260088A828B834D
:10CCF00074098019E8540460178C828D83A3A3A360
:10CD0000A3A3E0540460098A828B83740BF080151E
:10CD100090071A800390071812C9A8600812CD6BFB
:10CD2000600312187212CDB1703C7900800E74113C
:10CD300068700EE5086003750832A908120FBC8000
:10CD400025E5087018EEFAEFFB120ABE8A828B8383
:10CD5000E58245836007A3A3A3E0D2E4F0EEFAEFF7
:10CD6000FBA90812063E790102CC1E12D012A3A321
:10CD700012CD7C88828983E582458322E0F8A3E096
:10CD8000F922C082C08312C9A5602412D064700544
:10CD9000900718800390071A12C9A8600812CD6B7B
:10CDA000600312187212CDB170057900120FBC80A9
:10CDB0000C12C988E0641222EAF0A3EBF0D083D011
:10CDC0008202013274E812187474EB1218048A1685
:10CDD0008B178C148D1512C9A57005791202CEDB44
:10CDE00012D06F120ABE8A088B09AE08AF09EE4F47
:10CDF0007005791402CEDBAA18AB19120FC8EE2405
:10CE000005F512E43FF513EE2404F510E43FF511A7
:10CE100012CEE5602FA818A919880C890D12D464C8
:10CE2000FEA3E0FF1205A2E9F50E79001205A88A1B
:10CE3000088B09851082851183E0F50F85120A851C
:10CE4000130B803690071712D46AF50CA3E0F50D8A
:10CE5000A818A91988088909AE08AF091205A2E91E
:10CE6000F50F79001205A88A0A8B0B8510828511AF
:10CE700083E0F50E851208851309740E12186AEE08
:10CE8000FAEFFB12100A740712186AAA0CAB0D1203
:10CE90001004742D121850121A9E780A121A87E57F
:10CEA0000FF50A780A121A8B7808121A87740E1274
:10CEB000185A880889097808121A87741712185A9C
:10CEC000880889097808121A87A90EAC14AD15AA2A
:10CED00016AB17120EE4740B12181A741512181AE6
:10CEE0007F10021946900716E0F8A312D012E02234
:10CEF00074F612187474F7121804EAFEEBFF8C082B
:10CF00008D0990071812C9A8700302CFB712D00E6E
:10CF100012C9A8700302CFB78C828D83E0C0E07481
:10CF200002121850D0E0F08C828D83A3E0C0E07430
:10CF300003121850D0E0F08C828D83A3A3E0F97423
:10CF400004121850AA82AB83120F02850882850949
:10CF500083A3A3A3E0C0E07406121850D0E0F085CC
:10CF60000882850983A3A3A3A3C082C08374071288
:10CF70001850AC82AD83D083D0827402121717741C
:10CF80000212186A7901EEFAEFFB90071812CEE848
:10CF900012D00C121872E9851882851983F0601777
:10CFA0007401121850E9F0740112186A8E828F838E
:10CFB000A312CFC0120F5C740902D5178E828F8323
:10CFC000E0FAA3E0FB2274F7121874890890071A9C
:10CFD00012C9A8603212D00EA3A3A3A312CD7CE87D
:10CFE000FEE9FFEE4F6020740B121850121A9E7467
:10CFF0000B121850121A9EA9088E828F8312187273
:10D00000740412181A8002790202CAC0F8A312D05E
:10D010001222E0F58388822274F612187474F912D1
:10D02000180412C9A56033AA18AB19120FC812D080
:10D030006912D061600875080475091080067508CA
:10D040000A7509107808121A87740212186A79078B
:10D05000121088740212181A80027901740702D51E
:10D060001790071712D012E022900716E0F8A312CB
:10D07000CA8FFAA3E0FB2274F612187474F0121827
:10D08000047508107509007808121A87900716E0D1
:10D09000241BFCA3E03400FD74021218621212A4D7
:10D0A000740212181A75081C75091002D4FE74F661
:10D0B00012187474F01218047508107509007808B5
:10D0C000121A8712D0DDFD74021218621212A474B3
:10D0D0000212181A75082875091002D4FE90071656
:10D0E000E0242BFCA3E034002274F01218748A08A8
:10D0F0008B09750A0012D44812C9A8600302D3F440
:10D100007A077B00121370900716E0241812D43DA2
:10D11000EAF0A3EBF088828983E0FA4B700302D334
:10D12000EF12D45DE0FEA3E0FF750C07750D0078EB
:10D130000C121A87AC08AD091212A4740212181A44
:10D1400012CEE5600302D361EE2413FCE43FFD90B0
:10D15000071712D46A2405F50CA3E03400F50D8CF2
:10D16000828D8312CD7C850C82850D83E0A2E092B6
:10D17000F0E8A2E020F001B35007A2E0E433FA8027
:10D18000027A00E854FE4AF88C828D8312D3FEC3E3
:10D1900013A2E092F0E8C313A2E020F001B3501212
:10D1A000E854026004D2F08002C2F0A2F0E433FA44
:10D1B00080027A00E854FDF8EA25E0FAE433FBE85F
:10D1C0004AF8E94B12D41E543FA2E092F0E8131340
:10D1D000543FA2E020F001B35013E854046004D29D
:10D1E000F08002C2F0A2F0E433F50E8003750E0069
:10D1F000750F00E854FBFAE9FB7402780E1217F180
:10D20000EA450EF8EB450F12D41E13541FA2E0920C
:10D21000F0E8131313541FA2E020F001B35013E8F9
:10D2200054086004D2F08002C2F0A2F0E433F50E9C
:10D230008003750E00750F00E854F7FAE9FB7403DC
:10D24000780E1217F1EA450EFA12D40AA3E0A2E012
:10D2500092F0EBA2E020F001B3501154016004D22F
:10D26000F08002C2F0A2F0E433F880027800EB54C0
:10D27000FEFBE8F9EB4912D42A7409780E1217E282
:10D28000E50EA2E092F08A0E8B0F7409780E121749
:10D29000E2E50EA2E020F001B35013EB540260046B
:10D2A000D2F08002C2F0A2F0E433F50E8003750ED6
:10D2B00000EB54FDFB7409780E1217F1EB450F12C9
:10D2C000D42A740A780E1217E2E50EA2E092F08AD0
:10D2D0000E8B0F740A780E1217E2E50EA2E020F012
:10D2E00001B35013EB54046004D2F08002C2F0A2E8
:10D2F000F0E433F50E8003750E00EB54FBFB740A6B
:10D30000780E1217F112D40AE0F50CA3E0F50D74B3
:10D310000B780C1217E2E50CA2E092F08A0C8B0D50
:10D32000740B780C1217E2E50CA2E020F001B35068
:10D3300013EB54086004D2F08002C2F0A2F0E43390
:10D34000F50C8003750C00EB54F7FB740B780C1292
:10D3500017F1EAF8EB450DF98C828D83E8F0A3E92B
:10D36000F0850882850983A3E0600F8E828F83A3F6
:10D37000E0600712D46F7405806D8508828509838B
:10D38000A3A3E054047015EE2412F582E43FF58364
:10D39000E0A2E2400712D46F7401804B12CEE58EFA
:10D3A000828F83600CE0FA850882850983E0F8802B
:10D3B0000AE0F8850882850983E0FAEAC3940550FB
:10D3C00029E8C394055023E875F005A4F8A9F07482
:10D3D0005028F8748039F9E82AF582E439F583E0B9
:10D3E000C0E012D46FD0E0F0800D750A1880087587
:10D3F0000A138003750A11A90A7F08021946F0A3CF
:10D40000E9F0850C82850D83E022EB450FFB8C82D1
:10D410008D83EAF0A3EBF0850C82850D8322F98CD5
:10D42000828D83E812D3FE131322FB8C828D83EA54
:10D43000F0A3EB12D401F50EA3E0F50F22F8A3E060
:10D440003400F98882898322900716E0F8A312D469
:10D450005222E0C82418F582E438F5832212C99ECE
:10D46000A3A3A322900716E0F8A312D452E02290BF
:10D470000716E0F8A312D47922E0C8241AF582E452
:10D4800038F5832274F612187475084075091078FF
:10D4900008121A8779111210887402807A74F612B1
:10D4A000187474EE121804EAFEEBFF8518828519D1
:10D4B00083ECF0A3EDF07508087509007808121ADE
:10D4C00087741E121850E0FCA3E0FD74041218507B
:10D4D000AA82AB831212A4740212181A75084C7532
:10D4E00009107808121A87740212186A790BEEFA7A
:10D4F000EFFB121088740212181A7412801978083F
:10D50000121A87740212186A791112D069121088DF
:10D51000740212181A741012181A7F020219467433
:10D52000F612187475085875091002D48F74F41225
:10D53000187474F9121804EAFEEBFF851882851935
:10D5400083E9F0750A06750B00780A121A877403CE
:10D55000121850AA82AB831212A4740212181A7500
:10D560000A5E750B10780A121A87740212186A790B
:10D5700008EEFAEFFB121088740212181A740702F0
:10D58000CC1B74F612187475087075091002D48FCC
:10D59000C082C08312C9A56050E0C8241812D5EF1C
:10D5A000600312137612D666245B12D5EF60031265
:10D5B000137612D666245D12D5EF6003121376122D
:10D5C000D666245F12D5EF600312137612D6662456
:10D5D0006112D5EF600312137690071612CFC012B6
:10D5E0001376900716E4F0A3F0120ED802CDBDF525
:10D5F00082E438F583E0FAA3E0FBEA4B2274F712E9
:10D60000187412C9A3605CE0C82461F582E438F59F
:10D6100083121A9E12D666245FF582E438F58312CF
:10D620001A9E12D666245DF582E438F583121A9E9E
:10D6300012D666245BF582E438F583121A9E12D660
:10D64000662417F582E438F583E0FB12CA85FCA353
:10D65000E0FD12D061FAEEF9120650740812181AA1
:10D66000120FB602CAC0900716E0F8A3E0C822C0A5
:10D6700082C083791090071612D5F5603512D464F4
:10D68000FAA3E0FBEAFCEBFDEC4D602612D45D1240
:10D69000D5F5601EEA2415F582E43BF583E0F88CAD
:10D6A000828D83A3A3A3A3E0FAC3985003EA800169
:10D6B000E8F902CDBD74F6121874EAFEEBFF12C948
:10D6C000A5606612D73512C9A8605E8808890988E6
:10D6D000828983E08E828F83F088828983A3E08EA3
:10D6E000828F83A3F0E82412F582E43509F583E004
:10D6F000F9EE2402FAE43FFB120F02E5082415F5C7
:10D7000082E43509F583E08E828F83A3A3A3A3F07F
:10D71000E5082413F582E43509F583EE2405FCE4DD
:10D720003FFD740212171780097C077D00790012F3
:10D7300012BC02D51A12D012A3A3A3A3A322C082A3
:10D74000C083900552E4F090055174FFF090056E8F
:10D75000E4F090056D74FFF090054EF090054DE4F7
:10D76000F090054CF090054FF0A302E17274F012B6
:10D77000187490054FE0F50AA3E0F50BE50A450B98
:10D780007006120BD202DA82850A82850B83E014BE
:10D79000601814601524FE601124C4700302D8D0F0
:10D7A00024C0700302D8D002DA82E0F9120D408A58
:10D7B000088B09AE08AF099003A3E06074120C7ADD
:10D7C00012DA9DAC08FDEEFAEFFB120D3AE9F50E08
:10D7D0007402650E60468E828F83E06401600302EE
:10D7E000DA82EE650A7003EF650B6003120BF0E559
:10D7F0000E7026120DEE8A0C8B0D8C0E8D0F908202
:10D800002B780C121654908223780C1216A28E825A
:10D810008F83A3A3780C1216D702D96212DA8D1265
:10D820000D888E828F83E0FA9003A4F0790202D9EA
:10D83000B2EE650A7003EF650B700302DA7F8E8229
:10D840008F83E06401600302DA82120BF0120DEEA6
:10D850008A088B098C0A8D0B90821778081216544F
:10D860007808121A838E828F83A3A31216E61226DB
:10D87000F4740412181AE97054120DEE8A088B0918
:10D880008C0A8D0B90822B78081216549082237884
:10D89000081216A28E828F83A3A378081216D7903F
:10D8A0000376E0640270238E828F83A3A37808122C
:10D8B00016C890826F780812165490822378081246
:10D8C00016A212DA871216D7800312E11B02DA754C
:10D8D0009003A3E0700302D9CD120C7A12DA9D9066
:10D8E00003A4E0F875F00AA4C8AAF02AF974A628DF
:10D8F000F50A740339F50B90054DE054076076A3E3
:10D90000E0F9120D408A0E8B0FAE0EAF0FAC08ADD2
:10D9100009120D3AE9F50E7402650E6058850A8207
:10D92000850B83A3A3A3A3E0F9120D828E828F83BC
:10D93000E064017040120BF0E50E7026120DEE8AC5
:10D940000C8B0D8C0E8D0F90822B780C1216549030
:10D950008223780C1216A28E828F83A3A3780C12D6
:10D9600016D7850882850983A3A378081216C89064
:10D97000829302DA5DE50C650A7004E50D650B60C3
:10D980002A850A82850B83A3A3A3E0600F850A8200
:10D99000850B83A3A3A3A3E0F9120D8212DA8D12E3
:10D9A0000D888E828F83E09003A4F079029003A407
:10D9B000E0FA75F00AA4CAA8F028FB74A62AFA7443
:10D9C000033BFB121F0AAA08AB0902DA7F90054D40
:10D9D000E05407700302DA82A3E0F9120D408A08CE
:10D9E0008B09AE08AF098E828F83E0640160030269
:10D9F000DA82120BF0120DEE8A088B098C0A8D0B5D
:10DA000090821778081216547808121A838E828F23
:10DA100083A3A31216E61226F4740412181AE970EE
:10DA200054120DEE8A088B098C0A8D0B90822B788C
:10DA30000812165490822378081216A28E828F83C1
:10DA4000A3A378081216D7900376E0640270238EA1
:10DA5000828F83A3A378081216C890826F78081269
:10DA6000165490822378081216A212DA871216D75B
:10DA7000800312E11B90054E7401F0EEFAEFFB12E9
:10DA80000D347F0802194612DC00780822E50C24C8
:10DA900004FEE4350DFF8E828F83E0F922E9F875EC
:10DAA000F00AA4C8AAF02AF974A628F50C74033960
:10DAB000F50D850C82F583E0F508A3E0F5092274E5
:10DAC000F0121874EAFEEBFFEE2402F8E43FF98846
:10DAD000088909EE2406F8E43FF9880A890B888250
:10DAE000F583121A9E8508828509831216E6120DA7
:10DAF000CA740212181A850A82850B83121A9E852F
:10DB000008828509831216E6120DBE740212181AD5
:10DB100012DC001216E6120DD08E828F83E0644074
:10DB2000701BEE2412F8E43FF988828983E090604C
:10DB300064F088828983A3E09060658006906064C9
:10DB4000E4F0A3F090054FEEF0A3EF12E11012E520
:10DB500099121872906054E412DC0AA312DC0A9045
:10DB60006182E0C2E6F07591BF12E106E0640170E7
:10DB700003120E0CE5E170FC12E0F6E0F46003E045
:10DB8000F5E112E100F090037CE06401706F120D8A
:10DB9000EE8A088B098C0A8D0B7808121A838E8204
:10DBA0008F83A3A31216E6122750740412181A8A40
:10DBB000088B098C0A8D0B908253780C1216C8784A
:10DBC00008790C12151A74037808121609E508244E
:10DBD000F4F508E5093401F50990051CE06003122D
:10DBE000135EE4F50AF50B7808121A837A207B009D
:10DBF000900375E0F912140C740412181A02DA82F8
:10DC0000EE240EF582E43FF58322F0A3F0A3F0A307
:10DC1000F0A3F0A3F02274EC121874EAFEEBFF8C70
:10DC2000088D09EE4F700302DCCE120DEE8A0C8BCC
:10DC30000D8C0E8D0F908213780C12165490822347
:10DC4000780C1216A290824FC082C083780C121AF0
:10DC500083850882850983A3A31216E612275074D0
:10DC60000412181A8A108B118C128D13D083D08253
:10DC700078101214FB5057850882850983A3A37876
:10DC8000081216C890827B78081216547808121A67
:10DC9000838E828F83A3A31216E61226F4740412D5
:10DCA000181AE9702990824B780C121654780C12CD
:10DCB0001A838E828F83A3A31216E61226F47404AD
:10DCC00012181AE97004790080067901800279023D
:10DCD0007F0C02194674F0121874890874FF6508E5
:10DCE000600302DD9290054DE05407700302E011DD
:10DCF0007904120D58E96401702C7800900551E008
:10DD000064047006A3E064016016780190056DE07C
:10DD100064047006A3E0640160067A007B0080035F
:10DD200012E01802E0157901120D58E96401702C17
:10DD30007800900551E064017006A3E0640160166C
:10DD4000780190056DE064017006A3E0640160064F
:10DD50007A007B00800312E01802E0157902120DB0
:10DD600058E96401702C7800900551E06402700657
:10DD7000A3E064016016780190056DE0640270060E
:10DD8000A3E0640160067A007B00800312E01802C1
:10DD9000E0157800900551E065087006A3E0640185
:10DDA0006016780190056DE065087006A3E06401D7
:10DDB00060067E007F008010E875F01CA4F8A9F0D2
:10DDC000745128FE740539FFA908120D58E9640141
:10DDD00070057509018003750900E50814601014C9
:10DDE000700302DEAD24FE700302DF2302E011792E
:10DDF00002120D58E9640170697800900551E064E1
:10DE0000027006A3E064016018780190056DE0647B
:10DE1000027006A3E064016008750A00750B0080BB
:10DE20000312E029E509A2E05031850A82850B83BF
:10DE3000A3A3780C1216C8908247780C1216547857
:10DE40000C121A838E828F83A3A31216E61226F475
:10DE5000740412181AE9700302E00BAA0AAB0B0251
:10DE6000E0157904120D58E96401702E78009005D0
:10DE700051E064047006A3E0640160187801900525
:10DE80006DE064047006A3E064016008750A007523
:10DE90000B00800312E02902DF58E509A2E05006DA
:10DEA000EEFAEFFB80047A007B0002E015790412A1
:10DEB0000D58E96401702D7800900551E0640470FC
:10DEC00006A3E064016018780190056DE0640470B9
:10DED00006A3E064016008750A00750B00807912E2
:10DEE000E02980747901120D58E9640170227800EC
:10DEF000900551E064017006A3E064016057780169
:10DF000090056DE064017045A3E064016047803DC9
:10DF1000E509A2E05006EEFAEFFB80047A007B00F0
:10DF200002E0157901120D58E964017067780090DC
:10DF30000551E064017006A3E06401601878019067
:10DF4000056DE064017006A3E064016008750A00D5
:10DF5000750B00800312E029E509A2E0400302DE10
:10DF60005B850A82850B83A3A3780C1216C8908266
:10DF700047780C121654780C121A838E828F83A362
:10DF8000A31216E61226F4740412181AE9600302AA
:10DF9000DE5B80777902120D58E9640170677800C2
:10DFA000900551E064027006A3E0640160187801F6
:10DFB00090056DE064027006A3E064016008750AD4
:10DFC00000750B00800312E029E509A2E04003027E
:10DFD000DE5B850A82850B83A3A3780C1216C8909A
:10DFE0008247780C121654780C121A838E828F8313
:10DFF000A3A31216E61226F4740412181AE9600399
:10E0000002DE5B8006E509A2E05006EEFAEFFB8037
:10E01000047A007B0002DA82E875F01CA4F8A9F00B
:10E02000745128FA740539FB22E875F01CA4F8A98C
:10E03000F0745128F50A740539F50B2274F612189C
:10E04000748909750800900552E0600302E0E1E57B
:10E050000875F01CA4F8A9F0745128FE740539FF66
:10E060008E828F83A37401F08E828F83E509F01274
:10E070000DEEEAF8EBF9ECFAEDFB8E828F83A3A3A9
:10E080001216FE8E828F83A3A3A3A3A3A3E4F0A3FF
:10E09000F012E11B12E0F67401F012E10012E1103F
:10E0A000E4F0A3F090054DE04509F090054CE00444
:10E0B000F06401600C748065096006744065097045
:10E0C00019E50875F01CA4F8A9F0745128F8740536
:10E0D00039F990054FE8F0A3E9F0E50812E019805E
:10E0E0001075080190056EE0700302E04F7A007B26
:10E0F000007F02021946EE2414F582E43FF58322E4
:10E1000012E106740122EE2415F582E43FF5832224
:10E11000F0EE241AF582E43FF5832212DC0074FF4E
:10E12000F0A3F0A3F0A3F022C082C0838A828B8385
:10E13000E0F8A3E0F98A828B83E4F0A3F088828977
:10E1400083A3F088828983E0F4F890054DE058F0CD
:10E1500090054CE014F0701490054FE4F0A3F0909B
:10E160000376F0FA900375E0F91213888005ED90BC
:10E1700061C6F0D083D082020132C082C083900594
:10E180004CE0600A90054FE0FAA3E0FB80047A00BF
:10E190007B0080DFC082C083E9FB7800900551E0FE
:10E1A0006B7016E875F01CA4F8A9F0745228F5827B
:10E1B000740539F583E0F9800B780190056DE06B0B
:10E1C00060E1790080ADC082C08390054DE0F980A8
:10E1D000A2C082C08390054C80F374F7121874EAD1
:10E1E000FEEBFF9061D0E0C0E0EE240012E323D00C
:10E1F000E0F09061D7E0F89061D512E356C0E012EC
:10E20000E273D0E0F09061D612E356F812E27AE8B9
:10E21000F070109061C5E0A2E45008E0A2E750035E
:10E2200012E285120E9C12E273E0701C12E27AE098
:10E2300070169061C5E0A2E4500EE0A2E75009120A
:10E24000E28512E2737480F075E1957A0080149093
:10E2500061D3E0C0E0EAF8EE28F582E43FF583D030
:10E26000E0F00AEE240012E33D40E475E1917F0105
:10E27000021946EE240112E3352212E27E22EE2438
:10E280000212E3352212E27E7480F02274F7121833
:10E2900074EAFEEBFF9061C8E0C0E0EE240312E3F5
:10E2A00023D0E0F09061CFE0F89061CD12E356C04A
:10E2B000E012E34FD0E0F09061CE12E356F812E3A3
:10E2C0002AE8F070109061C5E0A2E05008E0A2E3F7
:10E2D000500312E348120EA212E34FE0701C12E347
:10E2E0002AE070169061C5E0A2E0500EE0A2E35073
:10E2F0000912E34812E34F7480F0120EA87A0080EE
:10E30000149061CBE0C0E0EAF8EE28F8E43F12E3B5
:10E31000EAD0E0F00AEE240312E33D40E475E18127
:10E3200002E26EF582EF12E3382212E32E22EE248F
:10E330000512E33522F582EF3401F58322F582EFF1
:10E3400012E3FCF8EAC3982212E32E7480F022EE66
:10E35000240412E33522E0C398547F22C082C08394
:10E360009061C6E0FDE0540FF075E1917C008010F3
:10E37000ECF8EA28F582E43BF583E09061D2F00CFA
:10E38000EA240012E40140E8EA240212E3F5600402
:10E390009061D6F0EA240112E3F560049061D5F0B3
:10E3A00002E16EC082C0839061C6E0FDE054F0F0EF
:10E3B00075E1817C008010ECF8EA28F8E43B12E378
:10E3C000EAE09061CAF00CEA240312E40140E8EAB2
:10E3D000240512E3F560049061CEF0EA240412E310
:10E3E000F560049061CDF002E16EF9E82480F582D9
:10E3F000E439F5832212E3F922F582EB12E338E0E7
:10E400002212E3F9F8ECC3982274F412187412E59E
:10E410007E120D70EEFAEFFB120D6A750A80750B15
:10E4200000780A121A877C007D60EE2406FAEF3429
:10E4300001FB120CE0740212181A906195E0C0E022
:10E44000EE248612E323D0E0F0906196E0C0E0EE87
:10E45000248712E323D0E0F0906197E0C0E0EE243F
:10E460008812E323D0E0F0906198E0C0E0EE2489C8
:10E4700012E323D0E0F07F0402194674F2121874FC
:10E4800012E57E120D7CEEFAEFFB120D76750C098B
:10E49000750D00780C121A87EE2406FCEF3401FD8E
:10E4A0007A007B60120CE0740212181A750C18784E
:10E4B0000C121A87EE2410FCEF3401FD7A0A7B60FF
:10E4C000120CE0740212181A750C2C780C121A87B0
:10E4D000EE245AFCEF3401FD7A547B60120CE07498
:10E4E0000212181AEE2486F582EF12E576EE2487E2
:10E4F000F582EF12E56EEE2488F582EF12E566EE06
:10E500002489F582EF12E55FF0E50875F00AA4C5ED
:10E5100008A8F028F50974A62508F58274033509C2
:10E52000F58312E599E064807007900376740880A3
:10E530001E9015F112E5A212E5A27422F0A3740D4B
:10E5400012E5A87494F0A3740DF09003767407F0AC
:10E550009015FF12E5B3A312E5B37F060219461228
:10E56000E3FC9061982212E3FC906197F02212E3A1
:10E57000FC906196F02212E3FC906195F0228908EC
:10E58000A808E875F08AA4C8AAF02AF9748928FEB8
:10E59000740539FFEEFAEFFB22E0F8A3E0F583887B
:10E5A0008222748EF0A3740DF0A3748EF0A3740D08
:10E5B000F0A322742212E5C112E5C1F0A3740DF09C
:10E5C00022F0A3740DF0A374222274F2121874E9DD
:10E5D000FF8C088D097E008F0A8E0B8A0C8B0D78BC
:10E5E0000C121ACB01031A3BE91FE636E64DE63B57
:10E5F000E965E629E73AE773E7B5E7D2E7EFE70E23
:10E60000E82BE83BE948E88AE8A6E8BBE8CAE8E482
:10E61000E83BE93BE93BE93BE900E93BE9AEE6746D
:10E62000106F600302E937750A10780A121A877AA8
:10E630007D7B1402E80374106F600302E937750AEA
:10E6400010780A121A877A8D7B1402E80374046F1B
:10E65000600302E9378C828D831216F290149D12AA
:10E6600016FE02E95974016F600302E9379014A79E
:10E67000E06401700302E7249016C4E0F88C828DF8
:10E6800083E09016C4F0E86010E0600302E959905E
:10E69000147BE06402704B8051E0700302E95990F2
:10E6A000147BE06401606EE0640470618067740153
:10E6B0006F600302E9379016C4E06401606690144D
:10E6C000A7E0F88C828D83E09014A7F0E86026E044
:10E6D000600302E95990147BE06403600DE0640775
:10E6E0006008E06405600302E95990147AE0F912C9
:10E6F000066802E959E0700302E95990147BE0646E
:10E70000016012E06404600DE064066008E06405E6
:10E71000600302E9597A017B0090147AE0F9121241
:10E72000FE02E9597E1202E95974026F600302E9A0
:10E730003712F2409016C502E8DEEFC39420400382
:10E7400002E9377C1F7D0079007AC87B161212BC63
:10E75000780A121A87AC08AD097AC87B161212A47F
:10E76000740212181AEF9016C7F07CC87D16FB7A57
:10E77000018037EFC39420400302E9377C1F7D00FE
:10E7800079007AA97B141212BC780A121A87AC0895
:10E79000AD097AA97B141212A4740212181AEF9010
:10E7A00014A8F07CA97D14FB7A0090147AE0F91289
:10E7B000066202E95374016F600302E9378C828DAF
:10E7C00083E0F8C39405400302E937E89014C802D7
:10E7D000E8FD74016F600302E9378C828D83E0F8F5
:10E7E000C39404400302E937E89014C902E8FD74B9
:10E7F000066F600302E937750A06780A121A877AEB
:10E80000CA7B141212A4740212181A02E959740174
:10E810006F600302E9378C828D83E0F8C39408406F
:10E820000302E937E89014D002E8FD74016F600339
:10E8300002E9378C828D83E0F8C39404400302E937
:10E8400037E89014D102E8FD74026F600302E937E3
:10E8500012F2409014D212F228E849700302E959EA
:10E8600090147BE06406600302E9599014D212F21E
:10E870007A7808121A837A027B0090147AE0F912EF
:10E88000140C740412181A02E95974016F6003021F
:10E89000E9378C828D83E0F8C39402400302E937A4
:10E8A000E89014DA805712E974600302E93712E93C
:10E8B00068400302E9379016E9803E12E9747077E8
:10E8C00012E96850729016EB802F12F24074026FBA
:10E8D0007065C3E894F4E99401505C9014DBE8F0AF
:10E8E000A3E9801912E974704EEA24F612E96094E3
:10E8F00077E9940C50419016EDEAF0A3EBF08059C3
:10E9000074016F70328C828D83E0640170297A0803
:10E910007B0090147AE0F912141EEA4B4C4D7013F0
:10E9200079001214607A047B0090147AE0F91214D2
:10E930001880267E1680227E18801EC3EA9427EB5C
:10E940009400501374026F700E8C828D8312ED93BD
:10E95000120554E9FE80027E02EEF97F0602194696
:10E96000F8EB34FFF9C3E822EA24FA12E960947B59
:10E97000E9940C228C828D83E0FAA3E0FB74026F91
:10E980002274F4121874ECFEEDFF7508008A0A8BED
:10E990000B780A121ACB00031BE2EAD3E9D9E9EBA0
:10E9A000E9FDE90DEA1FEA2BEA31EA40EA4FEA55B0
:10E9B000EA5BEA6CEA71EA76EA7BEA80EA8DEA923F
:10E9C000EA97EA9CEAA1EABEEAC3EAC8EAE2EAD820
:10E9D000EA25EA90147C02EADB750A10750B0078D0
:10E9E0000A121A877C7D7D1402EAB0750A10750B35
:10E9F00000780A121A877C8D7D1402EAB090149D6B
:10EA00001216F28E828F831216FE02EAFC750A0637
:10EA1000750B00780A121A877CA17D1402EAB09067
:10EA200016C402EADB9014A702EADB9016C502EADC
:10EA3000CB9016C712EB00121A877CC87D16807027
:10EA40009014A812EB00121A877CA97D14806190A3
:10EA500014C802EADB9014C902EADB750A06750BDA
:10EA600000780A121A877CCA7D1480449014D080E2
:10EA70006A9014D180659016E780509014D2804B34
:10EA80009014DAE08E828F83F0A3E480699016E917
:10EA900080399016EB80349014DB802F9016ED8037
:10EAA0002A750A06750B00780A121A877CD47D1421
:10EAB000EEFAEFFB1212A4740212181A803E9014A0
:10EAC000DD80089014DF80039014E112F2448E82FE
:10EAD0008F83E8F0A3E9801E90147BE08E828F8301
:10EAE0008014C3EA9427EB9400500E12055A8E82CC
:10EAF0008F83EAF0A3EBF08003750802A908800E6B
:10EB0000E0F50A750B00780A22740A12181A7F04BD
:10EB100002194674F612187490147BE0703EEA4BAA
:10EB200060089014E4EAF0A3EBF075089D750914F1
:10EB30007808121A8775088D7509147808121A87D3
:10EB40007C7D7D147B0090147CE0FA90147AE0F9CF
:10EB50001210BE740412181A7900800279117F0213
:10EB6000021946D083D082020132C082C083901441
:10EB70007BE06406700F7C1312F23790147AE0F990
:10EB80001205D28002791280DA74F7121874E990B3
:10EB9000147AF090147BE4F09016E774FFF0A3F081
:10EBA0001206C290147C7404F07C107D0079007A07
:10EBB0007D7B141212BC7C107D0079007A8D7B1451
:10EBC0001212BC90149DE4F0A3F0A3F0A3F09014F3
:10EBD000C8F09014C9F09014D07407F09014D1E4E8
:10EBE000F07C7D7D147A1079021213E87C8D7D14FF
:10EBF0007A1079031213E87C9D7D147A047904124B
:10EC000013E87F0102194674F412187474F612188E
:10EC100004EAFEEBFF5480602390147AE0F91212AC
:10EC2000E68A088B09EA4509600A121454AA08AB5F
:10EC3000091212D4EEFAEF648002ED89EF544060BD
:10EC4000137C9D7D147A0479041213E2EEFAEF64CA
:10EC50004002ED89EEA2E0400302ED069016C4E00A
:10EC600070099014A7E0700302ED009014A7E06013
:10EC70000B8518828519837403F080399014C8E0DD
:10EC8000851882851983F09014C9E0C0E0740112E0
:10EC90001850D0E0F07508067509007808121A8738
:10ECA0007CCA7D147404121850AA82AB831212A479
:10ECB000740212181A9014D0E0C0E07408121850B0
:10ECC000D0E0F09014D1E0C0E07409121850D0E008
:10ECD000F0AA18AB1990147AE0F912065CE96020EA
:10ECE00090147B7408F012F285601512F23112F262
:10ECF0004488828983E58245836005790812187209
:10ED0000EE640102ED875402603590147BE06406E6
:10ED1000702812F2371208E49014D212F288601AA6
:10ED20009014D212F272121A837A027B0090147A33
:10ED3000E0F912140C740412181AEE64028048EE02
:10ED40005404600A7900121460EE64048039EE54B1
:10ED50000860399014E3E01460081470271214421C
:10ED600080229016ED121A9E9014DB121A9E7901E1
:10ED70009016EB12ED939016E912F23A12146674A3
:10ED80000412181AEE6408FAEFFB80047A007B0084
:10ED900002EB09E0FCA3E0FD2274F4121874EA24EB
:10EDA00005F8E43BF98A828B83E0246F600B24EF43
:10EDB000606D24D2606402EE7AA3E0640E60030208
:10EDC000EE7A8A828B83A3A3A3E064057004A3E098
:10EDD0006414600302EE7A8882898312F22EA3A360
:10EDE000A3E0F990147BE06406600302EE7A747F7E
:10EDF00069700302EE7A9014E412F23AEA4B607AF8
:10EE00009014E412F22EA3A312F23A8A828B83E5C5
:10EE10008245836065121872806012145A805B8884
:10EE2000828983E0641370528A828B83A3A3A3A395
:10EE3000A3A3E064017002A3E070199014E3E064FE
:10EE40000270117A087B0090147AE0F912141812FB
:10EE5000144280267A057B0012055A8A088B09E441
:10EE6000F50AF50B7808121A837A087B0090147A59
:10EE7000E0F912140C740412181A02EB0E74EC125E
:10EE80001874EAFEEBFF8E828F83A3A3E0F8EE24D2
:10EE900003F50CE43FF50DEE240AF50AE43FF50B0B
:10EEA0008E828F83A3858208858309E8602724FEEC
:10EEB000700302EF4C14700302EFB214700302EF00
:10EEC000B214700302F02114700302F130147003C5
:10EED00002F1A58072E0704B7C7D7D147A1079027E
:10EEE0001213E27C8D7D147A1079031213E27508F7
:10EEF000067509007808121A87AC0CAD0D7AA17B53
:10EF0000141212A4740212181A90147B7401F07C6B
:10EF1000C87D169016C7E0FB7A0190147AE0F912CA
:10EF20000662E9600302EFA912F285601A12F2315B
:10EF300012F244E8FAE9FBEA4B600C90147BE0F92A
:10EF40008A828B831218727F0C021946E0705185F9
:10EF50000C82850D83E0601D7CA97D149014A8E0CF
:10EF6000FB7A0090147AE0F9120662E9850882853E
:10EF70000983F0802B90147BE064026023E0640737
:10EF8000601E7A017B0090147AE0F912141EEA4B9D
:10EF90004C4D700C7A017B0090147AE0F91212FE4D
:10EFA000850882850983E0609E90147B7408F002D6
:10EFB000EF28E070F4740368701D90147BE0640621
:10EFC0007004740780E89016C4E090147B600474A9
:10EFD0000280DB740380D79016C512F2889016C4A5
:10EFE0006025E070069014A7E060269016C512F226
:10EFF00072121A837A017B0090147AE0F912140CD1
:10F00000740412181A800AE0640160039014A7E4E3
:10F01000F090147BE064077004740680917404809F
:10F020008DE0F8600302F11DEE2404F508E43FF5DD
:10F0300009750E06750F00780E121A87AC08AD0917
:10F040007AD47B141212A4740212181A850A8285CB
:10F050000B8312F2449016E712F22890147B740688
:10F06000F09014D212F28860259014D2E0F510A32B
:10F07000E0F511E4F512F5137810121A837A027B89
:10F080000090147AE0F912140C740412181AEE2489
:10F090000DF582E43FF58312F266EE240FF582E46B
:10F0A0003FF58312F25AEE2411F582E43FF5831204
:10F0B000F24E9014DAE06401703B7A1F7B00120577
:10F0C0005A8A10EA75F0E8A4C510A8F075F003A4F8
:10F0D00028F875F0E8EBA428F511E4F512F513789B
:10F0E00010121A837A047B0090147AE0F912140C3F
:10F0F000740412181A750E04780E121A8B850A827F
:10F10000850B8312ED93AA08AB09850C82850D83CC
:10F11000E0F91210CA740112181A02EF287431684B
:10F12000600302EFA99016C4E4F090147B02F01D76
:10F130001210EE7C067D0079007AD47B141212BC8A
:10F140009014DDE4F0A3F09014DFF0A3F09014E14C
:10F15000F0A3F07A04FB90147AE0F91214187A08FC
:10F160007B0090147AE0F91214189016E774FFF0FF
:10F17000A3F09014A7E0600690147B02EFD38E8278
:10F180008F83A3A3A3A3A3E0640890147B700474EB
:10F190000580027404F07A017B0090147AE0F91281
:10F1A00012FE02EF287A087B0090147AE0F912141C
:10F1B00018850882850983E0600302EF478E828FFD
:10F1C00083A3A3A3A3A3A312F2668E828F83A3A318
:10F1D000A3A3A3A3A3A312F25A850A82850B8312C9
:10F1E000F24E7A047B0090147AE0F912141EEA4B76
:10F1F0004C4D600302EF479014E612F28870030250
:10F20000EF479014E1121A9E9014DF12ED939014C0
:10F21000DD12F23A9014E612F22E12F22E12187249
:10F22000740212181A02EF47E8F0A3E9F022E0F89E
:10F23000A3E0F5838882229016E7E0FAA3E0FB22A0
:10F240008C828D8312F24822E0F8A3E0F92212F2B8
:10F25000489014E1E8F0A3E9F02212F2489014DF9C
:10F26000E8F0A3E9F02212F2489014DDE8F0A3E9F7
:10F27000F02212F27AF50B780822E0F508A3E0F507
:10F2800009E4F50A229014E412F248E8492274F4E1
:10F2900012187474F6121804E9FE9016E912F2447A
:10F2A0007583147582DDC3E098A3E099403890140B
:10F2B000DD12F2447583167582EBC3E098A3E099E2
:10F2C00040249014DF12F2449014DBE0687003A332
:10F2D000E06970129014E112F2449016EDE068704B
:10F2E00003A3E06960797A057B0012055A8A088BCE
:10F2F000099016E712F24485188285198312F228C4
:10F300009016E912F244740212185012F228901664
:10F31000EB12F244740412185012F2289014DB120B
:10F32000F244740612185012F2289016ED12F244AC
:10F33000740812185012F228AA18AB191205D8EE48
:10F340009014E3F0E4F50AF50B7808121A837A08B2
:10F350007B0090147AE0F912140C740412181A024B
:10F36000EB0974F4121874E9FE90147BE0640660F3
:10F3700005791402F3F9EA24FAF8EB12F3FC50775A
:10F38000EC24FAF8ED12F3FC506D740C121850E0F6
:10F39000F50AA3E0F50BC3E50A94F4E50B940150DC
:10F3A00056740E121850E0F508A3E0F509E508249C
:10F3B000F6F8E50912E9629476E9940C5039901652
:10F3C000E9EAF0A3EBF09016EBECF0A3EDF090146B
:10F3D000DBE50AF0A3E50BF09016EDE508F0A3E5F8
:10F3E00009F0EEF91214607A047B0090147AE0F9C7
:10F3F00012141879008002791802EB0E12E9629457
:10F400007AE9940C22C082C083900283E0A2E25089
:10F41000067A0B7B1680047A007B00120F44790079
:10F42000D083D08202013274F212187474E0121880
:10F43000048A088B09ECFEEDFF7C107D007900AAA0
:10F4400018AB191212BC742E121850E0F50AA3E082
:10F45000F50B90071612F9AE700302F52212F99B14
:10F4600065087004A3E06509600302F522900717A0
:10F4700012F994600302F52212F9A0F8740668707C
:10F4800045741012185A880C890D780C121A87903E
:10F490000716E0244BF50CA3E03400F50D780C12B0
:10F4A0001A8712FADC120EF0740412181AE970723C
:10F4B000120FC2E9F50A750B00780A121A87741246
:10F4C00012186A02F587900716E0F9A3E0C9245BD9
:10F4D000F582E43912FEF1604912FBA574116860EF
:10F4E0000302F5A1E0650A7004A3E0650B702E75B8
:10F4F0000C08750D00780C121A8712F5F81212B666
:10F50000740212181AE964017013120FC2E9F50AA5
:10F51000750B00780A121A8712F604806A79321283
:10F520000FBCAA08AB09120ABE8A0C8B0DA80CA945
:10F530000DE849700302F5D8E82424F50CE439F508
:10F540000D850C8212FEF1700302F5D812FE9D6546
:10F550000A7004A3E0650B707F750A08750B0078CC
:10F560000A121A8712F5F81212B6740212181AE962
:10F5700064017064850C82850D83E0FCA3E0FD12BC
:10F58000F5EB780A121A8774021218621212A47428
:10F590000212181AAA08AB09AC18AD1912091A8080
:10F5A0003EE0650A7004A3E0650B600302F5227576
:10F5B0000C08750D00780C121A8712F5F81212B6A5
:10F5C000740212181AE96401600302F52212F604AB
:10F5D00012F5EB750B0080AAAA08AB091209207975
:10F5E00001742012181A7F06021946EC241AF582BB
:10F5F000E43DF583E0F50A22EA2412FCE43BFDEE4B
:10F60000FAEFFB2212FAC3245B12FAB1FCA3E0FD6D
:10F610002274F212187474F01218048909ECFEEDC9
:10F62000FF7508008A828B83A385820C85830D8EEB
:10F63000828F83A385820A85830B90071612F9AE09
:10F640007060740165097055EE2402FAE43FFB1204
:10F650000EFCE9F98E828F83A3A3A3A3A3740212E5
:10F660001AA28E828F83A3A3A3A3E0F508780812C1
:10F670001A8BE9F5087808121A8B850A82850B83A4
:10F68000E0FD8E828F83E0FC850C82850D83E0FA9D
:10F69000A3E0FB7900120644740412181A790002E0
:10F6A000F97C12F99BF8A3E0F9850C82850D83E0C3
:10F6B000687003A3E0696005790802F97C12F98E8D
:10F6C00064017005790702F97CE50914603124FEB4
:10F6D000603714700302F76914700302F971147033
:10F6E0000302F7EE14700302F85514700302F86277
:10F6F00014700302F8AC14700302F8F702F84FEE2E
:10F70000FAEFFB120FE002F85C750A00750C107539
:10F710000D00780C121A87900716E0243BFAA3E03C
:10F720003400FB1212A4740212181A12FBB388825E
:10F730008983E0640470047403802C900716E0242D
:10F740001BF50CA3E03400F50D780C121A8712FAA1
:10F75000DC120F6E740212181A120F86E96003751C
:10F760000A0812FA8674058079750A00750C1075FE
:10F770000D00780C121A87900716E0244BFAA3E0CC
:10F780003400FB1212A4740212181AA818A91988BE
:10F790000C890D780C121A87900716E0244B12FA88
:10F7A000E2120F6E740212181A750C10750D0078A3
:10F7B0000C121A87900716E0243BFCA3E03400FDEE
:10F7C00074021218621212B6740212181AE9640155
:10F7D0007013120F8CE96005750A08800B12FA8607
:10F7E0007406F08003750A04850A0802F97A12F992
:10F7F000A0640C705A900717E0C8245D12F9A87035
:10F800000F7A1B7B0012137012FEDD245D12F9814A
:10F8100012FEE8603A750A10750B00780A121A8712
:10F82000EEFCEFFD1212A4740212181A120FC2128B
:10F83000FA9F245DF582E438F58312FAA2241AF5C2
:10F8400082E438F583E9F012FA86740D02F8F37554
:10F85000080702F97AEEFAEFFB120FE6E9F5080263
:10F86000F97A12F9A0640E70E6900717E0C8245FD9
:10F8700012F9A8700F7A167B0012137012FEDD24A5
:10F880005F12F98112FA9F245F12FEED6017750A6C
:10F8900010750B00780A121A87EEFCEFFD1212A405
:10F8A000740212181A12FA86740F804712F9A064B3
:10F8B0000F709C750C06750D00780C121A87AC0A37
:10F8C000AD0B12FA9F245F12FAB12410FAA3E034B0
:10F8D00000FB1212A4740212181A12FBC054047016
:10F8E0000302F96D12FACCA3A3A3A3E05404607D34
:10F8F00012FEB7F002F97A900717E0C8246112F9F6
:10F90000A8702A7A147B00121370900716E0246105
:10F91000F8A3E03400F988828983EAF0A3EBF08849
:10F9200082898312F9AE7005750808804D12FA9F1E
:10F93000246112FEED6036750A10750B00780A120C
:10F940001A87EEFCEFFD1212A4740212181A12FAB2
:10F950009F2461F582E438F58312FAA22410F5821F
:10F96000E438F58374FFF0A3F0A3F0A3F0790080EE
:10F97000068E828F83E0F9120FBCA908741002F57D
:10F98000E3F582E43AF583E50AF0A3EBF022900771
:10F9900016E0F8A3E0F5838882E02212FEC7E02299
:10F9A00090071712FA98E022F582E438F583E0F820
:10F9B000A3E0F9E8492274F61218747E00120F923F
:10F9C000E9F8600302FA74120F80900716E0F8A3BA
:10F9D00012FEBDC8241212FAB1A2E0501312FACCE2
:10F9E000E054036401700912FA9F12FAAFD2E0F0FA
:10F9F00012FAA6F8740268601D7403686005740446
:10FA0000687017790112FF0312064A12FAB912FA46
:10FA1000867404F08069790280EB74016860057473
:10FA20000568705B12FA867402F012FAA66401701F
:10FA30000E7C107D00790012FAEC1212BC80227547
:10FA400008108E097808121A8712FA86A3A3A3A3B6
:10FA5000E0240212FAE21212A4740212181A12FA24
:10FA6000B97910900716E0242BFAA3E03400FB12BA
:10FA70000EF6800B74186870047E0380027E08EE18
:10FA8000F97F0202194612FA8A2290071612FA9199
:10FA900022E0F8A312FA9822E0F5838882A322904C
:10FAA000071612FAC62212FAC3241A12FAB1222435
:10FAB00017F582E438F583E02212FAC312FAAFD2C6
:10FAC000E2F022900716E0F8A3E0C82212FAC3245D
:10FAD00018F582E438F58312FA8DA322900716E018
:10FAE000242BFCA3E03400FD12FAEC22900716E070
:10FAF0002407FAA3E03400FB2274F6121874EAFC1F
:10FB0000EBFD12FEE8700302FBA012FEAC640D6078
:10FB10000302FBA08C828D83E0F8A3E0F912FBA521
:10FB2000E8F0A3E9F07508087509007808121A874B
:10FB3000EC2402FC50010DEA2412FA50010B1212BF
:10FB4000A4740212181A12FBC0FB12FBB3EB54028E
:10FB50006025900716E0FCA3E0CC2418F582E43C75
:10FB6000F58312FEA2A3A3A3A3A3E0540260088816
:10FB7000828983740E801DEB5404601B12FECDF548
:10FB8000838A82A3A3A3A3A3A3E054046009888269
:10FB900089837410F080057900120FBC790080020F
:10FBA000790702FA8112FBA922EA2410F582E43BCC
:10FBB000F58322900716E02401F8A3E03400F9222F
:10FBC00012FF0CA3A312FAC62413F582E438F583BE
:10FBD000A3E02274F012187412F98E600302FE98EA
:10FBE00090071712FEBDF912FECDFB90071612FE0C
:10FBF000A2E0F50CEA2405FEE43BFFE82413F50E31
:10FC0000E439F50F7406650C7067850E82850F83E5
:10FC1000E0F8A2E0500E8E828F83E0A2E0500575DE
:10FC20000C078067E8540260178E828F83E05402CD
:10FC3000600E750C091205AE12FEFB120FA4802097
:10FC4000E85404700302FDC98E828F83E05404706F
:10FC50000302FDC9750C0B12059012FEFB120FB0CA
:10FC60007407650C600302FD7A12FA86740802FEBE
:10FC700016E50C24F9601414700302FD221460B51B
:10FC800014700302FD4C1460CE80D512FEB112F93F
:10FC9000A8701A7A1B7B001213708A0812FEDF24E8
:10FCA0005BF582E43AF583E508F0A3EBF012FEB1D0
:10FCB00012FAB1F508A3E0F509E508450960A1E5E8
:10FCC00008241AF50AE43509F50B120FC2E9850A72
:10FCD00082850B83F07C107D007900AA08AB0912A5
:10FCE00012BC850A82850B83E0F9600CC394115025
:10FCF00007AA08AB09120EF61212C8E5082410F57F
:10FD000082E43509F583EAF0A3EBF07908E50824ED
:10FD100012FAE43509FB120EF612FEFF120F9802DA
:10FD2000FC6012FEB112FEED6056EA2412F508E402
:10FD30003BF5097808121A8712FE9DFCA3E0FD121C
:10FD4000FF03120F9E740212181A803475090112F3
:10FD500005A2E9F5087401650870057509008003BE
:10FD6000750800A9091205A88A0A8B0BAC0AAD0B0D
:10FD7000A90812FF03120FAA80347408650C701BC7
:10FD8000850E82850F83E0540260238E828F83E08C
:10FD90005402601A12FA867409807B7409650C702B
:10FDA0000712FA86740A806E740A650C701B850E41
:10FDB00082850F83E0540460108E828F83E05404A8
:10FDC000600712FA86740B804D850E82850F83A31F
:10FDD000E0F9540160118E828F83A3E05401600723
:10FDE00012FA86740C802FE9540260118E828F8380
:10FDF000A3E05402600712FA86740E8019E95404D5
:10FE0000600F8E828F83A3E05404600512FEB780DA
:10FE10000512FA867412F012FEACF87407686014CA
:10FE2000740868600F740968600A740A6860057471
:10FE30000B68706412FF03120ABE8A088B09A808B7
:10FE4000A909E8496030E8240CF582E439F583E03B
:10FE5000F8A3E0F9880C890DE4F50EF50FE9C3135A
:10FE6000F9E813F888088909E4F50AF50B780C79A4
:10FE700008121641800C750CF4750D01750E007595
:10FE80000F00780C121A837A027B0090071CE0F9AD
:10FE900012140C740412181A7F0802194612FBA9D6
:10FEA000E022E0FCA3E0F5838C82A32212FA8AE030
:10FEB0002212FAC3245B2212FA8A74102212FEC79D
:10FEC000A3A3E0F8A3E02212FA98A3A32212FEDF74
:10FED0002418F582E43AF583E0FAA3E0228A0A9036
:10FEE0000716E0FAA3E0CA2212FAC3245DF582E401
:10FEF00038F583E0FAA3E0FBEA4B228A088B09ACD1
:10FF000008AD0912FF0CE0FAA3E0FB2290071612DD
:10FF1000FA91A3A322C082C083E990080EF0D08397
:10FF2000D082020132C082C0831211961211AE1229
:10FF300011A812120E1211DE80E474F6121874EA7F
:10FF4000FEEBFF5480601980031212D490080EE07B
:10FF5000F91212E6EA4B70F1EEFAEF648002FFE26A
:10FF6000EE54206006EE6420FA807CEE541060258A
:10FF70001211F0900813E0701790828B121A9A7A7F
:10FF8000107B0090080EE0F912140C740412181A79
:10FF9000EE6410804BEE5404600812127AEE640492
:10FFA000803EEE540260277A0190080EE0F91213A9
:10FFB000887A017B0090080EE0F91214187A017B10
:10FFC0000090080EE0F9121304EE54FC8012EEA229
:10FFD000E07A00501090080EE0F9121388EE6401E8
:10FFE000FAEFFB80027B007F02021946751A0102BC
:02FFF0000132DC
:020000040001F9
:100000007F0102194674F412187474FD121804EA80
:10001000FEEBFF8C088D09EE4F6005EC450970047E
:10002000790280517903AA18AB19120EF6740212E4
:100030001850E0543F4440F07808121A87740212B6
:10004000186AEEFAEFFB120EDE740212181AE9FEBD
:100050007021750A03750B00780A121A8774021250
:10006000186AE5082403FAE43509FB1212A47402A5
:1000700012181AEEF97403801B121850AC82AD836B
:10008000743E12185012853A1212AA740212181AEB
:10009000EEF9743012181A7F0402194674F412181B
:1000A0007474FA1218048A088B09ECFEEDFFEA4515
:1000B000096004EE4F700479028074750A03750BB1
:1000C00000780A121A87EE2403FCE43FFD74021242
:1000D00018621212A4740212181A7402121850E054
:1000E000543F4440F0740312185A880A890B780A66
:1000F000121A87740212186AAA08AB09120EDE746B
:100100000212181AE9F970277508037509007808B2
:10011000121A87EEFCEFFD74051218621212B67403
:100120000212181AE96401700479008002790174DE
:100130000602809474F412187489081282197003EC
:10014000028208E508705C128213E0750A08750BDC
:1001500000780A702E121A87EAFCEBFD900714E073
:100160002402FAA3E03400FB1212A4740212181A3B
:10017000120914E9700812820D74010282037508D5
:1001800001801B121A87EAFCEBFD900714E0240A99
:10019000FAA3E03400FB1212A4740212181A12829D
:1001A0001960617A127B001212CE8A0A8B0BAE0A9A
:1001B000AF0BEE4F603E8E828F8374C1F0A3E508D3
:1001C000F0750A10750B00780A121A87900714E070
:1001D0002402FCA3E03400FDEE2402FAE43FFB120B
:1001E00012A4740212181AEEFAEFFB12820DA3E0A9
:1001F000F91212DA90071412853A12137690071446
:10020000E4F0A3F07901800279000280979007144E
:10021000E0F8A3E0F583888222900714E0F8A3E0D9
:10022000F9E8492274F21218747A207B0012055AF8
:100230008A088B09E4F50AF50B8B0DEA450D60166B
:100240007808121A837A017B0090071CE0F91214D7
:100250000C740412181A7F06021946C082C0837AF1
:10026000017B0090071CE0F912141802857F74F4DA
:1002700012187474D01218048A088B09ECFEEDFF72
:100280007C307D007900AA18AB191212BC750A10D7
:10029000750B00780A121A87AC08AD09740212189F
:1002A000621212AA740212181A75080375090078EE
:1002B00008121A87EEFCEFFD741F121850AA82ABC9
:1002C000831212AA740212181AAA18AB19120F0874
:1002D000E9FE7808121A87742F02807974F21218D6
:1002E0007474B01218048A088B09ECFEEDFF890AB9
:1002F0007C307D00790074201218621212BC750CDB
:1003000010750D00780C121A87AC08AD0974221212
:1003100018621212AA740212181A7C107D00790059
:10032000AA18AB191212BC750807750900780812D3
:100330001A877460121850128534740212186212EF
:1003400012AA740212181A7808121A877462121804
:10035000501285347409121850AA82AB831212AA63
:10036000740212181A7464121850E06009740E12A4
:10037000185074018006740E121850E4F0E50A60FB
:1003800009740F12185074018006740F121850E48B
:10039000F07C107D007900EC1218621212BC750816
:1003A000067808121A87746412185012853474166D
:1003B000121850AA82AB831212AA740212181A7869
:1003C00008121A877467121850128534741C121898
:1003D00050AA82AB831212AA740212181A7508105E
:1003E0007808121A87EEFCEFFD7432121850AA82B8
:1003F000AB831212AA740212181AAC18AD19743019
:10040000121850AA82AB83120EEA742012186212DC
:100410000F08E9FF7808121A877442121850AC824C
:10042000AD837432121850AA82AB831212A47402E4
:1004300012181A741012186A7430121850AA82AB6B
:1004400083120EEA7420121862120F08E9FE78086F
:10045000121A877442121850AC82AD837469121854
:100460005012853A1212AA740212181AEF4EF97439
:100470005012181A02825674F712187478108C826F
:100480008D83E0F98A828B83E069F0A3AA82AB8333
:100490008C828D83A3AC82AD83D8E302800074F696
:1004A00012187474D0121804ECFEEDFF7508107564
:1004B00009007808121A87EAFCEBFD740212186230
:1004C0001212AA740212181A7508087808121A87EC
:1004D000EEFCEFFD7412121850AA82AB831212AA1E
:1004E000740212181A7808121A87743C12185012E3
:1004F0008534741A121850AA82AB831212AA74029D
:1005000012181AAA18AB19120F08E9FE750810780C
:1005100008121A877422121850AC82AD83743E12EE
:10052000185012853A1212AA740212181AEEF974AF
:10053000300285F7E0FCA3E0FD22E0FAA3E0FB2215
:1005400074F4121874EAFEEBFF8909750800801B29
:100550001212C8A808128D32EBF00508E508C39501
:1005600009500808128D32EAF00508E508C395091C
:1005700040DE028097C082C0838A828B83E0F9D0FC
:1005800083D08202013274F6121874E9FCA2E250A0
:1005900004D2F08002C2F0A2F0E433F5087509003D
:1005A000E9A2E35004D2F08002C2F08A828B83E099
:1005B00054FCFEA3E0FFEE4CFCEFFDEC54FBFC749E
:1005C0000278081217F1EC45085407FCA2F0E43356
:1005D000F508740378081217F1EC4508FCE9C454D7
:1005E0000FF508740478081217F1EC45088A828B1D
:1005F00083F0A3EDF0800312181A7F0202194674EB
:10060000F6121874EA2420F508E43BF5097808127C
:100610001A87EA2410FCE43BFD120F0E740280D707
:10062000C082C083851882851983121A9E120B30EE
:10063000740212181A02857F74E812187474E81292
:1006400018048A0A8B0B89178C088D09EA450B6000
:1006500005EC45097005790202877C740429F516BA
:10066000FA7B001213708A0C8B0DAE0CAF0DEE4F9F
:1006700070030287771205968A0C8B0D8C0E8D0FF6
:100680008517107511007810121A87AC0AAD0BEEA1
:100690002404FAE43FFB1212AA740212181A8E8282
:1006A0008F83A3A3A3E50CF0E50DF5158E828F8350
:1006B000A3A3F0850C10F511850E12850F1374108D
:1006C0007810121609E510F5148E828F83A3F08539
:1006D0000C10850D11F512850F1374187810121671
:1006E00009E510F50A8E828F83F01205908A108B2F
:1006F00011AC10AD117510107511007810121A8719
:10070000740A1218621212AA740212181AA818A9EE
:1007100019881089117810121A87A916EEFCEFFDBE
:10072000740A121862120F20740212181AE9F50BDB
:10073000703C850882850983E50CF0A3E5151287D6
:1007400086E514128786A3E50AF0750C08750D007E
:10075000780C121A87740212186AE5082404FAE465
:100760003509FB1212AA740212181A12059CEEFA2D
:10077000EFFB1213768003750B13A90B7418121874
:100780001A7F10021946F0850882850983A3A322E7
:1007900074E812187474DD1218047401121850EA07
:1007A000F0A3EB128BDF8C168D17EC45177003024C
:1007B000885C743C12185012898D700302885C7436
:1007C0000112185012853A120ABE8A148B15EA4596
:1007D0001570057914028988850882850983E0F5FA
:1007E00010E4F511F512F513A3E0F50CE4F50DF5A1
:1007F0000EF50F7408780C1216227810790C121668
:1008000041850882850983A3A3E0F50CE4F50D7406
:1008100010780C1216227810790C12164185088275
:10082000850983A3A3A3E0F50CE4F50E7418780CF6
:100830001216227810790C121641EA2420F582E46F
:100840003515F583780C1216C87810790C1214DB64
:10085000400F90825B780C1214C660057902028901
:1008600088851882851983E060118A828B83A3A30F
:10087000A3E0A2E1400579010289887C087D007926
:100880000074031218621212BC743B121850E0F587
:100890000E7404250EF50AFA7B001213708A0C8B75
:1008A0000DAE0CAF0DEE4F70057913028988750FF0
:1008B00000780E121A87AC16AD17EE2404FAE43F46
:1008C000FB1212AA740212181A750C04750D007826
:1008D0000C121A87AC08AD09EEFAEFFB1212AA74DB
:1008E0000212181A750C10780C121A87E5142410CD
:1008F000FCE43515FD74151218621212AA74021266
:10090000181A740312185A880C890D780C121A8759
:10091000A90AEEFCEFFD7415121862120F20740282
:1009200012181AE9F50A7057750C08750D00780C45
:10093000121A87740512186A740D1218621212AA1C
:10094000740212181A780C121A87E5082404FCE4C1
:100950003509FD740D1218621212B6740212181ABB
:10096000E964016005750A0180157810121A837414
:100970000512185012853A1205FC740412181AEE6A
:10098000FAEFFB121376A90A742302877EE0F508BA
:10099000A3E0F509E50845092274E812187474ED1E
:1009A0001218047401121850ECF0A3ED128BDF8AB8
:1009B000168B177A107B001213708A128B137A1021
:1009C0007B001213708A108B11E51245137003021D
:1009D0008BBCEA45117003028BBC7810121A87ACED
:1009E00012AD13AA16AB17120F26740212181AE9C9
:1009F000FE6003028BC47A107B001213708A0C8B8A
:100A00000D7A107B001213708A0E8B0FE50C450DCA
:100A10007003028B9EEA450F7003028B9E8518823D
:100A2000851983E07900240FF85001097A107B00C2
:100A300012177188088909E0540FF50AE845097012
:100A4000087508017509008008E50A70047C0180BA
:100A5000027C00E50814C454F0F87401121850E048
:100A600028FAA3E03400FBECA2E0500B780E121A37
:100A700087AC12AD138048AF0A750A00A80A740348
:100A8000121850E58228FCE43583FDE8C39F500925
:100A9000128D288C828D83800EEF650A8C828D8367
:100AA000700474808001E4F0050AE50AC3941040E4
:100AB000CB780E121A87AC10AD11740512186212A1
:100AC0000F2C740212181A7C107D007900AA0CAB4E
:100AD0000D1212BC750A00750B00804D74031218BC
:100AE0005A881489157814121A87E50AC454F0F844
:100AF0007403121850E028FCA3E03400FDAA0CABEC
:100B00000D120F2C740212181A780C121A87740521
:100B100012186AAA16AB17120F0E740212181AE9ED
:100B2000FE050AE50A7002050BE50824FFF8E50951
:100B300034FFF9C3E50A98E50B99A2D265D033508A
:100B400003EE6098EE705F740312185A88088909E2
:100B50007808121A87AC0EAD0FAA0CAB0D120F2C31
:100B6000740212181A780C121A87740512186AAADD
:100B700016AB17120F0E740212181AE9FE75080848
:100B80007509007808121A87AC0CAD0D742D121877
:100B90005012853A1212A4740212181A80087E1399
:100BA000E50C450D6007AA0CAB0D121376E50E455A
:100BB0000F6011AA0EAB0F12137680087E13E51298
:100BC00045136007AA12AB13121376E510451160A6
:100BD00007AA10AB11121376EEF9741302877EF098
:100BE000E9851882851983F02274EE1218748A0838
:100BF0008B098C0E8D0F7A107B001213708A0C8B70
:100C00000D7A107B001213708A0A8B0BAE0AAF0BA1
:100C1000E50C450D7003028CCAEE4F7003028CCABE
:100C20007C107D0079001212BC780C121A87EEFC41
:100C3000EFFDAA08AB09120F0E740212181AE9F59B
:100C40000A6003028CD3750812750981850C8285B0
:100C50000D83E0A2E7400DAC0EAD0FAA0CAB0D1258
:100C60000F328020EEFCEFFDAA0CAB0D120F327894
:100C70000E121A87AC08AD09EEFAEFFB120F2C74B6
:100C80000212181A7412121850E0F510A3E0F511B0
:100C9000850E82850F83E0A2E7400DAC10AD11AA4E
:100CA0000EAB0F120F32802BEEFCEFFDAA0EAB0F36
:100CB000120F327810121A87AC08AD09EEFAEFFB6A
:100CC000120F2C740212181A8009750A13E50C45CC
:100CD0000D6007AA0CAB0D121376EE4F6007EEFA0B
:100CE000EFFB121376A90A7F0A02194674F612184E
:100CF00074750800740A121850E0F8A3E0F9E8FED1
:100D0000E9FFA808EC28F582E43DF583E0F5091237
:100D10008D286509C0E0128D32D0E0F00508E508A5
:100D2000C3941040DD0285FAEA28F582E43BF5839E
:100D3000E022EE28F582E43FF5832274F512187460
:100D400075080075090FE509F83395E0F9EA28FE02
:100D5000EB39FF8E828F83E0C3334508C0E0EC2877
:100D6000F582ED39F583D0E0F08E828F83E0A2E743
:100D7000E433F50874FF28F509C39400A2D265D0C6
:100D80003350C37F0302194674EE1218748A088B1D
:100D900009890B8C0E8D0F90071FE07009900721B9
:100DA000E07003028E55900308E06003028E5589BF
:100DB0000C750D00E92407FAE43400FB1212CE8A08
:100DC000108B11AE10AF11EE4F7003028E667418C7
:100DD0006508700474206509600C74176508700458
:100DE000742065097010900721E0600AF50A8E8270
:100DF0008F837492800C90071FE0F50A8E828F8398
:100E00007491F0A3740E1296B674011296BEE508A2
:100E1000F0A3E509F0EE2405F8E43FF9E8FAE9FB70
:100E2000EE2407F8E43FF98A828B83E8F0A3E9F027
:100E3000780C121A87AC0EAD0F8A828B83E0FAA36E
:100E4000E0FB1212A4740212181AEEFAEFFBA90AC0
:100E50001212DA8011780E121A87AC0B790E120971
:100E60005C740212181A7F0A02194674F51218747B
:100E7000890AEAFEEBFF90071FE06039900308E063
:100E800070337A067B001212CEEA4B60358A828B71
:100E9000837491F0A3740F12905AA3A3E50A1294DD
:100EA00020740112942FEEF0A3EFF090071FE0F9E9
:100EB0001212DA800DEEFCEFFDAA0A7B00790F1208
:100EC00009567F0302194612978C128ED4740412AD
:100ED0008ED4A322128ED822F088828983E0FCA3CC
:100EE000E0F5838C822274F712187474FC121804D3
:100EF000EA851882851983F074011218507401F084
:100F00007402121850ECF07403121850EDF0AC1883
:100F1000AD197A04120962740412181A7F010219B9
:100F20004674F212187489098A0A8B0B8C087407AC
:100F30002CFA74FF65096004780380027802E82ABD
:100F4000FA7B001212CE8A0C8B0DAE0CAF0DEE4F59
:100F5000700302903F8E828F837401F0A374FFF0C0
:100F6000EE2402FAE43FFBEE2404F8E43F1290E89A
:100F7000E50912905AE02402F8A3E03400F9890D43
:100F8000E50BF9740E12185012933174FF65096065
:100F90002E740325088882850D831290E1A37401C5
:100FA000129064E50A129064A3E9F085080A750BB3
:100FB00000780A121A878A828B83E024068066747E
:100FC0000225088882850D83F08C828D83E0C0E045
:100FD0008A828B83129044D0E0F08C828D83A3E0D0
:100FE000C0E012904FD0E0F08C828D83A3A3E0C0CC
:100FF000E012904FA3D0E0129053129324E50A120E
:101000009053129328E9F0E50824FDF50AE434FF33
:10101000F50B780A121A87EC2403FC50010D8A8222
:101020008B83E02408FAA3E03400FB1212A47402BC
:1010300012181AEEFAEFFB90071DE0F91212DA7F90
:10104000060219461290482212952AA3A3A322123F
:1010500090692212905A1295122212905E22F08A02
:10106000828B8322F0129069228A828B83129048AD
:10107000A32274F2121874890A8A0BECFEEDFF7435
:10108000072AFA7B001212CE8A088B09EA4509600A
:101090004D129378E435090A0AFBE5082404F8E4C4
:1010A00035091290E8E50A1290E1E50BF06023F5AE
:1010B0000C750D00780C121A87EEFCEFFD8A828BFE
:1010C00083E02403FAA3E03400FB1212A47402129A
:1010D000181AAA08AB0990071DE0F91212DA02905B
:1010E0003F12905A12936B22F98A828B83E8F0A305
:1010F000E912951F740412951FA3227F100219464E
:1011000074E81218748917EAFEEBFF8C168D1374BD
:101110001A121850E0F50CA3E0F50D741C121850CB
:10112000E0F508A3E0F509741E121850E0F50AA3D3
:10113000E0F50B7420121850E0F51290071FE070D4
:10114000030292067A157B001212CE8A0E8B0FEAEA
:10115000450F70030293211293377401F0EA2408BB
:10116000FAE4350FFBE50E2403F582E4350FF58331
:10117000E517701EE4F0751006F5117810121A8745
:10118000741A1218501293311212A4740212181AFF
:10119000800C7431F07C067D0079001212BC850E43
:1011A00082850F83A3A3A3A3EEF0A3EF12934BE5D5
:1011B0001612934BA3E513F0E50E240EF582E435E9
:1011C0000FF583E50CF0A3E50DF0E50E2410F58294
:1011D000E4350FF583E508F0A3E509F0E50E2412E8
:1011E000F582E4350FF583E50AF0A3E50BF0E50E93
:1011F0002414F582E4350FF583E512F0AA0EAB0F47
:1012000090071F02931C900314E0A2E5500890037E
:101210000CE0A2E040030293217A1A7B001212CE66
:101220008A108B11EA45117003029321129378F50D
:101230000EE43511F50FEA2404F8E43511F9850EB2
:1012400082850F83E8F0A3E9129355740412935535
:10125000A3743E12935C741312935CA374011293F3
:1012600071E517129371A3EE12938B129324EF1270
:10127000938B129328E51612938B1294FFE513F0CB
:101280007514067515007814121A87741A121850FE
:10129000129331850E82850F83E02409FAA3E0348E
:1012A00000FB1212A4740212181A129508240FF5EA
:1012B00082E438F583E50CF0E50DF50C1295082471
:1012C00010F582E438F583E50C12938B2411F58236
:1012D000E438F583E508F0E509F5081295082412CD
:1012E000F582E438F583E50812938B2413F582E444
:1012F00038F583E50AF0E50BF50A1295082414F594
:1013000082E438F583E50A12938B2415F582E438DC
:10131000F583E512F0AA10AB1190071DE0F9121247
:10132000DA0290FB129417222407F582E438F58341
:1013300022E0FCA3E0FD228A828B83749112934108
:1013400022F0A3743E12905EA3A322129363A3A380
:10135000A3A3A3A3221293631295222212936312D2
:10136000936B22F0850E82850F8322129526A3A30C
:101370002212936312906D2212937C228A828B83B5
:101380007401F0A374FFF0EA240222129363129511
:10139000122274F4121874EAFEEBFF890890071FFA
:1013A000E0602E7A067B001212CEEA4B605F8A82E2
:1013B0008B837491F0A3740512905AA3A3E4129442
:1013C00020EEF0A3EF12942FA3E508F090071F8002
:1013D0003790030DE0A2E450347A0B7B001212CE5A
:1013E000EA4B6029128EC774051294347404129467
:1013F00034A3E412943EEE12943EA3EF1296B01280
:101400009410E508F090071DE0F91212DA02971720
:10141000129512129417222406F582E438F58322DD
:10142000129424221294282212905EA3A3A32212C3
:101430009424A32212943822128ED8A3A3221294A9
:1014400038A3A32274F41218748908EAFEEBFF8C07
:101450000990030EE0A2E340030294FC7A0F7B00A4
:101460001212CEEA4B70030294FC129378F50AE450
:101470003BF50BEA2404F8E43BF9850A82850B83EB
:10148000E8F0A3E91295187404129518A3740C12CD
:1014900095337408129533A3E50812953AEE129528
:1014A0003AA3EF129549129324E509F0740C12182F
:1014B00050129331850A82850B8312950E12932860
:1014C000EC1295491294FFEDF0740E121850E0F8EA
:1014D000A3E0F9850A82850B83E0FCA3E0CC240914
:1014E000F582E43CF583E8129549240AF582E43854
:1014F000F583E9F090071DE0F91212DA029717243C
:1015000008F582E438F58322850E82850F831295D3
:101510001222E0F8A3E0C82212954112952222126D
:10152000905E1295262212952A22E0F8A3E0F58318
:1015300088822212954112936B2212954112906D6E
:1015400022F0850A82850B83221295411295122280
:1015500074EC1218748A0C8B0D8C0E8D0F7414128F
:101560001850E0F50AA3E0F50B850A82F583A38500
:101570008210858311900721E060777A0F7B00123B
:1015800012CE8A088B09AE08AF09EE4F700302969F
:10159000AB8E828F837492F0A3743E1296B674055C
:1015A0001296BEE50CF0A3E50DF07508087509006C
:1015B0007808121A87AC0EAD0FEE2405FAE43FFB53
:1015C0001212A4740212181A850A82850B83E0FA9B
:1015D000851082851183E0F9EAF8EE240DF582E4A6
:1015E0003FF583E8F0A3E9F0EEFAEFFB9007210264
:1015F00096A6900314E0A2E5500890030CE0A2E444
:101600004006120B780296AB7A147B001212CE8A37
:10161000088B09EA450970030296AB129378F8E447
:101620003509F9EA2404FAE43509FB88828983EA5A
:10163000F0A3EB1296B0E0FEA3E0FF8E828F8374DE
:1016400004F0A3743EF0A3740DF0A37405F0A3E5B9
:101650000CF0A3E50DF0A3AE82AF83750C08750DF9
:1016600000780C121A87AC0EAD0FEEFAEFFB1212D7
:10167000A4740212181AEE2408FE50010F850A8283
:10168000850B83E08E828F83F085100A85110BA372
:101690000EAF83850A82850B83E08E828F83F0AA4A
:1016A00008AB0990071DE0F91212DA7F0C02194607
:1016B000F08882898322F08E828F83A3A3221296E0
:1016C000B6A32274F4121874EAFEEBFF89088C09A1
:1016D000900721E060167A077B001212CEEA4B6079
:1016E000361297A3E509F0900721802690030DE0BC
:1016F000A2E750237A0B7B001212CEEA4B6018123D
:1017000097787408F0A3740412976CA3E509F0901D
:10171000071DE0F91212DA7F0402194674F4121858
:1017200074EAFEEBFF8908900721E060167A077BD8
:10173000001212CEEA4B60321297A37401F09007A8
:10174000218022900312E0A2E7501F7A0A7B001248
:1017500012CEEA4B60141297787430F0A37403121F
:10176000976C90071DE0F91212DA80ABF0A3E50840
:10177000F0A3EEF0A3EFF02212978C1296B0E0F8EF
:10178000A3E0F9888289837404F0A32212937CF881
:10179000E43BF9EA2404FCE43BFD88828983ECF015
:1017A000A3ED228A828B837492129341740812945F
:1017B00024EEF0A3EF1297BFE5081297BFA3221201
:1017C0009428A3A32274F01218747901120D58E919
:1017D000640170679004CFE06401701F120DDC7A21
:1017E000BC7B04120D4C9004CCE4F075E1F17A025C
:1017F000FB900375E0F91212FE8040120CBC12A09F
:101800003D12165412A00E121641908223780C122B
:1018100016A28A828B83780C1216D7908273780C6A
:10182000121654908223780C1216A212A0A0780CE3
:101830001216D712A08B741312A022029FAF74EC61
:101840001218747901120D58E964016003029D2198
:101850009004CCE4F07ABC7B04120D4C120C688A24
:10186000088B09AE08AF098E828F83A3A3A37401EE
:10187000F09003A3E004F07940120D468A088B092A
:10188000A808A9098E828F83E8F0A3E9F0E824066E
:10189000FCE439FDE82402FAE439FB120DE8E5D94D
:1018A000E5D9A2E6E433C0E0EE2409F582EF340185
:1018B000F583D0E0F0EE2403F8EF3401F9E8497045
:1018C000087806E5D9D8FC801DEE2403F582EF34B4
:1018D00001F583E5822406F8E43583F9129D8970C9
:1018E00003E9658370F67806E5D9D8FCEE24221268
:1018F0009D6A70087804E5D9D8FC8016129D51E5E0
:10190000822404F8E43583F9129D897003E9658324
:1019100070F6129D511216E6120E4EEE2426129DFE
:101920006A70087803E5D9D8FC8016129D47E582D5
:101930002403F8E43583F9129D897003E965837007
:10194000F6129D4778081216C8908223780812165E
:10195000A2AA08AB09AC0AAD0B120E24E5D9C0E06F
:10196000129D60D0E0F0EE242C129D6A7006E5D93D
:10197000E5D9801AE5D9C0E0129D3DD0E0F0E5D967
:10198000C0E0EE242DF582E43FF583D0E0F0EE24B4
:101990002E129D6A7006E5D9E5D9801AE5D9C0E016
:1019A000129D71D0E0F0E5D9C0E0EE242FF582E47D
:1019B0003FF583D0E0F0129D5BC333F0EE242C1290
:1019C0009DD6242E129DD62420129D6A7006E5D93C
:1019D000E5D9801AE5D9C0E0129D33D0E0F0E5D911
:1019E000C0E0EE2421F582E43FF583D0E0F0EE2460
:1019F00032129D6A7006E5D9E5D98020E5D9C0E0AC
:101A0000EE2432F582E43FF583D0E0F0E5D9C0E082
:101A1000EE2433F582E43FF583D0E0F0E8FAE9FB09
:101A20008A828B83E0F50AA3E0F50B7404780A122E
:101A300017F1850A08850B098A828B83E508F0A3D4
:101A4000E509F0E4F50AF50B129D33E02401F50CED
:101A5000A3E03400F50DE4F50EF50F129D71E0F8EA
:101A6000A3E0F9E828F8E933F988108911E4F512C0
:101A7000F513780C791012151A7808790C1214DB0A
:101A80005008129D71129FBA70167A407B00900325
:101A900075E0F91212FEEEFAEFFB120C86029D21A0
:101AA000EE242BFCE43FFDEEFAEFFB120C98EE2443
:101AB0000BF582E43FF5837405F0A3E4F0EEFAEF52
:101AC000FB120C9EEE245D129D6A700A7805E5D922
:101AD00018E8601E80F8EE245DF582E43FF583E5AA
:101AE000822405F8E43583F9129D897003E9658342
:101AF00070F6E5D9F50CC4135407F9EE242AF582E3
:101B0000E43FF583E9F012283F129D29EAF0A3EBA8
:101B1000F0E50C541FC0E0EE2437F582E43FF58376
:101B2000D0E0F0EE245DFCE43FFDEEFAEFFB120C9A
:101B300062120EAE120E487904120E547901120E82
:101B40008A9060607480F075E1F19015F1129D91BA
:101B5000129D917422F0A3740D129D977494F0A3BA
:101B6000740DF09015FF129DA2A3129DA27A047B22
:101B700000900375E0F91212FEEE242C129DEA8A01
:101B80000C8B0DE4F50EF50F908277780C1216543D
:101B9000EA4B600C129D3DE064027002A3E0702FDE
:101BA000EE242E129D7B780C79081216417C027D62
:101BB00000EEFAEFFB121BC8E9F912294A8E828F58
:101BC00083129DC78E828F83A3A3129DC780107C32
:101BD000017D00EEFAEFFB121BC8E9F912294A8ECB
:101BE000828F8312A05A780C12166790822378088D
:101BF0001216C88A828B8378081216B5EE2412F565
:101C000008E43FF5097808121A87129D29121A9ED6
:101C1000EE241DF582E43FF583121A9EAA0CAB0D4B
:101C2000AC0EAD0F122892740612181AEE2418F595
:101C300082E43FF583780C1216D7AC08AD09129DEB
:101C4000B91227CE7CD47D81129DB91227CE8E8207
:101C50008F83E0F8A3E0F988828983A3A3E82408AE
:101C6000FCE439FD74061217178E828F83E0F50AA3
